{
	"aksimplecoin.sol": {
		"AkCoin": {
			"abi": [
				{
					"inputs": [],
					"stateMutability": "nonpayable",
					"type": "constructor"
				},
				{
					"inputs": [
						{
							"internalType": "uint256",
							"name": "requested",
							"type": "uint256"
						},
						{
							"internalType": "uint256",
							"name": "available",
							"type": "uint256"
						}
					],
					"name": "InsufficientBalance",
					"type": "error"
				},
				{
					"anonymous": false,
					"inputs": [
						{
							"indexed": false,
							"internalType": "address",
							"name": "from",
							"type": "address"
						},
						{
							"indexed": false,
							"internalType": "address",
							"name": "to",
							"type": "address"
						},
						{
							"indexed": false,
							"internalType": "uint256",
							"name": "amount",
							"type": "uint256"
						}
					],
					"name": "Sent",
					"type": "event"
				},
				{
					"inputs": [
						{
							"internalType": "address",
							"name": "",
							"type": "address"
						}
					],
					"name": "balances",
					"outputs": [
						{
							"internalType": "uint256",
							"name": "",
							"type": "uint256"
						}
					],
					"stateMutability": "view",
					"type": "function"
				},
				{
					"inputs": [
						{
							"internalType": "address",
							"name": "receiver",
							"type": "address"
						},
						{
							"internalType": "uint256",
							"name": "amount",
							"type": "uint256"
						}
					],
					"name": "mint",
					"outputs": [],
					"stateMutability": "nonpayable",
					"type": "function"
				},
				{
					"inputs": [],
					"name": "owner",
					"outputs": [
						{
							"internalType": "address",
							"name": "",
							"type": "address"
						}
					],
					"stateMutability": "view",
					"type": "function"
				},
				{
					"inputs": [
						{
							"internalType": "address",
							"name": "receiver",
							"type": "address"
						},
						{
							"internalType": "uint256",
							"name": "amount",
							"type": "uint256"
						}
					],
					"name": "send",
					"outputs": [],
					"stateMutability": "nonpayable",
					"type": "function"
				}
			],
			"devdoc": {
				"kind": "dev",
				"methods": {},
				"version": 1
			},
			"evm": {
				"assembly": "    /* \"aksimplecoin.sol\":65:856  contract AkCoin{... */\n  mstore(0x40, 0x80)\n    /* \"aksimplecoin.sol\":211:289  constructor(){... */\n  callvalue\n  dup1\n  iszero\n  tag_1\n  jumpi\n  revert(0x00, 0x00)\ntag_1:\n  pop\n    /* \"aksimplecoin.sol\":240:250  msg.sender */\n  caller\n    /* \"aksimplecoin.sol\":234:239  owner */\n  0x01\n  0x00\n    /* \"aksimplecoin.sol\":234:250  owner=msg.sender */\n  0x0100\n  exp\n  dup2\n  sload\n  dup2\n  0xffffffffffffffffffffffffffffffffffffffff\n  mul\n  not\n  and\n  swap1\n  dup4\n  0xffffffffffffffffffffffffffffffffffffffff\n  and\n  mul\n  or\n  swap1\n  sstore\n  pop\n    /* \"aksimplecoin.sol\":276:282  100000 */\n  0x0186a0\n    /* \"aksimplecoin.sol\":260:268  balances */\n  0x00\n    /* \"aksimplecoin.sol\":260:275  balances[owner] */\n  0x00\n    /* \"aksimplecoin.sol\":269:274  owner */\n  0x01\n  0x00\n  swap1\n  sload\n  swap1\n  0x0100\n  exp\n  swap1\n  div\n  0xffffffffffffffffffffffffffffffffffffffff\n  and\n    /* \"aksimplecoin.sol\":260:275  balances[owner] */\n  0xffffffffffffffffffffffffffffffffffffffff\n  and\n  0xffffffffffffffffffffffffffffffffffffffff\n  and\n  dup2\n  mstore\n  0x20\n  add\n  swap1\n  dup2\n  mstore\n  0x20\n  add\n  0x00\n  keccak256\n    /* \"aksimplecoin.sol\":260:282  balances[owner]=100000 */\n  dup2\n  swap1\n  sstore\n  pop\n    /* \"aksimplecoin.sol\":65:856  contract AkCoin{... */\n  dataSize(sub_0)\n  dup1\n  dataOffset(sub_0)\n  0x00\n  codecopy\n  0x00\n  return\nstop\n\nsub_0: assembly {\n        /* \"aksimplecoin.sol\":65:856  contract AkCoin{... */\n      mstore(0x40, 0x80)\n      callvalue\n      dup1\n      iszero\n      tag_1\n      jumpi\n      revert(0x00, 0x00)\n    tag_1:\n      pop\n      jumpi(tag_2, lt(calldatasize, 0x04))\n      shr(0xe0, calldataload(0x00))\n      dup1\n      0x27e235e3\n      eq\n      tag_3\n      jumpi\n      dup1\n      0x40c10f19\n      eq\n      tag_4\n      jumpi\n      dup1\n      0x8da5cb5b\n      eq\n      tag_5\n      jumpi\n      dup1\n      0xd0679d34\n      eq\n      tag_6\n      jumpi\n    tag_2:\n      revert(0x00, 0x00)\n        /* \"aksimplecoin.sol\":86:124  mapping(address=>uint) public balances */\n    tag_3:\n      tag_7\n      0x04\n      dup1\n      calldatasize\n      sub\n      dup2\n      add\n      swap1\n      tag_8\n      swap2\n      swap1\n      tag_9\n      jump\t// in\n    tag_8:\n      tag_10\n      jump\t// in\n    tag_7:\n      mload(0x40)\n      tag_11\n      swap2\n      swap1\n      tag_12\n      jump\t// in\n    tag_11:\n      mload(0x40)\n      dup1\n      swap2\n      sub\n      swap1\n      return\n        /* \"aksimplecoin.sol\":297:505  function mint(address receiver,uint amount) public {... */\n    tag_4:\n      tag_13\n      0x04\n      dup1\n      calldatasize\n      sub\n      dup2\n      add\n      swap1\n      tag_14\n      swap2\n      swap1\n      tag_15\n      jump\t// in\n    tag_14:\n      tag_16\n      jump\t// in\n    tag_13:\n      stop\n        /* \"aksimplecoin.sol\":130:150  address public owner */\n    tag_5:\n      tag_17\n      tag_18\n      jump\t// in\n    tag_17:\n      mload(0x40)\n      tag_19\n      swap2\n      swap1\n      tag_20\n      jump\t// in\n    tag_19:\n      mload(0x40)\n      dup1\n      swap2\n      sub\n      swap1\n      return\n        /* \"aksimplecoin.sol\":580:853  function send(address receiver,uint amount) public {... */\n    tag_6:\n      tag_21\n      0x04\n      dup1\n      calldatasize\n      sub\n      dup2\n      add\n      swap1\n      tag_22\n      swap2\n      swap1\n      tag_15\n      jump\t// in\n    tag_22:\n      tag_23\n      jump\t// in\n    tag_21:\n      stop\n        /* \"aksimplecoin.sol\":86:124  mapping(address=>uint) public balances */\n    tag_10:\n      mstore(0x20, 0x00)\n      dup1\n      0x00\n      mstore\n      keccak256(0x00, 0x40)\n      0x00\n      swap2\n      pop\n      swap1\n      pop\n      sload\n      dup2\n      jump\t// out\n        /* \"aksimplecoin.sol\":297:505  function mint(address receiver,uint amount) public {... */\n    tag_16:\n        /* \"aksimplecoin.sol\":378:383  owner */\n      0x01\n      0x00\n      swap1\n      sload\n      swap1\n      0x0100\n      exp\n      swap1\n      div\n      0xffffffffffffffffffffffffffffffffffffffff\n      and\n        /* \"aksimplecoin.sol\":366:383  msg.sender==owner */\n      0xffffffffffffffffffffffffffffffffffffffff\n      and\n        /* \"aksimplecoin.sol\":366:376  msg.sender */\n      caller\n        /* \"aksimplecoin.sol\":366:383  msg.sender==owner */\n      0xffffffffffffffffffffffffffffffffffffffff\n      and\n      eq\n        /* \"aksimplecoin.sol\":358:460  require(msg.sender==owner,\"You are not the owner of the contract. You stand no right to mint a coin.\") */\n      tag_25\n      jumpi\n      mload(0x40)\n      0x08c379a000000000000000000000000000000000000000000000000000000000\n      dup2\n      mstore\n      0x04\n      add\n      tag_26\n      swap1\n      tag_27\n      jump\t// in\n    tag_26:\n      mload(0x40)\n      dup1\n      swap2\n      sub\n      swap1\n      revert\n    tag_25:\n        /* \"aksimplecoin.sol\":490:496  amount */\n      dup1\n        /* \"aksimplecoin.sol\":470:478  balances */\n      0x00\n        /* \"aksimplecoin.sol\":470:488  balances[receiver] */\n      0x00\n        /* \"aksimplecoin.sol\":479:487  receiver */\n      dup5\n        /* \"aksimplecoin.sol\":470:488  balances[receiver] */\n      0xffffffffffffffffffffffffffffffffffffffff\n      and\n      0xffffffffffffffffffffffffffffffffffffffff\n      and\n      dup2\n      mstore\n      0x20\n      add\n      swap1\n      dup2\n      mstore\n      0x20\n      add\n      0x00\n      keccak256\n      0x00\n        /* \"aksimplecoin.sol\":470:496  balances[receiver]+=amount */\n      dup3\n      dup3\n      sload\n      tag_28\n      swap2\n      swap1\n      tag_29\n      jump\t// in\n    tag_28:\n      swap3\n      pop\n      pop\n      dup2\n      swap1\n      sstore\n      pop\n        /* \"aksimplecoin.sol\":297:505  function mint(address receiver,uint amount) public {... */\n      pop\n      pop\n      jump\t// out\n        /* \"aksimplecoin.sol\":130:150  address public owner */\n    tag_18:\n      0x01\n      0x00\n      swap1\n      sload\n      swap1\n      0x0100\n      exp\n      swap1\n      div\n      0xffffffffffffffffffffffffffffffffffffffff\n      and\n      dup2\n      jump\t// out\n        /* \"aksimplecoin.sol\":580:853  function send(address receiver,uint amount) public {... */\n    tag_23:\n        /* \"aksimplecoin.sol\":671:677  amount */\n      dup1\n        /* \"aksimplecoin.sol\":649:657  balances */\n      0x00\n        /* \"aksimplecoin.sol\":649:669  balances[msg.sender] */\n      0x00\n        /* \"aksimplecoin.sol\":658:668  msg.sender */\n      caller\n        /* \"aksimplecoin.sol\":649:669  balances[msg.sender] */\n      0xffffffffffffffffffffffffffffffffffffffff\n      and\n      0xffffffffffffffffffffffffffffffffffffffff\n      and\n      dup2\n      mstore\n      0x20\n      add\n      swap1\n      dup2\n      mstore\n      0x20\n      add\n      0x00\n      keccak256\n      sload\n        /* \"aksimplecoin.sol\":649:677  balances[msg.sender]>=amount */\n      lt\n      iszero\n        /* \"aksimplecoin.sol\":641:724  require(balances[msg.sender]>=amount,\"You have insufficient amount in your wallet\") */\n      tag_31\n      jumpi\n      mload(0x40)\n      0x08c379a000000000000000000000000000000000000000000000000000000000\n      dup2\n      mstore\n      0x04\n      add\n      tag_32\n      swap1\n      tag_33\n      jump\t// in\n    tag_32:\n      mload(0x40)\n      dup1\n      swap2\n      sub\n      swap1\n      revert\n    tag_31:\n        /* \"aksimplecoin.sol\":756:762  amount */\n      dup1\n        /* \"aksimplecoin.sol\":734:742  balances */\n      0x00\n        /* \"aksimplecoin.sol\":734:754  balances[msg.sender] */\n      0x00\n        /* \"aksimplecoin.sol\":743:753  msg.sender */\n      caller\n        /* \"aksimplecoin.sol\":734:754  balances[msg.sender] */\n      0xffffffffffffffffffffffffffffffffffffffff\n      and\n      0xffffffffffffffffffffffffffffffffffffffff\n      and\n      dup2\n      mstore\n      0x20\n      add\n      swap1\n      dup2\n      mstore\n      0x20\n      add\n      0x00\n      keccak256\n      0x00\n        /* \"aksimplecoin.sol\":734:762  balances[msg.sender]-=amount */\n      dup3\n      dup3\n      sload\n      tag_34\n      swap2\n      swap1\n      tag_35\n      jump\t// in\n    tag_34:\n      swap3\n      pop\n      pop\n      dup2\n      swap1\n      sstore\n      pop\n        /* \"aksimplecoin.sol\":792:798  amount */\n      dup1\n        /* \"aksimplecoin.sol\":772:780  balances */\n      0x00\n        /* \"aksimplecoin.sol\":772:790  balances[receiver] */\n      0x00\n        /* \"aksimplecoin.sol\":781:789  receiver */\n      dup5\n        /* \"aksimplecoin.sol\":772:790  balances[receiver] */\n      0xffffffffffffffffffffffffffffffffffffffff\n      and\n      0xffffffffffffffffffffffffffffffffffffffff\n      and\n      dup2\n      mstore\n      0x20\n      add\n      swap1\n      dup2\n      mstore\n      0x20\n      add\n      0x00\n      keccak256\n      0x00\n        /* \"aksimplecoin.sol\":772:798  balances[receiver]+=amount */\n      dup3\n      dup3\n      sload\n      tag_36\n      swap2\n      swap1\n      tag_29\n      jump\t// in\n    tag_36:\n      swap3\n      pop\n      pop\n      dup2\n      swap1\n      sstore\n      pop\n        /* \"aksimplecoin.sol\":814:846  Sent(msg.sender,receiver,amount) */\n      0x3990db2d31862302a685e8086b5755072a6e2b5b780af1ee81ece35ee3cd3345\n        /* \"aksimplecoin.sol\":819:829  msg.sender */\n      caller\n        /* \"aksimplecoin.sol\":830:838  receiver */\n      dup4\n        /* \"aksimplecoin.sol\":839:845  amount */\n      dup4\n        /* \"aksimplecoin.sol\":814:846  Sent(msg.sender,receiver,amount) */\n      mload(0x40)\n      tag_37\n      swap4\n      swap3\n      swap2\n      swap1\n      tag_38\n      jump\t// in\n    tag_37:\n      mload(0x40)\n      dup1\n      swap2\n      sub\n      swap1\n      log1\n        /* \"aksimplecoin.sol\":580:853  function send(address receiver,uint amount) public {... */\n      pop\n      pop\n      jump\t// out\n        /* \"#utility.yul\":88:205   */\n    tag_40:\n        /* \"#utility.yul\":197:198   */\n      0x00\n        /* \"#utility.yul\":194:195   */\n      0x00\n        /* \"#utility.yul\":187:199   */\n      revert\n        /* \"#utility.yul\":334:460   */\n    tag_42:\n        /* \"#utility.yul\":371:378   */\n      0x00\n        /* \"#utility.yul\":411:453   */\n      0xffffffffffffffffffffffffffffffffffffffff\n        /* \"#utility.yul\":404:409   */\n      dup3\n        /* \"#utility.yul\":400:454   */\n      and\n        /* \"#utility.yul\":389:454   */\n      swap1\n      pop\n        /* \"#utility.yul\":334:460   */\n      swap2\n      swap1\n      pop\n      jump\t// out\n        /* \"#utility.yul\":466:562   */\n    tag_43:\n        /* \"#utility.yul\":503:510   */\n      0x00\n        /* \"#utility.yul\":532:556   */\n      tag_63\n        /* \"#utility.yul\":550:555   */\n      dup3\n        /* \"#utility.yul\":532:556   */\n      tag_42\n      jump\t// in\n    tag_63:\n        /* \"#utility.yul\":521:556   */\n      swap1\n      pop\n        /* \"#utility.yul\":466:562   */\n      swap2\n      swap1\n      pop\n      jump\t// out\n        /* \"#utility.yul\":568:690   */\n    tag_44:\n        /* \"#utility.yul\":641:665   */\n      tag_65\n        /* \"#utility.yul\":659:664   */\n      dup2\n        /* \"#utility.yul\":641:665   */\n      tag_43\n      jump\t// in\n    tag_65:\n        /* \"#utility.yul\":634:639   */\n      dup2\n        /* \"#utility.yul\":631:666   */\n      eq\n        /* \"#utility.yul\":621:684   */\n      tag_66\n      jumpi\n        /* \"#utility.yul\":680:681   */\n      0x00\n        /* \"#utility.yul\":677:678   */\n      0x00\n        /* \"#utility.yul\":670:682   */\n      revert\n        /* \"#utility.yul\":621:684   */\n    tag_66:\n        /* \"#utility.yul\":568:690   */\n      pop\n      jump\t// out\n        /* \"#utility.yul\":696:835   */\n    tag_45:\n        /* \"#utility.yul\":742:747   */\n      0x00\n        /* \"#utility.yul\":780:786   */\n      dup2\n        /* \"#utility.yul\":767:787   */\n      calldataload\n        /* \"#utility.yul\":758:787   */\n      swap1\n      pop\n        /* \"#utility.yul\":796:829   */\n      tag_68\n        /* \"#utility.yul\":823:828   */\n      dup2\n        /* \"#utility.yul\":796:829   */\n      tag_44\n      jump\t// in\n    tag_68:\n        /* \"#utility.yul\":696:835   */\n      swap3\n      swap2\n      pop\n      pop\n      jump\t// out\n        /* \"#utility.yul\":841:1170   */\n    tag_9:\n        /* \"#utility.yul\":900:906   */\n      0x00\n        /* \"#utility.yul\":949:951   */\n      0x20\n        /* \"#utility.yul\":937:946   */\n      dup3\n        /* \"#utility.yul\":928:935   */\n      dup5\n        /* \"#utility.yul\":924:947   */\n      sub\n        /* \"#utility.yul\":920:952   */\n      slt\n        /* \"#utility.yul\":917:1036   */\n      iszero\n      tag_70\n      jumpi\n        /* \"#utility.yul\":955:1034   */\n      tag_71\n      tag_40\n      jump\t// in\n    tag_71:\n        /* \"#utility.yul\":917:1036   */\n    tag_70:\n        /* \"#utility.yul\":1075:1076   */\n      0x00\n        /* \"#utility.yul\":1100:1153   */\n      tag_72\n        /* \"#utility.yul\":1145:1152   */\n      dup5\n        /* \"#utility.yul\":1136:1142   */\n      dup3\n        /* \"#utility.yul\":1125:1134   */\n      dup6\n        /* \"#utility.yul\":1121:1143   */\n      add\n        /* \"#utility.yul\":1100:1153   */\n      tag_45\n      jump\t// in\n    tag_72:\n        /* \"#utility.yul\":1090:1153   */\n      swap2\n      pop\n        /* \"#utility.yul\":1046:1163   */\n      pop\n        /* \"#utility.yul\":841:1170   */\n      swap3\n      swap2\n      pop\n      pop\n      jump\t// out\n        /* \"#utility.yul\":1176:1253   */\n    tag_46:\n        /* \"#utility.yul\":1213:1220   */\n      0x00\n        /* \"#utility.yul\":1242:1247   */\n      dup2\n        /* \"#utility.yul\":1231:1247   */\n      swap1\n      pop\n        /* \"#utility.yul\":1176:1253   */\n      swap2\n      swap1\n      pop\n      jump\t// out\n        /* \"#utility.yul\":1259:1377   */\n    tag_47:\n        /* \"#utility.yul\":1346:1370   */\n      tag_75\n        /* \"#utility.yul\":1364:1369   */\n      dup2\n        /* \"#utility.yul\":1346:1370   */\n      tag_46\n      jump\t// in\n    tag_75:\n        /* \"#utility.yul\":1341:1344   */\n      dup3\n        /* \"#utility.yul\":1334:1371   */\n      mstore\n        /* \"#utility.yul\":1259:1377   */\n      pop\n      pop\n      jump\t// out\n        /* \"#utility.yul\":1383:1605   */\n    tag_12:\n        /* \"#utility.yul\":1476:1480   */\n      0x00\n        /* \"#utility.yul\":1514:1516   */\n      0x20\n        /* \"#utility.yul\":1503:1512   */\n      dup3\n        /* \"#utility.yul\":1499:1517   */\n      add\n        /* \"#utility.yul\":1491:1517   */\n      swap1\n      pop\n        /* \"#utility.yul\":1527:1598   */\n      tag_77\n        /* \"#utility.yul\":1595:1596   */\n      0x00\n        /* \"#utility.yul\":1584:1593   */\n      dup4\n        /* \"#utility.yul\":1580:1597   */\n      add\n        /* \"#utility.yul\":1571:1577   */\n      dup5\n        /* \"#utility.yul\":1527:1598   */\n      tag_47\n      jump\t// in\n    tag_77:\n        /* \"#utility.yul\":1383:1605   */\n      swap3\n      swap2\n      pop\n      pop\n      jump\t// out\n        /* \"#utility.yul\":1611:1733   */\n    tag_48:\n        /* \"#utility.yul\":1684:1708   */\n      tag_79\n        /* \"#utility.yul\":1702:1707   */\n      dup2\n        /* \"#utility.yul\":1684:1708   */\n      tag_46\n      jump\t// in\n    tag_79:\n        /* \"#utility.yul\":1677:1682   */\n      dup2\n        /* \"#utility.yul\":1674:1709   */\n      eq\n        /* \"#utility.yul\":1664:1727   */\n      tag_80\n      jumpi\n        /* \"#utility.yul\":1723:1724   */\n      0x00\n        /* \"#utility.yul\":1720:1721   */\n      0x00\n        /* \"#utility.yul\":1713:1725   */\n      revert\n        /* \"#utility.yul\":1664:1727   */\n    tag_80:\n        /* \"#utility.yul\":1611:1733   */\n      pop\n      jump\t// out\n        /* \"#utility.yul\":1739:1878   */\n    tag_49:\n        /* \"#utility.yul\":1785:1790   */\n      0x00\n        /* \"#utility.yul\":1823:1829   */\n      dup2\n        /* \"#utility.yul\":1810:1830   */\n      calldataload\n        /* \"#utility.yul\":1801:1830   */\n      swap1\n      pop\n        /* \"#utility.yul\":1839:1872   */\n      tag_82\n        /* \"#utility.yul\":1866:1871   */\n      dup2\n        /* \"#utility.yul\":1839:1872   */\n      tag_48\n      jump\t// in\n    tag_82:\n        /* \"#utility.yul\":1739:1878   */\n      swap3\n      swap2\n      pop\n      pop\n      jump\t// out\n        /* \"#utility.yul\":1884:2358   */\n    tag_15:\n        /* \"#utility.yul\":1952:1958   */\n      0x00\n        /* \"#utility.yul\":1960:1966   */\n      0x00\n        /* \"#utility.yul\":2009:2011   */\n      0x40\n        /* \"#utility.yul\":1997:2006   */\n      dup4\n        /* \"#utility.yul\":1988:1995   */\n      dup6\n        /* \"#utility.yul\":1984:2007   */\n      sub\n        /* \"#utility.yul\":1980:2012   */\n      slt\n        /* \"#utility.yul\":1977:2096   */\n      iszero\n      tag_84\n      jumpi\n        /* \"#utility.yul\":2015:2094   */\n      tag_85\n      tag_40\n      jump\t// in\n    tag_85:\n        /* \"#utility.yul\":1977:2096   */\n    tag_84:\n        /* \"#utility.yul\":2135:2136   */\n      0x00\n        /* \"#utility.yul\":2160:2213   */\n      tag_86\n        /* \"#utility.yul\":2205:2212   */\n      dup6\n        /* \"#utility.yul\":2196:2202   */\n      dup3\n        /* \"#utility.yul\":2185:2194   */\n      dup7\n        /* \"#utility.yul\":2181:2203   */\n      add\n        /* \"#utility.yul\":2160:2213   */\n      tag_45\n      jump\t// in\n    tag_86:\n        /* \"#utility.yul\":2150:2213   */\n      swap3\n      pop\n        /* \"#utility.yul\":2106:2223   */\n      pop\n        /* \"#utility.yul\":2262:2264   */\n      0x20\n        /* \"#utility.yul\":2288:2341   */\n      tag_87\n        /* \"#utility.yul\":2333:2340   */\n      dup6\n        /* \"#utility.yul\":2324:2330   */\n      dup3\n        /* \"#utility.yul\":2313:2322   */\n      dup7\n        /* \"#utility.yul\":2309:2331   */\n      add\n        /* \"#utility.yul\":2288:2341   */\n      tag_49\n      jump\t// in\n    tag_87:\n        /* \"#utility.yul\":2278:2341   */\n      swap2\n      pop\n        /* \"#utility.yul\":2233:2351   */\n      pop\n        /* \"#utility.yul\":1884:2358   */\n      swap3\n      pop\n      swap3\n      swap1\n      pop\n      jump\t// out\n        /* \"#utility.yul\":2364:2482   */\n    tag_50:\n        /* \"#utility.yul\":2451:2475   */\n      tag_89\n        /* \"#utility.yul\":2469:2474   */\n      dup2\n        /* \"#utility.yul\":2451:2475   */\n      tag_43\n      jump\t// in\n    tag_89:\n        /* \"#utility.yul\":2446:2449   */\n      dup3\n        /* \"#utility.yul\":2439:2476   */\n      mstore\n        /* \"#utility.yul\":2364:2482   */\n      pop\n      pop\n      jump\t// out\n        /* \"#utility.yul\":2488:2710   */\n    tag_20:\n        /* \"#utility.yul\":2581:2585   */\n      0x00\n        /* \"#utility.yul\":2619:2621   */\n      0x20\n        /* \"#utility.yul\":2608:2617   */\n      dup3\n        /* \"#utility.yul\":2604:2622   */\n      add\n        /* \"#utility.yul\":2596:2622   */\n      swap1\n      pop\n        /* \"#utility.yul\":2632:2703   */\n      tag_91\n        /* \"#utility.yul\":2700:2701   */\n      0x00\n        /* \"#utility.yul\":2689:2698   */\n      dup4\n        /* \"#utility.yul\":2685:2702   */\n      add\n        /* \"#utility.yul\":2676:2682   */\n      dup5\n        /* \"#utility.yul\":2632:2703   */\n      tag_50\n      jump\t// in\n    tag_91:\n        /* \"#utility.yul\":2488:2710   */\n      swap3\n      swap2\n      pop\n      pop\n      jump\t// out\n        /* \"#utility.yul\":2716:2885   */\n    tag_51:\n        /* \"#utility.yul\":2800:2811   */\n      0x00\n        /* \"#utility.yul\":2834:2840   */\n      dup3\n        /* \"#utility.yul\":2829:2832   */\n      dup3\n        /* \"#utility.yul\":2822:2841   */\n      mstore\n        /* \"#utility.yul\":2874:2878   */\n      0x20\n        /* \"#utility.yul\":2869:2872   */\n      dup3\n        /* \"#utility.yul\":2865:2879   */\n      add\n        /* \"#utility.yul\":2850:2879   */\n      swap1\n      pop\n        /* \"#utility.yul\":2716:2885   */\n      swap3\n      swap2\n      pop\n      pop\n      jump\t// out\n        /* \"#utility.yul\":2891:3188   */\n    tag_52:\n        /* \"#utility.yul\":3031:3065   */\n      0x596f7520617265206e6f7420746865206f776e6572206f662074686520636f6e\n        /* \"#utility.yul\":3027:3028   */\n      0x00\n        /* \"#utility.yul\":3019:3025   */\n      dup3\n        /* \"#utility.yul\":3015:3029   */\n      add\n        /* \"#utility.yul\":3008:3066   */\n      mstore\n        /* \"#utility.yul\":3100:3134   */\n      0x74726163742e20596f75207374616e64206e6f20726967687420746f206d696e\n        /* \"#utility.yul\":3095:3097   */\n      0x20\n        /* \"#utility.yul\":3087:3093   */\n      dup3\n        /* \"#utility.yul\":3083:3098   */\n      add\n        /* \"#utility.yul\":3076:3135   */\n      mstore\n        /* \"#utility.yul\":3169:3180   */\n      0x74206120636f696e2e0000000000000000000000000000000000000000000000\n        /* \"#utility.yul\":3164:3166   */\n      0x40\n        /* \"#utility.yul\":3156:3162   */\n      dup3\n        /* \"#utility.yul\":3152:3167   */\n      add\n        /* \"#utility.yul\":3145:3181   */\n      mstore\n        /* \"#utility.yul\":2891:3188   */\n      pop\n      jump\t// out\n        /* \"#utility.yul\":3194:3560   */\n    tag_53:\n        /* \"#utility.yul\":3336:3339   */\n      0x00\n        /* \"#utility.yul\":3357:3424   */\n      tag_95\n        /* \"#utility.yul\":3421:3423   */\n      0x49\n        /* \"#utility.yul\":3416:3419   */\n      dup4\n        /* \"#utility.yul\":3357:3424   */\n      tag_51\n      jump\t// in\n    tag_95:\n        /* \"#utility.yul\":3350:3424   */\n      swap2\n      pop\n        /* \"#utility.yul\":3433:3526   */\n      tag_96\n        /* \"#utility.yul\":3522:3525   */\n      dup3\n        /* \"#utility.yul\":3433:3526   */\n      tag_52\n      jump\t// in\n    tag_96:\n        /* \"#utility.yul\":3551:3553   */\n      0x60\n        /* \"#utility.yul\":3546:3549   */\n      dup3\n        /* \"#utility.yul\":3542:3554   */\n      add\n        /* \"#utility.yul\":3535:3554   */\n      swap1\n      pop\n        /* \"#utility.yul\":3194:3560   */\n      swap2\n      swap1\n      pop\n      jump\t// out\n        /* \"#utility.yul\":3566:3985   */\n    tag_27:\n        /* \"#utility.yul\":3732:3736   */\n      0x00\n        /* \"#utility.yul\":3770:3772   */\n      0x20\n        /* \"#utility.yul\":3759:3768   */\n      dup3\n        /* \"#utility.yul\":3755:3773   */\n      add\n        /* \"#utility.yul\":3747:3773   */\n      swap1\n      pop\n        /* \"#utility.yul\":3819:3828   */\n      dup2\n        /* \"#utility.yul\":3813:3817   */\n      dup2\n        /* \"#utility.yul\":3809:3829   */\n      sub\n        /* \"#utility.yul\":3805:3806   */\n      0x00\n        /* \"#utility.yul\":3794:3803   */\n      dup4\n        /* \"#utility.yul\":3790:3807   */\n      add\n        /* \"#utility.yul\":3783:3830   */\n      mstore\n        /* \"#utility.yul\":3847:3978   */\n      tag_98\n        /* \"#utility.yul\":3973:3977   */\n      dup2\n        /* \"#utility.yul\":3847:3978   */\n      tag_53\n      jump\t// in\n    tag_98:\n        /* \"#utility.yul\":3839:3978   */\n      swap1\n      pop\n        /* \"#utility.yul\":3566:3985   */\n      swap2\n      swap1\n      pop\n      jump\t// out\n        /* \"#utility.yul\":3991:4171   */\n    tag_54:\n        /* \"#utility.yul\":4039:4116   */\n      0x4e487b7100000000000000000000000000000000000000000000000000000000\n        /* \"#utility.yul\":4036:4037   */\n      0x00\n        /* \"#utility.yul\":4029:4117   */\n      mstore\n        /* \"#utility.yul\":4136:4140   */\n      0x11\n        /* \"#utility.yul\":4133:4134   */\n      0x04\n        /* \"#utility.yul\":4126:4141   */\n      mstore\n        /* \"#utility.yul\":4160:4164   */\n      0x24\n        /* \"#utility.yul\":4157:4158   */\n      0x00\n        /* \"#utility.yul\":4150:4165   */\n      revert\n        /* \"#utility.yul\":4177:4368   */\n    tag_29:\n        /* \"#utility.yul\":4217:4220   */\n      0x00\n        /* \"#utility.yul\":4236:4256   */\n      tag_101\n        /* \"#utility.yul\":4254:4255   */\n      dup3\n        /* \"#utility.yul\":4236:4256   */\n      tag_46\n      jump\t// in\n    tag_101:\n        /* \"#utility.yul\":4231:4256   */\n      swap2\n      pop\n        /* \"#utility.yul\":4270:4290   */\n      tag_102\n        /* \"#utility.yul\":4288:4289   */\n      dup4\n        /* \"#utility.yul\":4270:4290   */\n      tag_46\n      jump\t// in\n    tag_102:\n        /* \"#utility.yul\":4265:4290   */\n      swap3\n      pop\n        /* \"#utility.yul\":4313:4314   */\n      dup3\n        /* \"#utility.yul\":4310:4311   */\n      dup3\n        /* \"#utility.yul\":4306:4315   */\n      add\n        /* \"#utility.yul\":4299:4315   */\n      swap1\n      pop\n        /* \"#utility.yul\":4334:4337   */\n      dup1\n        /* \"#utility.yul\":4331:4332   */\n      dup3\n        /* \"#utility.yul\":4328:4338   */\n      gt\n        /* \"#utility.yul\":4325:4361   */\n      iszero\n      tag_103\n      jumpi\n        /* \"#utility.yul\":4341:4359   */\n      tag_104\n      tag_54\n      jump\t// in\n    tag_104:\n        /* \"#utility.yul\":4325:4361   */\n    tag_103:\n        /* \"#utility.yul\":4177:4368   */\n      swap3\n      swap2\n      pop\n      pop\n      jump\t// out\n        /* \"#utility.yul\":4374:4604   */\n    tag_55:\n        /* \"#utility.yul\":4514:4548   */\n      0x596f75206861766520696e73756666696369656e7420616d6f756e7420696e20\n        /* \"#utility.yul\":4510:4511   */\n      0x00\n        /* \"#utility.yul\":4502:4508   */\n      dup3\n        /* \"#utility.yul\":4498:4512   */\n      add\n        /* \"#utility.yul\":4491:4549   */\n      mstore\n        /* \"#utility.yul\":4583:4596   */\n      0x796f75722077616c6c6574000000000000000000000000000000000000000000\n        /* \"#utility.yul\":4578:4580   */\n      0x20\n        /* \"#utility.yul\":4570:4576   */\n      dup3\n        /* \"#utility.yul\":4566:4581   */\n      add\n        /* \"#utility.yul\":4559:4597   */\n      mstore\n        /* \"#utility.yul\":4374:4604   */\n      pop\n      jump\t// out\n        /* \"#utility.yul\":4610:4976   */\n    tag_56:\n        /* \"#utility.yul\":4752:4755   */\n      0x00\n        /* \"#utility.yul\":4773:4840   */\n      tag_107\n        /* \"#utility.yul\":4837:4839   */\n      0x2b\n        /* \"#utility.yul\":4832:4835   */\n      dup4\n        /* \"#utility.yul\":4773:4840   */\n      tag_51\n      jump\t// in\n    tag_107:\n        /* \"#utility.yul\":4766:4840   */\n      swap2\n      pop\n        /* \"#utility.yul\":4849:4942   */\n      tag_108\n        /* \"#utility.yul\":4938:4941   */\n      dup3\n        /* \"#utility.yul\":4849:4942   */\n      tag_55\n      jump\t// in\n    tag_108:\n        /* \"#utility.yul\":4967:4969   */\n      0x40\n        /* \"#utility.yul\":4962:4965   */\n      dup3\n        /* \"#utility.yul\":4958:4970   */\n      add\n        /* \"#utility.yul\":4951:4970   */\n      swap1\n      pop\n        /* \"#utility.yul\":4610:4976   */\n      swap2\n      swap1\n      pop\n      jump\t// out\n        /* \"#utility.yul\":4982:5401   */\n    tag_33:\n        /* \"#utility.yul\":5148:5152   */\n      0x00\n        /* \"#utility.yul\":5186:5188   */\n      0x20\n        /* \"#utility.yul\":5175:5184   */\n      dup3\n        /* \"#utility.yul\":5171:5189   */\n      add\n        /* \"#utility.yul\":5163:5189   */\n      swap1\n      pop\n        /* \"#utility.yul\":5235:5244   */\n      dup2\n        /* \"#utility.yul\":5229:5233   */\n      dup2\n        /* \"#utility.yul\":5225:5245   */\n      sub\n        /* \"#utility.yul\":5221:5222   */\n      0x00\n        /* \"#utility.yul\":5210:5219   */\n      dup4\n        /* \"#utility.yul\":5206:5223   */\n      add\n        /* \"#utility.yul\":5199:5246   */\n      mstore\n        /* \"#utility.yul\":5263:5394   */\n      tag_110\n        /* \"#utility.yul\":5389:5393   */\n      dup2\n        /* \"#utility.yul\":5263:5394   */\n      tag_56\n      jump\t// in\n    tag_110:\n        /* \"#utility.yul\":5255:5394   */\n      swap1\n      pop\n        /* \"#utility.yul\":4982:5401   */\n      swap2\n      swap1\n      pop\n      jump\t// out\n        /* \"#utility.yul\":5407:5601   */\n    tag_35:\n        /* \"#utility.yul\":5447:5451   */\n      0x00\n        /* \"#utility.yul\":5467:5487   */\n      tag_112\n        /* \"#utility.yul\":5485:5486   */\n      dup3\n        /* \"#utility.yul\":5467:5487   */\n      tag_46\n      jump\t// in\n    tag_112:\n        /* \"#utility.yul\":5462:5487   */\n      swap2\n      pop\n        /* \"#utility.yul\":5501:5521   */\n      tag_113\n        /* \"#utility.yul\":5519:5520   */\n      dup4\n        /* \"#utility.yul\":5501:5521   */\n      tag_46\n      jump\t// in\n    tag_113:\n        /* \"#utility.yul\":5496:5521   */\n      swap3\n      pop\n        /* \"#utility.yul\":5545:5546   */\n      dup3\n        /* \"#utility.yul\":5542:5543   */\n      dup3\n        /* \"#utility.yul\":5538:5547   */\n      sub\n        /* \"#utility.yul\":5530:5547   */\n      swap1\n      pop\n        /* \"#utility.yul\":5569:5570   */\n      dup2\n        /* \"#utility.yul\":5563:5567   */\n      dup2\n        /* \"#utility.yul\":5560:5571   */\n      gt\n        /* \"#utility.yul\":5557:5594   */\n      iszero\n      tag_114\n      jumpi\n        /* \"#utility.yul\":5574:5592   */\n      tag_115\n      tag_54\n      jump\t// in\n    tag_115:\n        /* \"#utility.yul\":5557:5594   */\n    tag_114:\n        /* \"#utility.yul\":5407:5601   */\n      swap3\n      swap2\n      pop\n      pop\n      jump\t// out\n        /* \"#utility.yul\":5607:6049   */\n    tag_38:\n        /* \"#utility.yul\":5756:5760   */\n      0x00\n        /* \"#utility.yul\":5794:5796   */\n      0x60\n        /* \"#utility.yul\":5783:5792   */\n      dup3\n        /* \"#utility.yul\":5779:5797   */\n      add\n        /* \"#utility.yul\":5771:5797   */\n      swap1\n      pop\n        /* \"#utility.yul\":5807:5878   */\n      tag_117\n        /* \"#utility.yul\":5875:5876   */\n      0x00\n        /* \"#utility.yul\":5864:5873   */\n      dup4\n        /* \"#utility.yul\":5860:5877   */\n      add\n        /* \"#utility.yul\":5851:5857   */\n      dup7\n        /* \"#utility.yul\":5807:5878   */\n      tag_50\n      jump\t// in\n    tag_117:\n        /* \"#utility.yul\":5888:5960   */\n      tag_118\n        /* \"#utility.yul\":5956:5958   */\n      0x20\n        /* \"#utility.yul\":5945:5954   */\n      dup4\n        /* \"#utility.yul\":5941:5959   */\n      add\n        /* \"#utility.yul\":5932:5938   */\n      dup6\n        /* \"#utility.yul\":5888:5960   */\n      tag_50\n      jump\t// in\n    tag_118:\n        /* \"#utility.yul\":5970:6042   */\n      tag_119\n        /* \"#utility.yul\":6038:6040   */\n      0x40\n        /* \"#utility.yul\":6027:6036   */\n      dup4\n        /* \"#utility.yul\":6023:6041   */\n      add\n        /* \"#utility.yul\":6014:6020   */\n      dup5\n        /* \"#utility.yul\":5970:6042   */\n      tag_47\n      jump\t// in\n    tag_119:\n        /* \"#utility.yul\":5607:6049   */\n      swap5\n      swap4\n      pop\n      pop\n      pop\n      pop\n      jump\t// out\n\n    auxdata: 0xa2646970667358221220aa302527497aea29078d3e711db1d754699df548cf293f1669d9220e2fb7e5ea64736f6c634300081e0033\n}\n",
				"bytecode": {
					"linkReferences": {},
					"object": "6080604052348015600e575f5ffd5b503360015f6101000a81548173ffffffffffffffffffffffffffffffffffffffff021916908373ffffffffffffffffffffffffffffffffffffffff160217905550620186a05f5f60015f9054906101000a900473ffffffffffffffffffffffffffffffffffffffff1673ffffffffffffffffffffffffffffffffffffffff1673ffffffffffffffffffffffffffffffffffffffff1681526020019081526020015f20819055506106ee806100c15f395ff3fe608060405234801561000f575f5ffd5b506004361061004a575f3560e01c806327e235e31461004e57806340c10f191461007e5780638da5cb5b1461009a578063d0679d34146100b8575b5f5ffd5b610068600480360381019061006391906103b2565b6100d4565b60405161007591906103f5565b60405180910390f35b61009860048036038101906100939190610438565b6100e8565b005b6100a26101cd565b6040516100af9190610485565b60405180910390f35b6100d260048036038101906100cd9190610438565b6101f2565b005b5f602052805f5260405f205f915090505481565b60015f9054906101000a900473ffffffffffffffffffffffffffffffffffffffff1673ffffffffffffffffffffffffffffffffffffffff163373ffffffffffffffffffffffffffffffffffffffff1614610177576040517f08c379a000000000000000000000000000000000000000000000000000000000815260040161016e90610544565b60405180910390fd5b805f5f8473ffffffffffffffffffffffffffffffffffffffff1673ffffffffffffffffffffffffffffffffffffffff1681526020019081526020015f205f8282546101c2919061058f565b925050819055505050565b60015f9054906101000a900473ffffffffffffffffffffffffffffffffffffffff1681565b805f5f3373ffffffffffffffffffffffffffffffffffffffff1673ffffffffffffffffffffffffffffffffffffffff1681526020019081526020015f20541015610271576040517f08c379a000000000000000000000000000000000000000000000000000000000815260040161026890610632565b60405180910390fd5b805f5f3373ffffffffffffffffffffffffffffffffffffffff1673ffffffffffffffffffffffffffffffffffffffff1681526020019081526020015f205f8282546102bc9190610650565b92505081905550805f5f8473ffffffffffffffffffffffffffffffffffffffff1673ffffffffffffffffffffffffffffffffffffffff1681526020019081526020015f205f82825461030e919061058f565b925050819055507f3990db2d31862302a685e8086b5755072a6e2b5b780af1ee81ece35ee3cd334533838360405161034893929190610683565b60405180910390a15050565b5f5ffd5b5f73ffffffffffffffffffffffffffffffffffffffff82169050919050565b5f61038182610358565b9050919050565b61039181610377565b811461039b575f5ffd5b50565b5f813590506103ac81610388565b92915050565b5f602082840312156103c7576103c6610354565b5b5f6103d48482850161039e565b91505092915050565b5f819050919050565b6103ef816103dd565b82525050565b5f6020820190506104085f8301846103e6565b92915050565b610417816103dd565b8114610421575f5ffd5b50565b5f813590506104328161040e565b92915050565b5f5f6040838503121561044e5761044d610354565b5b5f61045b8582860161039e565b925050602061046c85828601610424565b9150509250929050565b61047f81610377565b82525050565b5f6020820190506104985f830184610476565b92915050565b5f82825260208201905092915050565b7f596f7520617265206e6f7420746865206f776e6572206f662074686520636f6e5f8201527f74726163742e20596f75207374616e64206e6f20726967687420746f206d696e60208201527f74206120636f696e2e0000000000000000000000000000000000000000000000604082015250565b5f61052e60498361049e565b9150610539826104ae565b606082019050919050565b5f6020820190508181035f83015261055b81610522565b9050919050565b7f4e487b71000000000000000000000000000000000000000000000000000000005f52601160045260245ffd5b5f610599826103dd565b91506105a4836103dd565b92508282019050808211156105bc576105bb610562565b5b92915050565b7f596f75206861766520696e73756666696369656e7420616d6f756e7420696e205f8201527f796f75722077616c6c6574000000000000000000000000000000000000000000602082015250565b5f61061c602b8361049e565b9150610627826105c2565b604082019050919050565b5f6020820190508181035f83015261064981610610565b9050919050565b5f61065a826103dd565b9150610665836103dd565b925082820390508181111561067d5761067c610562565b5b92915050565b5f6060820190506106965f830186610476565b6106a36020830185610476565b6106b060408301846103e6565b94935050505056fea2646970667358221220aa302527497aea29078d3e711db1d754699df548cf293f1669d9220e2fb7e5ea64736f6c634300081e0033",
					"opcodes": "PUSH1 0x80 PUSH1 0x40 MSTORE CALLVALUE DUP1 ISZERO PUSH1 0xE JUMPI PUSH0 PUSH0 REVERT JUMPDEST POP CALLER PUSH1 0x1 PUSH0 PUSH2 0x100 EXP DUP2 SLOAD DUP2 PUSH20 0xFFFFFFFFFFFFFFFFFFFFFFFFFFFFFFFFFFFFFFFF MUL NOT AND SWAP1 DUP4 PUSH20 0xFFFFFFFFFFFFFFFFFFFFFFFFFFFFFFFFFFFFFFFF AND MUL OR SWAP1 SSTORE POP PUSH3 0x186A0 PUSH0 PUSH0 PUSH1 0x1 PUSH0 SWAP1 SLOAD SWAP1 PUSH2 0x100 EXP SWAP1 DIV PUSH20 0xFFFFFFFFFFFFFFFFFFFFFFFFFFFFFFFFFFFFFFFF AND PUSH20 0xFFFFFFFFFFFFFFFFFFFFFFFFFFFFFFFFFFFFFFFF AND PUSH20 0xFFFFFFFFFFFFFFFFFFFFFFFFFFFFFFFFFFFFFFFF AND DUP2 MSTORE PUSH1 0x20 ADD SWAP1 DUP2 MSTORE PUSH1 0x20 ADD PUSH0 KECCAK256 DUP2 SWAP1 SSTORE POP PUSH2 0x6EE DUP1 PUSH2 0xC1 PUSH0 CODECOPY PUSH0 RETURN INVALID PUSH1 0x80 PUSH1 0x40 MSTORE CALLVALUE DUP1 ISZERO PUSH2 0xF JUMPI PUSH0 PUSH0 REVERT JUMPDEST POP PUSH1 0x4 CALLDATASIZE LT PUSH2 0x4A JUMPI PUSH0 CALLDATALOAD PUSH1 0xE0 SHR DUP1 PUSH4 0x27E235E3 EQ PUSH2 0x4E JUMPI DUP1 PUSH4 0x40C10F19 EQ PUSH2 0x7E JUMPI DUP1 PUSH4 0x8DA5CB5B EQ PUSH2 0x9A JUMPI DUP1 PUSH4 0xD0679D34 EQ PUSH2 0xB8 JUMPI JUMPDEST PUSH0 PUSH0 REVERT JUMPDEST PUSH2 0x68 PUSH1 0x4 DUP1 CALLDATASIZE SUB DUP2 ADD SWAP1 PUSH2 0x63 SWAP2 SWAP1 PUSH2 0x3B2 JUMP JUMPDEST PUSH2 0xD4 JUMP JUMPDEST PUSH1 0x40 MLOAD PUSH2 0x75 SWAP2 SWAP1 PUSH2 0x3F5 JUMP JUMPDEST PUSH1 0x40 MLOAD DUP1 SWAP2 SUB SWAP1 RETURN JUMPDEST PUSH2 0x98 PUSH1 0x4 DUP1 CALLDATASIZE SUB DUP2 ADD SWAP1 PUSH2 0x93 SWAP2 SWAP1 PUSH2 0x438 JUMP JUMPDEST PUSH2 0xE8 JUMP JUMPDEST STOP JUMPDEST PUSH2 0xA2 PUSH2 0x1CD JUMP JUMPDEST PUSH1 0x40 MLOAD PUSH2 0xAF SWAP2 SWAP1 PUSH2 0x485 JUMP JUMPDEST PUSH1 0x40 MLOAD DUP1 SWAP2 SUB SWAP1 RETURN JUMPDEST PUSH2 0xD2 PUSH1 0x4 DUP1 CALLDATASIZE SUB DUP2 ADD SWAP1 PUSH2 0xCD SWAP2 SWAP1 PUSH2 0x438 JUMP JUMPDEST PUSH2 0x1F2 JUMP JUMPDEST STOP JUMPDEST PUSH0 PUSH1 0x20 MSTORE DUP1 PUSH0 MSTORE PUSH1 0x40 PUSH0 KECCAK256 PUSH0 SWAP2 POP SWAP1 POP SLOAD DUP2 JUMP JUMPDEST PUSH1 0x1 PUSH0 SWAP1 SLOAD SWAP1 PUSH2 0x100 EXP SWAP1 DIV PUSH20 0xFFFFFFFFFFFFFFFFFFFFFFFFFFFFFFFFFFFFFFFF AND PUSH20 0xFFFFFFFFFFFFFFFFFFFFFFFFFFFFFFFFFFFFFFFF AND CALLER PUSH20 0xFFFFFFFFFFFFFFFFFFFFFFFFFFFFFFFFFFFFFFFF AND EQ PUSH2 0x177 JUMPI PUSH1 0x40 MLOAD PUSH32 0x8C379A000000000000000000000000000000000000000000000000000000000 DUP2 MSTORE PUSH1 0x4 ADD PUSH2 0x16E SWAP1 PUSH2 0x544 JUMP JUMPDEST PUSH1 0x40 MLOAD DUP1 SWAP2 SUB SWAP1 REVERT JUMPDEST DUP1 PUSH0 PUSH0 DUP5 PUSH20 0xFFFFFFFFFFFFFFFFFFFFFFFFFFFFFFFFFFFFFFFF AND PUSH20 0xFFFFFFFFFFFFFFFFFFFFFFFFFFFFFFFFFFFFFFFF AND DUP2 MSTORE PUSH1 0x20 ADD SWAP1 DUP2 MSTORE PUSH1 0x20 ADD PUSH0 KECCAK256 PUSH0 DUP3 DUP3 SLOAD PUSH2 0x1C2 SWAP2 SWAP1 PUSH2 0x58F JUMP JUMPDEST SWAP3 POP POP DUP2 SWAP1 SSTORE POP POP POP JUMP JUMPDEST PUSH1 0x1 PUSH0 SWAP1 SLOAD SWAP1 PUSH2 0x100 EXP SWAP1 DIV PUSH20 0xFFFFFFFFFFFFFFFFFFFFFFFFFFFFFFFFFFFFFFFF AND DUP2 JUMP JUMPDEST DUP1 PUSH0 PUSH0 CALLER PUSH20 0xFFFFFFFFFFFFFFFFFFFFFFFFFFFFFFFFFFFFFFFF AND PUSH20 0xFFFFFFFFFFFFFFFFFFFFFFFFFFFFFFFFFFFFFFFF AND DUP2 MSTORE PUSH1 0x20 ADD SWAP1 DUP2 MSTORE PUSH1 0x20 ADD PUSH0 KECCAK256 SLOAD LT ISZERO PUSH2 0x271 JUMPI PUSH1 0x40 MLOAD PUSH32 0x8C379A000000000000000000000000000000000000000000000000000000000 DUP2 MSTORE PUSH1 0x4 ADD PUSH2 0x268 SWAP1 PUSH2 0x632 JUMP JUMPDEST PUSH1 0x40 MLOAD DUP1 SWAP2 SUB SWAP1 REVERT JUMPDEST DUP1 PUSH0 PUSH0 CALLER PUSH20 0xFFFFFFFFFFFFFFFFFFFFFFFFFFFFFFFFFFFFFFFF AND PUSH20 0xFFFFFFFFFFFFFFFFFFFFFFFFFFFFFFFFFFFFFFFF AND DUP2 MSTORE PUSH1 0x20 ADD SWAP1 DUP2 MSTORE PUSH1 0x20 ADD PUSH0 KECCAK256 PUSH0 DUP3 DUP3 SLOAD PUSH2 0x2BC SWAP2 SWAP1 PUSH2 0x650 JUMP JUMPDEST SWAP3 POP POP DUP2 SWAP1 SSTORE POP DUP1 PUSH0 PUSH0 DUP5 PUSH20 0xFFFFFFFFFFFFFFFFFFFFFFFFFFFFFFFFFFFFFFFF AND PUSH20 0xFFFFFFFFFFFFFFFFFFFFFFFFFFFFFFFFFFFFFFFF AND DUP2 MSTORE PUSH1 0x20 ADD SWAP1 DUP2 MSTORE PUSH1 0x20 ADD PUSH0 KECCAK256 PUSH0 DUP3 DUP3 SLOAD PUSH2 0x30E SWAP2 SWAP1 PUSH2 0x58F JUMP JUMPDEST SWAP3 POP POP DUP2 SWAP1 SSTORE POP PUSH32 0x3990DB2D31862302A685E8086B5755072A6E2B5B780AF1EE81ECE35EE3CD3345 CALLER DUP4 DUP4 PUSH1 0x40 MLOAD PUSH2 0x348 SWAP4 SWAP3 SWAP2 SWAP1 PUSH2 0x683 JUMP JUMPDEST PUSH1 0x40 MLOAD DUP1 SWAP2 SUB SWAP1 LOG1 POP POP JUMP JUMPDEST PUSH0 PUSH0 REVERT JUMPDEST PUSH0 PUSH20 0xFFFFFFFFFFFFFFFFFFFFFFFFFFFFFFFFFFFFFFFF DUP3 AND SWAP1 POP SWAP2 SWAP1 POP JUMP JUMPDEST PUSH0 PUSH2 0x381 DUP3 PUSH2 0x358 JUMP JUMPDEST SWAP1 POP SWAP2 SWAP1 POP JUMP JUMPDEST PUSH2 0x391 DUP2 PUSH2 0x377 JUMP JUMPDEST DUP2 EQ PUSH2 0x39B JUMPI PUSH0 PUSH0 REVERT JUMPDEST POP JUMP JUMPDEST PUSH0 DUP2 CALLDATALOAD SWAP1 POP PUSH2 0x3AC DUP2 PUSH2 0x388 JUMP JUMPDEST SWAP3 SWAP2 POP POP JUMP JUMPDEST PUSH0 PUSH1 0x20 DUP3 DUP5 SUB SLT ISZERO PUSH2 0x3C7 JUMPI PUSH2 0x3C6 PUSH2 0x354 JUMP JUMPDEST JUMPDEST PUSH0 PUSH2 0x3D4 DUP5 DUP3 DUP6 ADD PUSH2 0x39E JUMP JUMPDEST SWAP2 POP POP SWAP3 SWAP2 POP POP JUMP JUMPDEST PUSH0 DUP2 SWAP1 POP SWAP2 SWAP1 POP JUMP JUMPDEST PUSH2 0x3EF DUP2 PUSH2 0x3DD JUMP JUMPDEST DUP3 MSTORE POP POP JUMP JUMPDEST PUSH0 PUSH1 0x20 DUP3 ADD SWAP1 POP PUSH2 0x408 PUSH0 DUP4 ADD DUP5 PUSH2 0x3E6 JUMP JUMPDEST SWAP3 SWAP2 POP POP JUMP JUMPDEST PUSH2 0x417 DUP2 PUSH2 0x3DD JUMP JUMPDEST DUP2 EQ PUSH2 0x421 JUMPI PUSH0 PUSH0 REVERT JUMPDEST POP JUMP JUMPDEST PUSH0 DUP2 CALLDATALOAD SWAP1 POP PUSH2 0x432 DUP2 PUSH2 0x40E JUMP JUMPDEST SWAP3 SWAP2 POP POP JUMP JUMPDEST PUSH0 PUSH0 PUSH1 0x40 DUP4 DUP6 SUB SLT ISZERO PUSH2 0x44E JUMPI PUSH2 0x44D PUSH2 0x354 JUMP JUMPDEST JUMPDEST PUSH0 PUSH2 0x45B DUP6 DUP3 DUP7 ADD PUSH2 0x39E JUMP JUMPDEST SWAP3 POP POP PUSH1 0x20 PUSH2 0x46C DUP6 DUP3 DUP7 ADD PUSH2 0x424 JUMP JUMPDEST SWAP2 POP POP SWAP3 POP SWAP3 SWAP1 POP JUMP JUMPDEST PUSH2 0x47F DUP2 PUSH2 0x377 JUMP JUMPDEST DUP3 MSTORE POP POP JUMP JUMPDEST PUSH0 PUSH1 0x20 DUP3 ADD SWAP1 POP PUSH2 0x498 PUSH0 DUP4 ADD DUP5 PUSH2 0x476 JUMP JUMPDEST SWAP3 SWAP2 POP POP JUMP JUMPDEST PUSH0 DUP3 DUP3 MSTORE PUSH1 0x20 DUP3 ADD SWAP1 POP SWAP3 SWAP2 POP POP JUMP JUMPDEST PUSH32 0x596F7520617265206E6F7420746865206F776E6572206F662074686520636F6E PUSH0 DUP3 ADD MSTORE PUSH32 0x74726163742E20596F75207374616E64206E6F20726967687420746F206D696E PUSH1 0x20 DUP3 ADD MSTORE PUSH32 0x74206120636F696E2E0000000000000000000000000000000000000000000000 PUSH1 0x40 DUP3 ADD MSTORE POP JUMP JUMPDEST PUSH0 PUSH2 0x52E PUSH1 0x49 DUP4 PUSH2 0x49E JUMP JUMPDEST SWAP2 POP PUSH2 0x539 DUP3 PUSH2 0x4AE JUMP JUMPDEST PUSH1 0x60 DUP3 ADD SWAP1 POP SWAP2 SWAP1 POP JUMP JUMPDEST PUSH0 PUSH1 0x20 DUP3 ADD SWAP1 POP DUP2 DUP2 SUB PUSH0 DUP4 ADD MSTORE PUSH2 0x55B DUP2 PUSH2 0x522 JUMP JUMPDEST SWAP1 POP SWAP2 SWAP1 POP JUMP JUMPDEST PUSH32 0x4E487B7100000000000000000000000000000000000000000000000000000000 PUSH0 MSTORE PUSH1 0x11 PUSH1 0x4 MSTORE PUSH1 0x24 PUSH0 REVERT JUMPDEST PUSH0 PUSH2 0x599 DUP3 PUSH2 0x3DD JUMP JUMPDEST SWAP2 POP PUSH2 0x5A4 DUP4 PUSH2 0x3DD JUMP JUMPDEST SWAP3 POP DUP3 DUP3 ADD SWAP1 POP DUP1 DUP3 GT ISZERO PUSH2 0x5BC JUMPI PUSH2 0x5BB PUSH2 0x562 JUMP JUMPDEST JUMPDEST SWAP3 SWAP2 POP POP JUMP JUMPDEST PUSH32 0x596F75206861766520696E73756666696369656E7420616D6F756E7420696E20 PUSH0 DUP3 ADD MSTORE PUSH32 0x796F75722077616C6C6574000000000000000000000000000000000000000000 PUSH1 0x20 DUP3 ADD MSTORE POP JUMP JUMPDEST PUSH0 PUSH2 0x61C PUSH1 0x2B DUP4 PUSH2 0x49E JUMP JUMPDEST SWAP2 POP PUSH2 0x627 DUP3 PUSH2 0x5C2 JUMP JUMPDEST PUSH1 0x40 DUP3 ADD SWAP1 POP SWAP2 SWAP1 POP JUMP JUMPDEST PUSH0 PUSH1 0x20 DUP3 ADD SWAP1 POP DUP2 DUP2 SUB PUSH0 DUP4 ADD MSTORE PUSH2 0x649 DUP2 PUSH2 0x610 JUMP JUMPDEST SWAP1 POP SWAP2 SWAP1 POP JUMP JUMPDEST PUSH0 PUSH2 0x65A DUP3 PUSH2 0x3DD JUMP JUMPDEST SWAP2 POP PUSH2 0x665 DUP4 PUSH2 0x3DD JUMP JUMPDEST SWAP3 POP DUP3 DUP3 SUB SWAP1 POP DUP2 DUP2 GT ISZERO PUSH2 0x67D JUMPI PUSH2 0x67C PUSH2 0x562 JUMP JUMPDEST JUMPDEST SWAP3 SWAP2 POP POP JUMP JUMPDEST PUSH0 PUSH1 0x60 DUP3 ADD SWAP1 POP PUSH2 0x696 PUSH0 DUP4 ADD DUP7 PUSH2 0x476 JUMP JUMPDEST PUSH2 0x6A3 PUSH1 0x20 DUP4 ADD DUP6 PUSH2 0x476 JUMP JUMPDEST PUSH2 0x6B0 PUSH1 0x40 DUP4 ADD DUP5 PUSH2 0x3E6 JUMP JUMPDEST SWAP5 SWAP4 POP POP POP POP JUMP INVALID LOG2 PUSH5 0x6970667358 0x22 SLT KECCAK256 0xAA ADDRESS 0x25 0x27 BLOBHASH PUSH27 0xEA29078D3E711DB1D754699DF548CF293F1669D9220E2FB7E5EA64 PUSH20 0x6F6C634300081E00330000000000000000000000 "
				},
				"gasEstimates": {
					"creation": {
						"codeDepositCost": "354800",
						"executionCost": "48992",
						"totalCost": "403792"
					},
					"external": {
						"balances(address)": "2779",
						"mint(address,uint256)": "infinite",
						"owner()": "2530",
						"send(address,uint256)": "infinite"
					}
				},
				"methodIdentifiers": {
					"balances(address)": "27e235e3",
					"mint(address,uint256)": "40c10f19",
					"owner()": "8da5cb5b",
					"send(address,uint256)": "d0679d34"
				}
			},
			"storageLayout": {
				"storage": [
					{
						"astId": 5,
						"contract": "aksimplecoin.sol:AkCoin",
						"label": "balances",
						"offset": 0,
						"slot": "0",
						"type": "t_mapping(t_address,t_uint256)"
					},
					{
						"astId": 7,
						"contract": "aksimplecoin.sol:AkCoin",
						"label": "owner",
						"offset": 0,
						"slot": "1",
						"type": "t_address"
					}
				],
				"types": {
					"t_address": {
						"encoding": "inplace",
						"label": "address",
						"numberOfBytes": "20"
					},
					"t_mapping(t_address,t_uint256)": {
						"encoding": "mapping",
						"key": "t_address",
						"label": "mapping(address => uint256)",
						"numberOfBytes": "32",
						"value": "t_uint256"
					},
					"t_uint256": {
						"encoding": "inplace",
						"label": "uint256",
						"numberOfBytes": "32"
					}
				}
			},
			"userdoc": {
				"kind": "user",
				"methods": {},
				"version": 1
			}
		}
	}
}