{
	"soliditybyexampleprac/userdefinedvaluetypes.sol": {
		"Examples": {
			"abi": [
				{
					"inputs": [],
					"name": "example_no_uvdt",
					"outputs": [],
					"stateMutability": "view",
					"type": "function"
				},
				{
					"inputs": [],
					"name": "example_uvdt",
					"outputs": [],
					"stateMutability": "view",
					"type": "function"
				}
			],
			"devdoc": {
				"kind": "dev",
				"methods": {},
				"version": 1
			},
			"evm": {
				"assembly": "    /* \"soliditybyexampleprac/userdefinedvaluetypes.sol\":950:1782  contract Examples{... */\n  mstore(0x40, 0x80)\n  callvalue\n  dup1\n  iszero\n  tag_1\n  jumpi\n  revert(0x00, 0x00)\ntag_1:\n  pop\n  dataSize(sub_0)\n  dup1\n  dataOffset(sub_0)\n  0x00\n  codecopy\n  0x00\n  return\nstop\n\nsub_0: assembly {\n        /* \"soliditybyexampleprac/userdefinedvaluetypes.sol\":950:1782  contract Examples{... */\n      mstore(0x40, 0x80)\n      callvalue\n      dup1\n      iszero\n      tag_1\n      jumpi\n      revert(0x00, 0x00)\n    tag_1:\n      pop\n      jumpi(tag_2, lt(calldatasize, 0x04))\n      shr(0xe0, calldataload(0x00))\n      dup1\n      0x645e9edf\n      eq\n      tag_3\n      jumpi\n      dup1\n      0x9848d8e6\n      eq\n      tag_4\n      jumpi\n    tag_2:\n      revert(0x00, 0x00)\n        /* \"soliditybyexampleprac/userdefinedvaluetypes.sol\":974:1186  function example_no_uvdt() external view{... */\n    tag_3:\n      tag_5\n      tag_6\n      jump\t// in\n    tag_5:\n      stop\n        /* \"soliditybyexampleprac/userdefinedvaluetypes.sol\":1193:1775  function example_uvdt() external view {... */\n    tag_4:\n      tag_7\n      tag_8\n      jump\t// in\n    tag_7:\n      stop\n        /* \"soliditybyexampleprac/userdefinedvaluetypes.sol\":974:1186  function example_no_uvdt() external view{... */\n    tag_6:\n        /* \"soliditybyexampleprac/userdefinedvaluetypes.sol\":1024:1037  uint128 clock */\n      0x00\n        /* \"soliditybyexampleprac/userdefinedvaluetypes.sol\":1047:1055  uint64 d */\n      0x00\n        /* \"soliditybyexampleprac/userdefinedvaluetypes.sol\":1056:1057  1 */\n      0x01\n        /* \"soliditybyexampleprac/userdefinedvaluetypes.sol\":1047:1057  uint64 d=1 */\n      swap1\n      pop\n        /* \"soliditybyexampleprac/userdefinedvaluetypes.sol\":1067:1075  uint64 t */\n      0x00\n        /* \"soliditybyexampleprac/userdefinedvaluetypes.sol\":1083:1098  block.timestamp */\n      timestamp\n        /* \"soliditybyexampleprac/userdefinedvaluetypes.sol\":1067:1099  uint64 t=uint64(block.timestamp) */\n      swap1\n      pop\n        /* \"soliditybyexampleprac/userdefinedvaluetypes.sol\":1116:1139  LibClockBasic.wrap(d,t) */\n      tag_10\n        /* \"soliditybyexampleprac/userdefinedvaluetypes.sol\":1135:1136  d */\n      dup3\n        /* \"soliditybyexampleprac/userdefinedvaluetypes.sol\":1137:1138  t */\n      dup3\n        /* \"soliditybyexampleprac/userdefinedvaluetypes.sol\":1116:1134  LibClockBasic.wrap */\n      tag_11\n        /* \"soliditybyexampleprac/userdefinedvaluetypes.sol\":1116:1139  LibClockBasic.wrap(d,t) */\n      jump\t// in\n    tag_10:\n        /* \"soliditybyexampleprac/userdefinedvaluetypes.sol\":1110:1139  clock=LibClockBasic.wrap(d,t) */\n      swap3\n      pop\n        /* \"soliditybyexampleprac/userdefinedvaluetypes.sol\":1156:1179  LibClockBasic.wrap(t,d) */\n      tag_12\n        /* \"soliditybyexampleprac/userdefinedvaluetypes.sol\":1175:1176  t */\n      dup2\n        /* \"soliditybyexampleprac/userdefinedvaluetypes.sol\":1177:1178  d */\n      dup4\n        /* \"soliditybyexampleprac/userdefinedvaluetypes.sol\":1156:1174  LibClockBasic.wrap */\n      tag_11\n        /* \"soliditybyexampleprac/userdefinedvaluetypes.sol\":1156:1179  LibClockBasic.wrap(t,d) */\n      jump\t// in\n    tag_12:\n        /* \"soliditybyexampleprac/userdefinedvaluetypes.sol\":1150:1179  clock=LibClockBasic.wrap(t,d) */\n      swap3\n      pop\n        /* \"soliditybyexampleprac/userdefinedvaluetypes.sol\":1014:1186  {... */\n      pop\n      pop\n      pop\n        /* \"soliditybyexampleprac/userdefinedvaluetypes.sol\":974:1186  function example_no_uvdt() external view{... */\n      jump\t// out\n        /* \"soliditybyexampleprac/userdefinedvaluetypes.sol\":1193:1775  function example_uvdt() external view {... */\n    tag_8:\n        /* \"soliditybyexampleprac/userdefinedvaluetypes.sol\":1297:1307  Duration d */\n      0x00\n        /* \"soliditybyexampleprac/userdefinedvaluetypes.sol\":1324:1325  1 */\n      0x01\n        /* \"soliditybyexampleprac/userdefinedvaluetypes.sol\":1297:1326  Duration d = Duration.wrap(1) */\n      swap1\n      pop\n        /* \"soliditybyexampleprac/userdefinedvaluetypes.sol\":1336:1347  Timestamp t */\n      0x00\n        /* \"soliditybyexampleprac/userdefinedvaluetypes.sol\":1372:1387  block.timestamp */\n      timestamp\n        /* \"soliditybyexampleprac/userdefinedvaluetypes.sol\":1336:1389  Timestamp t = Timestamp.wrap(uint64(block.timestamp)) */\n      swap1\n      pop\n        /* \"soliditybyexampleprac/userdefinedvaluetypes.sol\":1592:1603  Clock clock */\n      0x00\n        /* \"soliditybyexampleprac/userdefinedvaluetypes.sol\":1617:1618  0 */\n      0x00\n        /* \"soliditybyexampleprac/userdefinedvaluetypes.sol\":1592:1619  Clock clock = Clock.wrap(0) */\n      swap1\n      pop\n        /* \"soliditybyexampleprac/userdefinedvaluetypes.sol\":1637:1656  LibClock.wrap(d, t) */\n      tag_14\n        /* \"soliditybyexampleprac/userdefinedvaluetypes.sol\":1651:1652  d */\n      dup4\n        /* \"soliditybyexampleprac/userdefinedvaluetypes.sol\":1654:1655  t */\n      dup4\n        /* \"soliditybyexampleprac/userdefinedvaluetypes.sol\":1637:1650  LibClock.wrap */\n      tag_15\n        /* \"soliditybyexampleprac/userdefinedvaluetypes.sol\":1637:1656  LibClock.wrap(d, t) */\n      jump\t// in\n    tag_14:\n        /* \"soliditybyexampleprac/userdefinedvaluetypes.sol\":1629:1656  clock = LibClock.wrap(d, t) */\n      swap1\n      pop\n        /* \"soliditybyexampleprac/userdefinedvaluetypes.sol\":1231:1775  {... */\n      pop\n      pop\n      pop\n        /* \"soliditybyexampleprac/userdefinedvaluetypes.sol\":1193:1775  function example_uvdt() external view {... */\n      jump\t// out\n        /* \"soliditybyexampleprac/userdefinedvaluetypes.sol\":765:945  function wrap(uint64 _duration,uint64 _timestamp) internal pure returns(uint128 clock){... */\n    tag_11:\n        /* \"soliditybyexampleprac/userdefinedvaluetypes.sol\":837:850  uint128 clock */\n      0x00\n        /* \"soliditybyexampleprac/userdefinedvaluetypes.sol\":917:927  _timestamp */\n      dup2\n        /* \"soliditybyexampleprac/userdefinedvaluetypes.sol\":906:915  _duration */\n      dup4\n        /* \"soliditybyexampleprac/userdefinedvaluetypes.sol\":901:905  0x40 */\n      0x40\n        /* \"soliditybyexampleprac/userdefinedvaluetypes.sol\":897:916  shl(0x40,_duration) */\n      shl\n        /* \"soliditybyexampleprac/userdefinedvaluetypes.sol\":894:928  or(shl(0x40,_duration),_timestamp) */\n      or\n        /* \"soliditybyexampleprac/userdefinedvaluetypes.sol\":885:928  clock := or(shl(0x40,_duration),_timestamp) */\n      swap1\n      pop\n        /* \"soliditybyexampleprac/userdefinedvaluetypes.sol\":765:945  function wrap(uint64 _duration,uint64 _timestamp) internal pure returns(uint128 clock){... */\n      swap3\n      swap2\n      pop\n      pop\n      jump\t// out\n        /* \"soliditybyexampleprac/userdefinedvaluetypes.sol\":172:356  function wrap(Duration _duration, Timestamp _timestamp) internal pure returns(Clock clock_){... */\n    tag_15:\n        /* \"soliditybyexampleprac/userdefinedvaluetypes.sol\":250:262  Clock clock_ */\n      0x00\n        /* \"soliditybyexampleprac/userdefinedvaluetypes.sol\":329:339  _timestamp */\n      dup2\n        /* \"soliditybyexampleprac/userdefinedvaluetypes.sol\":318:327  _duration */\n      dup4\n        /* \"soliditybyexampleprac/userdefinedvaluetypes.sol\":312:316  0x40 */\n      0x40\n        /* \"soliditybyexampleprac/userdefinedvaluetypes.sol\":308:328  shl(0x40, _duration) */\n      shl\n        /* \"soliditybyexampleprac/userdefinedvaluetypes.sol\":305:340  or(shl(0x40, _duration),_timestamp) */\n      or\n        /* \"soliditybyexampleprac/userdefinedvaluetypes.sol\":295:340  clock_ := or(shl(0x40, _duration),_timestamp) */\n      swap1\n      pop\n        /* \"soliditybyexampleprac/userdefinedvaluetypes.sol\":172:356  function wrap(Duration _duration, Timestamp _timestamp) internal pure returns(Clock clock_){... */\n      swap3\n      swap2\n      pop\n      pop\n      jump\t// out\n\n    auxdata: 0xa2646970667358221220de240610365e9675ebc49a3e2bf023437cbd324e7ce6f2eebdba27f0be06e2b864736f6c634300081e0033\n}\n",
				"bytecode": {
					"linkReferences": {},
					"object": "6080604052348015600e575f5ffd5b5060d780601a5f395ff3fe6080604052348015600e575f5ffd5b50600436106030575f3560e01c8063645e9edf1460345780639848d8e614603c575b5f5ffd5b603a6044565b005b60426067565b005b5f5f600190505f429050605682826083565b9250606081836083565b9250505050565b5f600190505f4290505f5f9050607c83836092565b9050505050565b5f818360401b17905092915050565b5f818360401b1790509291505056fea2646970667358221220de240610365e9675ebc49a3e2bf023437cbd324e7ce6f2eebdba27f0be06e2b864736f6c634300081e0033",
					"opcodes": "PUSH1 0x80 PUSH1 0x40 MSTORE CALLVALUE DUP1 ISZERO PUSH1 0xE JUMPI PUSH0 PUSH0 REVERT JUMPDEST POP PUSH1 0xD7 DUP1 PUSH1 0x1A PUSH0 CODECOPY PUSH0 RETURN INVALID PUSH1 0x80 PUSH1 0x40 MSTORE CALLVALUE DUP1 ISZERO PUSH1 0xE JUMPI PUSH0 PUSH0 REVERT JUMPDEST POP PUSH1 0x4 CALLDATASIZE LT PUSH1 0x30 JUMPI PUSH0 CALLDATALOAD PUSH1 0xE0 SHR DUP1 PUSH4 0x645E9EDF EQ PUSH1 0x34 JUMPI DUP1 PUSH4 0x9848D8E6 EQ PUSH1 0x3C JUMPI JUMPDEST PUSH0 PUSH0 REVERT JUMPDEST PUSH1 0x3A PUSH1 0x44 JUMP JUMPDEST STOP JUMPDEST PUSH1 0x42 PUSH1 0x67 JUMP JUMPDEST STOP JUMPDEST PUSH0 PUSH0 PUSH1 0x1 SWAP1 POP PUSH0 TIMESTAMP SWAP1 POP PUSH1 0x56 DUP3 DUP3 PUSH1 0x83 JUMP JUMPDEST SWAP3 POP PUSH1 0x60 DUP2 DUP4 PUSH1 0x83 JUMP JUMPDEST SWAP3 POP POP POP POP JUMP JUMPDEST PUSH0 PUSH1 0x1 SWAP1 POP PUSH0 TIMESTAMP SWAP1 POP PUSH0 PUSH0 SWAP1 POP PUSH1 0x7C DUP4 DUP4 PUSH1 0x92 JUMP JUMPDEST SWAP1 POP POP POP POP JUMP JUMPDEST PUSH0 DUP2 DUP4 PUSH1 0x40 SHL OR SWAP1 POP SWAP3 SWAP2 POP POP JUMP JUMPDEST PUSH0 DUP2 DUP4 PUSH1 0x40 SHL OR SWAP1 POP SWAP3 SWAP2 POP POP JUMP INVALID LOG2 PUSH5 0x6970667358 0x22 SLT KECCAK256 0xDE 0x24 MOD LT CALLDATASIZE MCOPY SWAP7 PUSH22 0xEBC49A3E2BF023437CBD324E7CE6F2EEBDBA27F0BE06 0xE2 0xB8 PUSH5 0x736F6C6343 STOP ADDMOD 0x1E STOP CALLER "
				},
				"gasEstimates": {
					"creation": {
						"codeDepositCost": "43000",
						"executionCost": "91",
						"totalCost": "43091"
					},
					"external": {
						"example_no_uvdt()": "infinite",
						"example_uvdt()": "244"
					}
				},
				"methodIdentifiers": {
					"example_no_uvdt()": "645e9edf",
					"example_uvdt()": "9848d8e6"
				}
			},
			"storageLayout": {
				"storage": [],
				"types": null
			},
			"userdoc": {
				"kind": "user",
				"methods": {},
				"version": 1
			}
		}
	}
}