{
	"soliditybyexampleprac/mappingnested.sol": {
		"MappingNestedPrac": {
			"abi": [
				{
					"inputs": [
						{
							"internalType": "address",
							"name": "add",
							"type": "address"
						},
						{
							"internalType": "uint256",
							"name": "bal",
							"type": "uint256"
						}
					],
					"name": "get",
					"outputs": [
						{
							"internalType": "bool",
							"name": "",
							"type": "bool"
						}
					],
					"stateMutability": "view",
					"type": "function"
				},
				{
					"inputs": [
						{
							"internalType": "address",
							"name": "add",
							"type": "address"
						},
						{
							"internalType": "uint256",
							"name": "bal",
							"type": "uint256"
						},
						{
							"internalType": "bool",
							"name": "_b",
							"type": "bool"
						}
					],
					"name": "set",
					"outputs": [],
					"stateMutability": "nonpayable",
					"type": "function"
				}
			],
			"devdoc": {
				"kind": "dev",
				"methods": {},
				"version": 1
			},
			"evm": {
				"assembly": "    /* \"soliditybyexampleprac/mappingnested.sol\":71:392  contract MappingNestedPrac{... */\n  mstore(0x40, 0x80)\n    /* \"soliditybyexampleprac/mappingnested.sol\":159:176  uint[3] arr=[1,2] */\n  mload(0x40)\n  dup1\n  0x40\n  add\n  0x40\n  mstore\n  dup1\n    /* \"soliditybyexampleprac/mappingnested.sol\":172:173  1 */\n  0x01\n    /* \"soliditybyexampleprac/mappingnested.sol\":159:176  uint[3] arr=[1,2] */\n  0xff\n  and\n  dup2\n  mstore\n  0x20\n  add\n    /* \"soliditybyexampleprac/mappingnested.sol\":174:175  2 */\n  0x02\n    /* \"soliditybyexampleprac/mappingnested.sol\":159:176  uint[3] arr=[1,2] */\n  0xff\n  and\n  dup2\n  mstore\n  pop\n  0x01\n  swap1\n  0x02\n  tag_1\n  swap3\n  swap2\n  swap1\n  tag_2\n  jump\t// in\ntag_1:\n  pop\n    /* \"soliditybyexampleprac/mappingnested.sol\":71:392  contract MappingNestedPrac{... */\n  callvalue\n  dup1\n  iszero\n  tag_3\n  jumpi\n  revert(0x00, 0x00)\ntag_3:\n  pop\n  jump(tag_4)\ntag_2:\n  dup3\n  0x03\n  dup2\n  add\n  swap3\n  dup3\n  iszero\n  tag_5\n  jumpi\n  swap2\n  0x20\n  mul\n  dup3\n  add\ntag_6:\n  dup3\n  dup2\n  gt\n  iszero\n  tag_7\n  jumpi\n  dup3\n  mload\n  dup3\n  swap1\n  0xff\n  and\n  swap1\n  sstore\n  swap2\n  0x20\n  add\n  swap2\n  swap1\n  0x01\n  add\n  swap1\n  jump(tag_6)\ntag_7:\ntag_5:\n  pop\n  swap1\n  pop\n  tag_8\n  swap2\n  swap1\n  tag_9\n  jump\t// in\ntag_8:\n  pop\n  swap1\n  jump\t// out\ntag_9:\ntag_10:\n  dup1\n  dup3\n  gt\n  iszero\n  tag_11\n  jumpi\n  0x00\n  dup2\n  0x00\n  swap1\n  sstore\n  pop\n  0x01\n  add\n  jump(tag_10)\ntag_11:\n  pop\n  swap1\n  jump\t// out\ntag_4:\n  dataSize(sub_0)\n  dup1\n  dataOffset(sub_0)\n  0x00\n  codecopy\n  0x00\n  return\nstop\n\nsub_0: assembly {\n        /* \"soliditybyexampleprac/mappingnested.sol\":71:392  contract MappingNestedPrac{... */\n      mstore(0x40, 0x80)\n      callvalue\n      dup1\n      iszero\n      tag_1\n      jumpi\n      revert(0x00, 0x00)\n    tag_1:\n      pop\n      jumpi(tag_2, lt(calldatasize, 0x04))\n      shr(0xe0, calldataload(0x00))\n      dup1\n      0x0b139194\n      eq\n      tag_3\n      jumpi\n      dup1\n      0xb464631b\n      eq\n      tag_4\n      jumpi\n    tag_2:\n      revert(0x00, 0x00)\n        /* \"soliditybyexampleprac/mappingnested.sol\":183:278  function set(address add, uint bal, bool _b) public {... */\n    tag_3:\n      tag_5\n      0x04\n      dup1\n      calldatasize\n      sub\n      dup2\n      add\n      swap1\n      tag_6\n      swap2\n      swap1\n      tag_7\n      jump\t// in\n    tag_6:\n      tag_8\n      jump\t// in\n    tag_5:\n      stop\n        /* \"soliditybyexampleprac/mappingnested.sol\":284:390  function get(address add, uint bal) public view returns(bool){... */\n    tag_4:\n      tag_9\n      0x04\n      dup1\n      calldatasize\n      sub\n      dup2\n      add\n      swap1\n      tag_10\n      swap2\n      swap1\n      tag_11\n      jump\t// in\n    tag_10:\n      tag_12\n      jump\t// in\n    tag_9:\n      mload(0x40)\n      tag_13\n      swap2\n      swap1\n      tag_14\n      jump\t// in\n    tag_13:\n      mload(0x40)\n      dup1\n      swap2\n      sub\n      swap1\n      return\n        /* \"soliditybyexampleprac/mappingnested.sol\":183:278  function set(address add, uint bal, bool _b) public {... */\n    tag_8:\n        /* \"soliditybyexampleprac/mappingnested.sol\":268:270  _b */\n      dup1\n        /* \"soliditybyexampleprac/mappingnested.sol\":246:257  balancebool */\n      0x00\n        /* \"soliditybyexampleprac/mappingnested.sol\":246:262  balancebool[add] */\n      0x00\n        /* \"soliditybyexampleprac/mappingnested.sol\":258:261  add */\n      dup6\n        /* \"soliditybyexampleprac/mappingnested.sol\":246:262  balancebool[add] */\n      0xffffffffffffffffffffffffffffffffffffffff\n      and\n      0xffffffffffffffffffffffffffffffffffffffff\n      and\n      dup2\n      mstore\n      0x20\n      add\n      swap1\n      dup2\n      mstore\n      0x20\n      add\n      0x00\n      keccak256\n        /* \"soliditybyexampleprac/mappingnested.sol\":246:267  balancebool[add][bal] */\n      0x00\n        /* \"soliditybyexampleprac/mappingnested.sol\":263:266  bal */\n      dup5\n        /* \"soliditybyexampleprac/mappingnested.sol\":246:267  balancebool[add][bal] */\n      dup2\n      mstore\n      0x20\n      add\n      swap1\n      dup2\n      mstore\n      0x20\n      add\n      0x00\n      keccak256\n      0x00\n        /* \"soliditybyexampleprac/mappingnested.sol\":246:270  balancebool[add][bal]=_b */\n      0x0100\n      exp\n      dup2\n      sload\n      dup2\n      0xff\n      mul\n      not\n      and\n      swap1\n      dup4\n      iszero\n      iszero\n      mul\n      or\n      swap1\n      sstore\n      pop\n        /* \"soliditybyexampleprac/mappingnested.sol\":183:278  function set(address add, uint bal, bool _b) public {... */\n      pop\n      pop\n      pop\n      jump\t// out\n        /* \"soliditybyexampleprac/mappingnested.sol\":284:390  function get(address add, uint bal) public view returns(bool){... */\n    tag_12:\n        /* \"soliditybyexampleprac/mappingnested.sol\":340:344  bool */\n      0x00\n        /* \"soliditybyexampleprac/mappingnested.sol\":362:373  balancebool */\n      0x00\n        /* \"soliditybyexampleprac/mappingnested.sol\":362:378  balancebool[add] */\n      0x00\n        /* \"soliditybyexampleprac/mappingnested.sol\":374:377  add */\n      dup5\n        /* \"soliditybyexampleprac/mappingnested.sol\":362:378  balancebool[add] */\n      0xffffffffffffffffffffffffffffffffffffffff\n      and\n      0xffffffffffffffffffffffffffffffffffffffff\n      and\n      dup2\n      mstore\n      0x20\n      add\n      swap1\n      dup2\n      mstore\n      0x20\n      add\n      0x00\n      keccak256\n        /* \"soliditybyexampleprac/mappingnested.sol\":362:383  balancebool[add][bal] */\n      0x00\n        /* \"soliditybyexampleprac/mappingnested.sol\":379:382  bal */\n      dup4\n        /* \"soliditybyexampleprac/mappingnested.sol\":362:383  balancebool[add][bal] */\n      dup2\n      mstore\n      0x20\n      add\n      swap1\n      dup2\n      mstore\n      0x20\n      add\n      0x00\n      keccak256\n      0x00\n      swap1\n      sload\n      swap1\n      0x0100\n      exp\n      swap1\n      div\n      0xff\n      and\n        /* \"soliditybyexampleprac/mappingnested.sol\":355:383  return balancebool[add][bal] */\n      swap1\n      pop\n        /* \"soliditybyexampleprac/mappingnested.sol\":284:390  function get(address add, uint bal) public view returns(bool){... */\n      swap3\n      swap2\n      pop\n      pop\n      jump\t// out\n        /* \"#utility.yul\":88:205   */\n    tag_18:\n        /* \"#utility.yul\":197:198   */\n      0x00\n        /* \"#utility.yul\":194:195   */\n      0x00\n        /* \"#utility.yul\":187:199   */\n      revert\n        /* \"#utility.yul\":334:460   */\n    tag_20:\n        /* \"#utility.yul\":371:378   */\n      0x00\n        /* \"#utility.yul\":411:453   */\n      0xffffffffffffffffffffffffffffffffffffffff\n        /* \"#utility.yul\":404:409   */\n      dup3\n        /* \"#utility.yul\":400:454   */\n      and\n        /* \"#utility.yul\":389:454   */\n      swap1\n      pop\n        /* \"#utility.yul\":334:460   */\n      swap2\n      swap1\n      pop\n      jump\t// out\n        /* \"#utility.yul\":466:562   */\n    tag_21:\n        /* \"#utility.yul\":503:510   */\n      0x00\n        /* \"#utility.yul\":532:556   */\n      tag_37\n        /* \"#utility.yul\":550:555   */\n      dup3\n        /* \"#utility.yul\":532:556   */\n      tag_20\n      jump\t// in\n    tag_37:\n        /* \"#utility.yul\":521:556   */\n      swap1\n      pop\n        /* \"#utility.yul\":466:562   */\n      swap2\n      swap1\n      pop\n      jump\t// out\n        /* \"#utility.yul\":568:690   */\n    tag_22:\n        /* \"#utility.yul\":641:665   */\n      tag_39\n        /* \"#utility.yul\":659:664   */\n      dup2\n        /* \"#utility.yul\":641:665   */\n      tag_21\n      jump\t// in\n    tag_39:\n        /* \"#utility.yul\":634:639   */\n      dup2\n        /* \"#utility.yul\":631:666   */\n      eq\n        /* \"#utility.yul\":621:684   */\n      tag_40\n      jumpi\n        /* \"#utility.yul\":680:681   */\n      0x00\n        /* \"#utility.yul\":677:678   */\n      0x00\n        /* \"#utility.yul\":670:682   */\n      revert\n        /* \"#utility.yul\":621:684   */\n    tag_40:\n        /* \"#utility.yul\":568:690   */\n      pop\n      jump\t// out\n        /* \"#utility.yul\":696:835   */\n    tag_23:\n        /* \"#utility.yul\":742:747   */\n      0x00\n        /* \"#utility.yul\":780:786   */\n      dup2\n        /* \"#utility.yul\":767:787   */\n      calldataload\n        /* \"#utility.yul\":758:787   */\n      swap1\n      pop\n        /* \"#utility.yul\":796:829   */\n      tag_42\n        /* \"#utility.yul\":823:828   */\n      dup2\n        /* \"#utility.yul\":796:829   */\n      tag_22\n      jump\t// in\n    tag_42:\n        /* \"#utility.yul\":696:835   */\n      swap3\n      swap2\n      pop\n      pop\n      jump\t// out\n        /* \"#utility.yul\":841:918   */\n    tag_24:\n        /* \"#utility.yul\":878:885   */\n      0x00\n        /* \"#utility.yul\":907:912   */\n      dup2\n        /* \"#utility.yul\":896:912   */\n      swap1\n      pop\n        /* \"#utility.yul\":841:918   */\n      swap2\n      swap1\n      pop\n      jump\t// out\n        /* \"#utility.yul\":924:1046   */\n    tag_25:\n        /* \"#utility.yul\":997:1021   */\n      tag_45\n        /* \"#utility.yul\":1015:1020   */\n      dup2\n        /* \"#utility.yul\":997:1021   */\n      tag_24\n      jump\t// in\n    tag_45:\n        /* \"#utility.yul\":990:995   */\n      dup2\n        /* \"#utility.yul\":987:1022   */\n      eq\n        /* \"#utility.yul\":977:1040   */\n      tag_46\n      jumpi\n        /* \"#utility.yul\":1036:1037   */\n      0x00\n        /* \"#utility.yul\":1033:1034   */\n      0x00\n        /* \"#utility.yul\":1026:1038   */\n      revert\n        /* \"#utility.yul\":977:1040   */\n    tag_46:\n        /* \"#utility.yul\":924:1046   */\n      pop\n      jump\t// out\n        /* \"#utility.yul\":1052:1191   */\n    tag_26:\n        /* \"#utility.yul\":1098:1103   */\n      0x00\n        /* \"#utility.yul\":1136:1142   */\n      dup2\n        /* \"#utility.yul\":1123:1143   */\n      calldataload\n        /* \"#utility.yul\":1114:1143   */\n      swap1\n      pop\n        /* \"#utility.yul\":1152:1185   */\n      tag_48\n        /* \"#utility.yul\":1179:1184   */\n      dup2\n        /* \"#utility.yul\":1152:1185   */\n      tag_25\n      jump\t// in\n    tag_48:\n        /* \"#utility.yul\":1052:1191   */\n      swap3\n      swap2\n      pop\n      pop\n      jump\t// out\n        /* \"#utility.yul\":1197:1287   */\n    tag_27:\n        /* \"#utility.yul\":1231:1238   */\n      0x00\n        /* \"#utility.yul\":1274:1279   */\n      dup2\n        /* \"#utility.yul\":1267:1280   */\n      iszero\n        /* \"#utility.yul\":1260:1281   */\n      iszero\n        /* \"#utility.yul\":1249:1281   */\n      swap1\n      pop\n        /* \"#utility.yul\":1197:1287   */\n      swap2\n      swap1\n      pop\n      jump\t// out\n        /* \"#utility.yul\":1293:1409   */\n    tag_28:\n        /* \"#utility.yul\":1363:1384   */\n      tag_51\n        /* \"#utility.yul\":1378:1383   */\n      dup2\n        /* \"#utility.yul\":1363:1384   */\n      tag_27\n      jump\t// in\n    tag_51:\n        /* \"#utility.yul\":1356:1361   */\n      dup2\n        /* \"#utility.yul\":1353:1385   */\n      eq\n        /* \"#utility.yul\":1343:1403   */\n      tag_52\n      jumpi\n        /* \"#utility.yul\":1399:1400   */\n      0x00\n        /* \"#utility.yul\":1396:1397   */\n      0x00\n        /* \"#utility.yul\":1389:1401   */\n      revert\n        /* \"#utility.yul\":1343:1403   */\n    tag_52:\n        /* \"#utility.yul\":1293:1409   */\n      pop\n      jump\t// out\n        /* \"#utility.yul\":1415:1548   */\n    tag_29:\n        /* \"#utility.yul\":1458:1463   */\n      0x00\n        /* \"#utility.yul\":1496:1502   */\n      dup2\n        /* \"#utility.yul\":1483:1503   */\n      calldataload\n        /* \"#utility.yul\":1474:1503   */\n      swap1\n      pop\n        /* \"#utility.yul\":1512:1542   */\n      tag_54\n        /* \"#utility.yul\":1536:1541   */\n      dup2\n        /* \"#utility.yul\":1512:1542   */\n      tag_28\n      jump\t// in\n    tag_54:\n        /* \"#utility.yul\":1415:1548   */\n      swap3\n      swap2\n      pop\n      pop\n      jump\t// out\n        /* \"#utility.yul\":1554:2167   */\n    tag_7:\n        /* \"#utility.yul\":1628:1634   */\n      0x00\n        /* \"#utility.yul\":1636:1642   */\n      0x00\n        /* \"#utility.yul\":1644:1650   */\n      0x00\n        /* \"#utility.yul\":1693:1695   */\n      0x60\n        /* \"#utility.yul\":1681:1690   */\n      dup5\n        /* \"#utility.yul\":1672:1679   */\n      dup7\n        /* \"#utility.yul\":1668:1691   */\n      sub\n        /* \"#utility.yul\":1664:1696   */\n      slt\n        /* \"#utility.yul\":1661:1780   */\n      iszero\n      tag_56\n      jumpi\n        /* \"#utility.yul\":1699:1778   */\n      tag_57\n      tag_18\n      jump\t// in\n    tag_57:\n        /* \"#utility.yul\":1661:1780   */\n    tag_56:\n        /* \"#utility.yul\":1819:1820   */\n      0x00\n        /* \"#utility.yul\":1844:1897   */\n      tag_58\n        /* \"#utility.yul\":1889:1896   */\n      dup7\n        /* \"#utility.yul\":1880:1886   */\n      dup3\n        /* \"#utility.yul\":1869:1878   */\n      dup8\n        /* \"#utility.yul\":1865:1887   */\n      add\n        /* \"#utility.yul\":1844:1897   */\n      tag_23\n      jump\t// in\n    tag_58:\n        /* \"#utility.yul\":1834:1897   */\n      swap4\n      pop\n        /* \"#utility.yul\":1790:1907   */\n      pop\n        /* \"#utility.yul\":1946:1948   */\n      0x20\n        /* \"#utility.yul\":1972:2025   */\n      tag_59\n        /* \"#utility.yul\":2017:2024   */\n      dup7\n        /* \"#utility.yul\":2008:2014   */\n      dup3\n        /* \"#utility.yul\":1997:2006   */\n      dup8\n        /* \"#utility.yul\":1993:2015   */\n      add\n        /* \"#utility.yul\":1972:2025   */\n      tag_26\n      jump\t// in\n    tag_59:\n        /* \"#utility.yul\":1962:2025   */\n      swap3\n      pop\n        /* \"#utility.yul\":1917:2035   */\n      pop\n        /* \"#utility.yul\":2074:2076   */\n      0x40\n        /* \"#utility.yul\":2100:2150   */\n      tag_60\n        /* \"#utility.yul\":2142:2149   */\n      dup7\n        /* \"#utility.yul\":2133:2139   */\n      dup3\n        /* \"#utility.yul\":2122:2131   */\n      dup8\n        /* \"#utility.yul\":2118:2140   */\n      add\n        /* \"#utility.yul\":2100:2150   */\n      tag_29\n      jump\t// in\n    tag_60:\n        /* \"#utility.yul\":2090:2150   */\n      swap2\n      pop\n        /* \"#utility.yul\":2045:2160   */\n      pop\n        /* \"#utility.yul\":1554:2167   */\n      swap3\n      pop\n      swap3\n      pop\n      swap3\n      jump\t// out\n        /* \"#utility.yul\":2173:2647   */\n    tag_11:\n        /* \"#utility.yul\":2241:2247   */\n      0x00\n        /* \"#utility.yul\":2249:2255   */\n      0x00\n        /* \"#utility.yul\":2298:2300   */\n      0x40\n        /* \"#utility.yul\":2286:2295   */\n      dup4\n        /* \"#utility.yul\":2277:2284   */\n      dup6\n        /* \"#utility.yul\":2273:2296   */\n      sub\n        /* \"#utility.yul\":2269:2301   */\n      slt\n        /* \"#utility.yul\":2266:2385   */\n      iszero\n      tag_62\n      jumpi\n        /* \"#utility.yul\":2304:2383   */\n      tag_63\n      tag_18\n      jump\t// in\n    tag_63:\n        /* \"#utility.yul\":2266:2385   */\n    tag_62:\n        /* \"#utility.yul\":2424:2425   */\n      0x00\n        /* \"#utility.yul\":2449:2502   */\n      tag_64\n        /* \"#utility.yul\":2494:2501   */\n      dup6\n        /* \"#utility.yul\":2485:2491   */\n      dup3\n        /* \"#utility.yul\":2474:2483   */\n      dup7\n        /* \"#utility.yul\":2470:2492   */\n      add\n        /* \"#utility.yul\":2449:2502   */\n      tag_23\n      jump\t// in\n    tag_64:\n        /* \"#utility.yul\":2439:2502   */\n      swap3\n      pop\n        /* \"#utility.yul\":2395:2512   */\n      pop\n        /* \"#utility.yul\":2551:2553   */\n      0x20\n        /* \"#utility.yul\":2577:2630   */\n      tag_65\n        /* \"#utility.yul\":2622:2629   */\n      dup6\n        /* \"#utility.yul\":2613:2619   */\n      dup3\n        /* \"#utility.yul\":2602:2611   */\n      dup7\n        /* \"#utility.yul\":2598:2620   */\n      add\n        /* \"#utility.yul\":2577:2630   */\n      tag_26\n      jump\t// in\n    tag_65:\n        /* \"#utility.yul\":2567:2630   */\n      swap2\n      pop\n        /* \"#utility.yul\":2522:2640   */\n      pop\n        /* \"#utility.yul\":2173:2647   */\n      swap3\n      pop\n      swap3\n      swap1\n      pop\n      jump\t// out\n        /* \"#utility.yul\":2653:2762   */\n    tag_30:\n        /* \"#utility.yul\":2734:2755   */\n      tag_67\n        /* \"#utility.yul\":2749:2754   */\n      dup2\n        /* \"#utility.yul\":2734:2755   */\n      tag_27\n      jump\t// in\n    tag_67:\n        /* \"#utility.yul\":2729:2732   */\n      dup3\n        /* \"#utility.yul\":2722:2756   */\n      mstore\n        /* \"#utility.yul\":2653:2762   */\n      pop\n      pop\n      jump\t// out\n        /* \"#utility.yul\":2768:2978   */\n    tag_14:\n        /* \"#utility.yul\":2855:2859   */\n      0x00\n        /* \"#utility.yul\":2893:2895   */\n      0x20\n        /* \"#utility.yul\":2882:2891   */\n      dup3\n        /* \"#utility.yul\":2878:2896   */\n      add\n        /* \"#utility.yul\":2870:2896   */\n      swap1\n      pop\n        /* \"#utility.yul\":2906:2971   */\n      tag_69\n        /* \"#utility.yul\":2968:2969   */\n      0x00\n        /* \"#utility.yul\":2957:2966   */\n      dup4\n        /* \"#utility.yul\":2953:2970   */\n      add\n        /* \"#utility.yul\":2944:2950   */\n      dup5\n        /* \"#utility.yul\":2906:2971   */\n      tag_30\n      jump\t// in\n    tag_69:\n        /* \"#utility.yul\":2768:2978   */\n      swap3\n      swap2\n      pop\n      pop\n      jump\t// out\n\n    auxdata: 0xa2646970667358221220db2a2b895cc609b0066539153959a50cf453656ff22ac840f8458c313591ad3164736f6c634300081e0033\n}\n",
				"bytecode": {
					"linkReferences": {},
					"object": "60806040526040518060400160405280600160ff168152602001600260ff168152506001906002602f929190603f565b50348015603a575f5ffd5b506098565b82600381019282156070579160200282015b82811115606f578251829060ff169055916020019190600101906051565b5b509050607b9190607f565b5090565b5b808211156094575f815f9055506001016080565b5090565b6102fe806100a55f395ff3fe608060405234801561000f575f5ffd5b5060043610610034575f3560e01c80630b13919414610038578063b464631b14610054575b5f5ffd5b610052600480360381019061004d9190610212565b610084565b005b61006e60048036038101906100699190610262565b6100eb565b60405161007b91906102af565b60405180910390f35b805f5f8573ffffffffffffffffffffffffffffffffffffffff1673ffffffffffffffffffffffffffffffffffffffff1681526020019081526020015f205f8481526020019081526020015f205f6101000a81548160ff021916908315150217905550505050565b5f5f5f8473ffffffffffffffffffffffffffffffffffffffff1673ffffffffffffffffffffffffffffffffffffffff1681526020019081526020015f205f8381526020019081526020015f205f9054906101000a900460ff16905092915050565b5f5ffd5b5f73ffffffffffffffffffffffffffffffffffffffff82169050919050565b5f61017982610150565b9050919050565b6101898161016f565b8114610193575f5ffd5b50565b5f813590506101a481610180565b92915050565b5f819050919050565b6101bc816101aa565b81146101c6575f5ffd5b50565b5f813590506101d7816101b3565b92915050565b5f8115159050919050565b6101f1816101dd565b81146101fb575f5ffd5b50565b5f8135905061020c816101e8565b92915050565b5f5f5f606084860312156102295761022861014c565b5b5f61023686828701610196565b9350506020610247868287016101c9565b9250506040610258868287016101fe565b9150509250925092565b5f5f604083850312156102785761027761014c565b5b5f61028585828601610196565b9250506020610296858286016101c9565b9150509250929050565b6102a9816101dd565b82525050565b5f6020820190506102c25f8301846102a0565b9291505056fea2646970667358221220db2a2b895cc609b0066539153959a50cf453656ff22ac840f8458c313591ad3164736f6c634300081e0033",
					"opcodes": "PUSH1 0x80 PUSH1 0x40 MSTORE PUSH1 0x40 MLOAD DUP1 PUSH1 0x40 ADD PUSH1 0x40 MSTORE DUP1 PUSH1 0x1 PUSH1 0xFF AND DUP2 MSTORE PUSH1 0x20 ADD PUSH1 0x2 PUSH1 0xFF AND DUP2 MSTORE POP PUSH1 0x1 SWAP1 PUSH1 0x2 PUSH1 0x2F SWAP3 SWAP2 SWAP1 PUSH1 0x3F JUMP JUMPDEST POP CALLVALUE DUP1 ISZERO PUSH1 0x3A JUMPI PUSH0 PUSH0 REVERT JUMPDEST POP PUSH1 0x98 JUMP JUMPDEST DUP3 PUSH1 0x3 DUP2 ADD SWAP3 DUP3 ISZERO PUSH1 0x70 JUMPI SWAP2 PUSH1 0x20 MUL DUP3 ADD JUMPDEST DUP3 DUP2 GT ISZERO PUSH1 0x6F JUMPI DUP3 MLOAD DUP3 SWAP1 PUSH1 0xFF AND SWAP1 SSTORE SWAP2 PUSH1 0x20 ADD SWAP2 SWAP1 PUSH1 0x1 ADD SWAP1 PUSH1 0x51 JUMP JUMPDEST JUMPDEST POP SWAP1 POP PUSH1 0x7B SWAP2 SWAP1 PUSH1 0x7F JUMP JUMPDEST POP SWAP1 JUMP JUMPDEST JUMPDEST DUP1 DUP3 GT ISZERO PUSH1 0x94 JUMPI PUSH0 DUP2 PUSH0 SWAP1 SSTORE POP PUSH1 0x1 ADD PUSH1 0x80 JUMP JUMPDEST POP SWAP1 JUMP JUMPDEST PUSH2 0x2FE DUP1 PUSH2 0xA5 PUSH0 CODECOPY PUSH0 RETURN INVALID PUSH1 0x80 PUSH1 0x40 MSTORE CALLVALUE DUP1 ISZERO PUSH2 0xF JUMPI PUSH0 PUSH0 REVERT JUMPDEST POP PUSH1 0x4 CALLDATASIZE LT PUSH2 0x34 JUMPI PUSH0 CALLDATALOAD PUSH1 0xE0 SHR DUP1 PUSH4 0xB139194 EQ PUSH2 0x38 JUMPI DUP1 PUSH4 0xB464631B EQ PUSH2 0x54 JUMPI JUMPDEST PUSH0 PUSH0 REVERT JUMPDEST PUSH2 0x52 PUSH1 0x4 DUP1 CALLDATASIZE SUB DUP2 ADD SWAP1 PUSH2 0x4D SWAP2 SWAP1 PUSH2 0x212 JUMP JUMPDEST PUSH2 0x84 JUMP JUMPDEST STOP JUMPDEST PUSH2 0x6E PUSH1 0x4 DUP1 CALLDATASIZE SUB DUP2 ADD SWAP1 PUSH2 0x69 SWAP2 SWAP1 PUSH2 0x262 JUMP JUMPDEST PUSH2 0xEB JUMP JUMPDEST PUSH1 0x40 MLOAD PUSH2 0x7B SWAP2 SWAP1 PUSH2 0x2AF JUMP JUMPDEST PUSH1 0x40 MLOAD DUP1 SWAP2 SUB SWAP1 RETURN JUMPDEST DUP1 PUSH0 PUSH0 DUP6 PUSH20 0xFFFFFFFFFFFFFFFFFFFFFFFFFFFFFFFFFFFFFFFF AND PUSH20 0xFFFFFFFFFFFFFFFFFFFFFFFFFFFFFFFFFFFFFFFF AND DUP2 MSTORE PUSH1 0x20 ADD SWAP1 DUP2 MSTORE PUSH1 0x20 ADD PUSH0 KECCAK256 PUSH0 DUP5 DUP2 MSTORE PUSH1 0x20 ADD SWAP1 DUP2 MSTORE PUSH1 0x20 ADD PUSH0 KECCAK256 PUSH0 PUSH2 0x100 EXP DUP2 SLOAD DUP2 PUSH1 0xFF MUL NOT AND SWAP1 DUP4 ISZERO ISZERO MUL OR SWAP1 SSTORE POP POP POP POP JUMP JUMPDEST PUSH0 PUSH0 PUSH0 DUP5 PUSH20 0xFFFFFFFFFFFFFFFFFFFFFFFFFFFFFFFFFFFFFFFF AND PUSH20 0xFFFFFFFFFFFFFFFFFFFFFFFFFFFFFFFFFFFFFFFF AND DUP2 MSTORE PUSH1 0x20 ADD SWAP1 DUP2 MSTORE PUSH1 0x20 ADD PUSH0 KECCAK256 PUSH0 DUP4 DUP2 MSTORE PUSH1 0x20 ADD SWAP1 DUP2 MSTORE PUSH1 0x20 ADD PUSH0 KECCAK256 PUSH0 SWAP1 SLOAD SWAP1 PUSH2 0x100 EXP SWAP1 DIV PUSH1 0xFF AND SWAP1 POP SWAP3 SWAP2 POP POP JUMP JUMPDEST PUSH0 PUSH0 REVERT JUMPDEST PUSH0 PUSH20 0xFFFFFFFFFFFFFFFFFFFFFFFFFFFFFFFFFFFFFFFF DUP3 AND SWAP1 POP SWAP2 SWAP1 POP JUMP JUMPDEST PUSH0 PUSH2 0x179 DUP3 PUSH2 0x150 JUMP JUMPDEST SWAP1 POP SWAP2 SWAP1 POP JUMP JUMPDEST PUSH2 0x189 DUP2 PUSH2 0x16F JUMP JUMPDEST DUP2 EQ PUSH2 0x193 JUMPI PUSH0 PUSH0 REVERT JUMPDEST POP JUMP JUMPDEST PUSH0 DUP2 CALLDATALOAD SWAP1 POP PUSH2 0x1A4 DUP2 PUSH2 0x180 JUMP JUMPDEST SWAP3 SWAP2 POP POP JUMP JUMPDEST PUSH0 DUP2 SWAP1 POP SWAP2 SWAP1 POP JUMP JUMPDEST PUSH2 0x1BC DUP2 PUSH2 0x1AA JUMP JUMPDEST DUP2 EQ PUSH2 0x1C6 JUMPI PUSH0 PUSH0 REVERT JUMPDEST POP JUMP JUMPDEST PUSH0 DUP2 CALLDATALOAD SWAP1 POP PUSH2 0x1D7 DUP2 PUSH2 0x1B3 JUMP JUMPDEST SWAP3 SWAP2 POP POP JUMP JUMPDEST PUSH0 DUP2 ISZERO ISZERO SWAP1 POP SWAP2 SWAP1 POP JUMP JUMPDEST PUSH2 0x1F1 DUP2 PUSH2 0x1DD JUMP JUMPDEST DUP2 EQ PUSH2 0x1FB JUMPI PUSH0 PUSH0 REVERT JUMPDEST POP JUMP JUMPDEST PUSH0 DUP2 CALLDATALOAD SWAP1 POP PUSH2 0x20C DUP2 PUSH2 0x1E8 JUMP JUMPDEST SWAP3 SWAP2 POP POP JUMP JUMPDEST PUSH0 PUSH0 PUSH0 PUSH1 0x60 DUP5 DUP7 SUB SLT ISZERO PUSH2 0x229 JUMPI PUSH2 0x228 PUSH2 0x14C JUMP JUMPDEST JUMPDEST PUSH0 PUSH2 0x236 DUP7 DUP3 DUP8 ADD PUSH2 0x196 JUMP JUMPDEST SWAP4 POP POP PUSH1 0x20 PUSH2 0x247 DUP7 DUP3 DUP8 ADD PUSH2 0x1C9 JUMP JUMPDEST SWAP3 POP POP PUSH1 0x40 PUSH2 0x258 DUP7 DUP3 DUP8 ADD PUSH2 0x1FE JUMP JUMPDEST SWAP2 POP POP SWAP3 POP SWAP3 POP SWAP3 JUMP JUMPDEST PUSH0 PUSH0 PUSH1 0x40 DUP4 DUP6 SUB SLT ISZERO PUSH2 0x278 JUMPI PUSH2 0x277 PUSH2 0x14C JUMP JUMPDEST JUMPDEST PUSH0 PUSH2 0x285 DUP6 DUP3 DUP7 ADD PUSH2 0x196 JUMP JUMPDEST SWAP3 POP POP PUSH1 0x20 PUSH2 0x296 DUP6 DUP3 DUP7 ADD PUSH2 0x1C9 JUMP JUMPDEST SWAP2 POP POP SWAP3 POP SWAP3 SWAP1 POP JUMP JUMPDEST PUSH2 0x2A9 DUP2 PUSH2 0x1DD JUMP JUMPDEST DUP3 MSTORE POP POP JUMP JUMPDEST PUSH0 PUSH1 0x20 DUP3 ADD SWAP1 POP PUSH2 0x2C2 PUSH0 DUP4 ADD DUP5 PUSH2 0x2A0 JUMP JUMPDEST SWAP3 SWAP2 POP POP JUMP INVALID LOG2 PUSH5 0x6970667358 0x22 SLT KECCAK256 0xDB 0x2A 0x2B DUP10 TLOAD 0xC6 MULMOD 0xB0 MOD PUSH6 0x39153959A50C DELEGATECALL MSTORE8 PUSH6 0x6FF22AC840F8 GASLIMIT DUP13 BALANCE CALLDATALOAD SWAP2 0xAD BALANCE PUSH5 0x736F6C6343 STOP ADDMOD 0x1E STOP CALLER "
				},
				"gasEstimates": {
					"creation": {
						"codeDepositCost": "153200",
						"executionCost": "infinite",
						"totalCost": "infinite"
					},
					"external": {
						"get(address,uint256)": "3115",
						"set(address,uint256,bool)": "25199"
					}
				},
				"methodIdentifiers": {
					"get(address,uint256)": "b464631b",
					"set(address,uint256,bool)": "0b139194"
				}
			},
			"storageLayout": {
				"storage": [
					{
						"astId": 7,
						"contract": "soliditybyexampleprac/mappingnested.sol:MappingNestedPrac",
						"label": "balancebool",
						"offset": 0,
						"slot": "0",
						"type": "t_mapping(t_address,t_mapping(t_uint256,t_bool))"
					},
					{
						"astId": 14,
						"contract": "soliditybyexampleprac/mappingnested.sol:MappingNestedPrac",
						"label": "arr",
						"offset": 0,
						"slot": "1",
						"type": "t_array(t_uint256)3_storage"
					}
				],
				"types": {
					"t_address": {
						"encoding": "inplace",
						"label": "address",
						"numberOfBytes": "20"
					},
					"t_array(t_uint256)3_storage": {
						"base": "t_uint256",
						"encoding": "inplace",
						"label": "uint256[3]",
						"numberOfBytes": "96"
					},
					"t_bool": {
						"encoding": "inplace",
						"label": "bool",
						"numberOfBytes": "1"
					},
					"t_mapping(t_address,t_mapping(t_uint256,t_bool))": {
						"encoding": "mapping",
						"key": "t_address",
						"label": "mapping(address => mapping(uint256 => bool))",
						"numberOfBytes": "32",
						"value": "t_mapping(t_uint256,t_bool)"
					},
					"t_mapping(t_uint256,t_bool)": {
						"encoding": "mapping",
						"key": "t_uint256",
						"label": "mapping(uint256 => bool)",
						"numberOfBytes": "32",
						"value": "t_bool"
					},
					"t_uint256": {
						"encoding": "inplace",
						"label": "uint256",
						"numberOfBytes": "32"
					}
				}
			},
			"userdoc": {
				"kind": "user",
				"methods": {},
				"version": 1
			}
		}
	}
}