{
	"soliditybyexampleprac/function.sol": {
		"FunctionPract": {
			"abi": [
				{
					"inputs": [],
					"name": "assigned",
					"outputs": [
						{
							"internalType": "uint256",
							"name": "x",
							"type": "uint256"
						},
						{
							"internalType": "bool",
							"name": "b",
							"type": "bool"
						},
						{
							"internalType": "uint256",
							"name": "y",
							"type": "uint256"
						}
					],
					"stateMutability": "pure",
					"type": "function"
				},
				{
					"inputs": [],
					"name": "callFuncWithKeyValue",
					"outputs": [
						{
							"internalType": "uint256",
							"name": "",
							"type": "uint256"
						}
					],
					"stateMutability": "pure",
					"type": "function"
				},
				{
					"inputs": [],
					"name": "destructuringAssignments",
					"outputs": [
						{
							"internalType": "uint256",
							"name": "",
							"type": "uint256"
						},
						{
							"internalType": "bool",
							"name": "",
							"type": "bool"
						},
						{
							"internalType": "uint256",
							"name": "",
							"type": "uint256"
						},
						{
							"internalType": "uint256",
							"name": "",
							"type": "uint256"
						},
						{
							"internalType": "uint256",
							"name": "",
							"type": "uint256"
						}
					],
					"stateMutability": "pure",
					"type": "function"
				},
				{
					"inputs": [],
					"name": "named",
					"outputs": [
						{
							"internalType": "uint256",
							"name": "x",
							"type": "uint256"
						},
						{
							"internalType": "bool",
							"name": "b",
							"type": "bool"
						},
						{
							"internalType": "uint256",
							"name": "y",
							"type": "uint256"
						}
					],
					"stateMutability": "pure",
					"type": "function"
				},
				{
					"inputs": [],
					"name": "returnMany",
					"outputs": [
						{
							"internalType": "uint256",
							"name": "",
							"type": "uint256"
						},
						{
							"internalType": "bool",
							"name": "",
							"type": "bool"
						},
						{
							"internalType": "uint256",
							"name": "",
							"type": "uint256"
						}
					],
					"stateMutability": "pure",
					"type": "function"
				},
				{
					"inputs": [
						{
							"internalType": "uint256",
							"name": "x",
							"type": "uint256"
						},
						{
							"internalType": "uint256",
							"name": "y",
							"type": "uint256"
						},
						{
							"internalType": "uint256",
							"name": "z",
							"type": "uint256"
						},
						{
							"internalType": "address",
							"name": "a",
							"type": "address"
						},
						{
							"internalType": "bool",
							"name": "b",
							"type": "bool"
						},
						{
							"internalType": "string",
							"name": "c",
							"type": "string"
						}
					],
					"name": "someFuncWithManyInputs",
					"outputs": [
						{
							"internalType": "uint256",
							"name": "",
							"type": "uint256"
						}
					],
					"stateMutability": "pure",
					"type": "function"
				}
			],
			"devdoc": {
				"kind": "dev",
				"methods": {},
				"version": 1
			},
			"evm": {
				"assembly": "    /* \"soliditybyexampleprac/function.sol\":72:1295  contract FunctionPract{... */\n  mstore(0x40, 0x80)\n    /* \"soliditybyexampleprac/function.sol\":112:113  1 */\n  0x01\n    /* \"soliditybyexampleprac/function.sol\":101:113  uint value=1 */\n  0x00\n  sstore\n    /* \"soliditybyexampleprac/function.sol\":72:1295  contract FunctionPract{... */\n  callvalue\n  dup1\n  iszero\n  tag_1\n  jumpi\n  revert(0x00, 0x00)\ntag_1:\n  pop\n  dataSize(sub_0)\n  dup1\n  dataOffset(sub_0)\n  0x00\n  codecopy\n  0x00\n  return\nstop\n\nsub_0: assembly {\n        /* \"soliditybyexampleprac/function.sol\":72:1295  contract FunctionPract{... */\n      mstore(0x40, 0x80)\n      callvalue\n      dup1\n      iszero\n      tag_1\n      jumpi\n      revert(0x00, 0x00)\n    tag_1:\n      pop\n      jumpi(tag_2, lt(calldatasize, 0x04))\n      shr(0xe0, calldataload(0x00))\n      dup1\n      0x127b4e08\n      eq\n      tag_3\n      jumpi\n      dup1\n      0x45f907a8\n      eq\n      tag_4\n      jumpi\n      dup1\n      0x68873440\n      eq\n      tag_5\n      jumpi\n      dup1\n      0x72057987\n      eq\n      tag_6\n      jumpi\n      dup1\n      0x86887544\n      eq\n      tag_7\n      jumpi\n      dup1\n      0xadb4d990\n      eq\n      tag_8\n      jumpi\n    tag_2:\n      revert(0x00, 0x00)\n        /* \"soliditybyexampleprac/function.sol\":835:1022  function someFuncWithManyInputs(... */\n    tag_3:\n      tag_9\n      0x04\n      dup1\n      calldatasize\n      sub\n      dup2\n      add\n      swap1\n      tag_10\n      swap2\n      swap1\n      tag_11\n      jump\t// in\n    tag_10:\n      tag_12\n      jump\t// in\n    tag_9:\n      mload(0x40)\n      tag_13\n      swap2\n      swap1\n      tag_14\n      jump\t// in\n    tag_13:\n      mload(0x40)\n      dup1\n      swap2\n      sub\n      swap1\n      return\n        /* \"soliditybyexampleprac/function.sol\":278:382  function named() public pure returns (uint256 x, bool b, uint256 y) {... */\n    tag_4:\n      tag_15\n      tag_16\n      jump\t// in\n    tag_15:\n      mload(0x40)\n      tag_17\n      swap4\n      swap3\n      swap2\n      swap1\n      tag_18\n      jump\t// in\n    tag_17:\n      mload(0x40)\n      dup1\n      swap2\n      sub\n      swap1\n      return\n        /* \"soliditybyexampleprac/function.sol\":526:829  function destructuringAssignments()... */\n    tag_5:\n      tag_19\n      tag_20\n      jump\t// in\n    tag_19:\n      mload(0x40)\n      tag_21\n      swap6\n      swap5\n      swap4\n      swap3\n      swap2\n      swap1\n      tag_22\n      jump\t// in\n    tag_21:\n      mload(0x40)\n      dup1\n      swap2\n      sub\n      swap1\n      return\n        /* \"soliditybyexampleprac/function.sol\":1037:1286  function callFuncWithKeyValue() external pure returns (uint256) {... */\n    tag_6:\n      tag_23\n      tag_24\n      jump\t// in\n    tag_23:\n      mload(0x40)\n      tag_25\n      swap2\n      swap1\n      tag_14\n      jump\t// in\n    tag_25:\n      mload(0x40)\n      dup1\n      swap2\n      sub\n      swap1\n      return\n        /* \"soliditybyexampleprac/function.sol\":134:237  function returnMany() public pure returns (uint256, bool, uint256) {... */\n    tag_7:\n      tag_26\n      tag_27\n      jump\t// in\n    tag_26:\n      mload(0x40)\n      tag_28\n      swap4\n      swap3\n      swap2\n      swap1\n      tag_18\n      jump\t// in\n    tag_28:\n      mload(0x40)\n      dup1\n      swap2\n      sub\n      swap1\n      return\n        /* \"soliditybyexampleprac/function.sol\":387:513  function assigned() public pure returns (uint256 x, bool b, uint256 y) {... */\n    tag_8:\n      tag_29\n      tag_30\n      jump\t// in\n    tag_29:\n      mload(0x40)\n      tag_31\n      swap4\n      swap3\n      swap2\n      swap1\n      tag_18\n      jump\t// in\n    tag_31:\n      mload(0x40)\n      dup1\n      swap2\n      sub\n      swap1\n      return\n        /* \"soliditybyexampleprac/function.sol\":835:1022  function someFuncWithManyInputs(... */\n    tag_12:\n        /* \"soliditybyexampleprac/function.sol\":1011:1018  uint256 */\n      0x00\n        /* \"soliditybyexampleprac/function.sol\":835:1022  function someFuncWithManyInputs(... */\n      swap7\n      swap6\n      pop\n      pop\n      pop\n      pop\n      pop\n      pop\n      jump\t// out\n        /* \"soliditybyexampleprac/function.sol\":278:382  function named() public pure returns (uint256 x, bool b, uint256 y) {... */\n    tag_16:\n        /* \"soliditybyexampleprac/function.sol\":316:325  uint256 x */\n      0x00\n        /* \"soliditybyexampleprac/function.sol\":327:333  bool b */\n      0x00\n        /* \"soliditybyexampleprac/function.sol\":335:344  uint256 y */\n      0x00\n        /* \"soliditybyexampleprac/function.sol\":364:365  1 */\n      0x01\n        /* \"soliditybyexampleprac/function.sol\":367:371  true */\n      dup1\n        /* \"soliditybyexampleprac/function.sol\":373:374  2 */\n      0x02\n        /* \"soliditybyexampleprac/function.sol\":356:375  return (1, true, 2) */\n      swap3\n      pop\n      swap3\n      pop\n      swap3\n      pop\n        /* \"soliditybyexampleprac/function.sol\":278:382  function named() public pure returns (uint256 x, bool b, uint256 y) {... */\n      swap1\n      swap2\n      swap3\n      jump\t// out\n        /* \"soliditybyexampleprac/function.sol\":526:829  function destructuringAssignments()... */\n    tag_20:\n        /* \"soliditybyexampleprac/function.sol\":607:614  uint256 */\n      0x00\n        /* \"soliditybyexampleprac/function.sol\":616:620  bool */\n      0x00\n        /* \"soliditybyexampleprac/function.sol\":622:629  uint256 */\n      0x00\n        /* \"soliditybyexampleprac/function.sol\":631:638  uint256 */\n      0x00\n        /* \"soliditybyexampleprac/function.sol\":640:647  uint256 */\n      0x00\n        /* \"soliditybyexampleprac/function.sol\":664:673  uint256 i */\n      0x00\n        /* \"soliditybyexampleprac/function.sol\":675:681  bool b */\n      0x00\n        /* \"soliditybyexampleprac/function.sol\":683:692  uint256 j */\n      0x00\n        /* \"soliditybyexampleprac/function.sol\":696:708  returnMany() */\n      tag_35\n        /* \"soliditybyexampleprac/function.sol\":696:706  returnMany */\n      tag_27\n        /* \"soliditybyexampleprac/function.sol\":696:708  returnMany() */\n      jump\t// in\n    tag_35:\n        /* \"soliditybyexampleprac/function.sol\":663:708  (uint256 i, bool b, uint256 j) = returnMany() */\n      swap3\n      pop\n      swap3\n      pop\n      swap3\n      pop\n        /* \"soliditybyexampleprac/function.sol\":755:764  uint256 x */\n      0x00\n        /* \"soliditybyexampleprac/function.sol\":767:776  uint256 y */\n      0x00\n        /* \"soliditybyexampleprac/function.sol\":781:782  4 */\n      0x04\n        /* \"soliditybyexampleprac/function.sol\":784:785  5 */\n      0x05\n        /* \"soliditybyexampleprac/function.sol\":787:788  6 */\n      0x06\n        /* \"soliditybyexampleprac/function.sol\":754:789  (uint256 x,, uint256 y) = (4, 5, 6) */\n      swap3\n      pop\n      pop\n      swap2\n      pop\n        /* \"soliditybyexampleprac/function.sol\":808:809  i */\n      dup5\n        /* \"soliditybyexampleprac/function.sol\":811:812  b */\n      dup5\n        /* \"soliditybyexampleprac/function.sol\":814:815  j */\n      dup5\n        /* \"soliditybyexampleprac/function.sol\":817:818  x */\n      dup5\n        /* \"soliditybyexampleprac/function.sol\":820:821  y */\n      dup5\n        /* \"soliditybyexampleprac/function.sol\":800:822  return (i, b, j, x, y) */\n      swap10\n      pop\n      swap10\n      pop\n      swap10\n      pop\n      swap10\n      pop\n      swap10\n      pop\n      pop\n      pop\n      pop\n      pop\n      pop\n        /* \"soliditybyexampleprac/function.sol\":526:829  function destructuringAssignments()... */\n      swap1\n      swap2\n      swap3\n      swap4\n      swap5\n      jump\t// out\n        /* \"soliditybyexampleprac/function.sol\":1037:1286  function callFuncWithKeyValue() external pure returns (uint256) {... */\n    tag_24:\n        /* \"soliditybyexampleprac/function.sol\":1092:1099  uint256 */\n      0x00\n        /* \"soliditybyexampleprac/function.sol\":1118:1274  someFuncWithManyInputs({... */\n      tag_37\n        /* \"soliditybyexampleprac/function.sol\":1226:1227  1 */\n      0x01\n        /* \"soliditybyexampleprac/function.sol\":1244:1245  2 */\n      0x02\n        /* \"soliditybyexampleprac/function.sol\":1262:1263  3 */\n      0x03\n        /* \"soliditybyexampleprac/function.sol\":1166:1167  0 */\n      0x00\n        /* \"soliditybyexampleprac/function.sol\":1185:1189  true */\n      0x01\n        /* \"soliditybyexampleprac/function.sol\":1118:1274  someFuncWithManyInputs({... */\n      mload(0x40)\n      dup1\n      0x40\n      add\n      0x40\n      mstore\n      dup1\n      0x01\n      dup2\n      mstore\n      0x20\n      add\n      0x6300000000000000000000000000000000000000000000000000000000000000\n      dup2\n      mstore\n      pop\n        /* \"soliditybyexampleprac/function.sol\":1118:1140  someFuncWithManyInputs */\n      tag_12\n        /* \"soliditybyexampleprac/function.sol\":1118:1274  someFuncWithManyInputs({... */\n      jump\t// in\n    tag_37:\n        /* \"soliditybyexampleprac/function.sol\":1111:1274  return someFuncWithManyInputs({... */\n      swap1\n      pop\n        /* \"soliditybyexampleprac/function.sol\":1037:1286  function callFuncWithKeyValue() external pure returns (uint256) {... */\n      swap1\n      jump\t// out\n        /* \"soliditybyexampleprac/function.sol\":134:237  function returnMany() public pure returns (uint256, bool, uint256) {... */\n    tag_27:\n        /* \"soliditybyexampleprac/function.sol\":177:184  uint256 */\n      0x00\n        /* \"soliditybyexampleprac/function.sol\":186:190  bool */\n      0x00\n        /* \"soliditybyexampleprac/function.sol\":192:199  uint256 */\n      0x00\n        /* \"soliditybyexampleprac/function.sol\":219:220  1 */\n      0x01\n        /* \"soliditybyexampleprac/function.sol\":222:226  true */\n      dup1\n        /* \"soliditybyexampleprac/function.sol\":228:229  2 */\n      0x02\n        /* \"soliditybyexampleprac/function.sol\":211:230  return (1, true, 2) */\n      swap3\n      pop\n      swap3\n      pop\n      swap3\n      pop\n        /* \"soliditybyexampleprac/function.sol\":134:237  function returnMany() public pure returns (uint256, bool, uint256) {... */\n      swap1\n      swap2\n      swap3\n      jump\t// out\n        /* \"soliditybyexampleprac/function.sol\":387:513  function assigned() public pure returns (uint256 x, bool b, uint256 y) {... */\n    tag_30:\n        /* \"soliditybyexampleprac/function.sol\":428:437  uint256 x */\n      0x00\n        /* \"soliditybyexampleprac/function.sol\":439:445  bool b */\n      0x00\n        /* \"soliditybyexampleprac/function.sol\":447:456  uint256 y */\n      0x00\n        /* \"soliditybyexampleprac/function.sol\":472:473  1 */\n      0x01\n        /* \"soliditybyexampleprac/function.sol\":468:473  x = 1 */\n      swap3\n      pop\n        /* \"soliditybyexampleprac/function.sol\":487:491  true */\n      0x01\n        /* \"soliditybyexampleprac/function.sol\":483:491  b = true */\n      swap2\n      pop\n        /* \"soliditybyexampleprac/function.sol\":505:506  2 */\n      0x02\n        /* \"soliditybyexampleprac/function.sol\":501:506  y = 2 */\n      swap1\n      pop\n        /* \"soliditybyexampleprac/function.sol\":387:513  function assigned() public pure returns (uint256 x, bool b, uint256 y) {... */\n      swap1\n      swap2\n      swap3\n      jump\t// out\n        /* \"#utility.yul\":7:82   */\n    tag_40:\n        /* \"#utility.yul\":40:46   */\n      0x00\n        /* \"#utility.yul\":73:75   */\n      0x40\n        /* \"#utility.yul\":67:76   */\n      mload\n        /* \"#utility.yul\":57:76   */\n      swap1\n      pop\n        /* \"#utility.yul\":7:82   */\n      swap1\n      jump\t// out\n        /* \"#utility.yul\":88:205   */\n    tag_41:\n        /* \"#utility.yul\":197:198   */\n      0x00\n        /* \"#utility.yul\":194:195   */\n      0x00\n        /* \"#utility.yul\":187:199   */\n      revert\n        /* \"#utility.yul\":211:328   */\n    tag_42:\n        /* \"#utility.yul\":320:321   */\n      0x00\n        /* \"#utility.yul\":317:318   */\n      0x00\n        /* \"#utility.yul\":310:322   */\n      revert\n        /* \"#utility.yul\":334:411   */\n    tag_43:\n        /* \"#utility.yul\":371:378   */\n      0x00\n        /* \"#utility.yul\":400:405   */\n      dup2\n        /* \"#utility.yul\":389:405   */\n      swap1\n      pop\n        /* \"#utility.yul\":334:411   */\n      swap2\n      swap1\n      pop\n      jump\t// out\n        /* \"#utility.yul\":417:539   */\n    tag_44:\n        /* \"#utility.yul\":490:514   */\n      tag_71\n        /* \"#utility.yul\":508:513   */\n      dup2\n        /* \"#utility.yul\":490:514   */\n      tag_43\n      jump\t// in\n    tag_71:\n        /* \"#utility.yul\":483:488   */\n      dup2\n        /* \"#utility.yul\":480:515   */\n      eq\n        /* \"#utility.yul\":470:533   */\n      tag_72\n      jumpi\n        /* \"#utility.yul\":529:530   */\n      0x00\n        /* \"#utility.yul\":526:527   */\n      0x00\n        /* \"#utility.yul\":519:531   */\n      revert\n        /* \"#utility.yul\":470:533   */\n    tag_72:\n        /* \"#utility.yul\":417:539   */\n      pop\n      jump\t// out\n        /* \"#utility.yul\":545:684   */\n    tag_45:\n        /* \"#utility.yul\":591:596   */\n      0x00\n        /* \"#utility.yul\":629:635   */\n      dup2\n        /* \"#utility.yul\":616:636   */\n      calldataload\n        /* \"#utility.yul\":607:636   */\n      swap1\n      pop\n        /* \"#utility.yul\":645:678   */\n      tag_74\n        /* \"#utility.yul\":672:677   */\n      dup2\n        /* \"#utility.yul\":645:678   */\n      tag_44\n      jump\t// in\n    tag_74:\n        /* \"#utility.yul\":545:684   */\n      swap3\n      swap2\n      pop\n      pop\n      jump\t// out\n        /* \"#utility.yul\":690:816   */\n    tag_46:\n        /* \"#utility.yul\":727:734   */\n      0x00\n        /* \"#utility.yul\":767:809   */\n      0xffffffffffffffffffffffffffffffffffffffff\n        /* \"#utility.yul\":760:765   */\n      dup3\n        /* \"#utility.yul\":756:810   */\n      and\n        /* \"#utility.yul\":745:810   */\n      swap1\n      pop\n        /* \"#utility.yul\":690:816   */\n      swap2\n      swap1\n      pop\n      jump\t// out\n        /* \"#utility.yul\":822:918   */\n    tag_47:\n        /* \"#utility.yul\":859:866   */\n      0x00\n        /* \"#utility.yul\":888:912   */\n      tag_77\n        /* \"#utility.yul\":906:911   */\n      dup3\n        /* \"#utility.yul\":888:912   */\n      tag_46\n      jump\t// in\n    tag_77:\n        /* \"#utility.yul\":877:912   */\n      swap1\n      pop\n        /* \"#utility.yul\":822:918   */\n      swap2\n      swap1\n      pop\n      jump\t// out\n        /* \"#utility.yul\":924:1046   */\n    tag_48:\n        /* \"#utility.yul\":997:1021   */\n      tag_79\n        /* \"#utility.yul\":1015:1020   */\n      dup2\n        /* \"#utility.yul\":997:1021   */\n      tag_47\n      jump\t// in\n    tag_79:\n        /* \"#utility.yul\":990:995   */\n      dup2\n        /* \"#utility.yul\":987:1022   */\n      eq\n        /* \"#utility.yul\":977:1040   */\n      tag_80\n      jumpi\n        /* \"#utility.yul\":1036:1037   */\n      0x00\n        /* \"#utility.yul\":1033:1034   */\n      0x00\n        /* \"#utility.yul\":1026:1038   */\n      revert\n        /* \"#utility.yul\":977:1040   */\n    tag_80:\n        /* \"#utility.yul\":924:1046   */\n      pop\n      jump\t// out\n        /* \"#utility.yul\":1052:1191   */\n    tag_49:\n        /* \"#utility.yul\":1098:1103   */\n      0x00\n        /* \"#utility.yul\":1136:1142   */\n      dup2\n        /* \"#utility.yul\":1123:1143   */\n      calldataload\n        /* \"#utility.yul\":1114:1143   */\n      swap1\n      pop\n        /* \"#utility.yul\":1152:1185   */\n      tag_82\n        /* \"#utility.yul\":1179:1184   */\n      dup2\n        /* \"#utility.yul\":1152:1185   */\n      tag_48\n      jump\t// in\n    tag_82:\n        /* \"#utility.yul\":1052:1191   */\n      swap3\n      swap2\n      pop\n      pop\n      jump\t// out\n        /* \"#utility.yul\":1197:1287   */\n    tag_50:\n        /* \"#utility.yul\":1231:1238   */\n      0x00\n        /* \"#utility.yul\":1274:1279   */\n      dup2\n        /* \"#utility.yul\":1267:1280   */\n      iszero\n        /* \"#utility.yul\":1260:1281   */\n      iszero\n        /* \"#utility.yul\":1249:1281   */\n      swap1\n      pop\n        /* \"#utility.yul\":1197:1287   */\n      swap2\n      swap1\n      pop\n      jump\t// out\n        /* \"#utility.yul\":1293:1409   */\n    tag_51:\n        /* \"#utility.yul\":1363:1384   */\n      tag_85\n        /* \"#utility.yul\":1378:1383   */\n      dup2\n        /* \"#utility.yul\":1363:1384   */\n      tag_50\n      jump\t// in\n    tag_85:\n        /* \"#utility.yul\":1356:1361   */\n      dup2\n        /* \"#utility.yul\":1353:1385   */\n      eq\n        /* \"#utility.yul\":1343:1403   */\n      tag_86\n      jumpi\n        /* \"#utility.yul\":1399:1400   */\n      0x00\n        /* \"#utility.yul\":1396:1397   */\n      0x00\n        /* \"#utility.yul\":1389:1401   */\n      revert\n        /* \"#utility.yul\":1343:1403   */\n    tag_86:\n        /* \"#utility.yul\":1293:1409   */\n      pop\n      jump\t// out\n        /* \"#utility.yul\":1415:1548   */\n    tag_52:\n        /* \"#utility.yul\":1458:1463   */\n      0x00\n        /* \"#utility.yul\":1496:1502   */\n      dup2\n        /* \"#utility.yul\":1483:1503   */\n      calldataload\n        /* \"#utility.yul\":1474:1503   */\n      swap1\n      pop\n        /* \"#utility.yul\":1512:1542   */\n      tag_88\n        /* \"#utility.yul\":1536:1541   */\n      dup2\n        /* \"#utility.yul\":1512:1542   */\n      tag_51\n      jump\t// in\n    tag_88:\n        /* \"#utility.yul\":1415:1548   */\n      swap3\n      swap2\n      pop\n      pop\n      jump\t// out\n        /* \"#utility.yul\":1554:1671   */\n    tag_53:\n        /* \"#utility.yul\":1663:1664   */\n      0x00\n        /* \"#utility.yul\":1660:1661   */\n      0x00\n        /* \"#utility.yul\":1653:1665   */\n      revert\n        /* \"#utility.yul\":1677:1794   */\n    tag_54:\n        /* \"#utility.yul\":1786:1787   */\n      0x00\n        /* \"#utility.yul\":1783:1784   */\n      0x00\n        /* \"#utility.yul\":1776:1788   */\n      revert\n        /* \"#utility.yul\":1800:1902   */\n    tag_55:\n        /* \"#utility.yul\":1841:1847   */\n      0x00\n        /* \"#utility.yul\":1892:1894   */\n      0x1f\n        /* \"#utility.yul\":1888:1895   */\n      not\n        /* \"#utility.yul\":1883:1885   */\n      0x1f\n        /* \"#utility.yul\":1876:1881   */\n      dup4\n        /* \"#utility.yul\":1872:1886   */\n      add\n        /* \"#utility.yul\":1868:1896   */\n      and\n        /* \"#utility.yul\":1858:1896   */\n      swap1\n      pop\n        /* \"#utility.yul\":1800:1902   */\n      swap2\n      swap1\n      pop\n      jump\t// out\n        /* \"#utility.yul\":1908:2088   */\n    tag_56:\n        /* \"#utility.yul\":1956:2033   */\n      0x4e487b7100000000000000000000000000000000000000000000000000000000\n        /* \"#utility.yul\":1953:1954   */\n      0x00\n        /* \"#utility.yul\":1946:2034   */\n      mstore\n        /* \"#utility.yul\":2053:2057   */\n      0x41\n        /* \"#utility.yul\":2050:2051   */\n      0x04\n        /* \"#utility.yul\":2043:2058   */\n      mstore\n        /* \"#utility.yul\":2077:2081   */\n      0x24\n        /* \"#utility.yul\":2074:2075   */\n      0x00\n        /* \"#utility.yul\":2067:2082   */\n      revert\n        /* \"#utility.yul\":2094:2375   */\n    tag_57:\n        /* \"#utility.yul\":2177:2204   */\n      tag_94\n        /* \"#utility.yul\":2199:2203   */\n      dup3\n        /* \"#utility.yul\":2177:2204   */\n      tag_55\n      jump\t// in\n    tag_94:\n        /* \"#utility.yul\":2169:2175   */\n      dup2\n        /* \"#utility.yul\":2165:2205   */\n      add\n        /* \"#utility.yul\":2307:2313   */\n      dup2\n        /* \"#utility.yul\":2295:2305   */\n      dup2\n        /* \"#utility.yul\":2292:2314   */\n      lt\n        /* \"#utility.yul\":2271:2289   */\n      0xffffffffffffffff\n        /* \"#utility.yul\":2259:2269   */\n      dup3\n        /* \"#utility.yul\":2256:2290   */\n      gt\n        /* \"#utility.yul\":2253:2315   */\n      or\n        /* \"#utility.yul\":2250:2338   */\n      iszero\n      tag_95\n      jumpi\n        /* \"#utility.yul\":2318:2336   */\n      tag_96\n      tag_56\n      jump\t// in\n    tag_96:\n        /* \"#utility.yul\":2250:2338   */\n    tag_95:\n        /* \"#utility.yul\":2358:2368   */\n      dup1\n        /* \"#utility.yul\":2354:2356   */\n      0x40\n        /* \"#utility.yul\":2347:2369   */\n      mstore\n        /* \"#utility.yul\":2137:2375   */\n      pop\n        /* \"#utility.yul\":2094:2375   */\n      pop\n      pop\n      jump\t// out\n        /* \"#utility.yul\":2381:2510   */\n    tag_58:\n        /* \"#utility.yul\":2415:2421   */\n      0x00\n        /* \"#utility.yul\":2442:2462   */\n      tag_98\n      tag_40\n      jump\t// in\n    tag_98:\n        /* \"#utility.yul\":2432:2462   */\n      swap1\n      pop\n        /* \"#utility.yul\":2471:2504   */\n      tag_99\n        /* \"#utility.yul\":2499:2503   */\n      dup3\n        /* \"#utility.yul\":2491:2497   */\n      dup3\n        /* \"#utility.yul\":2471:2504   */\n      tag_57\n      jump\t// in\n    tag_99:\n        /* \"#utility.yul\":2381:2510   */\n      swap2\n      swap1\n      pop\n      jump\t// out\n        /* \"#utility.yul\":2516:2824   */\n    tag_59:\n        /* \"#utility.yul\":2578:2582   */\n      0x00\n        /* \"#utility.yul\":2668:2686   */\n      0xffffffffffffffff\n        /* \"#utility.yul\":2660:2666   */\n      dup3\n        /* \"#utility.yul\":2657:2687   */\n      gt\n        /* \"#utility.yul\":2654:2710   */\n      iszero\n      tag_101\n      jumpi\n        /* \"#utility.yul\":2690:2708   */\n      tag_102\n      tag_56\n      jump\t// in\n    tag_102:\n        /* \"#utility.yul\":2654:2710   */\n    tag_101:\n        /* \"#utility.yul\":2728:2757   */\n      tag_103\n        /* \"#utility.yul\":2750:2756   */\n      dup3\n        /* \"#utility.yul\":2728:2757   */\n      tag_55\n      jump\t// in\n    tag_103:\n        /* \"#utility.yul\":2720:2757   */\n      swap1\n      pop\n        /* \"#utility.yul\":2812:2816   */\n      0x20\n        /* \"#utility.yul\":2806:2810   */\n      dup2\n        /* \"#utility.yul\":2802:2817   */\n      add\n        /* \"#utility.yul\":2794:2817   */\n      swap1\n      pop\n        /* \"#utility.yul\":2516:2824   */\n      swap2\n      swap1\n      pop\n      jump\t// out\n        /* \"#utility.yul\":2830:2978   */\n    tag_60:\n        /* \"#utility.yul\":2928:2934   */\n      dup3\n        /* \"#utility.yul\":2923:2926   */\n      dup2\n        /* \"#utility.yul\":2918:2921   */\n      dup4\n        /* \"#utility.yul\":2905:2935   */\n      calldatacopy\n        /* \"#utility.yul\":2969:2970   */\n      0x00\n        /* \"#utility.yul\":2960:2966   */\n      dup4\n        /* \"#utility.yul\":2955:2958   */\n      dup4\n        /* \"#utility.yul\":2951:2967   */\n      add\n        /* \"#utility.yul\":2944:2971   */\n      mstore\n        /* \"#utility.yul\":2830:2978   */\n      pop\n      pop\n      pop\n      jump\t// out\n        /* \"#utility.yul\":2984:3409   */\n    tag_61:\n        /* \"#utility.yul\":3062:3067   */\n      0x00\n        /* \"#utility.yul\":3087:3153   */\n      tag_106\n        /* \"#utility.yul\":3103:3152   */\n      tag_107\n        /* \"#utility.yul\":3145:3151   */\n      dup5\n        /* \"#utility.yul\":3103:3152   */\n      tag_59\n      jump\t// in\n    tag_107:\n        /* \"#utility.yul\":3087:3153   */\n      tag_58\n      jump\t// in\n    tag_106:\n        /* \"#utility.yul\":3078:3153   */\n      swap1\n      pop\n        /* \"#utility.yul\":3176:3182   */\n      dup3\n        /* \"#utility.yul\":3169:3174   */\n      dup2\n        /* \"#utility.yul\":3162:3183   */\n      mstore\n        /* \"#utility.yul\":3214:3218   */\n      0x20\n        /* \"#utility.yul\":3207:3212   */\n      dup2\n        /* \"#utility.yul\":3203:3219   */\n      add\n        /* \"#utility.yul\":3252:3255   */\n      dup5\n        /* \"#utility.yul\":3243:3249   */\n      dup5\n        /* \"#utility.yul\":3238:3241   */\n      dup5\n        /* \"#utility.yul\":3234:3250   */\n      add\n        /* \"#utility.yul\":3231:3256   */\n      gt\n        /* \"#utility.yul\":3228:3340   */\n      iszero\n      tag_108\n      jumpi\n        /* \"#utility.yul\":3259:3338   */\n      tag_109\n      tag_54\n      jump\t// in\n    tag_109:\n        /* \"#utility.yul\":3228:3340   */\n    tag_108:\n        /* \"#utility.yul\":3349:3403   */\n      tag_110\n        /* \"#utility.yul\":3396:3402   */\n      dup5\n        /* \"#utility.yul\":3391:3394   */\n      dup3\n        /* \"#utility.yul\":3386:3389   */\n      dup6\n        /* \"#utility.yul\":3349:3403   */\n      tag_60\n      jump\t// in\n    tag_110:\n        /* \"#utility.yul\":3068:3409   */\n      pop\n        /* \"#utility.yul\":2984:3409   */\n      swap4\n      swap3\n      pop\n      pop\n      pop\n      jump\t// out\n        /* \"#utility.yul\":3429:3769   */\n    tag_62:\n        /* \"#utility.yul\":3485:3490   */\n      0x00\n        /* \"#utility.yul\":3534:3537   */\n      dup3\n        /* \"#utility.yul\":3527:3531   */\n      0x1f\n        /* \"#utility.yul\":3519:3525   */\n      dup4\n        /* \"#utility.yul\":3515:3532   */\n      add\n        /* \"#utility.yul\":3511:3538   */\n      slt\n        /* \"#utility.yul\":3501:3623   */\n      tag_112\n      jumpi\n        /* \"#utility.yul\":3542:3621   */\n      tag_113\n      tag_53\n      jump\t// in\n    tag_113:\n        /* \"#utility.yul\":3501:3623   */\n    tag_112:\n        /* \"#utility.yul\":3659:3665   */\n      dup2\n        /* \"#utility.yul\":3646:3666   */\n      calldataload\n        /* \"#utility.yul\":3684:3763   */\n      tag_114\n        /* \"#utility.yul\":3759:3762   */\n      dup5\n        /* \"#utility.yul\":3751:3757   */\n      dup3\n        /* \"#utility.yul\":3744:3748   */\n      0x20\n        /* \"#utility.yul\":3736:3742   */\n      dup7\n        /* \"#utility.yul\":3732:3749   */\n      add\n        /* \"#utility.yul\":3684:3763   */\n      tag_61\n      jump\t// in\n    tag_114:\n        /* \"#utility.yul\":3675:3763   */\n      swap2\n      pop\n        /* \"#utility.yul\":3491:3769   */\n      pop\n        /* \"#utility.yul\":3429:3769   */\n      swap3\n      swap2\n      pop\n      pop\n      jump\t// out\n        /* \"#utility.yul\":3775:5006   */\n    tag_11:\n        /* \"#utility.yul\":3886:3892   */\n      0x00\n        /* \"#utility.yul\":3894:3900   */\n      0x00\n        /* \"#utility.yul\":3902:3908   */\n      0x00\n        /* \"#utility.yul\":3910:3916   */\n      0x00\n        /* \"#utility.yul\":3918:3924   */\n      0x00\n        /* \"#utility.yul\":3926:3932   */\n      0x00\n        /* \"#utility.yul\":3975:3978   */\n      0xc0\n        /* \"#utility.yul\":3963:3972   */\n      dup8\n        /* \"#utility.yul\":3954:3961   */\n      dup10\n        /* \"#utility.yul\":3950:3973   */\n      sub\n        /* \"#utility.yul\":3946:3979   */\n      slt\n        /* \"#utility.yul\":3943:4063   */\n      iszero\n      tag_116\n      jumpi\n        /* \"#utility.yul\":3982:4061   */\n      tag_117\n      tag_41\n      jump\t// in\n    tag_117:\n        /* \"#utility.yul\":3943:4063   */\n    tag_116:\n        /* \"#utility.yul\":4102:4103   */\n      0x00\n        /* \"#utility.yul\":4127:4180   */\n      tag_118\n        /* \"#utility.yul\":4172:4179   */\n      dup10\n        /* \"#utility.yul\":4163:4169   */\n      dup3\n        /* \"#utility.yul\":4152:4161   */\n      dup11\n        /* \"#utility.yul\":4148:4170   */\n      add\n        /* \"#utility.yul\":4127:4180   */\n      tag_45\n      jump\t// in\n    tag_118:\n        /* \"#utility.yul\":4117:4180   */\n      swap7\n      pop\n        /* \"#utility.yul\":4073:4190   */\n      pop\n        /* \"#utility.yul\":4229:4231   */\n      0x20\n        /* \"#utility.yul\":4255:4308   */\n      tag_119\n        /* \"#utility.yul\":4300:4307   */\n      dup10\n        /* \"#utility.yul\":4291:4297   */\n      dup3\n        /* \"#utility.yul\":4280:4289   */\n      dup11\n        /* \"#utility.yul\":4276:4298   */\n      add\n        /* \"#utility.yul\":4255:4308   */\n      tag_45\n      jump\t// in\n    tag_119:\n        /* \"#utility.yul\":4245:4308   */\n      swap6\n      pop\n        /* \"#utility.yul\":4200:4318   */\n      pop\n        /* \"#utility.yul\":4357:4359   */\n      0x40\n        /* \"#utility.yul\":4383:4436   */\n      tag_120\n        /* \"#utility.yul\":4428:4435   */\n      dup10\n        /* \"#utility.yul\":4419:4425   */\n      dup3\n        /* \"#utility.yul\":4408:4417   */\n      dup11\n        /* \"#utility.yul\":4404:4426   */\n      add\n        /* \"#utility.yul\":4383:4436   */\n      tag_45\n      jump\t// in\n    tag_120:\n        /* \"#utility.yul\":4373:4436   */\n      swap5\n      pop\n        /* \"#utility.yul\":4328:4446   */\n      pop\n        /* \"#utility.yul\":4485:4487   */\n      0x60\n        /* \"#utility.yul\":4511:4564   */\n      tag_121\n        /* \"#utility.yul\":4556:4563   */\n      dup10\n        /* \"#utility.yul\":4547:4553   */\n      dup3\n        /* \"#utility.yul\":4536:4545   */\n      dup11\n        /* \"#utility.yul\":4532:4554   */\n      add\n        /* \"#utility.yul\":4511:4564   */\n      tag_49\n      jump\t// in\n    tag_121:\n        /* \"#utility.yul\":4501:4564   */\n      swap4\n      pop\n        /* \"#utility.yul\":4456:4574   */\n      pop\n        /* \"#utility.yul\":4613:4616   */\n      0x80\n        /* \"#utility.yul\":4640:4690   */\n      tag_122\n        /* \"#utility.yul\":4682:4689   */\n      dup10\n        /* \"#utility.yul\":4673:4679   */\n      dup3\n        /* \"#utility.yul\":4662:4671   */\n      dup11\n        /* \"#utility.yul\":4658:4680   */\n      add\n        /* \"#utility.yul\":4640:4690   */\n      tag_52\n      jump\t// in\n    tag_122:\n        /* \"#utility.yul\":4630:4690   */\n      swap3\n      pop\n        /* \"#utility.yul\":4584:4700   */\n      pop\n        /* \"#utility.yul\":4767:4770   */\n      0xa0\n        /* \"#utility.yul\":4756:4765   */\n      dup8\n        /* \"#utility.yul\":4752:4771   */\n      add\n        /* \"#utility.yul\":4739:4772   */\n      calldataload\n        /* \"#utility.yul\":4799:4817   */\n      0xffffffffffffffff\n        /* \"#utility.yul\":4791:4797   */\n      dup2\n        /* \"#utility.yul\":4788:4818   */\n      gt\n        /* \"#utility.yul\":4785:4902   */\n      iszero\n      tag_123\n      jumpi\n        /* \"#utility.yul\":4821:4900   */\n      tag_124\n      tag_42\n      jump\t// in\n    tag_124:\n        /* \"#utility.yul\":4785:4902   */\n    tag_123:\n        /* \"#utility.yul\":4926:4989   */\n      tag_125\n        /* \"#utility.yul\":4981:4988   */\n      dup10\n        /* \"#utility.yul\":4972:4978   */\n      dup3\n        /* \"#utility.yul\":4961:4970   */\n      dup11\n        /* \"#utility.yul\":4957:4979   */\n      add\n        /* \"#utility.yul\":4926:4989   */\n      tag_62\n      jump\t// in\n    tag_125:\n        /* \"#utility.yul\":4916:4989   */\n      swap2\n      pop\n        /* \"#utility.yul\":4710:4999   */\n      pop\n        /* \"#utility.yul\":3775:5006   */\n      swap3\n      swap6\n      pop\n      swap3\n      swap6\n      pop\n      swap3\n      swap6\n      jump\t// out\n        /* \"#utility.yul\":5012:5130   */\n    tag_63:\n        /* \"#utility.yul\":5099:5123   */\n      tag_127\n        /* \"#utility.yul\":5117:5122   */\n      dup2\n        /* \"#utility.yul\":5099:5123   */\n      tag_43\n      jump\t// in\n    tag_127:\n        /* \"#utility.yul\":5094:5097   */\n      dup3\n        /* \"#utility.yul\":5087:5124   */\n      mstore\n        /* \"#utility.yul\":5012:5130   */\n      pop\n      pop\n      jump\t// out\n        /* \"#utility.yul\":5136:5358   */\n    tag_14:\n        /* \"#utility.yul\":5229:5233   */\n      0x00\n        /* \"#utility.yul\":5267:5269   */\n      0x20\n        /* \"#utility.yul\":5256:5265   */\n      dup3\n        /* \"#utility.yul\":5252:5270   */\n      add\n        /* \"#utility.yul\":5244:5270   */\n      swap1\n      pop\n        /* \"#utility.yul\":5280:5351   */\n      tag_129\n        /* \"#utility.yul\":5348:5349   */\n      0x00\n        /* \"#utility.yul\":5337:5346   */\n      dup4\n        /* \"#utility.yul\":5333:5350   */\n      add\n        /* \"#utility.yul\":5324:5330   */\n      dup5\n        /* \"#utility.yul\":5280:5351   */\n      tag_63\n      jump\t// in\n    tag_129:\n        /* \"#utility.yul\":5136:5358   */\n      swap3\n      swap2\n      pop\n      pop\n      jump\t// out\n        /* \"#utility.yul\":5364:5473   */\n    tag_64:\n        /* \"#utility.yul\":5445:5466   */\n      tag_131\n        /* \"#utility.yul\":5460:5465   */\n      dup2\n        /* \"#utility.yul\":5445:5466   */\n      tag_50\n      jump\t// in\n    tag_131:\n        /* \"#utility.yul\":5440:5443   */\n      dup3\n        /* \"#utility.yul\":5433:5467   */\n      mstore\n        /* \"#utility.yul\":5364:5473   */\n      pop\n      pop\n      jump\t// out\n        /* \"#utility.yul\":5479:5909   */\n    tag_18:\n        /* \"#utility.yul\":5622:5626   */\n      0x00\n        /* \"#utility.yul\":5660:5662   */\n      0x60\n        /* \"#utility.yul\":5649:5658   */\n      dup3\n        /* \"#utility.yul\":5645:5663   */\n      add\n        /* \"#utility.yul\":5637:5663   */\n      swap1\n      pop\n        /* \"#utility.yul\":5673:5744   */\n      tag_133\n        /* \"#utility.yul\":5741:5742   */\n      0x00\n        /* \"#utility.yul\":5730:5739   */\n      dup4\n        /* \"#utility.yul\":5726:5743   */\n      add\n        /* \"#utility.yul\":5717:5723   */\n      dup7\n        /* \"#utility.yul\":5673:5744   */\n      tag_63\n      jump\t// in\n    tag_133:\n        /* \"#utility.yul\":5754:5820   */\n      tag_134\n        /* \"#utility.yul\":5816:5818   */\n      0x20\n        /* \"#utility.yul\":5805:5814   */\n      dup4\n        /* \"#utility.yul\":5801:5819   */\n      add\n        /* \"#utility.yul\":5792:5798   */\n      dup6\n        /* \"#utility.yul\":5754:5820   */\n      tag_64\n      jump\t// in\n    tag_134:\n        /* \"#utility.yul\":5830:5902   */\n      tag_135\n        /* \"#utility.yul\":5898:5900   */\n      0x40\n        /* \"#utility.yul\":5887:5896   */\n      dup4\n        /* \"#utility.yul\":5883:5901   */\n      add\n        /* \"#utility.yul\":5874:5880   */\n      dup5\n        /* \"#utility.yul\":5830:5902   */\n      tag_63\n      jump\t// in\n    tag_135:\n        /* \"#utility.yul\":5479:5909   */\n      swap5\n      swap4\n      pop\n      pop\n      pop\n      pop\n      jump\t// out\n        /* \"#utility.yul\":5915:6567   */\n    tag_22:\n        /* \"#utility.yul\":6114:6118   */\n      0x00\n        /* \"#utility.yul\":6152:6155   */\n      0xa0\n        /* \"#utility.yul\":6141:6150   */\n      dup3\n        /* \"#utility.yul\":6137:6156   */\n      add\n        /* \"#utility.yul\":6129:6156   */\n      swap1\n      pop\n        /* \"#utility.yul\":6166:6237   */\n      tag_137\n        /* \"#utility.yul\":6234:6235   */\n      0x00\n        /* \"#utility.yul\":6223:6232   */\n      dup4\n        /* \"#utility.yul\":6219:6236   */\n      add\n        /* \"#utility.yul\":6210:6216   */\n      dup9\n        /* \"#utility.yul\":6166:6237   */\n      tag_63\n      jump\t// in\n    tag_137:\n        /* \"#utility.yul\":6247:6313   */\n      tag_138\n        /* \"#utility.yul\":6309:6311   */\n      0x20\n        /* \"#utility.yul\":6298:6307   */\n      dup4\n        /* \"#utility.yul\":6294:6312   */\n      add\n        /* \"#utility.yul\":6285:6291   */\n      dup8\n        /* \"#utility.yul\":6247:6313   */\n      tag_64\n      jump\t// in\n    tag_138:\n        /* \"#utility.yul\":6323:6395   */\n      tag_139\n        /* \"#utility.yul\":6391:6393   */\n      0x40\n        /* \"#utility.yul\":6380:6389   */\n      dup4\n        /* \"#utility.yul\":6376:6394   */\n      add\n        /* \"#utility.yul\":6367:6373   */\n      dup7\n        /* \"#utility.yul\":6323:6395   */\n      tag_63\n      jump\t// in\n    tag_139:\n        /* \"#utility.yul\":6405:6477   */\n      tag_140\n        /* \"#utility.yul\":6473:6475   */\n      0x60\n        /* \"#utility.yul\":6462:6471   */\n      dup4\n        /* \"#utility.yul\":6458:6476   */\n      add\n        /* \"#utility.yul\":6449:6455   */\n      dup6\n        /* \"#utility.yul\":6405:6477   */\n      tag_63\n      jump\t// in\n    tag_140:\n        /* \"#utility.yul\":6487:6560   */\n      tag_141\n        /* \"#utility.yul\":6555:6558   */\n      0x80\n        /* \"#utility.yul\":6544:6553   */\n      dup4\n        /* \"#utility.yul\":6540:6559   */\n      add\n        /* \"#utility.yul\":6531:6537   */\n      dup5\n        /* \"#utility.yul\":6487:6560   */\n      tag_63\n      jump\t// in\n    tag_141:\n        /* \"#utility.yul\":5915:6567   */\n      swap7\n      swap6\n      pop\n      pop\n      pop\n      pop\n      pop\n      pop\n      jump\t// out\n\n    auxdata: 0xa2646970667358221220a3664fc0ecc95f2c343280f01cbb004f7c9cc456f786011724221291e4af6bc564736f6c634300081e0033\n}\n",
				"bytecode": {
					"linkReferences": {},
					"object": "608060405260015f553480156012575f5ffd5b506105ab806100205f395ff3fe608060405234801561000f575f5ffd5b5060043610610060575f3560e01c8063127b4e081461006457806345f907a81461009457806368873440146100b457806372057987146100d657806386887544146100f4578063adb4d99014610114575b5f5ffd5b61007e60048036038101906100799190610413565b610134565b60405161008b91906104c7565b60405180910390f35b61009c61013f565b6040516100ab939291906104ef565b60405180910390f35b6100bc610152565b6040516100cd959493929190610524565b60405180910390f35b6100de610190565b6040516100eb91906104c7565b60405180910390f35b6100fc6101dd565b60405161010b939291906104ef565b60405180910390f35b61011c6101f0565b60405161012b939291906104ef565b60405180910390f35b5f9695505050505050565b5f5f5f6001806002925092509250909192565b5f5f5f5f5f5f5f5f6101626101dd565b9250925092505f5f600460056006925050915084848484849950995099509950995050505050509091929394565b5f6101d86001600260035f60016040518060400160405280600181526020017f6300000000000000000000000000000000000000000000000000000000000000815250610134565b905090565b5f5f5f6001806002925092509250909192565b5f5f5f600192506001915060029050909192565b5f604051905090565b5f5ffd5b5f5ffd5b5f819050919050565b61022781610215565b8114610231575f5ffd5b50565b5f813590506102428161021e565b92915050565b5f73ffffffffffffffffffffffffffffffffffffffff82169050919050565b5f61027182610248565b9050919050565b61028181610267565b811461028b575f5ffd5b50565b5f8135905061029c81610278565b92915050565b5f8115159050919050565b6102b6816102a2565b81146102c0575f5ffd5b50565b5f813590506102d1816102ad565b92915050565b5f5ffd5b5f5ffd5b5f601f19601f8301169050919050565b7f4e487b71000000000000000000000000000000000000000000000000000000005f52604160045260245ffd5b610325826102df565b810181811067ffffffffffffffff82111715610344576103436102ef565b5b80604052505050565b5f610356610204565b9050610362828261031c565b919050565b5f67ffffffffffffffff821115610381576103806102ef565b5b61038a826102df565b9050602081019050919050565b828183375f83830152505050565b5f6103b76103b284610367565b61034d565b9050828152602081018484840111156103d3576103d26102db565b5b6103de848285610397565b509392505050565b5f82601f8301126103fa576103f96102d7565b5b813561040a8482602086016103a5565b91505092915050565b5f5f5f5f5f5f60c0878903121561042d5761042c61020d565b5b5f61043a89828a01610234565b965050602061044b89828a01610234565b955050604061045c89828a01610234565b945050606061046d89828a0161028e565b935050608061047e89828a016102c3565b92505060a087013567ffffffffffffffff81111561049f5761049e610211565b5b6104ab89828a016103e6565b9150509295509295509295565b6104c181610215565b82525050565b5f6020820190506104da5f8301846104b8565b92915050565b6104e9816102a2565b82525050565b5f6060820190506105025f8301866104b8565b61050f60208301856104e0565b61051c60408301846104b8565b949350505050565b5f60a0820190506105375f8301886104b8565b61054460208301876104e0565b61055160408301866104b8565b61055e60608301856104b8565b61056b60808301846104b8565b969550505050505056fea2646970667358221220a3664fc0ecc95f2c343280f01cbb004f7c9cc456f786011724221291e4af6bc564736f6c634300081e0033",
					"opcodes": "PUSH1 0x80 PUSH1 0x40 MSTORE PUSH1 0x1 PUSH0 SSTORE CALLVALUE DUP1 ISZERO PUSH1 0x12 JUMPI PUSH0 PUSH0 REVERT JUMPDEST POP PUSH2 0x5AB DUP1 PUSH2 0x20 PUSH0 CODECOPY PUSH0 RETURN INVALID PUSH1 0x80 PUSH1 0x40 MSTORE CALLVALUE DUP1 ISZERO PUSH2 0xF JUMPI PUSH0 PUSH0 REVERT JUMPDEST POP PUSH1 0x4 CALLDATASIZE LT PUSH2 0x60 JUMPI PUSH0 CALLDATALOAD PUSH1 0xE0 SHR DUP1 PUSH4 0x127B4E08 EQ PUSH2 0x64 JUMPI DUP1 PUSH4 0x45F907A8 EQ PUSH2 0x94 JUMPI DUP1 PUSH4 0x68873440 EQ PUSH2 0xB4 JUMPI DUP1 PUSH4 0x72057987 EQ PUSH2 0xD6 JUMPI DUP1 PUSH4 0x86887544 EQ PUSH2 0xF4 JUMPI DUP1 PUSH4 0xADB4D990 EQ PUSH2 0x114 JUMPI JUMPDEST PUSH0 PUSH0 REVERT JUMPDEST PUSH2 0x7E PUSH1 0x4 DUP1 CALLDATASIZE SUB DUP2 ADD SWAP1 PUSH2 0x79 SWAP2 SWAP1 PUSH2 0x413 JUMP JUMPDEST PUSH2 0x134 JUMP JUMPDEST PUSH1 0x40 MLOAD PUSH2 0x8B SWAP2 SWAP1 PUSH2 0x4C7 JUMP JUMPDEST PUSH1 0x40 MLOAD DUP1 SWAP2 SUB SWAP1 RETURN JUMPDEST PUSH2 0x9C PUSH2 0x13F JUMP JUMPDEST PUSH1 0x40 MLOAD PUSH2 0xAB SWAP4 SWAP3 SWAP2 SWAP1 PUSH2 0x4EF JUMP JUMPDEST PUSH1 0x40 MLOAD DUP1 SWAP2 SUB SWAP1 RETURN JUMPDEST PUSH2 0xBC PUSH2 0x152 JUMP JUMPDEST PUSH1 0x40 MLOAD PUSH2 0xCD SWAP6 SWAP5 SWAP4 SWAP3 SWAP2 SWAP1 PUSH2 0x524 JUMP JUMPDEST PUSH1 0x40 MLOAD DUP1 SWAP2 SUB SWAP1 RETURN JUMPDEST PUSH2 0xDE PUSH2 0x190 JUMP JUMPDEST PUSH1 0x40 MLOAD PUSH2 0xEB SWAP2 SWAP1 PUSH2 0x4C7 JUMP JUMPDEST PUSH1 0x40 MLOAD DUP1 SWAP2 SUB SWAP1 RETURN JUMPDEST PUSH2 0xFC PUSH2 0x1DD JUMP JUMPDEST PUSH1 0x40 MLOAD PUSH2 0x10B SWAP4 SWAP3 SWAP2 SWAP1 PUSH2 0x4EF JUMP JUMPDEST PUSH1 0x40 MLOAD DUP1 SWAP2 SUB SWAP1 RETURN JUMPDEST PUSH2 0x11C PUSH2 0x1F0 JUMP JUMPDEST PUSH1 0x40 MLOAD PUSH2 0x12B SWAP4 SWAP3 SWAP2 SWAP1 PUSH2 0x4EF JUMP JUMPDEST PUSH1 0x40 MLOAD DUP1 SWAP2 SUB SWAP1 RETURN JUMPDEST PUSH0 SWAP7 SWAP6 POP POP POP POP POP POP JUMP JUMPDEST PUSH0 PUSH0 PUSH0 PUSH1 0x1 DUP1 PUSH1 0x2 SWAP3 POP SWAP3 POP SWAP3 POP SWAP1 SWAP2 SWAP3 JUMP JUMPDEST PUSH0 PUSH0 PUSH0 PUSH0 PUSH0 PUSH0 PUSH0 PUSH0 PUSH2 0x162 PUSH2 0x1DD JUMP JUMPDEST SWAP3 POP SWAP3 POP SWAP3 POP PUSH0 PUSH0 PUSH1 0x4 PUSH1 0x5 PUSH1 0x6 SWAP3 POP POP SWAP2 POP DUP5 DUP5 DUP5 DUP5 DUP5 SWAP10 POP SWAP10 POP SWAP10 POP SWAP10 POP SWAP10 POP POP POP POP POP POP SWAP1 SWAP2 SWAP3 SWAP4 SWAP5 JUMP JUMPDEST PUSH0 PUSH2 0x1D8 PUSH1 0x1 PUSH1 0x2 PUSH1 0x3 PUSH0 PUSH1 0x1 PUSH1 0x40 MLOAD DUP1 PUSH1 0x40 ADD PUSH1 0x40 MSTORE DUP1 PUSH1 0x1 DUP2 MSTORE PUSH1 0x20 ADD PUSH32 0x6300000000000000000000000000000000000000000000000000000000000000 DUP2 MSTORE POP PUSH2 0x134 JUMP JUMPDEST SWAP1 POP SWAP1 JUMP JUMPDEST PUSH0 PUSH0 PUSH0 PUSH1 0x1 DUP1 PUSH1 0x2 SWAP3 POP SWAP3 POP SWAP3 POP SWAP1 SWAP2 SWAP3 JUMP JUMPDEST PUSH0 PUSH0 PUSH0 PUSH1 0x1 SWAP3 POP PUSH1 0x1 SWAP2 POP PUSH1 0x2 SWAP1 POP SWAP1 SWAP2 SWAP3 JUMP JUMPDEST PUSH0 PUSH1 0x40 MLOAD SWAP1 POP SWAP1 JUMP JUMPDEST PUSH0 PUSH0 REVERT JUMPDEST PUSH0 PUSH0 REVERT JUMPDEST PUSH0 DUP2 SWAP1 POP SWAP2 SWAP1 POP JUMP JUMPDEST PUSH2 0x227 DUP2 PUSH2 0x215 JUMP JUMPDEST DUP2 EQ PUSH2 0x231 JUMPI PUSH0 PUSH0 REVERT JUMPDEST POP JUMP JUMPDEST PUSH0 DUP2 CALLDATALOAD SWAP1 POP PUSH2 0x242 DUP2 PUSH2 0x21E JUMP JUMPDEST SWAP3 SWAP2 POP POP JUMP JUMPDEST PUSH0 PUSH20 0xFFFFFFFFFFFFFFFFFFFFFFFFFFFFFFFFFFFFFFFF DUP3 AND SWAP1 POP SWAP2 SWAP1 POP JUMP JUMPDEST PUSH0 PUSH2 0x271 DUP3 PUSH2 0x248 JUMP JUMPDEST SWAP1 POP SWAP2 SWAP1 POP JUMP JUMPDEST PUSH2 0x281 DUP2 PUSH2 0x267 JUMP JUMPDEST DUP2 EQ PUSH2 0x28B JUMPI PUSH0 PUSH0 REVERT JUMPDEST POP JUMP JUMPDEST PUSH0 DUP2 CALLDATALOAD SWAP1 POP PUSH2 0x29C DUP2 PUSH2 0x278 JUMP JUMPDEST SWAP3 SWAP2 POP POP JUMP JUMPDEST PUSH0 DUP2 ISZERO ISZERO SWAP1 POP SWAP2 SWAP1 POP JUMP JUMPDEST PUSH2 0x2B6 DUP2 PUSH2 0x2A2 JUMP JUMPDEST DUP2 EQ PUSH2 0x2C0 JUMPI PUSH0 PUSH0 REVERT JUMPDEST POP JUMP JUMPDEST PUSH0 DUP2 CALLDATALOAD SWAP1 POP PUSH2 0x2D1 DUP2 PUSH2 0x2AD JUMP JUMPDEST SWAP3 SWAP2 POP POP JUMP JUMPDEST PUSH0 PUSH0 REVERT JUMPDEST PUSH0 PUSH0 REVERT JUMPDEST PUSH0 PUSH1 0x1F NOT PUSH1 0x1F DUP4 ADD AND SWAP1 POP SWAP2 SWAP1 POP JUMP JUMPDEST PUSH32 0x4E487B7100000000000000000000000000000000000000000000000000000000 PUSH0 MSTORE PUSH1 0x41 PUSH1 0x4 MSTORE PUSH1 0x24 PUSH0 REVERT JUMPDEST PUSH2 0x325 DUP3 PUSH2 0x2DF JUMP JUMPDEST DUP2 ADD DUP2 DUP2 LT PUSH8 0xFFFFFFFFFFFFFFFF DUP3 GT OR ISZERO PUSH2 0x344 JUMPI PUSH2 0x343 PUSH2 0x2EF JUMP JUMPDEST JUMPDEST DUP1 PUSH1 0x40 MSTORE POP POP POP JUMP JUMPDEST PUSH0 PUSH2 0x356 PUSH2 0x204 JUMP JUMPDEST SWAP1 POP PUSH2 0x362 DUP3 DUP3 PUSH2 0x31C JUMP JUMPDEST SWAP2 SWAP1 POP JUMP JUMPDEST PUSH0 PUSH8 0xFFFFFFFFFFFFFFFF DUP3 GT ISZERO PUSH2 0x381 JUMPI PUSH2 0x380 PUSH2 0x2EF JUMP JUMPDEST JUMPDEST PUSH2 0x38A DUP3 PUSH2 0x2DF JUMP JUMPDEST SWAP1 POP PUSH1 0x20 DUP2 ADD SWAP1 POP SWAP2 SWAP1 POP JUMP JUMPDEST DUP3 DUP2 DUP4 CALLDATACOPY PUSH0 DUP4 DUP4 ADD MSTORE POP POP POP JUMP JUMPDEST PUSH0 PUSH2 0x3B7 PUSH2 0x3B2 DUP5 PUSH2 0x367 JUMP JUMPDEST PUSH2 0x34D JUMP JUMPDEST SWAP1 POP DUP3 DUP2 MSTORE PUSH1 0x20 DUP2 ADD DUP5 DUP5 DUP5 ADD GT ISZERO PUSH2 0x3D3 JUMPI PUSH2 0x3D2 PUSH2 0x2DB JUMP JUMPDEST JUMPDEST PUSH2 0x3DE DUP5 DUP3 DUP6 PUSH2 0x397 JUMP JUMPDEST POP SWAP4 SWAP3 POP POP POP JUMP JUMPDEST PUSH0 DUP3 PUSH1 0x1F DUP4 ADD SLT PUSH2 0x3FA JUMPI PUSH2 0x3F9 PUSH2 0x2D7 JUMP JUMPDEST JUMPDEST DUP2 CALLDATALOAD PUSH2 0x40A DUP5 DUP3 PUSH1 0x20 DUP7 ADD PUSH2 0x3A5 JUMP JUMPDEST SWAP2 POP POP SWAP3 SWAP2 POP POP JUMP JUMPDEST PUSH0 PUSH0 PUSH0 PUSH0 PUSH0 PUSH0 PUSH1 0xC0 DUP8 DUP10 SUB SLT ISZERO PUSH2 0x42D JUMPI PUSH2 0x42C PUSH2 0x20D JUMP JUMPDEST JUMPDEST PUSH0 PUSH2 0x43A DUP10 DUP3 DUP11 ADD PUSH2 0x234 JUMP JUMPDEST SWAP7 POP POP PUSH1 0x20 PUSH2 0x44B DUP10 DUP3 DUP11 ADD PUSH2 0x234 JUMP JUMPDEST SWAP6 POP POP PUSH1 0x40 PUSH2 0x45C DUP10 DUP3 DUP11 ADD PUSH2 0x234 JUMP JUMPDEST SWAP5 POP POP PUSH1 0x60 PUSH2 0x46D DUP10 DUP3 DUP11 ADD PUSH2 0x28E JUMP JUMPDEST SWAP4 POP POP PUSH1 0x80 PUSH2 0x47E DUP10 DUP3 DUP11 ADD PUSH2 0x2C3 JUMP JUMPDEST SWAP3 POP POP PUSH1 0xA0 DUP8 ADD CALLDATALOAD PUSH8 0xFFFFFFFFFFFFFFFF DUP2 GT ISZERO PUSH2 0x49F JUMPI PUSH2 0x49E PUSH2 0x211 JUMP JUMPDEST JUMPDEST PUSH2 0x4AB DUP10 DUP3 DUP11 ADD PUSH2 0x3E6 JUMP JUMPDEST SWAP2 POP POP SWAP3 SWAP6 POP SWAP3 SWAP6 POP SWAP3 SWAP6 JUMP JUMPDEST PUSH2 0x4C1 DUP2 PUSH2 0x215 JUMP JUMPDEST DUP3 MSTORE POP POP JUMP JUMPDEST PUSH0 PUSH1 0x20 DUP3 ADD SWAP1 POP PUSH2 0x4DA PUSH0 DUP4 ADD DUP5 PUSH2 0x4B8 JUMP JUMPDEST SWAP3 SWAP2 POP POP JUMP JUMPDEST PUSH2 0x4E9 DUP2 PUSH2 0x2A2 JUMP JUMPDEST DUP3 MSTORE POP POP JUMP JUMPDEST PUSH0 PUSH1 0x60 DUP3 ADD SWAP1 POP PUSH2 0x502 PUSH0 DUP4 ADD DUP7 PUSH2 0x4B8 JUMP JUMPDEST PUSH2 0x50F PUSH1 0x20 DUP4 ADD DUP6 PUSH2 0x4E0 JUMP JUMPDEST PUSH2 0x51C PUSH1 0x40 DUP4 ADD DUP5 PUSH2 0x4B8 JUMP JUMPDEST SWAP5 SWAP4 POP POP POP POP JUMP JUMPDEST PUSH0 PUSH1 0xA0 DUP3 ADD SWAP1 POP PUSH2 0x537 PUSH0 DUP4 ADD DUP9 PUSH2 0x4B8 JUMP JUMPDEST PUSH2 0x544 PUSH1 0x20 DUP4 ADD DUP8 PUSH2 0x4E0 JUMP JUMPDEST PUSH2 0x551 PUSH1 0x40 DUP4 ADD DUP7 PUSH2 0x4B8 JUMP JUMPDEST PUSH2 0x55E PUSH1 0x60 DUP4 ADD DUP6 PUSH2 0x4B8 JUMP JUMPDEST PUSH2 0x56B PUSH1 0x80 DUP4 ADD DUP5 PUSH2 0x4B8 JUMP JUMPDEST SWAP7 SWAP6 POP POP POP POP POP POP JUMP INVALID LOG2 PUSH5 0x6970667358 0x22 SLT KECCAK256 LOG3 PUSH7 0x4FC0ECC95F2C34 ORIGIN DUP1 CREATE SHR 0xBB STOP 0x4F PUSH29 0x9CC456F786011724221291E4AF6BC564736F6C634300081E0033000000 "
				},
				"gasEstimates": {
					"creation": {
						"codeDepositCost": "290200",
						"executionCost": "22434",
						"totalCost": "312634"
					},
					"external": {
						"assigned()": "infinite",
						"callFuncWithKeyValue()": "487",
						"destructuringAssignments()": "infinite",
						"named()": "infinite",
						"returnMany()": "infinite",
						"someFuncWithManyInputs(uint256,uint256,uint256,address,bool,string)": "infinite"
					}
				},
				"methodIdentifiers": {
					"assigned()": "adb4d990",
					"callFuncWithKeyValue()": "72057987",
					"destructuringAssignments()": "68873440",
					"named()": "45f907a8",
					"returnMany()": "86887544",
					"someFuncWithManyInputs(uint256,uint256,uint256,address,bool,string)": "127b4e08"
				}
			},
			"storageLayout": {
				"storage": [
					{
						"astId": 4,
						"contract": "soliditybyexampleprac/function.sol:FunctionPract",
						"label": "value",
						"offset": 0,
						"slot": "0",
						"type": "t_uint256"
					},
					{
						"astId": 6,
						"contract": "soliditybyexampleprac/function.sol:FunctionPract",
						"label": "fav",
						"offset": 0,
						"slot": "1",
						"type": "t_bool"
					}
				],
				"types": {
					"t_bool": {
						"encoding": "inplace",
						"label": "bool",
						"numberOfBytes": "1"
					},
					"t_uint256": {
						"encoding": "inplace",
						"label": "uint256",
						"numberOfBytes": "32"
					}
				}
			},
			"userdoc": {
				"kind": "user",
				"methods": {},
				"version": 1
			}
		}
	}
}