{
	"soliditybyexampleprac/eventsadvanced.sol": {
		"EventSubscription": {
			"abi": [
				{
					"anonymous": false,
					"inputs": [
						{
							"indexed": true,
							"internalType": "address",
							"name": "from",
							"type": "address"
						},
						{
							"indexed": true,
							"internalType": "address",
							"name": "to",
							"type": "address"
						},
						{
							"indexed": false,
							"internalType": "uint256",
							"name": "value",
							"type": "uint256"
						}
					],
					"name": "LogTransfer",
					"type": "event"
				},
				{
					"inputs": [],
					"name": "subscribe",
					"outputs": [],
					"stateMutability": "nonpayable",
					"type": "function"
				},
				{
					"inputs": [
						{
							"internalType": "uint256",
							"name": "",
							"type": "uint256"
						}
					],
					"name": "subscriberList",
					"outputs": [
						{
							"internalType": "address",
							"name": "",
							"type": "address"
						}
					],
					"stateMutability": "view",
					"type": "function"
				},
				{
					"inputs": [
						{
							"internalType": "address",
							"name": "",
							"type": "address"
						}
					],
					"name": "subscribers",
					"outputs": [
						{
							"internalType": "bool",
							"name": "",
							"type": "bool"
						}
					],
					"stateMutability": "view",
					"type": "function"
				},
				{
					"inputs": [
						{
							"internalType": "address",
							"name": "to",
							"type": "address"
						},
						{
							"internalType": "uint256",
							"name": "value",
							"type": "uint256"
						}
					],
					"name": "transfer",
					"outputs": [],
					"stateMutability": "nonpayable",
					"type": "function"
				},
				{
					"inputs": [],
					"name": "unsubscribe",
					"outputs": [],
					"stateMutability": "nonpayable",
					"type": "function"
				}
			],
			"devdoc": {
				"kind": "dev",
				"methods": {},
				"version": 1
			},
			"evm": {
				"assembly": "    /* \"soliditybyexampleprac/eventsadvanced.sol\":905:2041  contract EventSubscription{... */\n  mstore(0x40, 0x80)\n  callvalue\n  dup1\n  iszero\n  tag_1\n  jumpi\n  revert(0x00, 0x00)\ntag_1:\n  pop\n  dataSize(sub_0)\n  dup1\n  dataOffset(sub_0)\n  0x00\n  codecopy\n  0x00\n  return\nstop\n\nsub_0: assembly {\n        /* \"soliditybyexampleprac/eventsadvanced.sol\":905:2041  contract EventSubscription{... */\n      mstore(0x40, 0x80)\n      callvalue\n      dup1\n      iszero\n      tag_1\n      jumpi\n      revert(0x00, 0x00)\n    tag_1:\n      pop\n      jumpi(tag_2, lt(calldatasize, 0x04))\n      shr(0xe0, calldataload(0x00))\n      dup1\n      0x5745ae28\n      eq\n      tag_3\n      jumpi\n      dup1\n      0x83c2eaba\n      eq\n      tag_4\n      jumpi\n      dup1\n      0x8f449a05\n      eq\n      tag_5\n      jumpi\n      dup1\n      0xa9059cbb\n      eq\n      tag_6\n      jumpi\n      dup1\n      0xfcae4484\n      eq\n      tag_7\n      jumpi\n    tag_2:\n      revert(0x00, 0x00)\n        /* \"soliditybyexampleprac/eventsadvanced.sol\":1018:1059  mapping(address=>bool) public subscribers */\n    tag_3:\n      tag_8\n      0x04\n      dup1\n      calldatasize\n      sub\n      dup2\n      add\n      swap1\n      tag_9\n      swap2\n      swap1\n      tag_10\n      jump\t// in\n    tag_9:\n      tag_11\n      jump\t// in\n    tag_8:\n      mload(0x40)\n      tag_12\n      swap2\n      swap1\n      tag_13\n      jump\t// in\n    tag_12:\n      mload(0x40)\n      dup1\n      swap2\n      sub\n      swap1\n      return\n        /* \"soliditybyexampleprac/eventsadvanced.sol\":1065:1096  address[] public subscriberList */\n    tag_4:\n      tag_14\n      0x04\n      dup1\n      calldatasize\n      sub\n      dup2\n      add\n      swap1\n      tag_15\n      swap2\n      swap1\n      tag_16\n      jump\t// in\n    tag_15:\n      tag_17\n      jump\t// in\n    tag_14:\n      mload(0x40)\n      tag_18\n      swap2\n      swap1\n      tag_19\n      jump\t// in\n    tag_18:\n      mload(0x40)\n      dup1\n      swap2\n      sub\n      swap1\n      return\n        /* \"soliditybyexampleprac/eventsadvanced.sol\":1103:1281  function subscribe() public{... */\n    tag_5:\n      tag_20\n      tag_21\n      jump\t// in\n    tag_20:\n      stop\n        /* \"soliditybyexampleprac/eventsadvanced.sol\":1713:2022  function transfer(address to, uint256 value) public{... */\n    tag_6:\n      tag_22\n      0x04\n      dup1\n      calldatasize\n      sub\n      dup2\n      add\n      swap1\n      tag_23\n      swap2\n      swap1\n      tag_24\n      jump\t// in\n    tag_23:\n      tag_25\n      jump\t// in\n    tag_22:\n      stop\n        /* \"soliditybyexampleprac/eventsadvanced.sol\":1291:1706  function unsubscribe() public {... */\n    tag_7:\n      tag_26\n      tag_27\n      jump\t// in\n    tag_26:\n      stop\n        /* \"soliditybyexampleprac/eventsadvanced.sol\":1018:1059  mapping(address=>bool) public subscribers */\n    tag_11:\n      mstore(0x20, 0x00)\n      dup1\n      0x00\n      mstore\n      keccak256(0x00, 0x40)\n      0x00\n      swap2\n      pop\n      sload\n      swap1\n      0x0100\n      exp\n      swap1\n      div\n      0xff\n      and\n      dup2\n      jump\t// out\n        /* \"soliditybyexampleprac/eventsadvanced.sol\":1065:1096  address[] public subscriberList */\n    tag_17:\n      0x01\n      dup2\n      dup2\n      sload\n      dup2\n      lt\n      tag_28\n      jumpi\n      0x00\n      dup1\n      revert\n    tag_28:\n      swap1\n      0x00\n      mstore\n      keccak256(0x00, 0x20)\n      add\n      0x00\n      swap2\n      pop\n      sload\n      swap1\n      0x0100\n      exp\n      swap1\n      div\n      0xffffffffffffffffffffffffffffffffffffffff\n      and\n      dup2\n      jump\t// out\n        /* \"soliditybyexampleprac/eventsadvanced.sol\":1103:1281  function subscribe() public{... */\n    tag_21:\n        /* \"soliditybyexampleprac/eventsadvanced.sol\":1149:1160  subscribers */\n      0x00\n        /* \"soliditybyexampleprac/eventsadvanced.sol\":1149:1172  subscribers[msg.sender] */\n      0x00\n        /* \"soliditybyexampleprac/eventsadvanced.sol\":1161:1171  msg.sender */\n      caller\n        /* \"soliditybyexampleprac/eventsadvanced.sol\":1149:1172  subscribers[msg.sender] */\n      0xffffffffffffffffffffffffffffffffffffffff\n      and\n      0xffffffffffffffffffffffffffffffffffffffff\n      and\n      dup2\n      mstore\n      0x20\n      add\n      swap1\n      dup2\n      mstore\n      0x20\n      add\n      0x00\n      keccak256\n      0x00\n      swap1\n      sload\n      swap1\n      0x0100\n      exp\n      swap1\n      div\n      0xff\n      and\n        /* \"soliditybyexampleprac/eventsadvanced.sol\":1148:1172  !subscribers[msg.sender] */\n      iszero\n        /* \"soliditybyexampleprac/eventsadvanced.sol\":1140:1194  require(!subscribers[msg.sender],\"Already subscribed\") */\n      tag_31\n      jumpi\n      mload(0x40)\n      0x08c379a000000000000000000000000000000000000000000000000000000000\n      dup2\n      mstore\n      0x04\n      add\n      tag_32\n      swap1\n      tag_33\n      jump\t// in\n    tag_32:\n      mload(0x40)\n      dup1\n      swap2\n      sub\n      swap1\n      revert\n    tag_31:\n        /* \"soliditybyexampleprac/eventsadvanced.sol\":1228:1232  true */\n      0x01\n        /* \"soliditybyexampleprac/eventsadvanced.sol\":1204:1215  subscribers */\n      0x00\n        /* \"soliditybyexampleprac/eventsadvanced.sol\":1204:1227  subscribers[msg.sender] */\n      0x00\n        /* \"soliditybyexampleprac/eventsadvanced.sol\":1216:1226  msg.sender */\n      caller\n        /* \"soliditybyexampleprac/eventsadvanced.sol\":1204:1227  subscribers[msg.sender] */\n      0xffffffffffffffffffffffffffffffffffffffff\n      and\n      0xffffffffffffffffffffffffffffffffffffffff\n      and\n      dup2\n      mstore\n      0x20\n      add\n      swap1\n      dup2\n      mstore\n      0x20\n      add\n      0x00\n      keccak256\n      0x00\n        /* \"soliditybyexampleprac/eventsadvanced.sol\":1204:1232  subscribers[msg.sender]=true */\n      0x0100\n      exp\n      dup2\n      sload\n      dup2\n      0xff\n      mul\n      not\n      and\n      swap1\n      dup4\n      iszero\n      iszero\n      mul\n      or\n      swap1\n      sstore\n      pop\n        /* \"soliditybyexampleprac/eventsadvanced.sol\":1242:1256  subscriberList */\n      0x01\n        /* \"soliditybyexampleprac/eventsadvanced.sol\":1262:1272  msg.sender */\n      caller\n        /* \"soliditybyexampleprac/eventsadvanced.sol\":1242:1273  subscriberList.push(msg.sender) */\n      swap1\n      dup1\n      0x01\n      dup2\n      sload\n      add\n      dup1\n      dup3\n      sstore\n      dup1\n      swap2\n      pop\n      pop\n      0x01\n      swap1\n      sub\n      swap1\n      0x00\n      mstore\n      keccak256(0x00, 0x20)\n      add\n      0x00\n      swap1\n      swap2\n      swap1\n      swap2\n      swap1\n      swap2\n      0x0100\n      exp\n      dup2\n      sload\n      dup2\n      0xffffffffffffffffffffffffffffffffffffffff\n      mul\n      not\n      and\n      swap1\n      dup4\n      0xffffffffffffffffffffffffffffffffffffffff\n      and\n      mul\n      or\n      swap1\n      sstore\n      pop\n        /* \"soliditybyexampleprac/eventsadvanced.sol\":1103:1281  function subscribe() public{... */\n      jump\t// out\n        /* \"soliditybyexampleprac/eventsadvanced.sol\":1713:2022  function transfer(address to, uint256 value) public{... */\n    tag_25:\n        /* \"soliditybyexampleprac/eventsadvanced.sol\":1802:1804  to */\n      dup2\n        /* \"soliditybyexampleprac/eventsadvanced.sol\":1779:1811  LogTransfer(msg.sender,to,value) */\n      0xffffffffffffffffffffffffffffffffffffffff\n      and\n        /* \"soliditybyexampleprac/eventsadvanced.sol\":1791:1801  msg.sender */\n      caller\n        /* \"soliditybyexampleprac/eventsadvanced.sol\":1779:1811  LogTransfer(msg.sender,to,value) */\n      0xffffffffffffffffffffffffffffffffffffffff\n      and\n      0x0a85107a334eae0d22d21cdf13af0f8e8125039ec60baaa843d2c4c5b0680174\n        /* \"soliditybyexampleprac/eventsadvanced.sol\":1805:1810  value */\n      dup4\n        /* \"soliditybyexampleprac/eventsadvanced.sol\":1779:1811  LogTransfer(msg.sender,to,value) */\n      mload(0x40)\n      tag_36\n      swap2\n      swap1\n      tag_37\n      jump\t// in\n    tag_36:\n      mload(0x40)\n      dup1\n      swap2\n      sub\n      swap1\n      log3\n        /* \"soliditybyexampleprac/eventsadvanced.sol\":1833:1842  uint256 i */\n      0x00\n        /* \"soliditybyexampleprac/eventsadvanced.sol\":1845:1846  0 */\n      0x00\n        /* \"soliditybyexampleprac/eventsadvanced.sol\":1833:1846  uint256 i = 0 */\n      swap1\n      pop\n        /* \"soliditybyexampleprac/eventsadvanced.sol\":1828:2013  for (uint256 i = 0; i < subscriberList.length; i++) {... */\n    tag_38:\n        /* \"soliditybyexampleprac/eventsadvanced.sol\":1852:1866  subscriberList */\n      0x01\n        /* \"soliditybyexampleprac/eventsadvanced.sol\":1852:1873  subscriberList.length */\n      dup1\n      sload\n      swap1\n      pop\n        /* \"soliditybyexampleprac/eventsadvanced.sol\":1848:1849  i */\n      dup2\n        /* \"soliditybyexampleprac/eventsadvanced.sol\":1848:1873  i < subscriberList.length */\n      lt\n        /* \"soliditybyexampleprac/eventsadvanced.sol\":1828:2013  for (uint256 i = 0; i < subscriberList.length; i++) {... */\n      iszero\n      tag_39\n      jumpi\n        /* \"soliditybyexampleprac/eventsadvanced.sol\":1911:1925  subscriberList */\n      0x01\n        /* \"soliditybyexampleprac/eventsadvanced.sol\":1926:1927  i */\n      dup2\n        /* \"soliditybyexampleprac/eventsadvanced.sol\":1911:1928  subscriberList[i] */\n      dup2\n      sload\n      dup2\n      lt\n      tag_41\n      jumpi\n      tag_42\n      tag_43\n      jump\t// in\n    tag_42:\n    tag_41:\n      swap1\n      0x00\n      mstore\n      keccak256(0x00, 0x20)\n      add\n      0x00\n      swap1\n      sload\n      swap1\n      0x0100\n      exp\n      swap1\n      div\n      0xffffffffffffffffffffffffffffffffffffffff\n      and\n        /* \"soliditybyexampleprac/eventsadvanced.sol\":1894:1949  IEventSubscriber(subscriberList[i]).handleTransferEvent */\n      0xffffffffffffffffffffffffffffffffffffffff\n      and\n      0x76637cfe\n        /* \"soliditybyexampleprac/eventsadvanced.sol\":1967:1977  msg.sender */\n      caller\n        /* \"soliditybyexampleprac/eventsadvanced.sol\":1979:1981  to */\n      dup6\n        /* \"soliditybyexampleprac/eventsadvanced.sol\":1983:1988  value */\n      dup6\n        /* \"soliditybyexampleprac/eventsadvanced.sol\":1894:2002  IEventSubscriber(subscriberList[i]).handleTransferEvent(... */\n      mload(0x40)\n      dup5\n      0xffffffff\n      and\n      0xe0\n      shl\n      dup2\n      mstore\n      0x04\n      add\n      tag_45\n      swap4\n      swap3\n      swap2\n      swap1\n      tag_46\n      jump\t// in\n    tag_45:\n      0x00\n      mload(0x40)\n      dup1\n      dup4\n      sub\n      dup2\n      0x00\n      dup8\n      dup1\n      extcodesize\n      iszero\n      dup1\n      iszero\n      tag_47\n      jumpi\n      revert(0x00, 0x00)\n    tag_47:\n      pop\n      gas\n      call\n      iszero\n      dup1\n      iszero\n      tag_49\n      jumpi\n      returndatacopy(0x00, 0x00, returndatasize)\n      revert(0x00, returndatasize)\n    tag_49:\n      pop\n      pop\n      pop\n      pop\n        /* \"soliditybyexampleprac/eventsadvanced.sol\":1875:1878  i++ */\n      dup1\n      dup1\n      0x01\n      add\n      swap2\n      pop\n      pop\n        /* \"soliditybyexampleprac/eventsadvanced.sol\":1828:2013  for (uint256 i = 0; i < subscriberList.length; i++) {... */\n      jump(tag_38)\n    tag_39:\n      pop\n        /* \"soliditybyexampleprac/eventsadvanced.sol\":1713:2022  function transfer(address to, uint256 value) public{... */\n      pop\n      pop\n      jump\t// out\n        /* \"soliditybyexampleprac/eventsadvanced.sol\":1291:1706  function unsubscribe() public {... */\n    tag_27:\n        /* \"soliditybyexampleprac/eventsadvanced.sol\":1339:1350  subscribers */\n      0x00\n        /* \"soliditybyexampleprac/eventsadvanced.sol\":1339:1362  subscribers[msg.sender] */\n      0x00\n        /* \"soliditybyexampleprac/eventsadvanced.sol\":1351:1361  msg.sender */\n      caller\n        /* \"soliditybyexampleprac/eventsadvanced.sol\":1339:1362  subscribers[msg.sender] */\n      0xffffffffffffffffffffffffffffffffffffffff\n      and\n      0xffffffffffffffffffffffffffffffffffffffff\n      and\n      dup2\n      mstore\n      0x20\n      add\n      swap1\n      dup2\n      mstore\n      0x20\n      add\n      0x00\n      keccak256\n      0x00\n      swap1\n      sload\n      swap1\n      0x0100\n      exp\n      swap1\n      div\n      0xff\n      and\n        /* \"soliditybyexampleprac/eventsadvanced.sol\":1331:1381  require(subscribers[msg.sender], \"Not subscribed\") */\n      tag_51\n      jumpi\n      mload(0x40)\n      0x08c379a000000000000000000000000000000000000000000000000000000000\n      dup2\n      mstore\n      0x04\n      add\n      tag_52\n      swap1\n      tag_53\n      jump\t// in\n    tag_52:\n      mload(0x40)\n      dup1\n      swap2\n      sub\n      swap1\n      revert\n    tag_51:\n        /* \"soliditybyexampleprac/eventsadvanced.sol\":1417:1422  false */\n      0x00\n        /* \"soliditybyexampleprac/eventsadvanced.sol\":1391:1402  subscribers */\n      0x00\n        /* \"soliditybyexampleprac/eventsadvanced.sol\":1391:1414  subscribers[msg.sender] */\n      0x00\n        /* \"soliditybyexampleprac/eventsadvanced.sol\":1403:1413  msg.sender */\n      caller\n        /* \"soliditybyexampleprac/eventsadvanced.sol\":1391:1414  subscribers[msg.sender] */\n      0xffffffffffffffffffffffffffffffffffffffff\n      and\n      0xffffffffffffffffffffffffffffffffffffffff\n      and\n      dup2\n      mstore\n      0x20\n      add\n      swap1\n      dup2\n      mstore\n      0x20\n      add\n      0x00\n      keccak256\n      0x00\n        /* \"soliditybyexampleprac/eventsadvanced.sol\":1391:1422  subscribers[msg.sender] = false */\n      0x0100\n      exp\n      dup2\n      sload\n      dup2\n      0xff\n      mul\n      not\n      and\n      swap1\n      dup4\n      iszero\n      iszero\n      mul\n      or\n      swap1\n      sstore\n      pop\n        /* \"soliditybyexampleprac/eventsadvanced.sol\":1437:1446  uint256 i */\n      0x00\n        /* \"soliditybyexampleprac/eventsadvanced.sol\":1449:1450  0 */\n      0x00\n        /* \"soliditybyexampleprac/eventsadvanced.sol\":1437:1450  uint256 i = 0 */\n      swap1\n      pop\n        /* \"soliditybyexampleprac/eventsadvanced.sol\":1432:1700  for (uint256 i = 0; i < subscriberList.length; i++) {... */\n    tag_54:\n        /* \"soliditybyexampleprac/eventsadvanced.sol\":1456:1470  subscriberList */\n      0x01\n        /* \"soliditybyexampleprac/eventsadvanced.sol\":1456:1477  subscriberList.length */\n      dup1\n      sload\n      swap1\n      pop\n        /* \"soliditybyexampleprac/eventsadvanced.sol\":1452:1453  i */\n      dup2\n        /* \"soliditybyexampleprac/eventsadvanced.sol\":1452:1477  i < subscriberList.length */\n      lt\n        /* \"soliditybyexampleprac/eventsadvanced.sol\":1432:1700  for (uint256 i = 0; i < subscriberList.length; i++) {... */\n      iszero\n      tag_55\n      jumpi\n        /* \"soliditybyexampleprac/eventsadvanced.sol\":1523:1533  msg.sender */\n      caller\n        /* \"soliditybyexampleprac/eventsadvanced.sol\":1502:1533  subscriberList[i] == msg.sender */\n      0xffffffffffffffffffffffffffffffffffffffff\n      and\n        /* \"soliditybyexampleprac/eventsadvanced.sol\":1502:1516  subscriberList */\n      0x01\n        /* \"soliditybyexampleprac/eventsadvanced.sol\":1517:1518  i */\n      dup3\n        /* \"soliditybyexampleprac/eventsadvanced.sol\":1502:1519  subscriberList[i] */\n      dup2\n      sload\n      dup2\n      lt\n      tag_57\n      jumpi\n      tag_58\n      tag_43\n      jump\t// in\n    tag_58:\n    tag_57:\n      swap1\n      0x00\n      mstore\n      keccak256(0x00, 0x20)\n      add\n      0x00\n      swap1\n      sload\n      swap1\n      0x0100\n      exp\n      swap1\n      div\n      0xffffffffffffffffffffffffffffffffffffffff\n      and\n        /* \"soliditybyexampleprac/eventsadvanced.sol\":1502:1533  subscriberList[i] == msg.sender */\n      0xffffffffffffffffffffffffffffffffffffffff\n      and\n      sub\n        /* \"soliditybyexampleprac/eventsadvanced.sol\":1498:1690  if (subscriberList[i] == msg.sender) {... */\n      tag_60\n      jumpi\n        /* \"soliditybyexampleprac/eventsadvanced.sol\":1573:1587  subscriberList */\n      0x01\n        /* \"soliditybyexampleprac/eventsadvanced.sol\":1612:1613  1 */\n      dup1\n        /* \"soliditybyexampleprac/eventsadvanced.sol\":1588:1602  subscriberList */\n      dup1\n        /* \"soliditybyexampleprac/eventsadvanced.sol\":1588:1609  subscriberList.length */\n      dup1\n      sload\n      swap1\n      pop\n        /* \"soliditybyexampleprac/eventsadvanced.sol\":1588:1613  subscriberList.length - 1 */\n      tag_61\n      swap2\n      swap1\n      tag_62\n      jump\t// in\n    tag_61:\n        /* \"soliditybyexampleprac/eventsadvanced.sol\":1573:1614  subscriberList[subscriberList.length - 1] */\n      dup2\n      sload\n      dup2\n      lt\n      tag_63\n      jumpi\n      tag_64\n      tag_43\n      jump\t// in\n    tag_64:\n    tag_63:\n      swap1\n      0x00\n      mstore\n      keccak256(0x00, 0x20)\n      add\n      0x00\n      swap1\n      sload\n      swap1\n      0x0100\n      exp\n      swap1\n      div\n      0xffffffffffffffffffffffffffffffffffffffff\n      and\n        /* \"soliditybyexampleprac/eventsadvanced.sol\":1553:1567  subscriberList */\n      0x01\n        /* \"soliditybyexampleprac/eventsadvanced.sol\":1568:1569  i */\n      dup3\n        /* \"soliditybyexampleprac/eventsadvanced.sol\":1553:1570  subscriberList[i] */\n      dup2\n      sload\n      dup2\n      lt\n      tag_66\n      jumpi\n      tag_67\n      tag_43\n      jump\t// in\n    tag_67:\n    tag_66:\n      swap1\n      0x00\n      mstore\n      keccak256(0x00, 0x20)\n      add\n      0x00\n        /* \"soliditybyexampleprac/eventsadvanced.sol\":1553:1614  subscriberList[i] = subscriberList[subscriberList.length - 1] */\n      0x0100\n      exp\n      dup2\n      sload\n      dup2\n      0xffffffffffffffffffffffffffffffffffffffff\n      mul\n      not\n      and\n      swap1\n      dup4\n      0xffffffffffffffffffffffffffffffffffffffff\n      and\n      mul\n      or\n      swap1\n      sstore\n      pop\n        /* \"soliditybyexampleprac/eventsadvanced.sol\":1632:1646  subscriberList */\n      0x01\n        /* \"soliditybyexampleprac/eventsadvanced.sol\":1632:1652  subscriberList.pop() */\n      dup1\n      sload\n      dup1\n      tag_69\n      jumpi\n      tag_70\n      tag_71\n      jump\t// in\n    tag_70:\n    tag_69:\n      0x01\n      swap1\n      sub\n      dup2\n      dup2\n      swap1\n      0x00\n      mstore\n      keccak256(0x00, 0x20)\n      add\n      exp(0x0100, 0x00)\n      dup2\n      sload\n      swap1\n      0xffffffffffffffffffffffffffffffffffffffff\n      mul\n      not\n      and\n      swap1\n      sstore\n      swap1\n      sstore\n        /* \"soliditybyexampleprac/eventsadvanced.sol\":1670:1675  break */\n      jump(tag_55)\n        /* \"soliditybyexampleprac/eventsadvanced.sol\":1498:1690  if (subscriberList[i] == msg.sender) {... */\n    tag_60:\n        /* \"soliditybyexampleprac/eventsadvanced.sol\":1479:1482  i++ */\n      dup1\n      dup1\n      0x01\n      add\n      swap2\n      pop\n      pop\n        /* \"soliditybyexampleprac/eventsadvanced.sol\":1432:1700  for (uint256 i = 0; i < subscriberList.length; i++) {... */\n      jump(tag_54)\n    tag_55:\n      pop\n        /* \"soliditybyexampleprac/eventsadvanced.sol\":1291:1706  function unsubscribe() public {... */\n      jump\t// out\n        /* \"#utility.yul\":88:205   */\n    tag_74:\n        /* \"#utility.yul\":197:198   */\n      0x00\n        /* \"#utility.yul\":194:195   */\n      0x00\n        /* \"#utility.yul\":187:199   */\n      revert\n        /* \"#utility.yul\":334:460   */\n    tag_76:\n        /* \"#utility.yul\":371:378   */\n      0x00\n        /* \"#utility.yul\":411:453   */\n      0xffffffffffffffffffffffffffffffffffffffff\n        /* \"#utility.yul\":404:409   */\n      dup3\n        /* \"#utility.yul\":400:454   */\n      and\n        /* \"#utility.yul\":389:454   */\n      swap1\n      pop\n        /* \"#utility.yul\":334:460   */\n      swap2\n      swap1\n      pop\n      jump\t// out\n        /* \"#utility.yul\":466:562   */\n    tag_77:\n        /* \"#utility.yul\":503:510   */\n      0x00\n        /* \"#utility.yul\":532:556   */\n      tag_99\n        /* \"#utility.yul\":550:555   */\n      dup3\n        /* \"#utility.yul\":532:556   */\n      tag_76\n      jump\t// in\n    tag_99:\n        /* \"#utility.yul\":521:556   */\n      swap1\n      pop\n        /* \"#utility.yul\":466:562   */\n      swap2\n      swap1\n      pop\n      jump\t// out\n        /* \"#utility.yul\":568:690   */\n    tag_78:\n        /* \"#utility.yul\":641:665   */\n      tag_101\n        /* \"#utility.yul\":659:664   */\n      dup2\n        /* \"#utility.yul\":641:665   */\n      tag_77\n      jump\t// in\n    tag_101:\n        /* \"#utility.yul\":634:639   */\n      dup2\n        /* \"#utility.yul\":631:666   */\n      eq\n        /* \"#utility.yul\":621:684   */\n      tag_102\n      jumpi\n        /* \"#utility.yul\":680:681   */\n      0x00\n        /* \"#utility.yul\":677:678   */\n      0x00\n        /* \"#utility.yul\":670:682   */\n      revert\n        /* \"#utility.yul\":621:684   */\n    tag_102:\n        /* \"#utility.yul\":568:690   */\n      pop\n      jump\t// out\n        /* \"#utility.yul\":696:835   */\n    tag_79:\n        /* \"#utility.yul\":742:747   */\n      0x00\n        /* \"#utility.yul\":780:786   */\n      dup2\n        /* \"#utility.yul\":767:787   */\n      calldataload\n        /* \"#utility.yul\":758:787   */\n      swap1\n      pop\n        /* \"#utility.yul\":796:829   */\n      tag_104\n        /* \"#utility.yul\":823:828   */\n      dup2\n        /* \"#utility.yul\":796:829   */\n      tag_78\n      jump\t// in\n    tag_104:\n        /* \"#utility.yul\":696:835   */\n      swap3\n      swap2\n      pop\n      pop\n      jump\t// out\n        /* \"#utility.yul\":841:1170   */\n    tag_10:\n        /* \"#utility.yul\":900:906   */\n      0x00\n        /* \"#utility.yul\":949:951   */\n      0x20\n        /* \"#utility.yul\":937:946   */\n      dup3\n        /* \"#utility.yul\":928:935   */\n      dup5\n        /* \"#utility.yul\":924:947   */\n      sub\n        /* \"#utility.yul\":920:952   */\n      slt\n        /* \"#utility.yul\":917:1036   */\n      iszero\n      tag_106\n      jumpi\n        /* \"#utility.yul\":955:1034   */\n      tag_107\n      tag_74\n      jump\t// in\n    tag_107:\n        /* \"#utility.yul\":917:1036   */\n    tag_106:\n        /* \"#utility.yul\":1075:1076   */\n      0x00\n        /* \"#utility.yul\":1100:1153   */\n      tag_108\n        /* \"#utility.yul\":1145:1152   */\n      dup5\n        /* \"#utility.yul\":1136:1142   */\n      dup3\n        /* \"#utility.yul\":1125:1134   */\n      dup6\n        /* \"#utility.yul\":1121:1143   */\n      add\n        /* \"#utility.yul\":1100:1153   */\n      tag_79\n      jump\t// in\n    tag_108:\n        /* \"#utility.yul\":1090:1153   */\n      swap2\n      pop\n        /* \"#utility.yul\":1046:1163   */\n      pop\n        /* \"#utility.yul\":841:1170   */\n      swap3\n      swap2\n      pop\n      pop\n      jump\t// out\n        /* \"#utility.yul\":1176:1266   */\n    tag_80:\n        /* \"#utility.yul\":1210:1217   */\n      0x00\n        /* \"#utility.yul\":1253:1258   */\n      dup2\n        /* \"#utility.yul\":1246:1259   */\n      iszero\n        /* \"#utility.yul\":1239:1260   */\n      iszero\n        /* \"#utility.yul\":1228:1260   */\n      swap1\n      pop\n        /* \"#utility.yul\":1176:1266   */\n      swap2\n      swap1\n      pop\n      jump\t// out\n        /* \"#utility.yul\":1272:1381   */\n    tag_81:\n        /* \"#utility.yul\":1353:1374   */\n      tag_111\n        /* \"#utility.yul\":1368:1373   */\n      dup2\n        /* \"#utility.yul\":1353:1374   */\n      tag_80\n      jump\t// in\n    tag_111:\n        /* \"#utility.yul\":1348:1351   */\n      dup3\n        /* \"#utility.yul\":1341:1375   */\n      mstore\n        /* \"#utility.yul\":1272:1381   */\n      pop\n      pop\n      jump\t// out\n        /* \"#utility.yul\":1387:1597   */\n    tag_13:\n        /* \"#utility.yul\":1474:1478   */\n      0x00\n        /* \"#utility.yul\":1512:1514   */\n      0x20\n        /* \"#utility.yul\":1501:1510   */\n      dup3\n        /* \"#utility.yul\":1497:1515   */\n      add\n        /* \"#utility.yul\":1489:1515   */\n      swap1\n      pop\n        /* \"#utility.yul\":1525:1590   */\n      tag_113\n        /* \"#utility.yul\":1587:1588   */\n      0x00\n        /* \"#utility.yul\":1576:1585   */\n      dup4\n        /* \"#utility.yul\":1572:1589   */\n      add\n        /* \"#utility.yul\":1563:1569   */\n      dup5\n        /* \"#utility.yul\":1525:1590   */\n      tag_81\n      jump\t// in\n    tag_113:\n        /* \"#utility.yul\":1387:1597   */\n      swap3\n      swap2\n      pop\n      pop\n      jump\t// out\n        /* \"#utility.yul\":1603:1680   */\n    tag_82:\n        /* \"#utility.yul\":1640:1647   */\n      0x00\n        /* \"#utility.yul\":1669:1674   */\n      dup2\n        /* \"#utility.yul\":1658:1674   */\n      swap1\n      pop\n        /* \"#utility.yul\":1603:1680   */\n      swap2\n      swap1\n      pop\n      jump\t// out\n        /* \"#utility.yul\":1686:1808   */\n    tag_83:\n        /* \"#utility.yul\":1759:1783   */\n      tag_116\n        /* \"#utility.yul\":1777:1782   */\n      dup2\n        /* \"#utility.yul\":1759:1783   */\n      tag_82\n      jump\t// in\n    tag_116:\n        /* \"#utility.yul\":1752:1757   */\n      dup2\n        /* \"#utility.yul\":1749:1784   */\n      eq\n        /* \"#utility.yul\":1739:1802   */\n      tag_117\n      jumpi\n        /* \"#utility.yul\":1798:1799   */\n      0x00\n        /* \"#utility.yul\":1795:1796   */\n      0x00\n        /* \"#utility.yul\":1788:1800   */\n      revert\n        /* \"#utility.yul\":1739:1802   */\n    tag_117:\n        /* \"#utility.yul\":1686:1808   */\n      pop\n      jump\t// out\n        /* \"#utility.yul\":1814:1953   */\n    tag_84:\n        /* \"#utility.yul\":1860:1865   */\n      0x00\n        /* \"#utility.yul\":1898:1904   */\n      dup2\n        /* \"#utility.yul\":1885:1905   */\n      calldataload\n        /* \"#utility.yul\":1876:1905   */\n      swap1\n      pop\n        /* \"#utility.yul\":1914:1947   */\n      tag_119\n        /* \"#utility.yul\":1941:1946   */\n      dup2\n        /* \"#utility.yul\":1914:1947   */\n      tag_83\n      jump\t// in\n    tag_119:\n        /* \"#utility.yul\":1814:1953   */\n      swap3\n      swap2\n      pop\n      pop\n      jump\t// out\n        /* \"#utility.yul\":1959:2288   */\n    tag_16:\n        /* \"#utility.yul\":2018:2024   */\n      0x00\n        /* \"#utility.yul\":2067:2069   */\n      0x20\n        /* \"#utility.yul\":2055:2064   */\n      dup3\n        /* \"#utility.yul\":2046:2053   */\n      dup5\n        /* \"#utility.yul\":2042:2065   */\n      sub\n        /* \"#utility.yul\":2038:2070   */\n      slt\n        /* \"#utility.yul\":2035:2154   */\n      iszero\n      tag_121\n      jumpi\n        /* \"#utility.yul\":2073:2152   */\n      tag_122\n      tag_74\n      jump\t// in\n    tag_122:\n        /* \"#utility.yul\":2035:2154   */\n    tag_121:\n        /* \"#utility.yul\":2193:2194   */\n      0x00\n        /* \"#utility.yul\":2218:2271   */\n      tag_123\n        /* \"#utility.yul\":2263:2270   */\n      dup5\n        /* \"#utility.yul\":2254:2260   */\n      dup3\n        /* \"#utility.yul\":2243:2252   */\n      dup6\n        /* \"#utility.yul\":2239:2261   */\n      add\n        /* \"#utility.yul\":2218:2271   */\n      tag_84\n      jump\t// in\n    tag_123:\n        /* \"#utility.yul\":2208:2271   */\n      swap2\n      pop\n        /* \"#utility.yul\":2164:2281   */\n      pop\n        /* \"#utility.yul\":1959:2288   */\n      swap3\n      swap2\n      pop\n      pop\n      jump\t// out\n        /* \"#utility.yul\":2294:2412   */\n    tag_85:\n        /* \"#utility.yul\":2381:2405   */\n      tag_125\n        /* \"#utility.yul\":2399:2404   */\n      dup2\n        /* \"#utility.yul\":2381:2405   */\n      tag_77\n      jump\t// in\n    tag_125:\n        /* \"#utility.yul\":2376:2379   */\n      dup3\n        /* \"#utility.yul\":2369:2406   */\n      mstore\n        /* \"#utility.yul\":2294:2412   */\n      pop\n      pop\n      jump\t// out\n        /* \"#utility.yul\":2418:2640   */\n    tag_19:\n        /* \"#utility.yul\":2511:2515   */\n      0x00\n        /* \"#utility.yul\":2549:2551   */\n      0x20\n        /* \"#utility.yul\":2538:2547   */\n      dup3\n        /* \"#utility.yul\":2534:2552   */\n      add\n        /* \"#utility.yul\":2526:2552   */\n      swap1\n      pop\n        /* \"#utility.yul\":2562:2633   */\n      tag_127\n        /* \"#utility.yul\":2630:2631   */\n      0x00\n        /* \"#utility.yul\":2619:2628   */\n      dup4\n        /* \"#utility.yul\":2615:2632   */\n      add\n        /* \"#utility.yul\":2606:2612   */\n      dup5\n        /* \"#utility.yul\":2562:2633   */\n      tag_85\n      jump\t// in\n    tag_127:\n        /* \"#utility.yul\":2418:2640   */\n      swap3\n      swap2\n      pop\n      pop\n      jump\t// out\n        /* \"#utility.yul\":2646:3120   */\n    tag_24:\n        /* \"#utility.yul\":2714:2720   */\n      0x00\n        /* \"#utility.yul\":2722:2728   */\n      0x00\n        /* \"#utility.yul\":2771:2773   */\n      0x40\n        /* \"#utility.yul\":2759:2768   */\n      dup4\n        /* \"#utility.yul\":2750:2757   */\n      dup6\n        /* \"#utility.yul\":2746:2769   */\n      sub\n        /* \"#utility.yul\":2742:2774   */\n      slt\n        /* \"#utility.yul\":2739:2858   */\n      iszero\n      tag_129\n      jumpi\n        /* \"#utility.yul\":2777:2856   */\n      tag_130\n      tag_74\n      jump\t// in\n    tag_130:\n        /* \"#utility.yul\":2739:2858   */\n    tag_129:\n        /* \"#utility.yul\":2897:2898   */\n      0x00\n        /* \"#utility.yul\":2922:2975   */\n      tag_131\n        /* \"#utility.yul\":2967:2974   */\n      dup6\n        /* \"#utility.yul\":2958:2964   */\n      dup3\n        /* \"#utility.yul\":2947:2956   */\n      dup7\n        /* \"#utility.yul\":2943:2965   */\n      add\n        /* \"#utility.yul\":2922:2975   */\n      tag_79\n      jump\t// in\n    tag_131:\n        /* \"#utility.yul\":2912:2975   */\n      swap3\n      pop\n        /* \"#utility.yul\":2868:2985   */\n      pop\n        /* \"#utility.yul\":3024:3026   */\n      0x20\n        /* \"#utility.yul\":3050:3103   */\n      tag_132\n        /* \"#utility.yul\":3095:3102   */\n      dup6\n        /* \"#utility.yul\":3086:3092   */\n      dup3\n        /* \"#utility.yul\":3075:3084   */\n      dup7\n        /* \"#utility.yul\":3071:3093   */\n      add\n        /* \"#utility.yul\":3050:3103   */\n      tag_84\n      jump\t// in\n    tag_132:\n        /* \"#utility.yul\":3040:3103   */\n      swap2\n      pop\n        /* \"#utility.yul\":2995:3113   */\n      pop\n        /* \"#utility.yul\":2646:3120   */\n      swap3\n      pop\n      swap3\n      swap1\n      pop\n      jump\t// out\n        /* \"#utility.yul\":3126:3295   */\n    tag_86:\n        /* \"#utility.yul\":3210:3221   */\n      0x00\n        /* \"#utility.yul\":3244:3250   */\n      dup3\n        /* \"#utility.yul\":3239:3242   */\n      dup3\n        /* \"#utility.yul\":3232:3251   */\n      mstore\n        /* \"#utility.yul\":3284:3288   */\n      0x20\n        /* \"#utility.yul\":3279:3282   */\n      dup3\n        /* \"#utility.yul\":3275:3289   */\n      add\n        /* \"#utility.yul\":3260:3289   */\n      swap1\n      pop\n        /* \"#utility.yul\":3126:3295   */\n      swap3\n      swap2\n      pop\n      pop\n      jump\t// out\n        /* \"#utility.yul\":3301:3469   */\n    tag_87:\n        /* \"#utility.yul\":3441:3461   */\n      0x416c726561647920737562736372696265640000000000000000000000000000\n        /* \"#utility.yul\":3437:3438   */\n      0x00\n        /* \"#utility.yul\":3429:3435   */\n      dup3\n        /* \"#utility.yul\":3425:3439   */\n      add\n        /* \"#utility.yul\":3418:3462   */\n      mstore\n        /* \"#utility.yul\":3301:3469   */\n      pop\n      jump\t// out\n        /* \"#utility.yul\":3475:3841   */\n    tag_88:\n        /* \"#utility.yul\":3617:3620   */\n      0x00\n        /* \"#utility.yul\":3638:3705   */\n      tag_136\n        /* \"#utility.yul\":3702:3704   */\n      0x12\n        /* \"#utility.yul\":3697:3700   */\n      dup4\n        /* \"#utility.yul\":3638:3705   */\n      tag_86\n      jump\t// in\n    tag_136:\n        /* \"#utility.yul\":3631:3705   */\n      swap2\n      pop\n        /* \"#utility.yul\":3714:3807   */\n      tag_137\n        /* \"#utility.yul\":3803:3806   */\n      dup3\n        /* \"#utility.yul\":3714:3807   */\n      tag_87\n      jump\t// in\n    tag_137:\n        /* \"#utility.yul\":3832:3834   */\n      0x20\n        /* \"#utility.yul\":3827:3830   */\n      dup3\n        /* \"#utility.yul\":3823:3835   */\n      add\n        /* \"#utility.yul\":3816:3835   */\n      swap1\n      pop\n        /* \"#utility.yul\":3475:3841   */\n      swap2\n      swap1\n      pop\n      jump\t// out\n        /* \"#utility.yul\":3847:4266   */\n    tag_33:\n        /* \"#utility.yul\":4013:4017   */\n      0x00\n        /* \"#utility.yul\":4051:4053   */\n      0x20\n        /* \"#utility.yul\":4040:4049   */\n      dup3\n        /* \"#utility.yul\":4036:4054   */\n      add\n        /* \"#utility.yul\":4028:4054   */\n      swap1\n      pop\n        /* \"#utility.yul\":4100:4109   */\n      dup2\n        /* \"#utility.yul\":4094:4098   */\n      dup2\n        /* \"#utility.yul\":4090:4110   */\n      sub\n        /* \"#utility.yul\":4086:4087   */\n      0x00\n        /* \"#utility.yul\":4075:4084   */\n      dup4\n        /* \"#utility.yul\":4071:4088   */\n      add\n        /* \"#utility.yul\":4064:4111   */\n      mstore\n        /* \"#utility.yul\":4128:4259   */\n      tag_139\n        /* \"#utility.yul\":4254:4258   */\n      dup2\n        /* \"#utility.yul\":4128:4259   */\n      tag_88\n      jump\t// in\n    tag_139:\n        /* \"#utility.yul\":4120:4259   */\n      swap1\n      pop\n        /* \"#utility.yul\":3847:4266   */\n      swap2\n      swap1\n      pop\n      jump\t// out\n        /* \"#utility.yul\":4272:4390   */\n    tag_89:\n        /* \"#utility.yul\":4359:4383   */\n      tag_141\n        /* \"#utility.yul\":4377:4382   */\n      dup2\n        /* \"#utility.yul\":4359:4383   */\n      tag_82\n      jump\t// in\n    tag_141:\n        /* \"#utility.yul\":4354:4357   */\n      dup3\n        /* \"#utility.yul\":4347:4384   */\n      mstore\n        /* \"#utility.yul\":4272:4390   */\n      pop\n      pop\n      jump\t// out\n        /* \"#utility.yul\":4396:4618   */\n    tag_37:\n        /* \"#utility.yul\":4489:4493   */\n      0x00\n        /* \"#utility.yul\":4527:4529   */\n      0x20\n        /* \"#utility.yul\":4516:4525   */\n      dup3\n        /* \"#utility.yul\":4512:4530   */\n      add\n        /* \"#utility.yul\":4504:4530   */\n      swap1\n      pop\n        /* \"#utility.yul\":4540:4611   */\n      tag_143\n        /* \"#utility.yul\":4608:4609   */\n      0x00\n        /* \"#utility.yul\":4597:4606   */\n      dup4\n        /* \"#utility.yul\":4593:4610   */\n      add\n        /* \"#utility.yul\":4584:4590   */\n      dup5\n        /* \"#utility.yul\":4540:4611   */\n      tag_89\n      jump\t// in\n    tag_143:\n        /* \"#utility.yul\":4396:4618   */\n      swap3\n      swap2\n      pop\n      pop\n      jump\t// out\n        /* \"#utility.yul\":4624:4804   */\n    tag_43:\n        /* \"#utility.yul\":4672:4749   */\n      0x4e487b7100000000000000000000000000000000000000000000000000000000\n        /* \"#utility.yul\":4669:4670   */\n      0x00\n        /* \"#utility.yul\":4662:4750   */\n      mstore\n        /* \"#utility.yul\":4769:4773   */\n      0x32\n        /* \"#utility.yul\":4766:4767   */\n      0x04\n        /* \"#utility.yul\":4759:4774   */\n      mstore\n        /* \"#utility.yul\":4793:4797   */\n      0x24\n        /* \"#utility.yul\":4790:4791   */\n      0x00\n        /* \"#utility.yul\":4783:4798   */\n      revert\n        /* \"#utility.yul\":4810:5252   */\n    tag_46:\n        /* \"#utility.yul\":4959:4963   */\n      0x00\n        /* \"#utility.yul\":4997:4999   */\n      0x60\n        /* \"#utility.yul\":4986:4995   */\n      dup3\n        /* \"#utility.yul\":4982:5000   */\n      add\n        /* \"#utility.yul\":4974:5000   */\n      swap1\n      pop\n        /* \"#utility.yul\":5010:5081   */\n      tag_146\n        /* \"#utility.yul\":5078:5079   */\n      0x00\n        /* \"#utility.yul\":5067:5076   */\n      dup4\n        /* \"#utility.yul\":5063:5080   */\n      add\n        /* \"#utility.yul\":5054:5060   */\n      dup7\n        /* \"#utility.yul\":5010:5081   */\n      tag_85\n      jump\t// in\n    tag_146:\n        /* \"#utility.yul\":5091:5163   */\n      tag_147\n        /* \"#utility.yul\":5159:5161   */\n      0x20\n        /* \"#utility.yul\":5148:5157   */\n      dup4\n        /* \"#utility.yul\":5144:5162   */\n      add\n        /* \"#utility.yul\":5135:5141   */\n      dup6\n        /* \"#utility.yul\":5091:5163   */\n      tag_85\n      jump\t// in\n    tag_147:\n        /* \"#utility.yul\":5173:5245   */\n      tag_148\n        /* \"#utility.yul\":5241:5243   */\n      0x40\n        /* \"#utility.yul\":5230:5239   */\n      dup4\n        /* \"#utility.yul\":5226:5244   */\n      add\n        /* \"#utility.yul\":5217:5223   */\n      dup5\n        /* \"#utility.yul\":5173:5245   */\n      tag_89\n      jump\t// in\n    tag_148:\n        /* \"#utility.yul\":4810:5252   */\n      swap5\n      swap4\n      pop\n      pop\n      pop\n      pop\n      jump\t// out\n        /* \"#utility.yul\":5258:5422   */\n    tag_90:\n        /* \"#utility.yul\":5398:5414   */\n      0x4e6f742073756273637269626564000000000000000000000000000000000000\n        /* \"#utility.yul\":5394:5395   */\n      0x00\n        /* \"#utility.yul\":5386:5392   */\n      dup3\n        /* \"#utility.yul\":5382:5396   */\n      add\n        /* \"#utility.yul\":5375:5415   */\n      mstore\n        /* \"#utility.yul\":5258:5422   */\n      pop\n      jump\t// out\n        /* \"#utility.yul\":5428:5794   */\n    tag_91:\n        /* \"#utility.yul\":5570:5573   */\n      0x00\n        /* \"#utility.yul\":5591:5658   */\n      tag_151\n        /* \"#utility.yul\":5655:5657   */\n      0x0e\n        /* \"#utility.yul\":5650:5653   */\n      dup4\n        /* \"#utility.yul\":5591:5658   */\n      tag_86\n      jump\t// in\n    tag_151:\n        /* \"#utility.yul\":5584:5658   */\n      swap2\n      pop\n        /* \"#utility.yul\":5667:5760   */\n      tag_152\n        /* \"#utility.yul\":5756:5759   */\n      dup3\n        /* \"#utility.yul\":5667:5760   */\n      tag_90\n      jump\t// in\n    tag_152:\n        /* \"#utility.yul\":5785:5787   */\n      0x20\n        /* \"#utility.yul\":5780:5783   */\n      dup3\n        /* \"#utility.yul\":5776:5788   */\n      add\n        /* \"#utility.yul\":5769:5788   */\n      swap1\n      pop\n        /* \"#utility.yul\":5428:5794   */\n      swap2\n      swap1\n      pop\n      jump\t// out\n        /* \"#utility.yul\":5800:6219   */\n    tag_53:\n        /* \"#utility.yul\":5966:5970   */\n      0x00\n        /* \"#utility.yul\":6004:6006   */\n      0x20\n        /* \"#utility.yul\":5993:6002   */\n      dup3\n        /* \"#utility.yul\":5989:6007   */\n      add\n        /* \"#utility.yul\":5981:6007   */\n      swap1\n      pop\n        /* \"#utility.yul\":6053:6062   */\n      dup2\n        /* \"#utility.yul\":6047:6051   */\n      dup2\n        /* \"#utility.yul\":6043:6063   */\n      sub\n        /* \"#utility.yul\":6039:6040   */\n      0x00\n        /* \"#utility.yul\":6028:6037   */\n      dup4\n        /* \"#utility.yul\":6024:6041   */\n      add\n        /* \"#utility.yul\":6017:6064   */\n      mstore\n        /* \"#utility.yul\":6081:6212   */\n      tag_154\n        /* \"#utility.yul\":6207:6211   */\n      dup2\n        /* \"#utility.yul\":6081:6212   */\n      tag_91\n      jump\t// in\n    tag_154:\n        /* \"#utility.yul\":6073:6212   */\n      swap1\n      pop\n        /* \"#utility.yul\":5800:6219   */\n      swap2\n      swap1\n      pop\n      jump\t// out\n        /* \"#utility.yul\":6225:6405   */\n    tag_92:\n        /* \"#utility.yul\":6273:6350   */\n      0x4e487b7100000000000000000000000000000000000000000000000000000000\n        /* \"#utility.yul\":6270:6271   */\n      0x00\n        /* \"#utility.yul\":6263:6351   */\n      mstore\n        /* \"#utility.yul\":6370:6374   */\n      0x11\n        /* \"#utility.yul\":6367:6368   */\n      0x04\n        /* \"#utility.yul\":6360:6375   */\n      mstore\n        /* \"#utility.yul\":6394:6398   */\n      0x24\n        /* \"#utility.yul\":6391:6392   */\n      0x00\n        /* \"#utility.yul\":6384:6399   */\n      revert\n        /* \"#utility.yul\":6411:6605   */\n    tag_62:\n        /* \"#utility.yul\":6451:6455   */\n      0x00\n        /* \"#utility.yul\":6471:6491   */\n      tag_157\n        /* \"#utility.yul\":6489:6490   */\n      dup3\n        /* \"#utility.yul\":6471:6491   */\n      tag_82\n      jump\t// in\n    tag_157:\n        /* \"#utility.yul\":6466:6491   */\n      swap2\n      pop\n        /* \"#utility.yul\":6505:6525   */\n      tag_158\n        /* \"#utility.yul\":6523:6524   */\n      dup4\n        /* \"#utility.yul\":6505:6525   */\n      tag_82\n      jump\t// in\n    tag_158:\n        /* \"#utility.yul\":6500:6525   */\n      swap3\n      pop\n        /* \"#utility.yul\":6549:6550   */\n      dup3\n        /* \"#utility.yul\":6546:6547   */\n      dup3\n        /* \"#utility.yul\":6542:6551   */\n      sub\n        /* \"#utility.yul\":6534:6551   */\n      swap1\n      pop\n        /* \"#utility.yul\":6573:6574   */\n      dup2\n        /* \"#utility.yul\":6567:6571   */\n      dup2\n        /* \"#utility.yul\":6564:6575   */\n      gt\n        /* \"#utility.yul\":6561:6598   */\n      iszero\n      tag_159\n      jumpi\n        /* \"#utility.yul\":6578:6596   */\n      tag_160\n      tag_92\n      jump\t// in\n    tag_160:\n        /* \"#utility.yul\":6561:6598   */\n    tag_159:\n        /* \"#utility.yul\":6411:6605   */\n      swap3\n      swap2\n      pop\n      pop\n      jump\t// out\n        /* \"#utility.yul\":6611:6791   */\n    tag_71:\n        /* \"#utility.yul\":6659:6736   */\n      0x4e487b7100000000000000000000000000000000000000000000000000000000\n        /* \"#utility.yul\":6656:6657   */\n      0x00\n        /* \"#utility.yul\":6649:6737   */\n      mstore\n        /* \"#utility.yul\":6756:6760   */\n      0x31\n        /* \"#utility.yul\":6753:6754   */\n      0x04\n        /* \"#utility.yul\":6746:6761   */\n      mstore\n        /* \"#utility.yul\":6780:6784   */\n      0x24\n        /* \"#utility.yul\":6777:6778   */\n      0x00\n        /* \"#utility.yul\":6770:6785   */\n      revert\n\n    auxdata: 0xa26469706673582212200420b6d12ca6f0eb40bafad947ed1ec9fde4c35a5110c4540d39a92825b4a53064736f6c634300081e0033\n}\n",
				"bytecode": {
					"linkReferences": {},
					"object": "6080604052348015600e575f5ffd5b506109b28061001c5f395ff3fe608060405234801561000f575f5ffd5b5060043610610055575f3560e01c80635745ae281461005957806383c2eaba146100895780638f449a05146100b9578063a9059cbb146100c3578063fcae4484146100df575b5f5ffd5b610073600480360381019061006e9190610663565b6100e9565b60405161008091906106a8565b60405180910390f35b6100a3600480360381019061009e91906106f4565b610105565b6040516100b0919061072e565b60405180910390f35b6100c1610140565b005b6100dd60048036038101906100d89190610747565b61027f565b005b6100e76103ad565b005b5f602052805f5260405f205f915054906101000a900460ff1681565b60018181548110610114575f80fd5b905f5260205f20015f915054906101000a900473ffffffffffffffffffffffffffffffffffffffff1681565b5f5f3373ffffffffffffffffffffffffffffffffffffffff1673ffffffffffffffffffffffffffffffffffffffff1681526020019081526020015f205f9054906101000a900460ff16156101c9576040517f08c379a00000000000000000000000000000000000000000000000000000000081526004016101c0906107df565b60405180910390fd5b60015f5f3373ffffffffffffffffffffffffffffffffffffffff1673ffffffffffffffffffffffffffffffffffffffff1681526020019081526020015f205f6101000a81548160ff021916908315150217905550600133908060018154018082558091505060019003905f5260205f20015f9091909190916101000a81548173ffffffffffffffffffffffffffffffffffffffff021916908373ffffffffffffffffffffffffffffffffffffffff160217905550565b8173ffffffffffffffffffffffffffffffffffffffff163373ffffffffffffffffffffffffffffffffffffffff167f0a85107a334eae0d22d21cdf13af0f8e8125039ec60baaa843d2c4c5b0680174836040516102dc919061080c565b60405180910390a35f5f90505b6001805490508110156103a8576001818154811061030a57610309610825565b5b905f5260205f20015f9054906101000a900473ffffffffffffffffffffffffffffffffffffffff1673ffffffffffffffffffffffffffffffffffffffff166376637cfe3385856040518463ffffffff1660e01b815260040161036e93929190610852565b5f604051808303815f87803b158015610385575f5ffd5b505af1158015610397573d5f5f3e3d5ffd5b5050505080806001019150506102e9565b505050565b5f5f3373ffffffffffffffffffffffffffffffffffffffff1673ffffffffffffffffffffffffffffffffffffffff1681526020019081526020015f205f9054906101000a900460ff16610435576040517f08c379a000000000000000000000000000000000000000000000000000000000815260040161042c906108d1565b60405180910390fd5b5f5f5f3373ffffffffffffffffffffffffffffffffffffffff1673ffffffffffffffffffffffffffffffffffffffff1681526020019081526020015f205f6101000a81548160ff0219169083151502179055505f5f90505b600180549050811015610602573373ffffffffffffffffffffffffffffffffffffffff16600182815481106104c5576104c4610825565b5b905f5260205f20015f9054906101000a900473ffffffffffffffffffffffffffffffffffffffff1673ffffffffffffffffffffffffffffffffffffffff16036105f557600180808054905061051a919061091c565b8154811061052b5761052a610825565b5b905f5260205f20015f9054906101000a900473ffffffffffffffffffffffffffffffffffffffff166001828154811061056757610566610825565b5b905f5260205f20015f6101000a81548173ffffffffffffffffffffffffffffffffffffffff021916908373ffffffffffffffffffffffffffffffffffffffff16021790555060018054806105be576105bd61094f565b5b600190038181905f5260205f20015f6101000a81549073ffffffffffffffffffffffffffffffffffffffff02191690559055610602565b808060010191505061048d565b50565b5f5ffd5b5f73ffffffffffffffffffffffffffffffffffffffff82169050919050565b5f61063282610609565b9050919050565b61064281610628565b811461064c575f5ffd5b50565b5f8135905061065d81610639565b92915050565b5f6020828403121561067857610677610605565b5b5f6106858482850161064f565b91505092915050565b5f8115159050919050565b6106a28161068e565b82525050565b5f6020820190506106bb5f830184610699565b92915050565b5f819050919050565b6106d3816106c1565b81146106dd575f5ffd5b50565b5f813590506106ee816106ca565b92915050565b5f6020828403121561070957610708610605565b5b5f610716848285016106e0565b91505092915050565b61072881610628565b82525050565b5f6020820190506107415f83018461071f565b92915050565b5f5f6040838503121561075d5761075c610605565b5b5f61076a8582860161064f565b925050602061077b858286016106e0565b9150509250929050565b5f82825260208201905092915050565b7f416c7265616479207375627363726962656400000000000000000000000000005f82015250565b5f6107c9601283610785565b91506107d482610795565b602082019050919050565b5f6020820190508181035f8301526107f6816107bd565b9050919050565b610806816106c1565b82525050565b5f60208201905061081f5f8301846107fd565b92915050565b7f4e487b71000000000000000000000000000000000000000000000000000000005f52603260045260245ffd5b5f6060820190506108655f83018661071f565b610872602083018561071f565b61087f60408301846107fd565b949350505050565b7f4e6f7420737562736372696265640000000000000000000000000000000000005f82015250565b5f6108bb600e83610785565b91506108c682610887565b602082019050919050565b5f6020820190508181035f8301526108e8816108af565b9050919050565b7f4e487b71000000000000000000000000000000000000000000000000000000005f52601160045260245ffd5b5f610926826106c1565b9150610931836106c1565b9250828203905081811115610949576109486108ef565b5b92915050565b7f4e487b71000000000000000000000000000000000000000000000000000000005f52603160045260245ffdfea26469706673582212200420b6d12ca6f0eb40bafad947ed1ec9fde4c35a5110c4540d39a92825b4a53064736f6c634300081e0033",
					"opcodes": "PUSH1 0x80 PUSH1 0x40 MSTORE CALLVALUE DUP1 ISZERO PUSH1 0xE JUMPI PUSH0 PUSH0 REVERT JUMPDEST POP PUSH2 0x9B2 DUP1 PUSH2 0x1C PUSH0 CODECOPY PUSH0 RETURN INVALID PUSH1 0x80 PUSH1 0x40 MSTORE CALLVALUE DUP1 ISZERO PUSH2 0xF JUMPI PUSH0 PUSH0 REVERT JUMPDEST POP PUSH1 0x4 CALLDATASIZE LT PUSH2 0x55 JUMPI PUSH0 CALLDATALOAD PUSH1 0xE0 SHR DUP1 PUSH4 0x5745AE28 EQ PUSH2 0x59 JUMPI DUP1 PUSH4 0x83C2EABA EQ PUSH2 0x89 JUMPI DUP1 PUSH4 0x8F449A05 EQ PUSH2 0xB9 JUMPI DUP1 PUSH4 0xA9059CBB EQ PUSH2 0xC3 JUMPI DUP1 PUSH4 0xFCAE4484 EQ PUSH2 0xDF JUMPI JUMPDEST PUSH0 PUSH0 REVERT JUMPDEST PUSH2 0x73 PUSH1 0x4 DUP1 CALLDATASIZE SUB DUP2 ADD SWAP1 PUSH2 0x6E SWAP2 SWAP1 PUSH2 0x663 JUMP JUMPDEST PUSH2 0xE9 JUMP JUMPDEST PUSH1 0x40 MLOAD PUSH2 0x80 SWAP2 SWAP1 PUSH2 0x6A8 JUMP JUMPDEST PUSH1 0x40 MLOAD DUP1 SWAP2 SUB SWAP1 RETURN JUMPDEST PUSH2 0xA3 PUSH1 0x4 DUP1 CALLDATASIZE SUB DUP2 ADD SWAP1 PUSH2 0x9E SWAP2 SWAP1 PUSH2 0x6F4 JUMP JUMPDEST PUSH2 0x105 JUMP JUMPDEST PUSH1 0x40 MLOAD PUSH2 0xB0 SWAP2 SWAP1 PUSH2 0x72E JUMP JUMPDEST PUSH1 0x40 MLOAD DUP1 SWAP2 SUB SWAP1 RETURN JUMPDEST PUSH2 0xC1 PUSH2 0x140 JUMP JUMPDEST STOP JUMPDEST PUSH2 0xDD PUSH1 0x4 DUP1 CALLDATASIZE SUB DUP2 ADD SWAP1 PUSH2 0xD8 SWAP2 SWAP1 PUSH2 0x747 JUMP JUMPDEST PUSH2 0x27F JUMP JUMPDEST STOP JUMPDEST PUSH2 0xE7 PUSH2 0x3AD JUMP JUMPDEST STOP JUMPDEST PUSH0 PUSH1 0x20 MSTORE DUP1 PUSH0 MSTORE PUSH1 0x40 PUSH0 KECCAK256 PUSH0 SWAP2 POP SLOAD SWAP1 PUSH2 0x100 EXP SWAP1 DIV PUSH1 0xFF AND DUP2 JUMP JUMPDEST PUSH1 0x1 DUP2 DUP2 SLOAD DUP2 LT PUSH2 0x114 JUMPI PUSH0 DUP1 REVERT JUMPDEST SWAP1 PUSH0 MSTORE PUSH1 0x20 PUSH0 KECCAK256 ADD PUSH0 SWAP2 POP SLOAD SWAP1 PUSH2 0x100 EXP SWAP1 DIV PUSH20 0xFFFFFFFFFFFFFFFFFFFFFFFFFFFFFFFFFFFFFFFF AND DUP2 JUMP JUMPDEST PUSH0 PUSH0 CALLER PUSH20 0xFFFFFFFFFFFFFFFFFFFFFFFFFFFFFFFFFFFFFFFF AND PUSH20 0xFFFFFFFFFFFFFFFFFFFFFFFFFFFFFFFFFFFFFFFF AND DUP2 MSTORE PUSH1 0x20 ADD SWAP1 DUP2 MSTORE PUSH1 0x20 ADD PUSH0 KECCAK256 PUSH0 SWAP1 SLOAD SWAP1 PUSH2 0x100 EXP SWAP1 DIV PUSH1 0xFF AND ISZERO PUSH2 0x1C9 JUMPI PUSH1 0x40 MLOAD PUSH32 0x8C379A000000000000000000000000000000000000000000000000000000000 DUP2 MSTORE PUSH1 0x4 ADD PUSH2 0x1C0 SWAP1 PUSH2 0x7DF JUMP JUMPDEST PUSH1 0x40 MLOAD DUP1 SWAP2 SUB SWAP1 REVERT JUMPDEST PUSH1 0x1 PUSH0 PUSH0 CALLER PUSH20 0xFFFFFFFFFFFFFFFFFFFFFFFFFFFFFFFFFFFFFFFF AND PUSH20 0xFFFFFFFFFFFFFFFFFFFFFFFFFFFFFFFFFFFFFFFF AND DUP2 MSTORE PUSH1 0x20 ADD SWAP1 DUP2 MSTORE PUSH1 0x20 ADD PUSH0 KECCAK256 PUSH0 PUSH2 0x100 EXP DUP2 SLOAD DUP2 PUSH1 0xFF MUL NOT AND SWAP1 DUP4 ISZERO ISZERO MUL OR SWAP1 SSTORE POP PUSH1 0x1 CALLER SWAP1 DUP1 PUSH1 0x1 DUP2 SLOAD ADD DUP1 DUP3 SSTORE DUP1 SWAP2 POP POP PUSH1 0x1 SWAP1 SUB SWAP1 PUSH0 MSTORE PUSH1 0x20 PUSH0 KECCAK256 ADD PUSH0 SWAP1 SWAP2 SWAP1 SWAP2 SWAP1 SWAP2 PUSH2 0x100 EXP DUP2 SLOAD DUP2 PUSH20 0xFFFFFFFFFFFFFFFFFFFFFFFFFFFFFFFFFFFFFFFF MUL NOT AND SWAP1 DUP4 PUSH20 0xFFFFFFFFFFFFFFFFFFFFFFFFFFFFFFFFFFFFFFFF AND MUL OR SWAP1 SSTORE POP JUMP JUMPDEST DUP2 PUSH20 0xFFFFFFFFFFFFFFFFFFFFFFFFFFFFFFFFFFFFFFFF AND CALLER PUSH20 0xFFFFFFFFFFFFFFFFFFFFFFFFFFFFFFFFFFFFFFFF AND PUSH32 0xA85107A334EAE0D22D21CDF13AF0F8E8125039EC60BAAA843D2C4C5B0680174 DUP4 PUSH1 0x40 MLOAD PUSH2 0x2DC SWAP2 SWAP1 PUSH2 0x80C JUMP JUMPDEST PUSH1 0x40 MLOAD DUP1 SWAP2 SUB SWAP1 LOG3 PUSH0 PUSH0 SWAP1 POP JUMPDEST PUSH1 0x1 DUP1 SLOAD SWAP1 POP DUP2 LT ISZERO PUSH2 0x3A8 JUMPI PUSH1 0x1 DUP2 DUP2 SLOAD DUP2 LT PUSH2 0x30A JUMPI PUSH2 0x309 PUSH2 0x825 JUMP JUMPDEST JUMPDEST SWAP1 PUSH0 MSTORE PUSH1 0x20 PUSH0 KECCAK256 ADD PUSH0 SWAP1 SLOAD SWAP1 PUSH2 0x100 EXP SWAP1 DIV PUSH20 0xFFFFFFFFFFFFFFFFFFFFFFFFFFFFFFFFFFFFFFFF AND PUSH20 0xFFFFFFFFFFFFFFFFFFFFFFFFFFFFFFFFFFFFFFFF AND PUSH4 0x76637CFE CALLER DUP6 DUP6 PUSH1 0x40 MLOAD DUP5 PUSH4 0xFFFFFFFF AND PUSH1 0xE0 SHL DUP2 MSTORE PUSH1 0x4 ADD PUSH2 0x36E SWAP4 SWAP3 SWAP2 SWAP1 PUSH2 0x852 JUMP JUMPDEST PUSH0 PUSH1 0x40 MLOAD DUP1 DUP4 SUB DUP2 PUSH0 DUP8 DUP1 EXTCODESIZE ISZERO DUP1 ISZERO PUSH2 0x385 JUMPI PUSH0 PUSH0 REVERT JUMPDEST POP GAS CALL ISZERO DUP1 ISZERO PUSH2 0x397 JUMPI RETURNDATASIZE PUSH0 PUSH0 RETURNDATACOPY RETURNDATASIZE PUSH0 REVERT JUMPDEST POP POP POP POP DUP1 DUP1 PUSH1 0x1 ADD SWAP2 POP POP PUSH2 0x2E9 JUMP JUMPDEST POP POP POP JUMP JUMPDEST PUSH0 PUSH0 CALLER PUSH20 0xFFFFFFFFFFFFFFFFFFFFFFFFFFFFFFFFFFFFFFFF AND PUSH20 0xFFFFFFFFFFFFFFFFFFFFFFFFFFFFFFFFFFFFFFFF AND DUP2 MSTORE PUSH1 0x20 ADD SWAP1 DUP2 MSTORE PUSH1 0x20 ADD PUSH0 KECCAK256 PUSH0 SWAP1 SLOAD SWAP1 PUSH2 0x100 EXP SWAP1 DIV PUSH1 0xFF AND PUSH2 0x435 JUMPI PUSH1 0x40 MLOAD PUSH32 0x8C379A000000000000000000000000000000000000000000000000000000000 DUP2 MSTORE PUSH1 0x4 ADD PUSH2 0x42C SWAP1 PUSH2 0x8D1 JUMP JUMPDEST PUSH1 0x40 MLOAD DUP1 SWAP2 SUB SWAP1 REVERT JUMPDEST PUSH0 PUSH0 PUSH0 CALLER PUSH20 0xFFFFFFFFFFFFFFFFFFFFFFFFFFFFFFFFFFFFFFFF AND PUSH20 0xFFFFFFFFFFFFFFFFFFFFFFFFFFFFFFFFFFFFFFFF AND DUP2 MSTORE PUSH1 0x20 ADD SWAP1 DUP2 MSTORE PUSH1 0x20 ADD PUSH0 KECCAK256 PUSH0 PUSH2 0x100 EXP DUP2 SLOAD DUP2 PUSH1 0xFF MUL NOT AND SWAP1 DUP4 ISZERO ISZERO MUL OR SWAP1 SSTORE POP PUSH0 PUSH0 SWAP1 POP JUMPDEST PUSH1 0x1 DUP1 SLOAD SWAP1 POP DUP2 LT ISZERO PUSH2 0x602 JUMPI CALLER PUSH20 0xFFFFFFFFFFFFFFFFFFFFFFFFFFFFFFFFFFFFFFFF AND PUSH1 0x1 DUP3 DUP2 SLOAD DUP2 LT PUSH2 0x4C5 JUMPI PUSH2 0x4C4 PUSH2 0x825 JUMP JUMPDEST JUMPDEST SWAP1 PUSH0 MSTORE PUSH1 0x20 PUSH0 KECCAK256 ADD PUSH0 SWAP1 SLOAD SWAP1 PUSH2 0x100 EXP SWAP1 DIV PUSH20 0xFFFFFFFFFFFFFFFFFFFFFFFFFFFFFFFFFFFFFFFF AND PUSH20 0xFFFFFFFFFFFFFFFFFFFFFFFFFFFFFFFFFFFFFFFF AND SUB PUSH2 0x5F5 JUMPI PUSH1 0x1 DUP1 DUP1 DUP1 SLOAD SWAP1 POP PUSH2 0x51A SWAP2 SWAP1 PUSH2 0x91C JUMP JUMPDEST DUP2 SLOAD DUP2 LT PUSH2 0x52B JUMPI PUSH2 0x52A PUSH2 0x825 JUMP JUMPDEST JUMPDEST SWAP1 PUSH0 MSTORE PUSH1 0x20 PUSH0 KECCAK256 ADD PUSH0 SWAP1 SLOAD SWAP1 PUSH2 0x100 EXP SWAP1 DIV PUSH20 0xFFFFFFFFFFFFFFFFFFFFFFFFFFFFFFFFFFFFFFFF AND PUSH1 0x1 DUP3 DUP2 SLOAD DUP2 LT PUSH2 0x567 JUMPI PUSH2 0x566 PUSH2 0x825 JUMP JUMPDEST JUMPDEST SWAP1 PUSH0 MSTORE PUSH1 0x20 PUSH0 KECCAK256 ADD PUSH0 PUSH2 0x100 EXP DUP2 SLOAD DUP2 PUSH20 0xFFFFFFFFFFFFFFFFFFFFFFFFFFFFFFFFFFFFFFFF MUL NOT AND SWAP1 DUP4 PUSH20 0xFFFFFFFFFFFFFFFFFFFFFFFFFFFFFFFFFFFFFFFF AND MUL OR SWAP1 SSTORE POP PUSH1 0x1 DUP1 SLOAD DUP1 PUSH2 0x5BE JUMPI PUSH2 0x5BD PUSH2 0x94F JUMP JUMPDEST JUMPDEST PUSH1 0x1 SWAP1 SUB DUP2 DUP2 SWAP1 PUSH0 MSTORE PUSH1 0x20 PUSH0 KECCAK256 ADD PUSH0 PUSH2 0x100 EXP DUP2 SLOAD SWAP1 PUSH20 0xFFFFFFFFFFFFFFFFFFFFFFFFFFFFFFFFFFFFFFFF MUL NOT AND SWAP1 SSTORE SWAP1 SSTORE PUSH2 0x602 JUMP JUMPDEST DUP1 DUP1 PUSH1 0x1 ADD SWAP2 POP POP PUSH2 0x48D JUMP JUMPDEST POP JUMP JUMPDEST PUSH0 PUSH0 REVERT JUMPDEST PUSH0 PUSH20 0xFFFFFFFFFFFFFFFFFFFFFFFFFFFFFFFFFFFFFFFF DUP3 AND SWAP1 POP SWAP2 SWAP1 POP JUMP JUMPDEST PUSH0 PUSH2 0x632 DUP3 PUSH2 0x609 JUMP JUMPDEST SWAP1 POP SWAP2 SWAP1 POP JUMP JUMPDEST PUSH2 0x642 DUP2 PUSH2 0x628 JUMP JUMPDEST DUP2 EQ PUSH2 0x64C JUMPI PUSH0 PUSH0 REVERT JUMPDEST POP JUMP JUMPDEST PUSH0 DUP2 CALLDATALOAD SWAP1 POP PUSH2 0x65D DUP2 PUSH2 0x639 JUMP JUMPDEST SWAP3 SWAP2 POP POP JUMP JUMPDEST PUSH0 PUSH1 0x20 DUP3 DUP5 SUB SLT ISZERO PUSH2 0x678 JUMPI PUSH2 0x677 PUSH2 0x605 JUMP JUMPDEST JUMPDEST PUSH0 PUSH2 0x685 DUP5 DUP3 DUP6 ADD PUSH2 0x64F JUMP JUMPDEST SWAP2 POP POP SWAP3 SWAP2 POP POP JUMP JUMPDEST PUSH0 DUP2 ISZERO ISZERO SWAP1 POP SWAP2 SWAP1 POP JUMP JUMPDEST PUSH2 0x6A2 DUP2 PUSH2 0x68E JUMP JUMPDEST DUP3 MSTORE POP POP JUMP JUMPDEST PUSH0 PUSH1 0x20 DUP3 ADD SWAP1 POP PUSH2 0x6BB PUSH0 DUP4 ADD DUP5 PUSH2 0x699 JUMP JUMPDEST SWAP3 SWAP2 POP POP JUMP JUMPDEST PUSH0 DUP2 SWAP1 POP SWAP2 SWAP1 POP JUMP JUMPDEST PUSH2 0x6D3 DUP2 PUSH2 0x6C1 JUMP JUMPDEST DUP2 EQ PUSH2 0x6DD JUMPI PUSH0 PUSH0 REVERT JUMPDEST POP JUMP JUMPDEST PUSH0 DUP2 CALLDATALOAD SWAP1 POP PUSH2 0x6EE DUP2 PUSH2 0x6CA JUMP JUMPDEST SWAP3 SWAP2 POP POP JUMP JUMPDEST PUSH0 PUSH1 0x20 DUP3 DUP5 SUB SLT ISZERO PUSH2 0x709 JUMPI PUSH2 0x708 PUSH2 0x605 JUMP JUMPDEST JUMPDEST PUSH0 PUSH2 0x716 DUP5 DUP3 DUP6 ADD PUSH2 0x6E0 JUMP JUMPDEST SWAP2 POP POP SWAP3 SWAP2 POP POP JUMP JUMPDEST PUSH2 0x728 DUP2 PUSH2 0x628 JUMP JUMPDEST DUP3 MSTORE POP POP JUMP JUMPDEST PUSH0 PUSH1 0x20 DUP3 ADD SWAP1 POP PUSH2 0x741 PUSH0 DUP4 ADD DUP5 PUSH2 0x71F JUMP JUMPDEST SWAP3 SWAP2 POP POP JUMP JUMPDEST PUSH0 PUSH0 PUSH1 0x40 DUP4 DUP6 SUB SLT ISZERO PUSH2 0x75D JUMPI PUSH2 0x75C PUSH2 0x605 JUMP JUMPDEST JUMPDEST PUSH0 PUSH2 0x76A DUP6 DUP3 DUP7 ADD PUSH2 0x64F JUMP JUMPDEST SWAP3 POP POP PUSH1 0x20 PUSH2 0x77B DUP6 DUP3 DUP7 ADD PUSH2 0x6E0 JUMP JUMPDEST SWAP2 POP POP SWAP3 POP SWAP3 SWAP1 POP JUMP JUMPDEST PUSH0 DUP3 DUP3 MSTORE PUSH1 0x20 DUP3 ADD SWAP1 POP SWAP3 SWAP2 POP POP JUMP JUMPDEST PUSH32 0x416C726561647920737562736372696265640000000000000000000000000000 PUSH0 DUP3 ADD MSTORE POP JUMP JUMPDEST PUSH0 PUSH2 0x7C9 PUSH1 0x12 DUP4 PUSH2 0x785 JUMP JUMPDEST SWAP2 POP PUSH2 0x7D4 DUP3 PUSH2 0x795 JUMP JUMPDEST PUSH1 0x20 DUP3 ADD SWAP1 POP SWAP2 SWAP1 POP JUMP JUMPDEST PUSH0 PUSH1 0x20 DUP3 ADD SWAP1 POP DUP2 DUP2 SUB PUSH0 DUP4 ADD MSTORE PUSH2 0x7F6 DUP2 PUSH2 0x7BD JUMP JUMPDEST SWAP1 POP SWAP2 SWAP1 POP JUMP JUMPDEST PUSH2 0x806 DUP2 PUSH2 0x6C1 JUMP JUMPDEST DUP3 MSTORE POP POP JUMP JUMPDEST PUSH0 PUSH1 0x20 DUP3 ADD SWAP1 POP PUSH2 0x81F PUSH0 DUP4 ADD DUP5 PUSH2 0x7FD JUMP JUMPDEST SWAP3 SWAP2 POP POP JUMP JUMPDEST PUSH32 0x4E487B7100000000000000000000000000000000000000000000000000000000 PUSH0 MSTORE PUSH1 0x32 PUSH1 0x4 MSTORE PUSH1 0x24 PUSH0 REVERT JUMPDEST PUSH0 PUSH1 0x60 DUP3 ADD SWAP1 POP PUSH2 0x865 PUSH0 DUP4 ADD DUP7 PUSH2 0x71F JUMP JUMPDEST PUSH2 0x872 PUSH1 0x20 DUP4 ADD DUP6 PUSH2 0x71F JUMP JUMPDEST PUSH2 0x87F PUSH1 0x40 DUP4 ADD DUP5 PUSH2 0x7FD JUMP JUMPDEST SWAP5 SWAP4 POP POP POP POP JUMP JUMPDEST PUSH32 0x4E6F742073756273637269626564000000000000000000000000000000000000 PUSH0 DUP3 ADD MSTORE POP JUMP JUMPDEST PUSH0 PUSH2 0x8BB PUSH1 0xE DUP4 PUSH2 0x785 JUMP JUMPDEST SWAP2 POP PUSH2 0x8C6 DUP3 PUSH2 0x887 JUMP JUMPDEST PUSH1 0x20 DUP3 ADD SWAP1 POP SWAP2 SWAP1 POP JUMP JUMPDEST PUSH0 PUSH1 0x20 DUP3 ADD SWAP1 POP DUP2 DUP2 SUB PUSH0 DUP4 ADD MSTORE PUSH2 0x8E8 DUP2 PUSH2 0x8AF JUMP JUMPDEST SWAP1 POP SWAP2 SWAP1 POP JUMP JUMPDEST PUSH32 0x4E487B7100000000000000000000000000000000000000000000000000000000 PUSH0 MSTORE PUSH1 0x11 PUSH1 0x4 MSTORE PUSH1 0x24 PUSH0 REVERT JUMPDEST PUSH0 PUSH2 0x926 DUP3 PUSH2 0x6C1 JUMP JUMPDEST SWAP2 POP PUSH2 0x931 DUP4 PUSH2 0x6C1 JUMP JUMPDEST SWAP3 POP DUP3 DUP3 SUB SWAP1 POP DUP2 DUP2 GT ISZERO PUSH2 0x949 JUMPI PUSH2 0x948 PUSH2 0x8EF JUMP JUMPDEST JUMPDEST SWAP3 SWAP2 POP POP JUMP JUMPDEST PUSH32 0x4E487B7100000000000000000000000000000000000000000000000000000000 PUSH0 MSTORE PUSH1 0x31 PUSH1 0x4 MSTORE PUSH1 0x24 PUSH0 REVERT INVALID LOG2 PUSH5 0x6970667358 0x22 SLT KECCAK256 DIV KECCAK256 0xB6 DATALOADN 0x2CA6 CREATE 0xEB BLOCKHASH 0xBA STATICCALL 0xD9 SELFBALANCE 0xED 0x1E 0xC9 REVERT RETF 0xC3 GAS MLOAD LT 0xC4 SLOAD 0xD CODECOPY 0xA9 0x28 0x25 0xB4 0xA5 ADDRESS PUSH5 0x736F6C6343 STOP ADDMOD 0x1E STOP CALLER "
				},
				"gasEstimates": {
					"creation": {
						"codeDepositCost": "496400",
						"executionCost": "528",
						"totalCost": "496928"
					},
					"external": {
						"subscribe()": "75333",
						"subscriberList(uint256)": "4944",
						"subscribers(address)": "2810",
						"transfer(address,uint256)": "infinite",
						"unsubscribe()": "infinite"
					}
				},
				"methodIdentifiers": {
					"subscribe()": "8f449a05",
					"subscriberList(uint256)": "83c2eaba",
					"subscribers(address)": "5745ae28",
					"transfer(address,uint256)": "a9059cbb",
					"unsubscribe()": "fcae4484"
				}
			},
			"storageLayout": {
				"storage": [
					{
						"astId": 89,
						"contract": "soliditybyexampleprac/eventsadvanced.sol:EventSubscription",
						"label": "subscribers",
						"offset": 0,
						"slot": "0",
						"type": "t_mapping(t_address,t_bool)"
					},
					{
						"astId": 92,
						"contract": "soliditybyexampleprac/eventsadvanced.sol:EventSubscription",
						"label": "subscriberList",
						"offset": 0,
						"slot": "1",
						"type": "t_array(t_address)dyn_storage"
					}
				],
				"types": {
					"t_address": {
						"encoding": "inplace",
						"label": "address",
						"numberOfBytes": "20"
					},
					"t_array(t_address)dyn_storage": {
						"base": "t_address",
						"encoding": "dynamic_array",
						"label": "address[]",
						"numberOfBytes": "32"
					},
					"t_bool": {
						"encoding": "inplace",
						"label": "bool",
						"numberOfBytes": "1"
					},
					"t_mapping(t_address,t_bool)": {
						"encoding": "mapping",
						"key": "t_address",
						"label": "mapping(address => bool)",
						"numberOfBytes": "32",
						"value": "t_bool"
					}
				}
			},
			"userdoc": {
				"kind": "user",
				"methods": {},
				"version": 1
			}
		}
	}
}