{
	"betethforbtc/bet.sol": {
		"Bet": {
			"abi": [
				{
					"inputs": [],
					"stateMutability": "nonpayable",
					"type": "constructor"
				},
				{
					"inputs": [],
					"name": "betActive",
					"outputs": [
						{
							"internalType": "bool",
							"name": "",
							"type": "bool"
						}
					],
					"stateMutability": "view",
					"type": "function"
				},
				{
					"inputs": [],
					"name": "betStartTime",
					"outputs": [
						{
							"internalType": "uint256",
							"name": "",
							"type": "uint256"
						}
					],
					"stateMutability": "view",
					"type": "function"
				},
				{
					"inputs": [],
					"name": "bettorA",
					"outputs": [
						{
							"internalType": "address payable",
							"name": "",
							"type": "address"
						}
					],
					"stateMutability": "view",
					"type": "function"
				},
				{
					"inputs": [],
					"name": "bettorB",
					"outputs": [
						{
							"internalType": "address payable",
							"name": "",
							"type": "address"
						}
					],
					"stateMutability": "view",
					"type": "function"
				},
				{
					"inputs": [],
					"name": "cancelBet",
					"outputs": [],
					"stateMutability": "nonpayable",
					"type": "function"
				},
				{
					"inputs": [],
					"name": "check_result",
					"outputs": [],
					"stateMutability": "nonpayable",
					"type": "function"
				},
				{
					"inputs": [],
					"name": "send_eth",
					"outputs": [],
					"stateMutability": "payable",
					"type": "function"
				},
				{
					"inputs": [
						{
							"internalType": "address",
							"name": "",
							"type": "address"
						}
					],
					"name": "sent",
					"outputs": [
						{
							"internalType": "bool",
							"name": "",
							"type": "bool"
						}
					],
					"stateMutability": "view",
					"type": "function"
				},
				{
					"inputs": [
						{
							"internalType": "address payable",
							"name": "_bettorB",
							"type": "address"
						}
					],
					"name": "setBettorB",
					"outputs": [],
					"stateMutability": "nonpayable",
					"type": "function"
				},
				{
					"inputs": [],
					"name": "settle",
					"outputs": [],
					"stateMutability": "nonpayable",
					"type": "function"
				},
				{
					"inputs": [],
					"name": "winner",
					"outputs": [
						{
							"internalType": "address payable",
							"name": "",
							"type": "address"
						}
					],
					"stateMutability": "view",
					"type": "function"
				}
			],
			"devdoc": {
				"kind": "dev",
				"methods": {},
				"version": 1
			},
			"evm": {
				"assembly": "    /* \"betethforbtc/bet.sol\":65:1736  contract Bet{... */\n  mstore(0x40, 0x80)\n    /* \"betethforbtc/bet.sol\":290:350  constructor(){... */\n  callvalue\n  dup1\n  iszero\n  tag_1\n  jumpi\n  revert(0x00, 0x00)\ntag_1:\n  pop\n    /* \"betethforbtc/bet.sol\":330:340  msg.sender */\n  caller\n    /* \"betethforbtc/bet.sol\":314:321  bettorA */\n  0x00\n  0x00\n    /* \"betethforbtc/bet.sol\":314:341  bettorA=payable(msg.sender) */\n  0x0100\n  exp\n  dup2\n  sload\n  dup2\n  0xffffffffffffffffffffffffffffffffffffffff\n  mul\n  not\n  and\n  swap1\n  dup4\n  0xffffffffffffffffffffffffffffffffffffffff\n  and\n  mul\n  or\n  swap1\n  sstore\n  pop\n    /* \"betethforbtc/bet.sol\":65:1736  contract Bet{... */\n  dataSize(sub_0)\n  dup1\n  dataOffset(sub_0)\n  0x00\n  codecopy\n  0x00\n  return\nstop\n\nsub_0: assembly {\n        /* \"betethforbtc/bet.sol\":65:1736  contract Bet{... */\n      mstore(0x40, 0x80)\n      jumpi(tag_1, lt(calldatasize, 0x04))\n      shr(0xe0, calldataload(0x00))\n      dup1\n      0x8ae6007a\n      gt\n      tag_13\n      jumpi\n      dup1\n      0x8ae6007a\n      eq\n      tag_7\n      jumpi\n      dup1\n      0x8e46b5d0\n      eq\n      tag_8\n      jumpi\n      dup1\n      0xa1498f50\n      eq\n      tag_9\n      jumpi\n      dup1\n      0xdfbf53ae\n      eq\n      tag_10\n      jumpi\n      dup1\n      0xea27b3fe\n      eq\n      tag_11\n      jumpi\n      dup1\n      0xf9404d0a\n      eq\n      tag_12\n      jumpi\n      jump(tag_1)\n    tag_13:\n      dup1\n      0x11da60b4\n      eq\n      tag_2\n      jumpi\n      dup1\n      0x1363a448\n      eq\n      tag_3\n      jumpi\n      dup1\n      0x154e9cec\n      eq\n      tag_4\n      jumpi\n      dup1\n      0x7b6d79f1\n      eq\n      tag_5\n      jumpi\n      dup1\n      0x7bf786f8\n      eq\n      tag_6\n      jumpi\n    tag_1:\n      revert(0x00, 0x00)\n        /* \"betethforbtc/bet.sol\":1059:1396  function settle()public{... */\n    tag_2:\n      callvalue\n      dup1\n      iszero\n      tag_14\n      jumpi\n      revert(0x00, 0x00)\n    tag_14:\n      pop\n      tag_15\n      tag_16\n      jump\t// in\n    tag_15:\n      stop\n        /* \"betethforbtc/bet.sol\":356:518  function setBettorB(address payable _bettorB) public {... */\n    tag_3:\n      callvalue\n      dup1\n      iszero\n      tag_17\n      jumpi\n      revert(0x00, 0x00)\n    tag_17:\n      pop\n      tag_18\n      0x04\n      dup1\n      calldatasize\n      sub\n      dup2\n      add\n      swap1\n      tag_19\n      swap2\n      swap1\n      tag_20\n      jump\t// in\n    tag_19:\n      tag_21\n      jump\t// in\n    tag_18:\n      stop\n        /* \"betethforbtc/bet.sol\":120:150  address payable public bettorB */\n    tag_4:\n      callvalue\n      dup1\n      iszero\n      tag_22\n      jumpi\n      revert(0x00, 0x00)\n    tag_22:\n      pop\n      tag_23\n      tag_24\n      jump\t// in\n    tag_23:\n      mload(0x40)\n      tag_25\n      swap2\n      swap1\n      tag_26\n      jump\t// in\n    tag_25:\n      mload(0x40)\n      dup1\n      swap2\n      sub\n      swap1\n      return\n        /* \"betethforbtc/bet.sol\":1402:1733  function cancelBet() public {... */\n    tag_5:\n      callvalue\n      dup1\n      iszero\n      tag_27\n      jumpi\n      revert(0x00, 0x00)\n    tag_27:\n      pop\n      tag_28\n      tag_29\n      jump\t// in\n    tag_28:\n      stop\n        /* \"betethforbtc/bet.sol\":156:191  mapping (address=>bool) public sent */\n    tag_6:\n      callvalue\n      dup1\n      iszero\n      tag_30\n      jumpi\n      revert(0x00, 0x00)\n    tag_30:\n      pop\n      tag_31\n      0x04\n      dup1\n      calldatasize\n      sub\n      dup2\n      add\n      swap1\n      tag_32\n      swap2\n      swap1\n      tag_33\n      jump\t// in\n    tag_32:\n      tag_34\n      jump\t// in\n    tag_31:\n      mload(0x40)\n      tag_35\n      swap2\n      swap1\n      tag_36\n      jump\t// in\n    tag_35:\n      mload(0x40)\n      dup1\n      swap2\n      sub\n      swap1\n      return\n        /* \"betethforbtc/bet.sol\":524:800  function send_eth() payable public{... */\n    tag_7:\n      tag_37\n      tag_38\n      jump\t// in\n    tag_37:\n      stop\n        /* \"betethforbtc/bet.sol\":233:257  uint public betStartTime */\n    tag_8:\n      callvalue\n      dup1\n      iszero\n      tag_39\n      jumpi\n      revert(0x00, 0x00)\n    tag_39:\n      pop\n      tag_40\n      tag_41\n      jump\t// in\n    tag_40:\n      mload(0x40)\n      tag_42\n      swap2\n      swap1\n      tag_43\n      jump\t// in\n    tag_42:\n      mload(0x40)\n      dup1\n      swap2\n      sub\n      swap1\n      return\n        /* \"betethforbtc/bet.sol\":806:1053  function check_result() public{... */\n    tag_9:\n      callvalue\n      dup1\n      iszero\n      tag_44\n      jumpi\n      revert(0x00, 0x00)\n    tag_44:\n      pop\n      tag_45\n      tag_46\n      jump\t// in\n    tag_45:\n      stop\n        /* \"betethforbtc/bet.sol\":197:227  address payable public  winner */\n    tag_10:\n      callvalue\n      dup1\n      iszero\n      tag_47\n      jumpi\n      revert(0x00, 0x00)\n    tag_47:\n      pop\n      tag_48\n      tag_49\n      jump\t// in\n    tag_48:\n      mload(0x40)\n      tag_50\n      swap2\n      swap1\n      tag_26\n      jump\t// in\n    tag_50:\n      mload(0x40)\n      dup1\n      swap2\n      sub\n      swap1\n      return\n        /* \"betethforbtc/bet.sol\":259:280  bool public betActive */\n    tag_11:\n      callvalue\n      dup1\n      iszero\n      tag_51\n      jumpi\n      revert(0x00, 0x00)\n    tag_51:\n      pop\n      tag_52\n      tag_53\n      jump\t// in\n    tag_52:\n      mload(0x40)\n      tag_54\n      swap2\n      swap1\n      tag_36\n      jump\t// in\n    tag_54:\n      mload(0x40)\n      dup1\n      swap2\n      sub\n      swap1\n      return\n        /* \"betethforbtc/bet.sol\":83:114  address payable public  bettorA */\n    tag_12:\n      callvalue\n      dup1\n      iszero\n      tag_55\n      jumpi\n      revert(0x00, 0x00)\n    tag_55:\n      pop\n      tag_56\n      tag_57\n      jump\t// in\n    tag_56:\n      mload(0x40)\n      tag_58\n      swap2\n      swap1\n      tag_26\n      jump\t// in\n    tag_58:\n      mload(0x40)\n      dup1\n      swap2\n      sub\n      swap1\n      return\n        /* \"betethforbtc/bet.sol\":1059:1396  function settle()public{... */\n    tag_16:\n        /* \"betethforbtc/bet.sol\":1115:1119  true */\n      0x01\n        /* \"betethforbtc/bet.sol\":1100:1119  sent[bettorA]==true */\n      iszero\n      iszero\n        /* \"betethforbtc/bet.sol\":1100:1104  sent */\n      0x02\n        /* \"betethforbtc/bet.sol\":1100:1113  sent[bettorA] */\n      0x00\n        /* \"betethforbtc/bet.sol\":1105:1112  bettorA */\n      0x00\n      0x00\n      swap1\n      sload\n      swap1\n      0x0100\n      exp\n      swap1\n      div\n      0xffffffffffffffffffffffffffffffffffffffff\n      and\n        /* \"betethforbtc/bet.sol\":1100:1113  sent[bettorA] */\n      0xffffffffffffffffffffffffffffffffffffffff\n      and\n      0xffffffffffffffffffffffffffffffffffffffff\n      and\n      dup2\n      mstore\n      0x20\n      add\n      swap1\n      dup2\n      mstore\n      0x20\n      add\n      0x00\n      keccak256\n      0x00\n      swap1\n      sload\n      swap1\n      0x0100\n      exp\n      swap1\n      div\n      0xff\n      and\n        /* \"betethforbtc/bet.sol\":1100:1119  sent[bettorA]==true */\n      iszero\n      iszero\n      eq\n        /* \"betethforbtc/bet.sol\":1100:1142  sent[bettorA]==true && sent[bettorB]==true */\n      dup1\n      iszero\n      tag_60\n      jumpi\n      pop\n        /* \"betethforbtc/bet.sol\":1138:1142  true */\n      0x01\n        /* \"betethforbtc/bet.sol\":1123:1142  sent[bettorB]==true */\n      iszero\n      iszero\n        /* \"betethforbtc/bet.sol\":1123:1127  sent */\n      0x02\n        /* \"betethforbtc/bet.sol\":1123:1136  sent[bettorB] */\n      0x00\n        /* \"betethforbtc/bet.sol\":1128:1135  bettorB */\n      0x01\n      0x00\n      swap1\n      sload\n      swap1\n      0x0100\n      exp\n      swap1\n      div\n      0xffffffffffffffffffffffffffffffffffffffff\n      and\n        /* \"betethforbtc/bet.sol\":1123:1136  sent[bettorB] */\n      0xffffffffffffffffffffffffffffffffffffffff\n      and\n      0xffffffffffffffffffffffffffffffffffffffff\n      and\n      dup2\n      mstore\n      0x20\n      add\n      swap1\n      dup2\n      mstore\n      0x20\n      add\n      0x00\n      keccak256\n      0x00\n      swap1\n      sload\n      swap1\n      0x0100\n      exp\n      swap1\n      div\n      0xff\n      and\n        /* \"betethforbtc/bet.sol\":1123:1142  sent[bettorB]==true */\n      iszero\n      iszero\n      eq\n        /* \"betethforbtc/bet.sol\":1100:1142  sent[bettorA]==true && sent[bettorB]==true */\n    tag_60:\n        /* \"betethforbtc/bet.sol\":1092:1195  require(sent[bettorA]==true && sent[bettorB]==true,\"Both needs to send money into escrow wallet first\") */\n      tag_61\n      jumpi\n      mload(0x40)\n      0x08c379a000000000000000000000000000000000000000000000000000000000\n      dup2\n      mstore\n      0x04\n      add\n      tag_62\n      swap1\n      tag_63\n      jump\t// in\n    tag_62:\n      mload(0x40)\n      dup1\n      swap2\n      sub\n      swap1\n      revert\n    tag_61:\n        /* \"betethforbtc/bet.sol\":1221:1228  bettorA */\n      0x00\n      0x00\n      swap1\n      sload\n      swap1\n      0x0100\n      exp\n      swap1\n      div\n      0xffffffffffffffffffffffffffffffffffffffff\n      and\n        /* \"betethforbtc/bet.sol\":1213:1228  winner==bettorA */\n      0xffffffffffffffffffffffffffffffffffffffff\n      and\n        /* \"betethforbtc/bet.sol\":1213:1219  winner */\n      0x03\n      0x00\n      swap1\n      sload\n      swap1\n      0x0100\n      exp\n      swap1\n      div\n      0xffffffffffffffffffffffffffffffffffffffff\n      and\n        /* \"betethforbtc/bet.sol\":1213:1228  winner==bettorA */\n      0xffffffffffffffffffffffffffffffffffffffff\n      and\n      eq\n        /* \"betethforbtc/bet.sol\":1213:1247  winner==bettorA || winner==bettorB */\n      dup1\n      tag_64\n      jumpi\n      pop\n        /* \"betethforbtc/bet.sol\":1240:1247  bettorB */\n      0x01\n      0x00\n      swap1\n      sload\n      swap1\n      0x0100\n      exp\n      swap1\n      div\n      0xffffffffffffffffffffffffffffffffffffffff\n      and\n        /* \"betethforbtc/bet.sol\":1232:1247  winner==bettorB */\n      0xffffffffffffffffffffffffffffffffffffffff\n      and\n        /* \"betethforbtc/bet.sol\":1232:1238  winner */\n      0x03\n      0x00\n      swap1\n      sload\n      swap1\n      0x0100\n      exp\n      swap1\n      div\n      0xffffffffffffffffffffffffffffffffffffffff\n      and\n        /* \"betethforbtc/bet.sol\":1232:1247  winner==bettorB */\n      0xffffffffffffffffffffffffffffffffffffffff\n      and\n      eq\n        /* \"betethforbtc/bet.sol\":1213:1247  winner==bettorA || winner==bettorB */\n    tag_64:\n        /* \"betethforbtc/bet.sol\":1205:1341  require(winner==bettorA || winner==bettorB,\"The winner is not decide yet, click the check result to see and then trigger this function\") */\n      tag_65\n      jumpi\n      mload(0x40)\n      0x08c379a000000000000000000000000000000000000000000000000000000000\n      dup2\n      mstore\n      0x04\n      add\n      tag_66\n      swap1\n      tag_67\n      jump\t// in\n    tag_66:\n      mload(0x40)\n      dup1\n      swap2\n      sub\n      swap1\n      revert\n    tag_65:\n        /* \"betethforbtc/bet.sol\":1351:1357  winner */\n      0x03\n      0x00\n      swap1\n      sload\n      swap1\n      0x0100\n      exp\n      swap1\n      div\n      0xffffffffffffffffffffffffffffffffffffffff\n      and\n        /* \"betethforbtc/bet.sol\":1351:1366  winner.transfer */\n      0xffffffffffffffffffffffffffffffffffffffff\n      and\n        /* \"betethforbtc/bet.sol\":1351:1389  winner.transfer(address(this).balance) */\n      0x08fc\n        /* \"betethforbtc/bet.sol\":1367:1388  address(this).balance */\n      selfbalance\n        /* \"betethforbtc/bet.sol\":1351:1389  winner.transfer(address(this).balance) */\n      swap1\n      dup2\n      iszero\n      mul\n      swap1\n      mload(0x40)\n      0x00\n      mload(0x40)\n      dup1\n      dup4\n      sub\n      dup2\n      dup6\n      dup9\n      dup9\n      call\n      swap4\n      pop\n      pop\n      pop\n      pop\n      iszero\n      dup1\n      iszero\n      tag_69\n      jumpi\n      returndatacopy(0x00, 0x00, returndatasize)\n      revert(0x00, returndatasize)\n    tag_69:\n      pop\n        /* \"betethforbtc/bet.sol\":1059:1396  function settle()public{... */\n      jump\t// out\n        /* \"betethforbtc/bet.sol\":356:518  function setBettorB(address payable _bettorB) public {... */\n    tag_21:\n        /* \"betethforbtc/bet.sol\":439:446  bettorA */\n      0x00\n      0x00\n      swap1\n      sload\n      swap1\n      0x0100\n      exp\n      swap1\n      div\n      0xffffffffffffffffffffffffffffffffffffffff\n      and\n        /* \"betethforbtc/bet.sol\":427:446  msg.sender==bettorA */\n      0xffffffffffffffffffffffffffffffffffffffff\n      and\n        /* \"betethforbtc/bet.sol\":427:437  msg.sender */\n      caller\n        /* \"betethforbtc/bet.sol\":427:446  msg.sender==bettorA */\n      0xffffffffffffffffffffffffffffffffffffffff\n      and\n      eq\n        /* \"betethforbtc/bet.sol\":419:484  require(msg.sender==bettorA,\"Only owner can choose his opponent\") */\n      tag_71\n      jumpi\n      mload(0x40)\n      0x08c379a000000000000000000000000000000000000000000000000000000000\n      dup2\n      mstore\n      0x04\n      add\n      tag_72\n      swap1\n      tag_73\n      jump\t// in\n    tag_72:\n      mload(0x40)\n      dup1\n      swap2\n      sub\n      swap1\n      revert\n    tag_71:\n        /* \"betethforbtc/bet.sol\":502:510  _bettorB */\n      dup1\n        /* \"betethforbtc/bet.sol\":494:501  bettorB */\n      0x01\n      0x00\n        /* \"betethforbtc/bet.sol\":494:510  bettorB=_bettorB */\n      0x0100\n      exp\n      dup2\n      sload\n      dup2\n      0xffffffffffffffffffffffffffffffffffffffff\n      mul\n      not\n      and\n      swap1\n      dup4\n      0xffffffffffffffffffffffffffffffffffffffff\n      and\n      mul\n      or\n      swap1\n      sstore\n      pop\n        /* \"betethforbtc/bet.sol\":356:518  function setBettorB(address payable _bettorB) public {... */\n      pop\n      jump\t// out\n        /* \"betethforbtc/bet.sol\":120:150  address payable public bettorB */\n    tag_24:\n      0x01\n      0x00\n      swap1\n      sload\n      swap1\n      0x0100\n      exp\n      swap1\n      div\n      0xffffffffffffffffffffffffffffffffffffffff\n      and\n      dup2\n      jump\t// out\n        /* \"betethforbtc/bet.sol\":1402:1733  function cancelBet() public {... */\n    tag_29:\n        /* \"betethforbtc/bet.sol\":1458:1465  bettorA */\n      0x00\n      0x00\n      swap1\n      sload\n      swap1\n      0x0100\n      exp\n      swap1\n      div\n      0xffffffffffffffffffffffffffffffffffffffff\n      and\n        /* \"betethforbtc/bet.sol\":1444:1465  msg.sender == bettorA */\n      0xffffffffffffffffffffffffffffffffffffffff\n      and\n        /* \"betethforbtc/bet.sol\":1444:1454  msg.sender */\n      caller\n        /* \"betethforbtc/bet.sol\":1444:1465  msg.sender == bettorA */\n      0xffffffffffffffffffffffffffffffffffffffff\n      and\n      eq\n        /* \"betethforbtc/bet.sol\":1436:1493  require(msg.sender == bettorA, \"Only bettorA can cancel\") */\n      tag_75\n      jumpi\n      mload(0x40)\n      0x08c379a000000000000000000000000000000000000000000000000000000000\n      dup2\n      mstore\n      0x04\n      add\n      tag_76\n      swap1\n      tag_77\n      jump\t// in\n    tag_76:\n      mload(0x40)\n      dup1\n      swap2\n      sub\n      swap1\n      revert\n    tag_75:\n        /* \"betethforbtc/bet.sol\":1524:1529  false */\n      0x00\n        /* \"betethforbtc/bet.sol\":1507:1529  sent[bettorB] == false */\n      iszero\n      iszero\n        /* \"betethforbtc/bet.sol\":1507:1511  sent */\n      0x02\n        /* \"betethforbtc/bet.sol\":1507:1520  sent[bettorB] */\n      0x00\n        /* \"betethforbtc/bet.sol\":1512:1519  bettorB */\n      0x01\n      0x00\n      swap1\n      sload\n      swap1\n      0x0100\n      exp\n      swap1\n      div\n      0xffffffffffffffffffffffffffffffffffffffff\n      and\n        /* \"betethforbtc/bet.sol\":1507:1520  sent[bettorB] */\n      0xffffffffffffffffffffffffffffffffffffffff\n      and\n      0xffffffffffffffffffffffffffffffffffffffff\n      and\n      dup2\n      mstore\n      0x20\n      add\n      swap1\n      dup2\n      mstore\n      0x20\n      add\n      0x00\n      keccak256\n      0x00\n      swap1\n      sload\n      swap1\n      0x0100\n      exp\n      swap1\n      div\n      0xff\n      and\n        /* \"betethforbtc/bet.sol\":1507:1529  sent[bettorB] == false */\n      iszero\n      iszero\n      eq\n        /* \"betethforbtc/bet.sol\":1499:1559  require(sent[bettorB] == false, \"BettorB already deposited\") */\n      tag_78\n      jumpi\n      mload(0x40)\n      0x08c379a000000000000000000000000000000000000000000000000000000000\n      dup2\n      mstore\n      0x04\n      add\n      tag_79\n      swap1\n      tag_80\n      jump\t// in\n    tag_79:\n      mload(0x40)\n      dup1\n      swap2\n      sub\n      swap1\n      revert\n    tag_78:\n        /* \"betethforbtc/bet.sol\":1607:1613  1 days */\n      0x015180\n        /* \"betethforbtc/bet.sol\":1592:1604  betStartTime */\n      sload(0x04)\n        /* \"betethforbtc/bet.sol\":1592:1613  betStartTime + 1 days */\n      tag_81\n      swap2\n      swap1\n      tag_82\n      jump\t// in\n    tag_81:\n        /* \"betethforbtc/bet.sol\":1573:1588  block.timestamp */\n      timestamp\n        /* \"betethforbtc/bet.sol\":1573:1613  block.timestamp >= betStartTime + 1 days */\n      lt\n      iszero\n        /* \"betethforbtc/bet.sol\":1565:1637  require(block.timestamp >= betStartTime + 1 days, \"Timeout not reached\") */\n      tag_83\n      jumpi\n      mload(0x40)\n      0x08c379a000000000000000000000000000000000000000000000000000000000\n      dup2\n      mstore\n      0x04\n      add\n      tag_84\n      swap1\n      tag_85\n      jump\t// in\n    tag_84:\n      mload(0x40)\n      dup1\n      swap2\n      sub\n      swap1\n      revert\n    tag_83:\n        /* \"betethforbtc/bet.sol\":1660:1665  false */\n      0x00\n        /* \"betethforbtc/bet.sol\":1644:1648  sent */\n      0x02\n        /* \"betethforbtc/bet.sol\":1644:1657  sent[bettorA] */\n      0x00\n        /* \"betethforbtc/bet.sol\":1649:1656  bettorA */\n      0x00\n      0x00\n      swap1\n      sload\n      swap1\n      0x0100\n      exp\n      swap1\n      div\n      0xffffffffffffffffffffffffffffffffffffffff\n      and\n        /* \"betethforbtc/bet.sol\":1644:1657  sent[bettorA] */\n      0xffffffffffffffffffffffffffffffffffffffff\n      and\n      0xffffffffffffffffffffffffffffffffffffffff\n      and\n      dup2\n      mstore\n      0x20\n      add\n      swap1\n      dup2\n      mstore\n      0x20\n      add\n      0x00\n      keccak256\n      0x00\n        /* \"betethforbtc/bet.sol\":1644:1665  sent[bettorA] = false */\n      0x0100\n      exp\n      dup2\n      sload\n      dup2\n      0xff\n      mul\n      not\n      and\n      swap1\n      dup4\n      iszero\n      iszero\n      mul\n      or\n      swap1\n      sstore\n      pop\n        /* \"betethforbtc/bet.sol\":1683:1688  false */\n      0x00\n        /* \"betethforbtc/bet.sol\":1671:1680  betActive */\n      0x05\n      0x00\n        /* \"betethforbtc/bet.sol\":1671:1688  betActive = false */\n      0x0100\n      exp\n      dup2\n      sload\n      dup2\n      0xff\n      mul\n      not\n      and\n      swap1\n      dup4\n      iszero\n      iszero\n      mul\n      or\n      swap1\n      sstore\n      pop\n        /* \"betethforbtc/bet.sol\":1694:1701  bettorA */\n      0x00\n      0x00\n      swap1\n      sload\n      swap1\n      0x0100\n      exp\n      swap1\n      div\n      0xffffffffffffffffffffffffffffffffffffffff\n      and\n        /* \"betethforbtc/bet.sol\":1694:1710  bettorA.transfer */\n      0xffffffffffffffffffffffffffffffffffffffff\n      and\n        /* \"betethforbtc/bet.sol\":1694:1720  bettorA.transfer(10 ether) */\n      0x08fc\n        /* \"betethforbtc/bet.sol\":1711:1719  10 ether */\n      0x8ac7230489e80000\n        /* \"betethforbtc/bet.sol\":1694:1720  bettorA.transfer(10 ether) */\n      swap1\n      dup2\n      iszero\n      mul\n      swap1\n      mload(0x40)\n      0x00\n      mload(0x40)\n      dup1\n      dup4\n      sub\n      dup2\n      dup6\n      dup9\n      dup9\n      call\n      swap4\n      pop\n      pop\n      pop\n      pop\n      iszero\n      dup1\n      iszero\n      tag_87\n      jumpi\n      returndatacopy(0x00, 0x00, returndatasize)\n      revert(0x00, returndatasize)\n    tag_87:\n      pop\n        /* \"betethforbtc/bet.sol\":1402:1733  function cancelBet() public {... */\n      jump\t// out\n        /* \"betethforbtc/bet.sol\":156:191  mapping (address=>bool) public sent */\n    tag_34:\n      mstore(0x20, 0x02)\n      dup1\n      0x00\n      mstore\n      keccak256(0x00, 0x40)\n      0x00\n      swap2\n      pop\n      sload\n      swap1\n      0x0100\n      exp\n      swap1\n      div\n      0xff\n      and\n      dup2\n      jump\t// out\n        /* \"betethforbtc/bet.sol\":524:800  function send_eth() payable public{... */\n    tag_38:\n        /* \"betethforbtc/bet.sol\":588:595  bettorA */\n      0x00\n      0x00\n      swap1\n      sload\n      swap1\n      0x0100\n      exp\n      swap1\n      div\n      0xffffffffffffffffffffffffffffffffffffffff\n      and\n        /* \"betethforbtc/bet.sol\":576:595  msg.sender==bettorA */\n      0xffffffffffffffffffffffffffffffffffffffff\n      and\n        /* \"betethforbtc/bet.sol\":576:586  msg.sender */\n      caller\n        /* \"betethforbtc/bet.sol\":576:595  msg.sender==bettorA */\n      0xffffffffffffffffffffffffffffffffffffffff\n      and\n      eq\n        /* \"betethforbtc/bet.sol\":576:618  msg.sender==bettorA || msg.sender==bettorB */\n      dup1\n      tag_89\n      jumpi\n      pop\n        /* \"betethforbtc/bet.sol\":611:618  bettorB */\n      0x01\n      0x00\n      swap1\n      sload\n      swap1\n      0x0100\n      exp\n      swap1\n      div\n      0xffffffffffffffffffffffffffffffffffffffff\n      and\n        /* \"betethforbtc/bet.sol\":599:618  msg.sender==bettorB */\n      0xffffffffffffffffffffffffffffffffffffffff\n      and\n        /* \"betethforbtc/bet.sol\":599:609  msg.sender */\n      caller\n        /* \"betethforbtc/bet.sol\":599:618  msg.sender==bettorB */\n      0xffffffffffffffffffffffffffffffffffffffff\n      and\n      eq\n        /* \"betethforbtc/bet.sol\":576:618  msg.sender==bettorA || msg.sender==bettorB */\n    tag_89:\n        /* \"betethforbtc/bet.sol\":568:659  require(msg.sender==bettorA || msg.sender==bettorB,\"Only the opponents can send the money\") */\n      tag_90\n      jumpi\n      mload(0x40)\n      0x08c379a000000000000000000000000000000000000000000000000000000000\n      dup2\n      mstore\n      0x04\n      add\n      tag_91\n      swap1\n      tag_92\n      jump\t// in\n    tag_91:\n      mload(0x40)\n      dup1\n      swap2\n      sub\n      swap1\n      revert\n    tag_90:\n        /* \"betethforbtc/bet.sol\":688:696  10 ether */\n      0x8ac7230489e80000\n        /* \"betethforbtc/bet.sol\":677:686  msg.value */\n      callvalue\n        /* \"betethforbtc/bet.sol\":677:696  msg.value==10 ether */\n      eq\n        /* \"betethforbtc/bet.sol\":669:751  require(msg.value==10 ether,\"You only need to send 1 Eth , neither less nor more\") */\n      tag_93\n      jumpi\n      mload(0x40)\n      0x08c379a000000000000000000000000000000000000000000000000000000000\n      dup2\n      mstore\n      0x04\n      add\n      tag_94\n      swap1\n      tag_95\n      jump\t// in\n    tag_94:\n      mload(0x40)\n      dup1\n      swap2\n      sub\n      swap1\n      revert\n    tag_93:\n        /* \"betethforbtc/bet.sol\":778:782  true */\n      0x01\n        /* \"betethforbtc/bet.sol\":761:765  sent */\n      0x02\n        /* \"betethforbtc/bet.sol\":761:777  sent[msg.sender] */\n      0x00\n        /* \"betethforbtc/bet.sol\":766:776  msg.sender */\n      caller\n        /* \"betethforbtc/bet.sol\":761:777  sent[msg.sender] */\n      0xffffffffffffffffffffffffffffffffffffffff\n      and\n      0xffffffffffffffffffffffffffffffffffffffff\n      and\n      dup2\n      mstore\n      0x20\n      add\n      swap1\n      dup2\n      mstore\n      0x20\n      add\n      0x00\n      keccak256\n      0x00\n        /* \"betethforbtc/bet.sol\":761:782  sent[msg.sender]=true */\n      0x0100\n      exp\n      dup2\n      sload\n      dup2\n      0xff\n      mul\n      not\n      and\n      swap1\n      dup4\n      iszero\n      iszero\n      mul\n      or\n      swap1\n      sstore\n      pop\n        /* \"betethforbtc/bet.sol\":524:800  function send_eth() payable public{... */\n      jump\t// out\n        /* \"betethforbtc/bet.sol\":233:257  uint public betStartTime */\n    tag_41:\n      sload(0x04)\n      dup2\n      jump\t// out\n        /* \"betethforbtc/bet.sol\":806:1053  function check_result() public{... */\n    tag_46:\n        /* \"betethforbtc/bet.sol\":868:875  bettorA */\n      0x00\n      0x00\n      swap1\n      sload\n      swap1\n      0x0100\n      exp\n      swap1\n      div\n      0xffffffffffffffffffffffffffffffffffffffff\n      and\n        /* \"betethforbtc/bet.sol\":854:875  msg.sender == bettorA */\n      0xffffffffffffffffffffffffffffffffffffffff\n      and\n        /* \"betethforbtc/bet.sol\":854:864  msg.sender */\n      caller\n        /* \"betethforbtc/bet.sol\":854:875  msg.sender == bettorA */\n      0xffffffffffffffffffffffffffffffffffffffff\n      and\n      eq\n        /* \"betethforbtc/bet.sol\":854:900  msg.sender == bettorA || msg.sender == bettorB */\n      dup1\n      tag_97\n      jumpi\n      pop\n        /* \"betethforbtc/bet.sol\":893:900  bettorB */\n      0x01\n      0x00\n      swap1\n      sload\n      swap1\n      0x0100\n      exp\n      swap1\n      div\n      0xffffffffffffffffffffffffffffffffffffffff\n      and\n        /* \"betethforbtc/bet.sol\":879:900  msg.sender == bettorB */\n      0xffffffffffffffffffffffffffffffffffffffff\n      and\n        /* \"betethforbtc/bet.sol\":879:889  msg.sender */\n      caller\n        /* \"betethforbtc/bet.sol\":879:900  msg.sender == bettorB */\n      0xffffffffffffffffffffffffffffffffffffffff\n      and\n      eq\n        /* \"betethforbtc/bet.sol\":854:900  msg.sender == bettorA || msg.sender == bettorB */\n    tag_97:\n        /* \"betethforbtc/bet.sol\":846:933  require(msg.sender == bettorA || msg.sender == bettorB, \"Only players can call result\") */\n      tag_98\n      jumpi\n      mload(0x40)\n      0x08c379a000000000000000000000000000000000000000000000000000000000\n      dup2\n      mstore\n      0x04\n      add\n      tag_99\n      swap1\n      tag_100\n      jump\t// in\n    tag_99:\n      mload(0x40)\n      dup1\n      swap2\n      sub\n      swap1\n      revert\n    tag_98:\n        /* \"betethforbtc/bet.sol\":952:953  4 */\n      0x04\n        /* \"betethforbtc/bet.sol\":947:950  2+2 */\n      dup1\n        /* \"betethforbtc/bet.sol\":947:953  2+2==4 */\n      sub\n        /* \"betethforbtc/bet.sol\":944:1046  if(2+2==4){... */\n      tag_101\n      jumpi\n        /* \"betethforbtc/bet.sol\":975:982  bettorA */\n      0x00\n      0x00\n      swap1\n      sload\n      swap1\n      0x0100\n      exp\n      swap1\n      div\n      0xffffffffffffffffffffffffffffffffffffffff\n      and\n        /* \"betethforbtc/bet.sol\":968:974  winner */\n      0x03\n      0x00\n        /* \"betethforbtc/bet.sol\":968:982  winner=bettorA */\n      0x0100\n      exp\n      dup2\n      sload\n      dup2\n      0xffffffffffffffffffffffffffffffffffffffff\n      mul\n      not\n      and\n      swap1\n      dup4\n      0xffffffffffffffffffffffffffffffffffffffff\n      and\n      mul\n      or\n      swap1\n      sstore\n      pop\n        /* \"betethforbtc/bet.sol\":944:1046  if(2+2==4){... */\n      jump(tag_102)\n    tag_101:\n        /* \"betethforbtc/bet.sol\":1028:1035  bettorB */\n      0x01\n      0x00\n      swap1\n      sload\n      swap1\n      0x0100\n      exp\n      swap1\n      div\n      0xffffffffffffffffffffffffffffffffffffffff\n      and\n        /* \"betethforbtc/bet.sol\":1021:1027  winner */\n      0x03\n      0x00\n        /* \"betethforbtc/bet.sol\":1021:1035  winner=bettorB */\n      0x0100\n      exp\n      dup2\n      sload\n      dup2\n      0xffffffffffffffffffffffffffffffffffffffff\n      mul\n      not\n      and\n      swap1\n      dup4\n      0xffffffffffffffffffffffffffffffffffffffff\n      and\n      mul\n      or\n      swap1\n      sstore\n      pop\n        /* \"betethforbtc/bet.sol\":944:1046  if(2+2==4){... */\n    tag_102:\n        /* \"betethforbtc/bet.sol\":806:1053  function check_result() public{... */\n      jump\t// out\n        /* \"betethforbtc/bet.sol\":197:227  address payable public  winner */\n    tag_49:\n      0x03\n      0x00\n      swap1\n      sload\n      swap1\n      0x0100\n      exp\n      swap1\n      div\n      0xffffffffffffffffffffffffffffffffffffffff\n      and\n      dup2\n      jump\t// out\n        /* \"betethforbtc/bet.sol\":259:280  bool public betActive */\n    tag_53:\n      0x05\n      0x00\n      swap1\n      sload\n      swap1\n      0x0100\n      exp\n      swap1\n      div\n      0xff\n      and\n      dup2\n      jump\t// out\n        /* \"betethforbtc/bet.sol\":83:114  address payable public  bettorA */\n    tag_57:\n      0x00\n      0x00\n      swap1\n      sload\n      swap1\n      0x0100\n      exp\n      swap1\n      div\n      0xffffffffffffffffffffffffffffffffffffffff\n      and\n      dup2\n      jump\t// out\n        /* \"#utility.yul\":88:205   */\n    tag_104:\n        /* \"#utility.yul\":197:198   */\n      0x00\n        /* \"#utility.yul\":194:195   */\n      0x00\n        /* \"#utility.yul\":187:199   */\n      revert\n        /* \"#utility.yul\":334:460   */\n    tag_106:\n        /* \"#utility.yul\":371:378   */\n      0x00\n        /* \"#utility.yul\":411:453   */\n      0xffffffffffffffffffffffffffffffffffffffff\n        /* \"#utility.yul\":404:409   */\n      dup3\n        /* \"#utility.yul\":400:454   */\n      and\n        /* \"#utility.yul\":389:454   */\n      swap1\n      pop\n        /* \"#utility.yul\":334:460   */\n      swap2\n      swap1\n      pop\n      jump\t// out\n        /* \"#utility.yul\":466:570   */\n    tag_107:\n        /* \"#utility.yul\":511:518   */\n      0x00\n        /* \"#utility.yul\":540:564   */\n      tag_144\n        /* \"#utility.yul\":558:563   */\n      dup3\n        /* \"#utility.yul\":540:564   */\n      tag_106\n      jump\t// in\n    tag_144:\n        /* \"#utility.yul\":529:564   */\n      swap1\n      pop\n        /* \"#utility.yul\":466:570   */\n      swap2\n      swap1\n      pop\n      jump\t// out\n        /* \"#utility.yul\":576:714   */\n    tag_108:\n        /* \"#utility.yul\":657:689   */\n      tag_146\n        /* \"#utility.yul\":683:688   */\n      dup2\n        /* \"#utility.yul\":657:689   */\n      tag_107\n      jump\t// in\n    tag_146:\n        /* \"#utility.yul\":650:655   */\n      dup2\n        /* \"#utility.yul\":647:690   */\n      eq\n        /* \"#utility.yul\":637:708   */\n      tag_147\n      jumpi\n        /* \"#utility.yul\":704:705   */\n      0x00\n        /* \"#utility.yul\":701:702   */\n      0x00\n        /* \"#utility.yul\":694:706   */\n      revert\n        /* \"#utility.yul\":637:708   */\n    tag_147:\n        /* \"#utility.yul\":576:714   */\n      pop\n      jump\t// out\n        /* \"#utility.yul\":720:875   */\n    tag_109:\n        /* \"#utility.yul\":774:779   */\n      0x00\n        /* \"#utility.yul\":812:818   */\n      dup2\n        /* \"#utility.yul\":799:819   */\n      calldataload\n        /* \"#utility.yul\":790:819   */\n      swap1\n      pop\n        /* \"#utility.yul\":828:869   */\n      tag_149\n        /* \"#utility.yul\":863:868   */\n      dup2\n        /* \"#utility.yul\":828:869   */\n      tag_108\n      jump\t// in\n    tag_149:\n        /* \"#utility.yul\":720:875   */\n      swap3\n      swap2\n      pop\n      pop\n      jump\t// out\n        /* \"#utility.yul\":881:1226   */\n    tag_20:\n        /* \"#utility.yul\":948:954   */\n      0x00\n        /* \"#utility.yul\":997:999   */\n      0x20\n        /* \"#utility.yul\":985:994   */\n      dup3\n        /* \"#utility.yul\":976:983   */\n      dup5\n        /* \"#utility.yul\":972:995   */\n      sub\n        /* \"#utility.yul\":968:1000   */\n      slt\n        /* \"#utility.yul\":965:1084   */\n      iszero\n      tag_151\n      jumpi\n        /* \"#utility.yul\":1003:1082   */\n      tag_152\n      tag_104\n      jump\t// in\n    tag_152:\n        /* \"#utility.yul\":965:1084   */\n    tag_151:\n        /* \"#utility.yul\":1123:1124   */\n      0x00\n        /* \"#utility.yul\":1148:1209   */\n      tag_153\n        /* \"#utility.yul\":1201:1208   */\n      dup5\n        /* \"#utility.yul\":1192:1198   */\n      dup3\n        /* \"#utility.yul\":1181:1190   */\n      dup6\n        /* \"#utility.yul\":1177:1199   */\n      add\n        /* \"#utility.yul\":1148:1209   */\n      tag_109\n      jump\t// in\n    tag_153:\n        /* \"#utility.yul\":1138:1209   */\n      swap2\n      pop\n        /* \"#utility.yul\":1094:1219   */\n      pop\n        /* \"#utility.yul\":881:1226   */\n      swap3\n      swap2\n      pop\n      pop\n      jump\t// out\n        /* \"#utility.yul\":1232:1374   */\n    tag_110:\n        /* \"#utility.yul\":1335:1367   */\n      tag_155\n        /* \"#utility.yul\":1361:1366   */\n      dup2\n        /* \"#utility.yul\":1335:1367   */\n      tag_107\n      jump\t// in\n    tag_155:\n        /* \"#utility.yul\":1330:1333   */\n      dup3\n        /* \"#utility.yul\":1323:1368   */\n      mstore\n        /* \"#utility.yul\":1232:1374   */\n      pop\n      pop\n      jump\t// out\n        /* \"#utility.yul\":1380:1634   */\n    tag_26:\n        /* \"#utility.yul\":1489:1493   */\n      0x00\n        /* \"#utility.yul\":1527:1529   */\n      0x20\n        /* \"#utility.yul\":1516:1525   */\n      dup3\n        /* \"#utility.yul\":1512:1530   */\n      add\n        /* \"#utility.yul\":1504:1530   */\n      swap1\n      pop\n        /* \"#utility.yul\":1540:1627   */\n      tag_157\n        /* \"#utility.yul\":1624:1625   */\n      0x00\n        /* \"#utility.yul\":1613:1622   */\n      dup4\n        /* \"#utility.yul\":1609:1626   */\n      add\n        /* \"#utility.yul\":1600:1606   */\n      dup5\n        /* \"#utility.yul\":1540:1627   */\n      tag_110\n      jump\t// in\n    tag_157:\n        /* \"#utility.yul\":1380:1634   */\n      swap3\n      swap2\n      pop\n      pop\n      jump\t// out\n        /* \"#utility.yul\":1640:1736   */\n    tag_111:\n        /* \"#utility.yul\":1677:1684   */\n      0x00\n        /* \"#utility.yul\":1706:1730   */\n      tag_159\n        /* \"#utility.yul\":1724:1729   */\n      dup3\n        /* \"#utility.yul\":1706:1730   */\n      tag_106\n      jump\t// in\n    tag_159:\n        /* \"#utility.yul\":1695:1730   */\n      swap1\n      pop\n        /* \"#utility.yul\":1640:1736   */\n      swap2\n      swap1\n      pop\n      jump\t// out\n        /* \"#utility.yul\":1742:1864   */\n    tag_112:\n        /* \"#utility.yul\":1815:1839   */\n      tag_161\n        /* \"#utility.yul\":1833:1838   */\n      dup2\n        /* \"#utility.yul\":1815:1839   */\n      tag_111\n      jump\t// in\n    tag_161:\n        /* \"#utility.yul\":1808:1813   */\n      dup2\n        /* \"#utility.yul\":1805:1840   */\n      eq\n        /* \"#utility.yul\":1795:1858   */\n      tag_162\n      jumpi\n        /* \"#utility.yul\":1854:1855   */\n      0x00\n        /* \"#utility.yul\":1851:1852   */\n      0x00\n        /* \"#utility.yul\":1844:1856   */\n      revert\n        /* \"#utility.yul\":1795:1858   */\n    tag_162:\n        /* \"#utility.yul\":1742:1864   */\n      pop\n      jump\t// out\n        /* \"#utility.yul\":1870:2009   */\n    tag_113:\n        /* \"#utility.yul\":1916:1921   */\n      0x00\n        /* \"#utility.yul\":1954:1960   */\n      dup2\n        /* \"#utility.yul\":1941:1961   */\n      calldataload\n        /* \"#utility.yul\":1932:1961   */\n      swap1\n      pop\n        /* \"#utility.yul\":1970:2003   */\n      tag_164\n        /* \"#utility.yul\":1997:2002   */\n      dup2\n        /* \"#utility.yul\":1970:2003   */\n      tag_112\n      jump\t// in\n    tag_164:\n        /* \"#utility.yul\":1870:2009   */\n      swap3\n      swap2\n      pop\n      pop\n      jump\t// out\n        /* \"#utility.yul\":2015:2344   */\n    tag_33:\n        /* \"#utility.yul\":2074:2080   */\n      0x00\n        /* \"#utility.yul\":2123:2125   */\n      0x20\n        /* \"#utility.yul\":2111:2120   */\n      dup3\n        /* \"#utility.yul\":2102:2109   */\n      dup5\n        /* \"#utility.yul\":2098:2121   */\n      sub\n        /* \"#utility.yul\":2094:2126   */\n      slt\n        /* \"#utility.yul\":2091:2210   */\n      iszero\n      tag_166\n      jumpi\n        /* \"#utility.yul\":2129:2208   */\n      tag_167\n      tag_104\n      jump\t// in\n    tag_167:\n        /* \"#utility.yul\":2091:2210   */\n    tag_166:\n        /* \"#utility.yul\":2249:2250   */\n      0x00\n        /* \"#utility.yul\":2274:2327   */\n      tag_168\n        /* \"#utility.yul\":2319:2326   */\n      dup5\n        /* \"#utility.yul\":2310:2316   */\n      dup3\n        /* \"#utility.yul\":2299:2308   */\n      dup6\n        /* \"#utility.yul\":2295:2317   */\n      add\n        /* \"#utility.yul\":2274:2327   */\n      tag_113\n      jump\t// in\n    tag_168:\n        /* \"#utility.yul\":2264:2327   */\n      swap2\n      pop\n        /* \"#utility.yul\":2220:2337   */\n      pop\n        /* \"#utility.yul\":2015:2344   */\n      swap3\n      swap2\n      pop\n      pop\n      jump\t// out\n        /* \"#utility.yul\":2350:2440   */\n    tag_114:\n        /* \"#utility.yul\":2384:2391   */\n      0x00\n        /* \"#utility.yul\":2427:2432   */\n      dup2\n        /* \"#utility.yul\":2420:2433   */\n      iszero\n        /* \"#utility.yul\":2413:2434   */\n      iszero\n        /* \"#utility.yul\":2402:2434   */\n      swap1\n      pop\n        /* \"#utility.yul\":2350:2440   */\n      swap2\n      swap1\n      pop\n      jump\t// out\n        /* \"#utility.yul\":2446:2555   */\n    tag_115:\n        /* \"#utility.yul\":2527:2548   */\n      tag_171\n        /* \"#utility.yul\":2542:2547   */\n      dup2\n        /* \"#utility.yul\":2527:2548   */\n      tag_114\n      jump\t// in\n    tag_171:\n        /* \"#utility.yul\":2522:2525   */\n      dup3\n        /* \"#utility.yul\":2515:2549   */\n      mstore\n        /* \"#utility.yul\":2446:2555   */\n      pop\n      pop\n      jump\t// out\n        /* \"#utility.yul\":2561:2771   */\n    tag_36:\n        /* \"#utility.yul\":2648:2652   */\n      0x00\n        /* \"#utility.yul\":2686:2688   */\n      0x20\n        /* \"#utility.yul\":2675:2684   */\n      dup3\n        /* \"#utility.yul\":2671:2689   */\n      add\n        /* \"#utility.yul\":2663:2689   */\n      swap1\n      pop\n        /* \"#utility.yul\":2699:2764   */\n      tag_173\n        /* \"#utility.yul\":2761:2762   */\n      0x00\n        /* \"#utility.yul\":2750:2759   */\n      dup4\n        /* \"#utility.yul\":2746:2763   */\n      add\n        /* \"#utility.yul\":2737:2743   */\n      dup5\n        /* \"#utility.yul\":2699:2764   */\n      tag_115\n      jump\t// in\n    tag_173:\n        /* \"#utility.yul\":2561:2771   */\n      swap3\n      swap2\n      pop\n      pop\n      jump\t// out\n        /* \"#utility.yul\":2777:2854   */\n    tag_116:\n        /* \"#utility.yul\":2814:2821   */\n      0x00\n        /* \"#utility.yul\":2843:2848   */\n      dup2\n        /* \"#utility.yul\":2832:2848   */\n      swap1\n      pop\n        /* \"#utility.yul\":2777:2854   */\n      swap2\n      swap1\n      pop\n      jump\t// out\n        /* \"#utility.yul\":2860:2978   */\n    tag_117:\n        /* \"#utility.yul\":2947:2971   */\n      tag_176\n        /* \"#utility.yul\":2965:2970   */\n      dup2\n        /* \"#utility.yul\":2947:2971   */\n      tag_116\n      jump\t// in\n    tag_176:\n        /* \"#utility.yul\":2942:2945   */\n      dup3\n        /* \"#utility.yul\":2935:2972   */\n      mstore\n        /* \"#utility.yul\":2860:2978   */\n      pop\n      pop\n      jump\t// out\n        /* \"#utility.yul\":2984:3206   */\n    tag_43:\n        /* \"#utility.yul\":3077:3081   */\n      0x00\n        /* \"#utility.yul\":3115:3117   */\n      0x20\n        /* \"#utility.yul\":3104:3113   */\n      dup3\n        /* \"#utility.yul\":3100:3118   */\n      add\n        /* \"#utility.yul\":3092:3118   */\n      swap1\n      pop\n        /* \"#utility.yul\":3128:3199   */\n      tag_178\n        /* \"#utility.yul\":3196:3197   */\n      0x00\n        /* \"#utility.yul\":3185:3194   */\n      dup4\n        /* \"#utility.yul\":3181:3198   */\n      add\n        /* \"#utility.yul\":3172:3178   */\n      dup5\n        /* \"#utility.yul\":3128:3199   */\n      tag_117\n      jump\t// in\n    tag_178:\n        /* \"#utility.yul\":2984:3206   */\n      swap3\n      swap2\n      pop\n      pop\n      jump\t// out\n        /* \"#utility.yul\":3212:3381   */\n    tag_118:\n        /* \"#utility.yul\":3296:3307   */\n      0x00\n        /* \"#utility.yul\":3330:3336   */\n      dup3\n        /* \"#utility.yul\":3325:3328   */\n      dup3\n        /* \"#utility.yul\":3318:3337   */\n      mstore\n        /* \"#utility.yul\":3370:3374   */\n      0x20\n        /* \"#utility.yul\":3365:3368   */\n      dup3\n        /* \"#utility.yul\":3361:3375   */\n      add\n        /* \"#utility.yul\":3346:3375   */\n      swap1\n      pop\n        /* \"#utility.yul\":3212:3381   */\n      swap3\n      swap2\n      pop\n      pop\n      jump\t// out\n        /* \"#utility.yul\":3387:3623   */\n    tag_119:\n        /* \"#utility.yul\":3527:3561   */\n      0x426f7468206e6565647320746f2073656e64206d6f6e657920696e746f206573\n        /* \"#utility.yul\":3523:3524   */\n      0x00\n        /* \"#utility.yul\":3515:3521   */\n      dup3\n        /* \"#utility.yul\":3511:3525   */\n      add\n        /* \"#utility.yul\":3504:3562   */\n      mstore\n        /* \"#utility.yul\":3596:3615   */\n      0x63726f772077616c6c6574206669727374000000000000000000000000000000\n        /* \"#utility.yul\":3591:3593   */\n      0x20\n        /* \"#utility.yul\":3583:3589   */\n      dup3\n        /* \"#utility.yul\":3579:3594   */\n      add\n        /* \"#utility.yul\":3572:3616   */\n      mstore\n        /* \"#utility.yul\":3387:3623   */\n      pop\n      jump\t// out\n        /* \"#utility.yul\":3629:3995   */\n    tag_120:\n        /* \"#utility.yul\":3771:3774   */\n      0x00\n        /* \"#utility.yul\":3792:3859   */\n      tag_182\n        /* \"#utility.yul\":3856:3858   */\n      0x31\n        /* \"#utility.yul\":3851:3854   */\n      dup4\n        /* \"#utility.yul\":3792:3859   */\n      tag_118\n      jump\t// in\n    tag_182:\n        /* \"#utility.yul\":3785:3859   */\n      swap2\n      pop\n        /* \"#utility.yul\":3868:3961   */\n      tag_183\n        /* \"#utility.yul\":3957:3960   */\n      dup3\n        /* \"#utility.yul\":3868:3961   */\n      tag_119\n      jump\t// in\n    tag_183:\n        /* \"#utility.yul\":3986:3988   */\n      0x40\n        /* \"#utility.yul\":3981:3984   */\n      dup3\n        /* \"#utility.yul\":3977:3989   */\n      add\n        /* \"#utility.yul\":3970:3989   */\n      swap1\n      pop\n        /* \"#utility.yul\":3629:3995   */\n      swap2\n      swap1\n      pop\n      jump\t// out\n        /* \"#utility.yul\":4001:4420   */\n    tag_63:\n        /* \"#utility.yul\":4167:4171   */\n      0x00\n        /* \"#utility.yul\":4205:4207   */\n      0x20\n        /* \"#utility.yul\":4194:4203   */\n      dup3\n        /* \"#utility.yul\":4190:4208   */\n      add\n        /* \"#utility.yul\":4182:4208   */\n      swap1\n      pop\n        /* \"#utility.yul\":4254:4263   */\n      dup2\n        /* \"#utility.yul\":4248:4252   */\n      dup2\n        /* \"#utility.yul\":4244:4264   */\n      sub\n        /* \"#utility.yul\":4240:4241   */\n      0x00\n        /* \"#utility.yul\":4229:4238   */\n      dup4\n        /* \"#utility.yul\":4225:4242   */\n      add\n        /* \"#utility.yul\":4218:4265   */\n      mstore\n        /* \"#utility.yul\":4282:4413   */\n      tag_185\n        /* \"#utility.yul\":4408:4412   */\n      dup2\n        /* \"#utility.yul\":4282:4413   */\n      tag_120\n      jump\t// in\n    tag_185:\n        /* \"#utility.yul\":4274:4413   */\n      swap1\n      pop\n        /* \"#utility.yul\":4001:4420   */\n      swap2\n      swap1\n      pop\n      jump\t// out\n        /* \"#utility.yul\":4426:4740   */\n    tag_121:\n        /* \"#utility.yul\":4566:4600   */\n      0x5468652077696e6e6572206973206e6f7420646563696465207965742c20636c\n        /* \"#utility.yul\":4562:4563   */\n      0x00\n        /* \"#utility.yul\":4554:4560   */\n      dup3\n        /* \"#utility.yul\":4550:4564   */\n      add\n        /* \"#utility.yul\":4543:4601   */\n      mstore\n        /* \"#utility.yul\":4635:4669   */\n      0x69636b2074686520636865636b20726573756c7420746f2073656520616e6420\n        /* \"#utility.yul\":4630:4632   */\n      0x20\n        /* \"#utility.yul\":4622:4628   */\n      dup3\n        /* \"#utility.yul\":4618:4633   */\n      add\n        /* \"#utility.yul\":4611:4670   */\n      mstore\n        /* \"#utility.yul\":4704:4732   */\n      0x7468656e207472696767657220746869732066756e6374696f6e000000000000\n        /* \"#utility.yul\":4699:4701   */\n      0x40\n        /* \"#utility.yul\":4691:4697   */\n      dup3\n        /* \"#utility.yul\":4687:4702   */\n      add\n        /* \"#utility.yul\":4680:4733   */\n      mstore\n        /* \"#utility.yul\":4426:4740   */\n      pop\n      jump\t// out\n        /* \"#utility.yul\":4746:5112   */\n    tag_122:\n        /* \"#utility.yul\":4888:4891   */\n      0x00\n        /* \"#utility.yul\":4909:4976   */\n      tag_188\n        /* \"#utility.yul\":4973:4975   */\n      0x5a\n        /* \"#utility.yul\":4968:4971   */\n      dup4\n        /* \"#utility.yul\":4909:4976   */\n      tag_118\n      jump\t// in\n    tag_188:\n        /* \"#utility.yul\":4902:4976   */\n      swap2\n      pop\n        /* \"#utility.yul\":4985:5078   */\n      tag_189\n        /* \"#utility.yul\":5074:5077   */\n      dup3\n        /* \"#utility.yul\":4985:5078   */\n      tag_121\n      jump\t// in\n    tag_189:\n        /* \"#utility.yul\":5103:5105   */\n      0x60\n        /* \"#utility.yul\":5098:5101   */\n      dup3\n        /* \"#utility.yul\":5094:5106   */\n      add\n        /* \"#utility.yul\":5087:5106   */\n      swap1\n      pop\n        /* \"#utility.yul\":4746:5112   */\n      swap2\n      swap1\n      pop\n      jump\t// out\n        /* \"#utility.yul\":5118:5537   */\n    tag_67:\n        /* \"#utility.yul\":5284:5288   */\n      0x00\n        /* \"#utility.yul\":5322:5324   */\n      0x20\n        /* \"#utility.yul\":5311:5320   */\n      dup3\n        /* \"#utility.yul\":5307:5325   */\n      add\n        /* \"#utility.yul\":5299:5325   */\n      swap1\n      pop\n        /* \"#utility.yul\":5371:5380   */\n      dup2\n        /* \"#utility.yul\":5365:5369   */\n      dup2\n        /* \"#utility.yul\":5361:5381   */\n      sub\n        /* \"#utility.yul\":5357:5358   */\n      0x00\n        /* \"#utility.yul\":5346:5355   */\n      dup4\n        /* \"#utility.yul\":5342:5359   */\n      add\n        /* \"#utility.yul\":5335:5382   */\n      mstore\n        /* \"#utility.yul\":5399:5530   */\n      tag_191\n        /* \"#utility.yul\":5525:5529   */\n      dup2\n        /* \"#utility.yul\":5399:5530   */\n      tag_122\n      jump\t// in\n    tag_191:\n        /* \"#utility.yul\":5391:5530   */\n      swap1\n      pop\n        /* \"#utility.yul\":5118:5537   */\n      swap2\n      swap1\n      pop\n      jump\t// out\n        /* \"#utility.yul\":5543:5764   */\n    tag_123:\n        /* \"#utility.yul\":5683:5717   */\n      0x4f6e6c79206f776e65722063616e2063686f6f736520686973206f70706f6e65\n        /* \"#utility.yul\":5679:5680   */\n      0x00\n        /* \"#utility.yul\":5671:5677   */\n      dup3\n        /* \"#utility.yul\":5667:5681   */\n      add\n        /* \"#utility.yul\":5660:5718   */\n      mstore\n        /* \"#utility.yul\":5752:5756   */\n      0x6e74000000000000000000000000000000000000000000000000000000000000\n        /* \"#utility.yul\":5747:5749   */\n      0x20\n        /* \"#utility.yul\":5739:5745   */\n      dup3\n        /* \"#utility.yul\":5735:5750   */\n      add\n        /* \"#utility.yul\":5728:5757   */\n      mstore\n        /* \"#utility.yul\":5543:5764   */\n      pop\n      jump\t// out\n        /* \"#utility.yul\":5770:6136   */\n    tag_124:\n        /* \"#utility.yul\":5912:5915   */\n      0x00\n        /* \"#utility.yul\":5933:6000   */\n      tag_194\n        /* \"#utility.yul\":5997:5999   */\n      0x22\n        /* \"#utility.yul\":5992:5995   */\n      dup4\n        /* \"#utility.yul\":5933:6000   */\n      tag_118\n      jump\t// in\n    tag_194:\n        /* \"#utility.yul\":5926:6000   */\n      swap2\n      pop\n        /* \"#utility.yul\":6009:6102   */\n      tag_195\n        /* \"#utility.yul\":6098:6101   */\n      dup3\n        /* \"#utility.yul\":6009:6102   */\n      tag_123\n      jump\t// in\n    tag_195:\n        /* \"#utility.yul\":6127:6129   */\n      0x40\n        /* \"#utility.yul\":6122:6125   */\n      dup3\n        /* \"#utility.yul\":6118:6130   */\n      add\n        /* \"#utility.yul\":6111:6130   */\n      swap1\n      pop\n        /* \"#utility.yul\":5770:6136   */\n      swap2\n      swap1\n      pop\n      jump\t// out\n        /* \"#utility.yul\":6142:6561   */\n    tag_73:\n        /* \"#utility.yul\":6308:6312   */\n      0x00\n        /* \"#utility.yul\":6346:6348   */\n      0x20\n        /* \"#utility.yul\":6335:6344   */\n      dup3\n        /* \"#utility.yul\":6331:6349   */\n      add\n        /* \"#utility.yul\":6323:6349   */\n      swap1\n      pop\n        /* \"#utility.yul\":6395:6404   */\n      dup2\n        /* \"#utility.yul\":6389:6393   */\n      dup2\n        /* \"#utility.yul\":6385:6405   */\n      sub\n        /* \"#utility.yul\":6381:6382   */\n      0x00\n        /* \"#utility.yul\":6370:6379   */\n      dup4\n        /* \"#utility.yul\":6366:6383   */\n      add\n        /* \"#utility.yul\":6359:6406   */\n      mstore\n        /* \"#utility.yul\":6423:6554   */\n      tag_197\n        /* \"#utility.yul\":6549:6553   */\n      dup2\n        /* \"#utility.yul\":6423:6554   */\n      tag_124\n      jump\t// in\n    tag_197:\n        /* \"#utility.yul\":6415:6554   */\n      swap1\n      pop\n        /* \"#utility.yul\":6142:6561   */\n      swap2\n      swap1\n      pop\n      jump\t// out\n        /* \"#utility.yul\":6567:6740   */\n    tag_125:\n        /* \"#utility.yul\":6707:6732   */\n      0x4f6e6c7920626574746f72412063616e2063616e63656c000000000000000000\n        /* \"#utility.yul\":6703:6704   */\n      0x00\n        /* \"#utility.yul\":6695:6701   */\n      dup3\n        /* \"#utility.yul\":6691:6705   */\n      add\n        /* \"#utility.yul\":6684:6733   */\n      mstore\n        /* \"#utility.yul\":6567:6740   */\n      pop\n      jump\t// out\n        /* \"#utility.yul\":6746:7112   */\n    tag_126:\n        /* \"#utility.yul\":6888:6891   */\n      0x00\n        /* \"#utility.yul\":6909:6976   */\n      tag_200\n        /* \"#utility.yul\":6973:6975   */\n      0x17\n        /* \"#utility.yul\":6968:6971   */\n      dup4\n        /* \"#utility.yul\":6909:6976   */\n      tag_118\n      jump\t// in\n    tag_200:\n        /* \"#utility.yul\":6902:6976   */\n      swap2\n      pop\n        /* \"#utility.yul\":6985:7078   */\n      tag_201\n        /* \"#utility.yul\":7074:7077   */\n      dup3\n        /* \"#utility.yul\":6985:7078   */\n      tag_125\n      jump\t// in\n    tag_201:\n        /* \"#utility.yul\":7103:7105   */\n      0x20\n        /* \"#utility.yul\":7098:7101   */\n      dup3\n        /* \"#utility.yul\":7094:7106   */\n      add\n        /* \"#utility.yul\":7087:7106   */\n      swap1\n      pop\n        /* \"#utility.yul\":6746:7112   */\n      swap2\n      swap1\n      pop\n      jump\t// out\n        /* \"#utility.yul\":7118:7537   */\n    tag_77:\n        /* \"#utility.yul\":7284:7288   */\n      0x00\n        /* \"#utility.yul\":7322:7324   */\n      0x20\n        /* \"#utility.yul\":7311:7320   */\n      dup3\n        /* \"#utility.yul\":7307:7325   */\n      add\n        /* \"#utility.yul\":7299:7325   */\n      swap1\n      pop\n        /* \"#utility.yul\":7371:7380   */\n      dup2\n        /* \"#utility.yul\":7365:7369   */\n      dup2\n        /* \"#utility.yul\":7361:7381   */\n      sub\n        /* \"#utility.yul\":7357:7358   */\n      0x00\n        /* \"#utility.yul\":7346:7355   */\n      dup4\n        /* \"#utility.yul\":7342:7359   */\n      add\n        /* \"#utility.yul\":7335:7382   */\n      mstore\n        /* \"#utility.yul\":7399:7530   */\n      tag_203\n        /* \"#utility.yul\":7525:7529   */\n      dup2\n        /* \"#utility.yul\":7399:7530   */\n      tag_126\n      jump\t// in\n    tag_203:\n        /* \"#utility.yul\":7391:7530   */\n      swap1\n      pop\n        /* \"#utility.yul\":7118:7537   */\n      swap2\n      swap1\n      pop\n      jump\t// out\n        /* \"#utility.yul\":7543:7718   */\n    tag_127:\n        /* \"#utility.yul\":7683:7710   */\n      0x426574746f724220616c7265616479206465706f736974656400000000000000\n        /* \"#utility.yul\":7679:7680   */\n      0x00\n        /* \"#utility.yul\":7671:7677   */\n      dup3\n        /* \"#utility.yul\":7667:7681   */\n      add\n        /* \"#utility.yul\":7660:7711   */\n      mstore\n        /* \"#utility.yul\":7543:7718   */\n      pop\n      jump\t// out\n        /* \"#utility.yul\":7724:8090   */\n    tag_128:\n        /* \"#utility.yul\":7866:7869   */\n      0x00\n        /* \"#utility.yul\":7887:7954   */\n      tag_206\n        /* \"#utility.yul\":7951:7953   */\n      0x19\n        /* \"#utility.yul\":7946:7949   */\n      dup4\n        /* \"#utility.yul\":7887:7954   */\n      tag_118\n      jump\t// in\n    tag_206:\n        /* \"#utility.yul\":7880:7954   */\n      swap2\n      pop\n        /* \"#utility.yul\":7963:8056   */\n      tag_207\n        /* \"#utility.yul\":8052:8055   */\n      dup3\n        /* \"#utility.yul\":7963:8056   */\n      tag_127\n      jump\t// in\n    tag_207:\n        /* \"#utility.yul\":8081:8083   */\n      0x20\n        /* \"#utility.yul\":8076:8079   */\n      dup3\n        /* \"#utility.yul\":8072:8084   */\n      add\n        /* \"#utility.yul\":8065:8084   */\n      swap1\n      pop\n        /* \"#utility.yul\":7724:8090   */\n      swap2\n      swap1\n      pop\n      jump\t// out\n        /* \"#utility.yul\":8096:8515   */\n    tag_80:\n        /* \"#utility.yul\":8262:8266   */\n      0x00\n        /* \"#utility.yul\":8300:8302   */\n      0x20\n        /* \"#utility.yul\":8289:8298   */\n      dup3\n        /* \"#utility.yul\":8285:8303   */\n      add\n        /* \"#utility.yul\":8277:8303   */\n      swap1\n      pop\n        /* \"#utility.yul\":8349:8358   */\n      dup2\n        /* \"#utility.yul\":8343:8347   */\n      dup2\n        /* \"#utility.yul\":8339:8359   */\n      sub\n        /* \"#utility.yul\":8335:8336   */\n      0x00\n        /* \"#utility.yul\":8324:8333   */\n      dup4\n        /* \"#utility.yul\":8320:8337   */\n      add\n        /* \"#utility.yul\":8313:8360   */\n      mstore\n        /* \"#utility.yul\":8377:8508   */\n      tag_209\n        /* \"#utility.yul\":8503:8507   */\n      dup2\n        /* \"#utility.yul\":8377:8508   */\n      tag_128\n      jump\t// in\n    tag_209:\n        /* \"#utility.yul\":8369:8508   */\n      swap1\n      pop\n        /* \"#utility.yul\":8096:8515   */\n      swap2\n      swap1\n      pop\n      jump\t// out\n        /* \"#utility.yul\":8521:8701   */\n    tag_129:\n        /* \"#utility.yul\":8569:8646   */\n      0x4e487b7100000000000000000000000000000000000000000000000000000000\n        /* \"#utility.yul\":8566:8567   */\n      0x00\n        /* \"#utility.yul\":8559:8647   */\n      mstore\n        /* \"#utility.yul\":8666:8670   */\n      0x11\n        /* \"#utility.yul\":8663:8664   */\n      0x04\n        /* \"#utility.yul\":8656:8671   */\n      mstore\n        /* \"#utility.yul\":8690:8694   */\n      0x24\n        /* \"#utility.yul\":8687:8688   */\n      0x00\n        /* \"#utility.yul\":8680:8695   */\n      revert\n        /* \"#utility.yul\":8707:8898   */\n    tag_82:\n        /* \"#utility.yul\":8747:8750   */\n      0x00\n        /* \"#utility.yul\":8766:8786   */\n      tag_212\n        /* \"#utility.yul\":8784:8785   */\n      dup3\n        /* \"#utility.yul\":8766:8786   */\n      tag_116\n      jump\t// in\n    tag_212:\n        /* \"#utility.yul\":8761:8786   */\n      swap2\n      pop\n        /* \"#utility.yul\":8800:8820   */\n      tag_213\n        /* \"#utility.yul\":8818:8819   */\n      dup4\n        /* \"#utility.yul\":8800:8820   */\n      tag_116\n      jump\t// in\n    tag_213:\n        /* \"#utility.yul\":8795:8820   */\n      swap3\n      pop\n        /* \"#utility.yul\":8843:8844   */\n      dup3\n        /* \"#utility.yul\":8840:8841   */\n      dup3\n        /* \"#utility.yul\":8836:8845   */\n      add\n        /* \"#utility.yul\":8829:8845   */\n      swap1\n      pop\n        /* \"#utility.yul\":8864:8867   */\n      dup1\n        /* \"#utility.yul\":8861:8862   */\n      dup3\n        /* \"#utility.yul\":8858:8868   */\n      gt\n        /* \"#utility.yul\":8855:8891   */\n      iszero\n      tag_214\n      jumpi\n        /* \"#utility.yul\":8871:8889   */\n      tag_215\n      tag_129\n      jump\t// in\n    tag_215:\n        /* \"#utility.yul\":8855:8891   */\n    tag_214:\n        /* \"#utility.yul\":8707:8898   */\n      swap3\n      swap2\n      pop\n      pop\n      jump\t// out\n        /* \"#utility.yul\":8904:9073   */\n    tag_130:\n        /* \"#utility.yul\":9044:9065   */\n      0x54696d656f7574206e6f74207265616368656400000000000000000000000000\n        /* \"#utility.yul\":9040:9041   */\n      0x00\n        /* \"#utility.yul\":9032:9038   */\n      dup3\n        /* \"#utility.yul\":9028:9042   */\n      add\n        /* \"#utility.yul\":9021:9066   */\n      mstore\n        /* \"#utility.yul\":8904:9073   */\n      pop\n      jump\t// out\n        /* \"#utility.yul\":9079:9445   */\n    tag_131:\n        /* \"#utility.yul\":9221:9224   */\n      0x00\n        /* \"#utility.yul\":9242:9309   */\n      tag_218\n        /* \"#utility.yul\":9306:9308   */\n      0x13\n        /* \"#utility.yul\":9301:9304   */\n      dup4\n        /* \"#utility.yul\":9242:9309   */\n      tag_118\n      jump\t// in\n    tag_218:\n        /* \"#utility.yul\":9235:9309   */\n      swap2\n      pop\n        /* \"#utility.yul\":9318:9411   */\n      tag_219\n        /* \"#utility.yul\":9407:9410   */\n      dup3\n        /* \"#utility.yul\":9318:9411   */\n      tag_130\n      jump\t// in\n    tag_219:\n        /* \"#utility.yul\":9436:9438   */\n      0x20\n        /* \"#utility.yul\":9431:9434   */\n      dup3\n        /* \"#utility.yul\":9427:9439   */\n      add\n        /* \"#utility.yul\":9420:9439   */\n      swap1\n      pop\n        /* \"#utility.yul\":9079:9445   */\n      swap2\n      swap1\n      pop\n      jump\t// out\n        /* \"#utility.yul\":9451:9870   */\n    tag_85:\n        /* \"#utility.yul\":9617:9621   */\n      0x00\n        /* \"#utility.yul\":9655:9657   */\n      0x20\n        /* \"#utility.yul\":9644:9653   */\n      dup3\n        /* \"#utility.yul\":9640:9658   */\n      add\n        /* \"#utility.yul\":9632:9658   */\n      swap1\n      pop\n        /* \"#utility.yul\":9704:9713   */\n      dup2\n        /* \"#utility.yul\":9698:9702   */\n      dup2\n        /* \"#utility.yul\":9694:9714   */\n      sub\n        /* \"#utility.yul\":9690:9691   */\n      0x00\n        /* \"#utility.yul\":9679:9688   */\n      dup4\n        /* \"#utility.yul\":9675:9692   */\n      add\n        /* \"#utility.yul\":9668:9715   */\n      mstore\n        /* \"#utility.yul\":9732:9863   */\n      tag_221\n        /* \"#utility.yul\":9858:9862   */\n      dup2\n        /* \"#utility.yul\":9732:9863   */\n      tag_131\n      jump\t// in\n    tag_221:\n        /* \"#utility.yul\":9724:9863   */\n      swap1\n      pop\n        /* \"#utility.yul\":9451:9870   */\n      swap2\n      swap1\n      pop\n      jump\t// out\n        /* \"#utility.yul\":9876:10100   */\n    tag_132:\n        /* \"#utility.yul\":10016:10050   */\n      0x4f6e6c7920746865206f70706f6e656e74732063616e2073656e642074686520\n        /* \"#utility.yul\":10012:10013   */\n      0x00\n        /* \"#utility.yul\":10004:10010   */\n      dup3\n        /* \"#utility.yul\":10000:10014   */\n      add\n        /* \"#utility.yul\":9993:10051   */\n      mstore\n        /* \"#utility.yul\":10085:10092   */\n      0x6d6f6e6579000000000000000000000000000000000000000000000000000000\n        /* \"#utility.yul\":10080:10082   */\n      0x20\n        /* \"#utility.yul\":10072:10078   */\n      dup3\n        /* \"#utility.yul\":10068:10083   */\n      add\n        /* \"#utility.yul\":10061:10093   */\n      mstore\n        /* \"#utility.yul\":9876:10100   */\n      pop\n      jump\t// out\n        /* \"#utility.yul\":10106:10472   */\n    tag_133:\n        /* \"#utility.yul\":10248:10251   */\n      0x00\n        /* \"#utility.yul\":10269:10336   */\n      tag_224\n        /* \"#utility.yul\":10333:10335   */\n      0x25\n        /* \"#utility.yul\":10328:10331   */\n      dup4\n        /* \"#utility.yul\":10269:10336   */\n      tag_118\n      jump\t// in\n    tag_224:\n        /* \"#utility.yul\":10262:10336   */\n      swap2\n      pop\n        /* \"#utility.yul\":10345:10438   */\n      tag_225\n        /* \"#utility.yul\":10434:10437   */\n      dup3\n        /* \"#utility.yul\":10345:10438   */\n      tag_132\n      jump\t// in\n    tag_225:\n        /* \"#utility.yul\":10463:10465   */\n      0x40\n        /* \"#utility.yul\":10458:10461   */\n      dup3\n        /* \"#utility.yul\":10454:10466   */\n      add\n        /* \"#utility.yul\":10447:10466   */\n      swap1\n      pop\n        /* \"#utility.yul\":10106:10472   */\n      swap2\n      swap1\n      pop\n      jump\t// out\n        /* \"#utility.yul\":10478:10897   */\n    tag_92:\n        /* \"#utility.yul\":10644:10648   */\n      0x00\n        /* \"#utility.yul\":10682:10684   */\n      0x20\n        /* \"#utility.yul\":10671:10680   */\n      dup3\n        /* \"#utility.yul\":10667:10685   */\n      add\n        /* \"#utility.yul\":10659:10685   */\n      swap1\n      pop\n        /* \"#utility.yul\":10731:10740   */\n      dup2\n        /* \"#utility.yul\":10725:10729   */\n      dup2\n        /* \"#utility.yul\":10721:10741   */\n      sub\n        /* \"#utility.yul\":10717:10718   */\n      0x00\n        /* \"#utility.yul\":10706:10715   */\n      dup4\n        /* \"#utility.yul\":10702:10719   */\n      add\n        /* \"#utility.yul\":10695:10742   */\n      mstore\n        /* \"#utility.yul\":10759:10890   */\n      tag_227\n        /* \"#utility.yul\":10885:10889   */\n      dup2\n        /* \"#utility.yul\":10759:10890   */\n      tag_133\n      jump\t// in\n    tag_227:\n        /* \"#utility.yul\":10751:10890   */\n      swap1\n      pop\n        /* \"#utility.yul\":10478:10897   */\n      swap2\n      swap1\n      pop\n      jump\t// out\n        /* \"#utility.yul\":10903:11141   */\n    tag_134:\n        /* \"#utility.yul\":11043:11077   */\n      0x596f75206f6e6c79206e65656420746f2073656e64203120457468202c206e65\n        /* \"#utility.yul\":11039:11040   */\n      0x00\n        /* \"#utility.yul\":11031:11037   */\n      dup3\n        /* \"#utility.yul\":11027:11041   */\n      add\n        /* \"#utility.yul\":11020:11078   */\n      mstore\n        /* \"#utility.yul\":11112:11133   */\n      0x6974686572206c657373206e6f72206d6f726500000000000000000000000000\n        /* \"#utility.yul\":11107:11109   */\n      0x20\n        /* \"#utility.yul\":11099:11105   */\n      dup3\n        /* \"#utility.yul\":11095:11110   */\n      add\n        /* \"#utility.yul\":11088:11134   */\n      mstore\n        /* \"#utility.yul\":10903:11141   */\n      pop\n      jump\t// out\n        /* \"#utility.yul\":11147:11513   */\n    tag_135:\n        /* \"#utility.yul\":11289:11292   */\n      0x00\n        /* \"#utility.yul\":11310:11377   */\n      tag_230\n        /* \"#utility.yul\":11374:11376   */\n      0x33\n        /* \"#utility.yul\":11369:11372   */\n      dup4\n        /* \"#utility.yul\":11310:11377   */\n      tag_118\n      jump\t// in\n    tag_230:\n        /* \"#utility.yul\":11303:11377   */\n      swap2\n      pop\n        /* \"#utility.yul\":11386:11479   */\n      tag_231\n        /* \"#utility.yul\":11475:11478   */\n      dup3\n        /* \"#utility.yul\":11386:11479   */\n      tag_134\n      jump\t// in\n    tag_231:\n        /* \"#utility.yul\":11504:11506   */\n      0x40\n        /* \"#utility.yul\":11499:11502   */\n      dup3\n        /* \"#utility.yul\":11495:11507   */\n      add\n        /* \"#utility.yul\":11488:11507   */\n      swap1\n      pop\n        /* \"#utility.yul\":11147:11513   */\n      swap2\n      swap1\n      pop\n      jump\t// out\n        /* \"#utility.yul\":11519:11938   */\n    tag_95:\n        /* \"#utility.yul\":11685:11689   */\n      0x00\n        /* \"#utility.yul\":11723:11725   */\n      0x20\n        /* \"#utility.yul\":11712:11721   */\n      dup3\n        /* \"#utility.yul\":11708:11726   */\n      add\n        /* \"#utility.yul\":11700:11726   */\n      swap1\n      pop\n        /* \"#utility.yul\":11772:11781   */\n      dup2\n        /* \"#utility.yul\":11766:11770   */\n      dup2\n        /* \"#utility.yul\":11762:11782   */\n      sub\n        /* \"#utility.yul\":11758:11759   */\n      0x00\n        /* \"#utility.yul\":11747:11756   */\n      dup4\n        /* \"#utility.yul\":11743:11760   */\n      add\n        /* \"#utility.yul\":11736:11783   */\n      mstore\n        /* \"#utility.yul\":11800:11931   */\n      tag_233\n        /* \"#utility.yul\":11926:11930   */\n      dup2\n        /* \"#utility.yul\":11800:11931   */\n      tag_135\n      jump\t// in\n    tag_233:\n        /* \"#utility.yul\":11792:11931   */\n      swap1\n      pop\n        /* \"#utility.yul\":11519:11938   */\n      swap2\n      swap1\n      pop\n      jump\t// out\n        /* \"#utility.yul\":11944:12122   */\n    tag_136:\n        /* \"#utility.yul\":12084:12114   */\n      0x4f6e6c7920706c61796572732063616e2063616c6c20726573756c7400000000\n        /* \"#utility.yul\":12080:12081   */\n      0x00\n        /* \"#utility.yul\":12072:12078   */\n      dup3\n        /* \"#utility.yul\":12068:12082   */\n      add\n        /* \"#utility.yul\":12061:12115   */\n      mstore\n        /* \"#utility.yul\":11944:12122   */\n      pop\n      jump\t// out\n        /* \"#utility.yul\":12128:12494   */\n    tag_137:\n        /* \"#utility.yul\":12270:12273   */\n      0x00\n        /* \"#utility.yul\":12291:12358   */\n      tag_236\n        /* \"#utility.yul\":12355:12357   */\n      0x1c\n        /* \"#utility.yul\":12350:12353   */\n      dup4\n        /* \"#utility.yul\":12291:12358   */\n      tag_118\n      jump\t// in\n    tag_236:\n        /* \"#utility.yul\":12284:12358   */\n      swap2\n      pop\n        /* \"#utility.yul\":12367:12460   */\n      tag_237\n        /* \"#utility.yul\":12456:12459   */\n      dup3\n        /* \"#utility.yul\":12367:12460   */\n      tag_136\n      jump\t// in\n    tag_237:\n        /* \"#utility.yul\":12485:12487   */\n      0x20\n        /* \"#utility.yul\":12480:12483   */\n      dup3\n        /* \"#utility.yul\":12476:12488   */\n      add\n        /* \"#utility.yul\":12469:12488   */\n      swap1\n      pop\n        /* \"#utility.yul\":12128:12494   */\n      swap2\n      swap1\n      pop\n      jump\t// out\n        /* \"#utility.yul\":12500:12919   */\n    tag_100:\n        /* \"#utility.yul\":12666:12670   */\n      0x00\n        /* \"#utility.yul\":12704:12706   */\n      0x20\n        /* \"#utility.yul\":12693:12702   */\n      dup3\n        /* \"#utility.yul\":12689:12707   */\n      add\n        /* \"#utility.yul\":12681:12707   */\n      swap1\n      pop\n        /* \"#utility.yul\":12753:12762   */\n      dup2\n        /* \"#utility.yul\":12747:12751   */\n      dup2\n        /* \"#utility.yul\":12743:12763   */\n      sub\n        /* \"#utility.yul\":12739:12740   */\n      0x00\n        /* \"#utility.yul\":12728:12737   */\n      dup4\n        /* \"#utility.yul\":12724:12741   */\n      add\n        /* \"#utility.yul\":12717:12764   */\n      mstore\n        /* \"#utility.yul\":12781:12912   */\n      tag_239\n        /* \"#utility.yul\":12907:12911   */\n      dup2\n        /* \"#utility.yul\":12781:12912   */\n      tag_137\n      jump\t// in\n    tag_239:\n        /* \"#utility.yul\":12773:12912   */\n      swap1\n      pop\n        /* \"#utility.yul\":12500:12919   */\n      swap2\n      swap1\n      pop\n      jump\t// out\n\n    auxdata: 0xa264697066735822122006334b980b9ea9371abc09b04efd607f5406aa76c43ac7f2fc261943cd8fceeb64736f6c634300081e0033\n}\n",
				"bytecode": {
					"linkReferences": {},
					"object": "6080604052348015600e575f5ffd5b50335f5f6101000a81548173ffffffffffffffffffffffffffffffffffffffff021916908373ffffffffffffffffffffffffffffffffffffffff1602179055506112c28061005b5f395ff3fe60806040526004361061009b575f3560e01c80638ae6007a116100635780638ae6007a146101595780638e46b5d014610163578063a1498f501461018d578063dfbf53ae146101a3578063ea27b3fe146101cd578063f9404d0a146101f75761009b565b806311da60b41461009f5780631363a448146100b5578063154e9cec146100dd5780637b6d79f1146101075780637bf786f81461011d575b5f5ffd5b3480156100aa575f5ffd5b506100b3610221565b005b3480156100c0575f5ffd5b506100db60048036038101906100d69190610c73565b6104d9565b005b3480156100e8575f5ffd5b506100f16105aa565b6040516100fe9190610cad565b60405180910390f35b348015610112575f5ffd5b5061011b6105cf565b005b348015610128575f5ffd5b50610143600480360381019061013e9190610d01565b61085b565b6040516101509190610d46565b60405180910390f35b610161610878565b005b34801561016e575f5ffd5b506101776109fe565b6040516101849190610d77565b60405180910390f35b348015610198575f5ffd5b506101a1610a04565b005b3480156101ae575f5ffd5b506101b7610bba565b6040516101c49190610cad565b60405180910390f35b3480156101d8575f5ffd5b506101e1610bdf565b6040516101ee9190610d46565b60405180910390f35b348015610202575f5ffd5b5061020b610bf1565b6040516102189190610cad565b60405180910390f35b6001151560025f5f5f9054906101000a900473ffffffffffffffffffffffffffffffffffffffff1673ffffffffffffffffffffffffffffffffffffffff1673ffffffffffffffffffffffffffffffffffffffff1681526020019081526020015f205f9054906101000a900460ff16151514801561030c57506001151560025f60015f9054906101000a900473ffffffffffffffffffffffffffffffffffffffff1673ffffffffffffffffffffffffffffffffffffffff1673ffffffffffffffffffffffffffffffffffffffff1681526020019081526020015f205f9054906101000a900460ff161515145b61034b576040517f08c379a000000000000000000000000000000000000000000000000000000000815260040161034290610e10565b60405180910390fd5b5f5f9054906101000a900473ffffffffffffffffffffffffffffffffffffffff1673ffffffffffffffffffffffffffffffffffffffff1660035f9054906101000a900473ffffffffffffffffffffffffffffffffffffffff1673ffffffffffffffffffffffffffffffffffffffff161480610433575060015f9054906101000a900473ffffffffffffffffffffffffffffffffffffffff1673ffffffffffffffffffffffffffffffffffffffff1660035f9054906101000a900473ffffffffffffffffffffffffffffffffffffffff1673ffffffffffffffffffffffffffffffffffffffff16145b610472576040517f08c379a000000000000000000000000000000000000000000000000000000000815260040161046990610ec4565b60405180910390fd5b60035f9054906101000a900473ffffffffffffffffffffffffffffffffffffffff1673ffffffffffffffffffffffffffffffffffffffff166108fc4790811502906040515f60405180830381858888f193505050501580156104d6573d5f5f3e3d5ffd5b50565b5f5f9054906101000a900473ffffffffffffffffffffffffffffffffffffffff1673ffffffffffffffffffffffffffffffffffffffff163373ffffffffffffffffffffffffffffffffffffffff1614610567576040517f08c379a000000000000000000000000000000000000000000000000000000000815260040161055e90610f52565b60405180910390fd5b8060015f6101000a81548173ffffffffffffffffffffffffffffffffffffffff021916908373ffffffffffffffffffffffffffffffffffffffff16021790555050565b60015f9054906101000a900473ffffffffffffffffffffffffffffffffffffffff1681565b5f5f9054906101000a900473ffffffffffffffffffffffffffffffffffffffff1673ffffffffffffffffffffffffffffffffffffffff163373ffffffffffffffffffffffffffffffffffffffff161461065d576040517f08c379a000000000000000000000000000000000000000000000000000000000815260040161065490610fba565b60405180910390fd5b5f151560025f60015f9054906101000a900473ffffffffffffffffffffffffffffffffffffffff1673ffffffffffffffffffffffffffffffffffffffff1673ffffffffffffffffffffffffffffffffffffffff1681526020019081526020015f205f9054906101000a900460ff1615151461070d576040517f08c379a000000000000000000000000000000000000000000000000000000000815260040161070490611022565b60405180910390fd5b6201518060045461071e919061106d565b421015610760576040517f08c379a0000000000000000000000000000000000000000000000000000000008152600401610757906110ea565b60405180910390fd5b5f60025f5f5f9054906101000a900473ffffffffffffffffffffffffffffffffffffffff1673ffffffffffffffffffffffffffffffffffffffff1673ffffffffffffffffffffffffffffffffffffffff1681526020019081526020015f205f6101000a81548160ff0219169083151502179055505f60055f6101000a81548160ff0219169083151502179055505f5f9054906101000a900473ffffffffffffffffffffffffffffffffffffffff1673ffffffffffffffffffffffffffffffffffffffff166108fc678ac7230489e8000090811502906040515f60405180830381858888f19350505050158015610858573d5f5f3e3d5ffd5b50565b6002602052805f5260405f205f915054906101000a900460ff1681565b5f5f9054906101000a900473ffffffffffffffffffffffffffffffffffffffff1673ffffffffffffffffffffffffffffffffffffffff163373ffffffffffffffffffffffffffffffffffffffff16148061091e575060015f9054906101000a900473ffffffffffffffffffffffffffffffffffffffff1673ffffffffffffffffffffffffffffffffffffffff163373ffffffffffffffffffffffffffffffffffffffff16145b61095d576040517f08c379a000000000000000000000000000000000000000000000000000000000815260040161095490611178565b60405180910390fd5b678ac7230489e8000034146109a7576040517f08c379a000000000000000000000000000000000000000000000000000000000815260040161099e90611206565b60405180910390fd5b600160025f3373ffffffffffffffffffffffffffffffffffffffff1673ffffffffffffffffffffffffffffffffffffffff1681526020019081526020015f205f6101000a81548160ff021916908315150217905550565b60045481565b5f5f9054906101000a900473ffffffffffffffffffffffffffffffffffffffff1673ffffffffffffffffffffffffffffffffffffffff163373ffffffffffffffffffffffffffffffffffffffff161480610aaa575060015f9054906101000a900473ffffffffffffffffffffffffffffffffffffffff1673ffffffffffffffffffffffffffffffffffffffff163373ffffffffffffffffffffffffffffffffffffffff16145b610ae9576040517f08c379a0000000000000000000000000000000000000000000000000000000008152600401610ae09061126e565b60405180910390fd5b60048003610b56575f5f9054906101000a900473ffffffffffffffffffffffffffffffffffffffff1660035f6101000a81548173ffffffffffffffffffffffffffffffffffffffff021916908373ffffffffffffffffffffffffffffffffffffffff160217905550610bb8565b60015f9054906101000a900473ffffffffffffffffffffffffffffffffffffffff1660035f6101000a81548173ffffffffffffffffffffffffffffffffffffffff021916908373ffffffffffffffffffffffffffffffffffffffff1602179055505b565b60035f9054906101000a900473ffffffffffffffffffffffffffffffffffffffff1681565b60055f9054906101000a900460ff1681565b5f5f9054906101000a900473ffffffffffffffffffffffffffffffffffffffff1681565b5f5ffd5b5f73ffffffffffffffffffffffffffffffffffffffff82169050919050565b5f610c4282610c19565b9050919050565b610c5281610c38565b8114610c5c575f5ffd5b50565b5f81359050610c6d81610c49565b92915050565b5f60208284031215610c8857610c87610c15565b5b5f610c9584828501610c5f565b91505092915050565b610ca781610c38565b82525050565b5f602082019050610cc05f830184610c9e565b92915050565b5f610cd082610c19565b9050919050565b610ce081610cc6565b8114610cea575f5ffd5b50565b5f81359050610cfb81610cd7565b92915050565b5f60208284031215610d1657610d15610c15565b5b5f610d2384828501610ced565b91505092915050565b5f8115159050919050565b610d4081610d2c565b82525050565b5f602082019050610d595f830184610d37565b92915050565b5f819050919050565b610d7181610d5f565b82525050565b5f602082019050610d8a5f830184610d68565b92915050565b5f82825260208201905092915050565b7f426f7468206e6565647320746f2073656e64206d6f6e657920696e746f2065735f8201527f63726f772077616c6c6574206669727374000000000000000000000000000000602082015250565b5f610dfa603183610d90565b9150610e0582610da0565b604082019050919050565b5f6020820190508181035f830152610e2781610dee565b9050919050565b7f5468652077696e6e6572206973206e6f7420646563696465207965742c20636c5f8201527f69636b2074686520636865636b20726573756c7420746f2073656520616e642060208201527f7468656e207472696767657220746869732066756e6374696f6e000000000000604082015250565b5f610eae605a83610d90565b9150610eb982610e2e565b606082019050919050565b5f6020820190508181035f830152610edb81610ea2565b9050919050565b7f4f6e6c79206f776e65722063616e2063686f6f736520686973206f70706f6e655f8201527f6e74000000000000000000000000000000000000000000000000000000000000602082015250565b5f610f3c602283610d90565b9150610f4782610ee2565b604082019050919050565b5f6020820190508181035f830152610f6981610f30565b9050919050565b7f4f6e6c7920626574746f72412063616e2063616e63656c0000000000000000005f82015250565b5f610fa4601783610d90565b9150610faf82610f70565b602082019050919050565b5f6020820190508181035f830152610fd181610f98565b9050919050565b7f426574746f724220616c7265616479206465706f7369746564000000000000005f82015250565b5f61100c601983610d90565b915061101782610fd8565b602082019050919050565b5f6020820190508181035f83015261103981611000565b9050919050565b7f4e487b71000000000000000000000000000000000000000000000000000000005f52601160045260245ffd5b5f61107782610d5f565b915061108283610d5f565b925082820190508082111561109a57611099611040565b5b92915050565b7f54696d656f7574206e6f742072656163686564000000000000000000000000005f82015250565b5f6110d4601383610d90565b91506110df826110a0565b602082019050919050565b5f6020820190508181035f830152611101816110c8565b9050919050565b7f4f6e6c7920746865206f70706f6e656e74732063616e2073656e6420746865205f8201527f6d6f6e6579000000000000000000000000000000000000000000000000000000602082015250565b5f611162602583610d90565b915061116d82611108565b604082019050919050565b5f6020820190508181035f83015261118f81611156565b9050919050565b7f596f75206f6e6c79206e65656420746f2073656e64203120457468202c206e655f8201527f6974686572206c657373206e6f72206d6f726500000000000000000000000000602082015250565b5f6111f0603383610d90565b91506111fb82611196565b604082019050919050565b5f6020820190508181035f83015261121d816111e4565b9050919050565b7f4f6e6c7920706c61796572732063616e2063616c6c20726573756c74000000005f82015250565b5f611258601c83610d90565b915061126382611224565b602082019050919050565b5f6020820190508181035f8301526112858161124c565b905091905056fea264697066735822122006334b980b9ea9371abc09b04efd607f5406aa76c43ac7f2fc261943cd8fceeb64736f6c634300081e0033",
					"opcodes": "PUSH1 0x80 PUSH1 0x40 MSTORE CALLVALUE DUP1 ISZERO PUSH1 0xE JUMPI PUSH0 PUSH0 REVERT JUMPDEST POP CALLER PUSH0 PUSH0 PUSH2 0x100 EXP DUP2 SLOAD DUP2 PUSH20 0xFFFFFFFFFFFFFFFFFFFFFFFFFFFFFFFFFFFFFFFF MUL NOT AND SWAP1 DUP4 PUSH20 0xFFFFFFFFFFFFFFFFFFFFFFFFFFFFFFFFFFFFFFFF AND MUL OR SWAP1 SSTORE POP PUSH2 0x12C2 DUP1 PUSH2 0x5B PUSH0 CODECOPY PUSH0 RETURN INVALID PUSH1 0x80 PUSH1 0x40 MSTORE PUSH1 0x4 CALLDATASIZE LT PUSH2 0x9B JUMPI PUSH0 CALLDATALOAD PUSH1 0xE0 SHR DUP1 PUSH4 0x8AE6007A GT PUSH2 0x63 JUMPI DUP1 PUSH4 0x8AE6007A EQ PUSH2 0x159 JUMPI DUP1 PUSH4 0x8E46B5D0 EQ PUSH2 0x163 JUMPI DUP1 PUSH4 0xA1498F50 EQ PUSH2 0x18D JUMPI DUP1 PUSH4 0xDFBF53AE EQ PUSH2 0x1A3 JUMPI DUP1 PUSH4 0xEA27B3FE EQ PUSH2 0x1CD JUMPI DUP1 PUSH4 0xF9404D0A EQ PUSH2 0x1F7 JUMPI PUSH2 0x9B JUMP JUMPDEST DUP1 PUSH4 0x11DA60B4 EQ PUSH2 0x9F JUMPI DUP1 PUSH4 0x1363A448 EQ PUSH2 0xB5 JUMPI DUP1 PUSH4 0x154E9CEC EQ PUSH2 0xDD JUMPI DUP1 PUSH4 0x7B6D79F1 EQ PUSH2 0x107 JUMPI DUP1 PUSH4 0x7BF786F8 EQ PUSH2 0x11D JUMPI JUMPDEST PUSH0 PUSH0 REVERT JUMPDEST CALLVALUE DUP1 ISZERO PUSH2 0xAA JUMPI PUSH0 PUSH0 REVERT JUMPDEST POP PUSH2 0xB3 PUSH2 0x221 JUMP JUMPDEST STOP JUMPDEST CALLVALUE DUP1 ISZERO PUSH2 0xC0 JUMPI PUSH0 PUSH0 REVERT JUMPDEST POP PUSH2 0xDB PUSH1 0x4 DUP1 CALLDATASIZE SUB DUP2 ADD SWAP1 PUSH2 0xD6 SWAP2 SWAP1 PUSH2 0xC73 JUMP JUMPDEST PUSH2 0x4D9 JUMP JUMPDEST STOP JUMPDEST CALLVALUE DUP1 ISZERO PUSH2 0xE8 JUMPI PUSH0 PUSH0 REVERT JUMPDEST POP PUSH2 0xF1 PUSH2 0x5AA JUMP JUMPDEST PUSH1 0x40 MLOAD PUSH2 0xFE SWAP2 SWAP1 PUSH2 0xCAD JUMP JUMPDEST PUSH1 0x40 MLOAD DUP1 SWAP2 SUB SWAP1 RETURN JUMPDEST CALLVALUE DUP1 ISZERO PUSH2 0x112 JUMPI PUSH0 PUSH0 REVERT JUMPDEST POP PUSH2 0x11B PUSH2 0x5CF JUMP JUMPDEST STOP JUMPDEST CALLVALUE DUP1 ISZERO PUSH2 0x128 JUMPI PUSH0 PUSH0 REVERT JUMPDEST POP PUSH2 0x143 PUSH1 0x4 DUP1 CALLDATASIZE SUB DUP2 ADD SWAP1 PUSH2 0x13E SWAP2 SWAP1 PUSH2 0xD01 JUMP JUMPDEST PUSH2 0x85B JUMP JUMPDEST PUSH1 0x40 MLOAD PUSH2 0x150 SWAP2 SWAP1 PUSH2 0xD46 JUMP JUMPDEST PUSH1 0x40 MLOAD DUP1 SWAP2 SUB SWAP1 RETURN JUMPDEST PUSH2 0x161 PUSH2 0x878 JUMP JUMPDEST STOP JUMPDEST CALLVALUE DUP1 ISZERO PUSH2 0x16E JUMPI PUSH0 PUSH0 REVERT JUMPDEST POP PUSH2 0x177 PUSH2 0x9FE JUMP JUMPDEST PUSH1 0x40 MLOAD PUSH2 0x184 SWAP2 SWAP1 PUSH2 0xD77 JUMP JUMPDEST PUSH1 0x40 MLOAD DUP1 SWAP2 SUB SWAP1 RETURN JUMPDEST CALLVALUE DUP1 ISZERO PUSH2 0x198 JUMPI PUSH0 PUSH0 REVERT JUMPDEST POP PUSH2 0x1A1 PUSH2 0xA04 JUMP JUMPDEST STOP JUMPDEST CALLVALUE DUP1 ISZERO PUSH2 0x1AE JUMPI PUSH0 PUSH0 REVERT JUMPDEST POP PUSH2 0x1B7 PUSH2 0xBBA JUMP JUMPDEST PUSH1 0x40 MLOAD PUSH2 0x1C4 SWAP2 SWAP1 PUSH2 0xCAD JUMP JUMPDEST PUSH1 0x40 MLOAD DUP1 SWAP2 SUB SWAP1 RETURN JUMPDEST CALLVALUE DUP1 ISZERO PUSH2 0x1D8 JUMPI PUSH0 PUSH0 REVERT JUMPDEST POP PUSH2 0x1E1 PUSH2 0xBDF JUMP JUMPDEST PUSH1 0x40 MLOAD PUSH2 0x1EE SWAP2 SWAP1 PUSH2 0xD46 JUMP JUMPDEST PUSH1 0x40 MLOAD DUP1 SWAP2 SUB SWAP1 RETURN JUMPDEST CALLVALUE DUP1 ISZERO PUSH2 0x202 JUMPI PUSH0 PUSH0 REVERT JUMPDEST POP PUSH2 0x20B PUSH2 0xBF1 JUMP JUMPDEST PUSH1 0x40 MLOAD PUSH2 0x218 SWAP2 SWAP1 PUSH2 0xCAD JUMP JUMPDEST PUSH1 0x40 MLOAD DUP1 SWAP2 SUB SWAP1 RETURN JUMPDEST PUSH1 0x1 ISZERO ISZERO PUSH1 0x2 PUSH0 PUSH0 PUSH0 SWAP1 SLOAD SWAP1 PUSH2 0x100 EXP SWAP1 DIV PUSH20 0xFFFFFFFFFFFFFFFFFFFFFFFFFFFFFFFFFFFFFFFF AND PUSH20 0xFFFFFFFFFFFFFFFFFFFFFFFFFFFFFFFFFFFFFFFF AND PUSH20 0xFFFFFFFFFFFFFFFFFFFFFFFFFFFFFFFFFFFFFFFF AND DUP2 MSTORE PUSH1 0x20 ADD SWAP1 DUP2 MSTORE PUSH1 0x20 ADD PUSH0 KECCAK256 PUSH0 SWAP1 SLOAD SWAP1 PUSH2 0x100 EXP SWAP1 DIV PUSH1 0xFF AND ISZERO ISZERO EQ DUP1 ISZERO PUSH2 0x30C JUMPI POP PUSH1 0x1 ISZERO ISZERO PUSH1 0x2 PUSH0 PUSH1 0x1 PUSH0 SWAP1 SLOAD SWAP1 PUSH2 0x100 EXP SWAP1 DIV PUSH20 0xFFFFFFFFFFFFFFFFFFFFFFFFFFFFFFFFFFFFFFFF AND PUSH20 0xFFFFFFFFFFFFFFFFFFFFFFFFFFFFFFFFFFFFFFFF AND PUSH20 0xFFFFFFFFFFFFFFFFFFFFFFFFFFFFFFFFFFFFFFFF AND DUP2 MSTORE PUSH1 0x20 ADD SWAP1 DUP2 MSTORE PUSH1 0x20 ADD PUSH0 KECCAK256 PUSH0 SWAP1 SLOAD SWAP1 PUSH2 0x100 EXP SWAP1 DIV PUSH1 0xFF AND ISZERO ISZERO EQ JUMPDEST PUSH2 0x34B JUMPI PUSH1 0x40 MLOAD PUSH32 0x8C379A000000000000000000000000000000000000000000000000000000000 DUP2 MSTORE PUSH1 0x4 ADD PUSH2 0x342 SWAP1 PUSH2 0xE10 JUMP JUMPDEST PUSH1 0x40 MLOAD DUP1 SWAP2 SUB SWAP1 REVERT JUMPDEST PUSH0 PUSH0 SWAP1 SLOAD SWAP1 PUSH2 0x100 EXP SWAP1 DIV PUSH20 0xFFFFFFFFFFFFFFFFFFFFFFFFFFFFFFFFFFFFFFFF AND PUSH20 0xFFFFFFFFFFFFFFFFFFFFFFFFFFFFFFFFFFFFFFFF AND PUSH1 0x3 PUSH0 SWAP1 SLOAD SWAP1 PUSH2 0x100 EXP SWAP1 DIV PUSH20 0xFFFFFFFFFFFFFFFFFFFFFFFFFFFFFFFFFFFFFFFF AND PUSH20 0xFFFFFFFFFFFFFFFFFFFFFFFFFFFFFFFFFFFFFFFF AND EQ DUP1 PUSH2 0x433 JUMPI POP PUSH1 0x1 PUSH0 SWAP1 SLOAD SWAP1 PUSH2 0x100 EXP SWAP1 DIV PUSH20 0xFFFFFFFFFFFFFFFFFFFFFFFFFFFFFFFFFFFFFFFF AND PUSH20 0xFFFFFFFFFFFFFFFFFFFFFFFFFFFFFFFFFFFFFFFF AND PUSH1 0x3 PUSH0 SWAP1 SLOAD SWAP1 PUSH2 0x100 EXP SWAP1 DIV PUSH20 0xFFFFFFFFFFFFFFFFFFFFFFFFFFFFFFFFFFFFFFFF AND PUSH20 0xFFFFFFFFFFFFFFFFFFFFFFFFFFFFFFFFFFFFFFFF AND EQ JUMPDEST PUSH2 0x472 JUMPI PUSH1 0x40 MLOAD PUSH32 0x8C379A000000000000000000000000000000000000000000000000000000000 DUP2 MSTORE PUSH1 0x4 ADD PUSH2 0x469 SWAP1 PUSH2 0xEC4 JUMP JUMPDEST PUSH1 0x40 MLOAD DUP1 SWAP2 SUB SWAP1 REVERT JUMPDEST PUSH1 0x3 PUSH0 SWAP1 SLOAD SWAP1 PUSH2 0x100 EXP SWAP1 DIV PUSH20 0xFFFFFFFFFFFFFFFFFFFFFFFFFFFFFFFFFFFFFFFF AND PUSH20 0xFFFFFFFFFFFFFFFFFFFFFFFFFFFFFFFFFFFFFFFF AND PUSH2 0x8FC SELFBALANCE SWAP1 DUP2 ISZERO MUL SWAP1 PUSH1 0x40 MLOAD PUSH0 PUSH1 0x40 MLOAD DUP1 DUP4 SUB DUP2 DUP6 DUP9 DUP9 CALL SWAP4 POP POP POP POP ISZERO DUP1 ISZERO PUSH2 0x4D6 JUMPI RETURNDATASIZE PUSH0 PUSH0 RETURNDATACOPY RETURNDATASIZE PUSH0 REVERT JUMPDEST POP JUMP JUMPDEST PUSH0 PUSH0 SWAP1 SLOAD SWAP1 PUSH2 0x100 EXP SWAP1 DIV PUSH20 0xFFFFFFFFFFFFFFFFFFFFFFFFFFFFFFFFFFFFFFFF AND PUSH20 0xFFFFFFFFFFFFFFFFFFFFFFFFFFFFFFFFFFFFFFFF AND CALLER PUSH20 0xFFFFFFFFFFFFFFFFFFFFFFFFFFFFFFFFFFFFFFFF AND EQ PUSH2 0x567 JUMPI PUSH1 0x40 MLOAD PUSH32 0x8C379A000000000000000000000000000000000000000000000000000000000 DUP2 MSTORE PUSH1 0x4 ADD PUSH2 0x55E SWAP1 PUSH2 0xF52 JUMP JUMPDEST PUSH1 0x40 MLOAD DUP1 SWAP2 SUB SWAP1 REVERT JUMPDEST DUP1 PUSH1 0x1 PUSH0 PUSH2 0x100 EXP DUP2 SLOAD DUP2 PUSH20 0xFFFFFFFFFFFFFFFFFFFFFFFFFFFFFFFFFFFFFFFF MUL NOT AND SWAP1 DUP4 PUSH20 0xFFFFFFFFFFFFFFFFFFFFFFFFFFFFFFFFFFFFFFFF AND MUL OR SWAP1 SSTORE POP POP JUMP JUMPDEST PUSH1 0x1 PUSH0 SWAP1 SLOAD SWAP1 PUSH2 0x100 EXP SWAP1 DIV PUSH20 0xFFFFFFFFFFFFFFFFFFFFFFFFFFFFFFFFFFFFFFFF AND DUP2 JUMP JUMPDEST PUSH0 PUSH0 SWAP1 SLOAD SWAP1 PUSH2 0x100 EXP SWAP1 DIV PUSH20 0xFFFFFFFFFFFFFFFFFFFFFFFFFFFFFFFFFFFFFFFF AND PUSH20 0xFFFFFFFFFFFFFFFFFFFFFFFFFFFFFFFFFFFFFFFF AND CALLER PUSH20 0xFFFFFFFFFFFFFFFFFFFFFFFFFFFFFFFFFFFFFFFF AND EQ PUSH2 0x65D JUMPI PUSH1 0x40 MLOAD PUSH32 0x8C379A000000000000000000000000000000000000000000000000000000000 DUP2 MSTORE PUSH1 0x4 ADD PUSH2 0x654 SWAP1 PUSH2 0xFBA JUMP JUMPDEST PUSH1 0x40 MLOAD DUP1 SWAP2 SUB SWAP1 REVERT JUMPDEST PUSH0 ISZERO ISZERO PUSH1 0x2 PUSH0 PUSH1 0x1 PUSH0 SWAP1 SLOAD SWAP1 PUSH2 0x100 EXP SWAP1 DIV PUSH20 0xFFFFFFFFFFFFFFFFFFFFFFFFFFFFFFFFFFFFFFFF AND PUSH20 0xFFFFFFFFFFFFFFFFFFFFFFFFFFFFFFFFFFFFFFFF AND PUSH20 0xFFFFFFFFFFFFFFFFFFFFFFFFFFFFFFFFFFFFFFFF AND DUP2 MSTORE PUSH1 0x20 ADD SWAP1 DUP2 MSTORE PUSH1 0x20 ADD PUSH0 KECCAK256 PUSH0 SWAP1 SLOAD SWAP1 PUSH2 0x100 EXP SWAP1 DIV PUSH1 0xFF AND ISZERO ISZERO EQ PUSH2 0x70D JUMPI PUSH1 0x40 MLOAD PUSH32 0x8C379A000000000000000000000000000000000000000000000000000000000 DUP2 MSTORE PUSH1 0x4 ADD PUSH2 0x704 SWAP1 PUSH2 0x1022 JUMP JUMPDEST PUSH1 0x40 MLOAD DUP1 SWAP2 SUB SWAP1 REVERT JUMPDEST PUSH3 0x15180 PUSH1 0x4 SLOAD PUSH2 0x71E SWAP2 SWAP1 PUSH2 0x106D JUMP JUMPDEST TIMESTAMP LT ISZERO PUSH2 0x760 JUMPI PUSH1 0x40 MLOAD PUSH32 0x8C379A000000000000000000000000000000000000000000000000000000000 DUP2 MSTORE PUSH1 0x4 ADD PUSH2 0x757 SWAP1 PUSH2 0x10EA JUMP JUMPDEST PUSH1 0x40 MLOAD DUP1 SWAP2 SUB SWAP1 REVERT JUMPDEST PUSH0 PUSH1 0x2 PUSH0 PUSH0 PUSH0 SWAP1 SLOAD SWAP1 PUSH2 0x100 EXP SWAP1 DIV PUSH20 0xFFFFFFFFFFFFFFFFFFFFFFFFFFFFFFFFFFFFFFFF AND PUSH20 0xFFFFFFFFFFFFFFFFFFFFFFFFFFFFFFFFFFFFFFFF AND PUSH20 0xFFFFFFFFFFFFFFFFFFFFFFFFFFFFFFFFFFFFFFFF AND DUP2 MSTORE PUSH1 0x20 ADD SWAP1 DUP2 MSTORE PUSH1 0x20 ADD PUSH0 KECCAK256 PUSH0 PUSH2 0x100 EXP DUP2 SLOAD DUP2 PUSH1 0xFF MUL NOT AND SWAP1 DUP4 ISZERO ISZERO MUL OR SWAP1 SSTORE POP PUSH0 PUSH1 0x5 PUSH0 PUSH2 0x100 EXP DUP2 SLOAD DUP2 PUSH1 0xFF MUL NOT AND SWAP1 DUP4 ISZERO ISZERO MUL OR SWAP1 SSTORE POP PUSH0 PUSH0 SWAP1 SLOAD SWAP1 PUSH2 0x100 EXP SWAP1 DIV PUSH20 0xFFFFFFFFFFFFFFFFFFFFFFFFFFFFFFFFFFFFFFFF AND PUSH20 0xFFFFFFFFFFFFFFFFFFFFFFFFFFFFFFFFFFFFFFFF AND PUSH2 0x8FC PUSH8 0x8AC7230489E80000 SWAP1 DUP2 ISZERO MUL SWAP1 PUSH1 0x40 MLOAD PUSH0 PUSH1 0x40 MLOAD DUP1 DUP4 SUB DUP2 DUP6 DUP9 DUP9 CALL SWAP4 POP POP POP POP ISZERO DUP1 ISZERO PUSH2 0x858 JUMPI RETURNDATASIZE PUSH0 PUSH0 RETURNDATACOPY RETURNDATASIZE PUSH0 REVERT JUMPDEST POP JUMP JUMPDEST PUSH1 0x2 PUSH1 0x20 MSTORE DUP1 PUSH0 MSTORE PUSH1 0x40 PUSH0 KECCAK256 PUSH0 SWAP2 POP SLOAD SWAP1 PUSH2 0x100 EXP SWAP1 DIV PUSH1 0xFF AND DUP2 JUMP JUMPDEST PUSH0 PUSH0 SWAP1 SLOAD SWAP1 PUSH2 0x100 EXP SWAP1 DIV PUSH20 0xFFFFFFFFFFFFFFFFFFFFFFFFFFFFFFFFFFFFFFFF AND PUSH20 0xFFFFFFFFFFFFFFFFFFFFFFFFFFFFFFFFFFFFFFFF AND CALLER PUSH20 0xFFFFFFFFFFFFFFFFFFFFFFFFFFFFFFFFFFFFFFFF AND EQ DUP1 PUSH2 0x91E JUMPI POP PUSH1 0x1 PUSH0 SWAP1 SLOAD SWAP1 PUSH2 0x100 EXP SWAP1 DIV PUSH20 0xFFFFFFFFFFFFFFFFFFFFFFFFFFFFFFFFFFFFFFFF AND PUSH20 0xFFFFFFFFFFFFFFFFFFFFFFFFFFFFFFFFFFFFFFFF AND CALLER PUSH20 0xFFFFFFFFFFFFFFFFFFFFFFFFFFFFFFFFFFFFFFFF AND EQ JUMPDEST PUSH2 0x95D JUMPI PUSH1 0x40 MLOAD PUSH32 0x8C379A000000000000000000000000000000000000000000000000000000000 DUP2 MSTORE PUSH1 0x4 ADD PUSH2 0x954 SWAP1 PUSH2 0x1178 JUMP JUMPDEST PUSH1 0x40 MLOAD DUP1 SWAP2 SUB SWAP1 REVERT JUMPDEST PUSH8 0x8AC7230489E80000 CALLVALUE EQ PUSH2 0x9A7 JUMPI PUSH1 0x40 MLOAD PUSH32 0x8C379A000000000000000000000000000000000000000000000000000000000 DUP2 MSTORE PUSH1 0x4 ADD PUSH2 0x99E SWAP1 PUSH2 0x1206 JUMP JUMPDEST PUSH1 0x40 MLOAD DUP1 SWAP2 SUB SWAP1 REVERT JUMPDEST PUSH1 0x1 PUSH1 0x2 PUSH0 CALLER PUSH20 0xFFFFFFFFFFFFFFFFFFFFFFFFFFFFFFFFFFFFFFFF AND PUSH20 0xFFFFFFFFFFFFFFFFFFFFFFFFFFFFFFFFFFFFFFFF AND DUP2 MSTORE PUSH1 0x20 ADD SWAP1 DUP2 MSTORE PUSH1 0x20 ADD PUSH0 KECCAK256 PUSH0 PUSH2 0x100 EXP DUP2 SLOAD DUP2 PUSH1 0xFF MUL NOT AND SWAP1 DUP4 ISZERO ISZERO MUL OR SWAP1 SSTORE POP JUMP JUMPDEST PUSH1 0x4 SLOAD DUP2 JUMP JUMPDEST PUSH0 PUSH0 SWAP1 SLOAD SWAP1 PUSH2 0x100 EXP SWAP1 DIV PUSH20 0xFFFFFFFFFFFFFFFFFFFFFFFFFFFFFFFFFFFFFFFF AND PUSH20 0xFFFFFFFFFFFFFFFFFFFFFFFFFFFFFFFFFFFFFFFF AND CALLER PUSH20 0xFFFFFFFFFFFFFFFFFFFFFFFFFFFFFFFFFFFFFFFF AND EQ DUP1 PUSH2 0xAAA JUMPI POP PUSH1 0x1 PUSH0 SWAP1 SLOAD SWAP1 PUSH2 0x100 EXP SWAP1 DIV PUSH20 0xFFFFFFFFFFFFFFFFFFFFFFFFFFFFFFFFFFFFFFFF AND PUSH20 0xFFFFFFFFFFFFFFFFFFFFFFFFFFFFFFFFFFFFFFFF AND CALLER PUSH20 0xFFFFFFFFFFFFFFFFFFFFFFFFFFFFFFFFFFFFFFFF AND EQ JUMPDEST PUSH2 0xAE9 JUMPI PUSH1 0x40 MLOAD PUSH32 0x8C379A000000000000000000000000000000000000000000000000000000000 DUP2 MSTORE PUSH1 0x4 ADD PUSH2 0xAE0 SWAP1 PUSH2 0x126E JUMP JUMPDEST PUSH1 0x40 MLOAD DUP1 SWAP2 SUB SWAP1 REVERT JUMPDEST PUSH1 0x4 DUP1 SUB PUSH2 0xB56 JUMPI PUSH0 PUSH0 SWAP1 SLOAD SWAP1 PUSH2 0x100 EXP SWAP1 DIV PUSH20 0xFFFFFFFFFFFFFFFFFFFFFFFFFFFFFFFFFFFFFFFF AND PUSH1 0x3 PUSH0 PUSH2 0x100 EXP DUP2 SLOAD DUP2 PUSH20 0xFFFFFFFFFFFFFFFFFFFFFFFFFFFFFFFFFFFFFFFF MUL NOT AND SWAP1 DUP4 PUSH20 0xFFFFFFFFFFFFFFFFFFFFFFFFFFFFFFFFFFFFFFFF AND MUL OR SWAP1 SSTORE POP PUSH2 0xBB8 JUMP JUMPDEST PUSH1 0x1 PUSH0 SWAP1 SLOAD SWAP1 PUSH2 0x100 EXP SWAP1 DIV PUSH20 0xFFFFFFFFFFFFFFFFFFFFFFFFFFFFFFFFFFFFFFFF AND PUSH1 0x3 PUSH0 PUSH2 0x100 EXP DUP2 SLOAD DUP2 PUSH20 0xFFFFFFFFFFFFFFFFFFFFFFFFFFFFFFFFFFFFFFFF MUL NOT AND SWAP1 DUP4 PUSH20 0xFFFFFFFFFFFFFFFFFFFFFFFFFFFFFFFFFFFFFFFF AND MUL OR SWAP1 SSTORE POP JUMPDEST JUMP JUMPDEST PUSH1 0x3 PUSH0 SWAP1 SLOAD SWAP1 PUSH2 0x100 EXP SWAP1 DIV PUSH20 0xFFFFFFFFFFFFFFFFFFFFFFFFFFFFFFFFFFFFFFFF AND DUP2 JUMP JUMPDEST PUSH1 0x5 PUSH0 SWAP1 SLOAD SWAP1 PUSH2 0x100 EXP SWAP1 DIV PUSH1 0xFF AND DUP2 JUMP JUMPDEST PUSH0 PUSH0 SWAP1 SLOAD SWAP1 PUSH2 0x100 EXP SWAP1 DIV PUSH20 0xFFFFFFFFFFFFFFFFFFFFFFFFFFFFFFFFFFFFFFFF AND DUP2 JUMP JUMPDEST PUSH0 PUSH0 REVERT JUMPDEST PUSH0 PUSH20 0xFFFFFFFFFFFFFFFFFFFFFFFFFFFFFFFFFFFFFFFF DUP3 AND SWAP1 POP SWAP2 SWAP1 POP JUMP JUMPDEST PUSH0 PUSH2 0xC42 DUP3 PUSH2 0xC19 JUMP JUMPDEST SWAP1 POP SWAP2 SWAP1 POP JUMP JUMPDEST PUSH2 0xC52 DUP2 PUSH2 0xC38 JUMP JUMPDEST DUP2 EQ PUSH2 0xC5C JUMPI PUSH0 PUSH0 REVERT JUMPDEST POP JUMP JUMPDEST PUSH0 DUP2 CALLDATALOAD SWAP1 POP PUSH2 0xC6D DUP2 PUSH2 0xC49 JUMP JUMPDEST SWAP3 SWAP2 POP POP JUMP JUMPDEST PUSH0 PUSH1 0x20 DUP3 DUP5 SUB SLT ISZERO PUSH2 0xC88 JUMPI PUSH2 0xC87 PUSH2 0xC15 JUMP JUMPDEST JUMPDEST PUSH0 PUSH2 0xC95 DUP5 DUP3 DUP6 ADD PUSH2 0xC5F JUMP JUMPDEST SWAP2 POP POP SWAP3 SWAP2 POP POP JUMP JUMPDEST PUSH2 0xCA7 DUP2 PUSH2 0xC38 JUMP JUMPDEST DUP3 MSTORE POP POP JUMP JUMPDEST PUSH0 PUSH1 0x20 DUP3 ADD SWAP1 POP PUSH2 0xCC0 PUSH0 DUP4 ADD DUP5 PUSH2 0xC9E JUMP JUMPDEST SWAP3 SWAP2 POP POP JUMP JUMPDEST PUSH0 PUSH2 0xCD0 DUP3 PUSH2 0xC19 JUMP JUMPDEST SWAP1 POP SWAP2 SWAP1 POP JUMP JUMPDEST PUSH2 0xCE0 DUP2 PUSH2 0xCC6 JUMP JUMPDEST DUP2 EQ PUSH2 0xCEA JUMPI PUSH0 PUSH0 REVERT JUMPDEST POP JUMP JUMPDEST PUSH0 DUP2 CALLDATALOAD SWAP1 POP PUSH2 0xCFB DUP2 PUSH2 0xCD7 JUMP JUMPDEST SWAP3 SWAP2 POP POP JUMP JUMPDEST PUSH0 PUSH1 0x20 DUP3 DUP5 SUB SLT ISZERO PUSH2 0xD16 JUMPI PUSH2 0xD15 PUSH2 0xC15 JUMP JUMPDEST JUMPDEST PUSH0 PUSH2 0xD23 DUP5 DUP3 DUP6 ADD PUSH2 0xCED JUMP JUMPDEST SWAP2 POP POP SWAP3 SWAP2 POP POP JUMP JUMPDEST PUSH0 DUP2 ISZERO ISZERO SWAP1 POP SWAP2 SWAP1 POP JUMP JUMPDEST PUSH2 0xD40 DUP2 PUSH2 0xD2C JUMP JUMPDEST DUP3 MSTORE POP POP JUMP JUMPDEST PUSH0 PUSH1 0x20 DUP3 ADD SWAP1 POP PUSH2 0xD59 PUSH0 DUP4 ADD DUP5 PUSH2 0xD37 JUMP JUMPDEST SWAP3 SWAP2 POP POP JUMP JUMPDEST PUSH0 DUP2 SWAP1 POP SWAP2 SWAP1 POP JUMP JUMPDEST PUSH2 0xD71 DUP2 PUSH2 0xD5F JUMP JUMPDEST DUP3 MSTORE POP POP JUMP JUMPDEST PUSH0 PUSH1 0x20 DUP3 ADD SWAP1 POP PUSH2 0xD8A PUSH0 DUP4 ADD DUP5 PUSH2 0xD68 JUMP JUMPDEST SWAP3 SWAP2 POP POP JUMP JUMPDEST PUSH0 DUP3 DUP3 MSTORE PUSH1 0x20 DUP3 ADD SWAP1 POP SWAP3 SWAP2 POP POP JUMP JUMPDEST PUSH32 0x426F7468206E6565647320746F2073656E64206D6F6E657920696E746F206573 PUSH0 DUP3 ADD MSTORE PUSH32 0x63726F772077616C6C6574206669727374000000000000000000000000000000 PUSH1 0x20 DUP3 ADD MSTORE POP JUMP JUMPDEST PUSH0 PUSH2 0xDFA PUSH1 0x31 DUP4 PUSH2 0xD90 JUMP JUMPDEST SWAP2 POP PUSH2 0xE05 DUP3 PUSH2 0xDA0 JUMP JUMPDEST PUSH1 0x40 DUP3 ADD SWAP1 POP SWAP2 SWAP1 POP JUMP JUMPDEST PUSH0 PUSH1 0x20 DUP3 ADD SWAP1 POP DUP2 DUP2 SUB PUSH0 DUP4 ADD MSTORE PUSH2 0xE27 DUP2 PUSH2 0xDEE JUMP JUMPDEST SWAP1 POP SWAP2 SWAP1 POP JUMP JUMPDEST PUSH32 0x5468652077696E6E6572206973206E6F7420646563696465207965742C20636C PUSH0 DUP3 ADD MSTORE PUSH32 0x69636B2074686520636865636B20726573756C7420746F2073656520616E6420 PUSH1 0x20 DUP3 ADD MSTORE PUSH32 0x7468656E207472696767657220746869732066756E6374696F6E000000000000 PUSH1 0x40 DUP3 ADD MSTORE POP JUMP JUMPDEST PUSH0 PUSH2 0xEAE PUSH1 0x5A DUP4 PUSH2 0xD90 JUMP JUMPDEST SWAP2 POP PUSH2 0xEB9 DUP3 PUSH2 0xE2E JUMP JUMPDEST PUSH1 0x60 DUP3 ADD SWAP1 POP SWAP2 SWAP1 POP JUMP JUMPDEST PUSH0 PUSH1 0x20 DUP3 ADD SWAP1 POP DUP2 DUP2 SUB PUSH0 DUP4 ADD MSTORE PUSH2 0xEDB DUP2 PUSH2 0xEA2 JUMP JUMPDEST SWAP1 POP SWAP2 SWAP1 POP JUMP JUMPDEST PUSH32 0x4F6E6C79206F776E65722063616E2063686F6F736520686973206F70706F6E65 PUSH0 DUP3 ADD MSTORE PUSH32 0x6E74000000000000000000000000000000000000000000000000000000000000 PUSH1 0x20 DUP3 ADD MSTORE POP JUMP JUMPDEST PUSH0 PUSH2 0xF3C PUSH1 0x22 DUP4 PUSH2 0xD90 JUMP JUMPDEST SWAP2 POP PUSH2 0xF47 DUP3 PUSH2 0xEE2 JUMP JUMPDEST PUSH1 0x40 DUP3 ADD SWAP1 POP SWAP2 SWAP1 POP JUMP JUMPDEST PUSH0 PUSH1 0x20 DUP3 ADD SWAP1 POP DUP2 DUP2 SUB PUSH0 DUP4 ADD MSTORE PUSH2 0xF69 DUP2 PUSH2 0xF30 JUMP JUMPDEST SWAP1 POP SWAP2 SWAP1 POP JUMP JUMPDEST PUSH32 0x4F6E6C7920626574746F72412063616E2063616E63656C000000000000000000 PUSH0 DUP3 ADD MSTORE POP JUMP JUMPDEST PUSH0 PUSH2 0xFA4 PUSH1 0x17 DUP4 PUSH2 0xD90 JUMP JUMPDEST SWAP2 POP PUSH2 0xFAF DUP3 PUSH2 0xF70 JUMP JUMPDEST PUSH1 0x20 DUP3 ADD SWAP1 POP SWAP2 SWAP1 POP JUMP JUMPDEST PUSH0 PUSH1 0x20 DUP3 ADD SWAP1 POP DUP2 DUP2 SUB PUSH0 DUP4 ADD MSTORE PUSH2 0xFD1 DUP2 PUSH2 0xF98 JUMP JUMPDEST SWAP1 POP SWAP2 SWAP1 POP JUMP JUMPDEST PUSH32 0x426574746F724220616C7265616479206465706F736974656400000000000000 PUSH0 DUP3 ADD MSTORE POP JUMP JUMPDEST PUSH0 PUSH2 0x100C PUSH1 0x19 DUP4 PUSH2 0xD90 JUMP JUMPDEST SWAP2 POP PUSH2 0x1017 DUP3 PUSH2 0xFD8 JUMP JUMPDEST PUSH1 0x20 DUP3 ADD SWAP1 POP SWAP2 SWAP1 POP JUMP JUMPDEST PUSH0 PUSH1 0x20 DUP3 ADD SWAP1 POP DUP2 DUP2 SUB PUSH0 DUP4 ADD MSTORE PUSH2 0x1039 DUP2 PUSH2 0x1000 JUMP JUMPDEST SWAP1 POP SWAP2 SWAP1 POP JUMP JUMPDEST PUSH32 0x4E487B7100000000000000000000000000000000000000000000000000000000 PUSH0 MSTORE PUSH1 0x11 PUSH1 0x4 MSTORE PUSH1 0x24 PUSH0 REVERT JUMPDEST PUSH0 PUSH2 0x1077 DUP3 PUSH2 0xD5F JUMP JUMPDEST SWAP2 POP PUSH2 0x1082 DUP4 PUSH2 0xD5F JUMP JUMPDEST SWAP3 POP DUP3 DUP3 ADD SWAP1 POP DUP1 DUP3 GT ISZERO PUSH2 0x109A JUMPI PUSH2 0x1099 PUSH2 0x1040 JUMP JUMPDEST JUMPDEST SWAP3 SWAP2 POP POP JUMP JUMPDEST PUSH32 0x54696D656F7574206E6F74207265616368656400000000000000000000000000 PUSH0 DUP3 ADD MSTORE POP JUMP JUMPDEST PUSH0 PUSH2 0x10D4 PUSH1 0x13 DUP4 PUSH2 0xD90 JUMP JUMPDEST SWAP2 POP PUSH2 0x10DF DUP3 PUSH2 0x10A0 JUMP JUMPDEST PUSH1 0x20 DUP3 ADD SWAP1 POP SWAP2 SWAP1 POP JUMP JUMPDEST PUSH0 PUSH1 0x20 DUP3 ADD SWAP1 POP DUP2 DUP2 SUB PUSH0 DUP4 ADD MSTORE PUSH2 0x1101 DUP2 PUSH2 0x10C8 JUMP JUMPDEST SWAP1 POP SWAP2 SWAP1 POP JUMP JUMPDEST PUSH32 0x4F6E6C7920746865206F70706F6E656E74732063616E2073656E642074686520 PUSH0 DUP3 ADD MSTORE PUSH32 0x6D6F6E6579000000000000000000000000000000000000000000000000000000 PUSH1 0x20 DUP3 ADD MSTORE POP JUMP JUMPDEST PUSH0 PUSH2 0x1162 PUSH1 0x25 DUP4 PUSH2 0xD90 JUMP JUMPDEST SWAP2 POP PUSH2 0x116D DUP3 PUSH2 0x1108 JUMP JUMPDEST PUSH1 0x40 DUP3 ADD SWAP1 POP SWAP2 SWAP1 POP JUMP JUMPDEST PUSH0 PUSH1 0x20 DUP3 ADD SWAP1 POP DUP2 DUP2 SUB PUSH0 DUP4 ADD MSTORE PUSH2 0x118F DUP2 PUSH2 0x1156 JUMP JUMPDEST SWAP1 POP SWAP2 SWAP1 POP JUMP JUMPDEST PUSH32 0x596F75206F6E6C79206E65656420746F2073656E64203120457468202C206E65 PUSH0 DUP3 ADD MSTORE PUSH32 0x6974686572206C657373206E6F72206D6F726500000000000000000000000000 PUSH1 0x20 DUP3 ADD MSTORE POP JUMP JUMPDEST PUSH0 PUSH2 0x11F0 PUSH1 0x33 DUP4 PUSH2 0xD90 JUMP JUMPDEST SWAP2 POP PUSH2 0x11FB DUP3 PUSH2 0x1196 JUMP JUMPDEST PUSH1 0x40 DUP3 ADD SWAP1 POP SWAP2 SWAP1 POP JUMP JUMPDEST PUSH0 PUSH1 0x20 DUP3 ADD SWAP1 POP DUP2 DUP2 SUB PUSH0 DUP4 ADD MSTORE PUSH2 0x121D DUP2 PUSH2 0x11E4 JUMP JUMPDEST SWAP1 POP SWAP2 SWAP1 POP JUMP JUMPDEST PUSH32 0x4F6E6C7920706C61796572732063616E2063616C6C20726573756C7400000000 PUSH0 DUP3 ADD MSTORE POP JUMP JUMPDEST PUSH0 PUSH2 0x1258 PUSH1 0x1C DUP4 PUSH2 0xD90 JUMP JUMPDEST SWAP2 POP PUSH2 0x1263 DUP3 PUSH2 0x1224 JUMP JUMPDEST PUSH1 0x20 DUP3 ADD SWAP1 POP SWAP2 SWAP1 POP JUMP JUMPDEST PUSH0 PUSH1 0x20 DUP3 ADD SWAP1 POP DUP2 DUP2 SUB PUSH0 DUP4 ADD MSTORE PUSH2 0x1285 DUP2 PUSH2 0x124C JUMP JUMPDEST SWAP1 POP SWAP2 SWAP1 POP JUMP INVALID LOG2 PUSH5 0x6970667358 0x22 SLT KECCAK256 MOD CALLER 0x4B SWAP9 SIGNEXTEND SWAP15 0xA9 CALLDATACOPY BYTE 0xBC MULMOD 0xB0 0x4E REVERT PUSH1 0x7F SLOAD MOD 0xAA PUSH23 0xC43AC7F2FC261943CD8FCEEB64736F6C634300081E0033 "
				},
				"gasEstimates": {
					"creation": {
						"codeDepositCost": "960400",
						"executionCost": "25263",
						"totalCost": "985663"
					},
					"external": {
						"betActive()": "2554",
						"betStartTime()": "2447",
						"bettorA()": "2617",
						"bettorB()": "2553",
						"cancelBet()": "infinite",
						"check_result()": "30963",
						"send_eth()": "28836",
						"sent(address)": "2922",
						"setBettorB(address)": "26906",
						"settle()": "infinite",
						"winner()": "2574"
					}
				},
				"methodIdentifiers": {
					"betActive()": "ea27b3fe",
					"betStartTime()": "8e46b5d0",
					"bettorA()": "f9404d0a",
					"bettorB()": "154e9cec",
					"cancelBet()": "7b6d79f1",
					"check_result()": "a1498f50",
					"send_eth()": "8ae6007a",
					"sent(address)": "7bf786f8",
					"setBettorB(address)": "1363a448",
					"settle()": "11da60b4",
					"winner()": "dfbf53ae"
				}
			},
			"storageLayout": {
				"storage": [
					{
						"astId": 3,
						"contract": "betethforbtc/bet.sol:Bet",
						"label": "bettorA",
						"offset": 0,
						"slot": "0",
						"type": "t_address_payable"
					},
					{
						"astId": 5,
						"contract": "betethforbtc/bet.sol:Bet",
						"label": "bettorB",
						"offset": 0,
						"slot": "1",
						"type": "t_address_payable"
					},
					{
						"astId": 9,
						"contract": "betethforbtc/bet.sol:Bet",
						"label": "sent",
						"offset": 0,
						"slot": "2",
						"type": "t_mapping(t_address,t_bool)"
					},
					{
						"astId": 11,
						"contract": "betethforbtc/bet.sol:Bet",
						"label": "winner",
						"offset": 0,
						"slot": "3",
						"type": "t_address_payable"
					},
					{
						"astId": 13,
						"contract": "betethforbtc/bet.sol:Bet",
						"label": "betStartTime",
						"offset": 0,
						"slot": "4",
						"type": "t_uint256"
					},
					{
						"astId": 15,
						"contract": "betethforbtc/bet.sol:Bet",
						"label": "betActive",
						"offset": 0,
						"slot": "5",
						"type": "t_bool"
					}
				],
				"types": {
					"t_address": {
						"encoding": "inplace",
						"label": "address",
						"numberOfBytes": "20"
					},
					"t_address_payable": {
						"encoding": "inplace",
						"label": "address payable",
						"numberOfBytes": "20"
					},
					"t_bool": {
						"encoding": "inplace",
						"label": "bool",
						"numberOfBytes": "1"
					},
					"t_mapping(t_address,t_bool)": {
						"encoding": "mapping",
						"key": "t_address",
						"label": "mapping(address => bool)",
						"numberOfBytes": "32",
						"value": "t_bool"
					},
					"t_uint256": {
						"encoding": "inplace",
						"label": "uint256",
						"numberOfBytes": "32"
					}
				}
			},
			"userdoc": {
				"kind": "user",
				"methods": {},
				"version": 1
			}
		}
	}
}