{
	"data": {
		"bytecode": {
			"linkReferences": {},
			"object": "6080604052348015600e575f5ffd5b5060d780601a5f395ff3fe6080604052348015600e575f5ffd5b50600436106030575f3560e01c8063645e9edf1460345780639848d8e614603c575b5f5ffd5b603a6044565b005b60426067565b005b5f5f600190505f429050605682826083565b9250606081836083565b9250505050565b5f600190505f4290505f5f9050607c83836092565b9050505050565b5f818360401b17905092915050565b5f818360401b1790509291505056fea2646970667358221220de240610365e9675ebc49a3e2bf023437cbd324e7ce6f2eebdba27f0be06e2b864736f6c634300081e0033",
			"opcodes": "PUSH1 0x80 PUSH1 0x40 MSTORE CALLVALUE DUP1 ISZERO PUSH1 0xE JUMPI PUSH0 PUSH0 REVERT JUMPDEST POP PUSH1 0xD7 DUP1 PUSH1 0x1A PUSH0 CODECOPY PUSH0 RETURN INVALID PUSH1 0x80 PUSH1 0x40 MSTORE CALLVALUE DUP1 ISZERO PUSH1 0xE JUMPI PUSH0 PUSH0 REVERT JUMPDEST POP PUSH1 0x4 CALLDATASIZE LT PUSH1 0x30 JUMPI PUSH0 CALLDATALOAD PUSH1 0xE0 SHR DUP1 PUSH4 0x645E9EDF EQ PUSH1 0x34 JUMPI DUP1 PUSH4 0x9848D8E6 EQ PUSH1 0x3C JUMPI JUMPDEST PUSH0 PUSH0 REVERT JUMPDEST PUSH1 0x3A PUSH1 0x44 JUMP JUMPDEST STOP JUMPDEST PUSH1 0x42 PUSH1 0x67 JUMP JUMPDEST STOP JUMPDEST PUSH0 PUSH0 PUSH1 0x1 SWAP1 POP PUSH0 TIMESTAMP SWAP1 POP PUSH1 0x56 DUP3 DUP3 PUSH1 0x83 JUMP JUMPDEST SWAP3 POP PUSH1 0x60 DUP2 DUP4 PUSH1 0x83 JUMP JUMPDEST SWAP3 POP POP POP POP JUMP JUMPDEST PUSH0 PUSH1 0x1 SWAP1 POP PUSH0 TIMESTAMP SWAP1 POP PUSH0 PUSH0 SWAP1 POP PUSH1 0x7C DUP4 DUP4 PUSH1 0x92 JUMP JUMPDEST SWAP1 POP POP POP POP JUMP JUMPDEST PUSH0 DUP2 DUP4 PUSH1 0x40 SHL OR SWAP1 POP SWAP3 SWAP2 POP POP JUMP JUMPDEST PUSH0 DUP2 DUP4 PUSH1 0x40 SHL OR SWAP1 POP SWAP3 SWAP2 POP POP JUMP INVALID LOG2 PUSH5 0x6970667358 0x22 SLT KECCAK256 0xDE 0x24 MOD LT CALLDATASIZE MCOPY SWAP7 PUSH22 0xEBC49A3E2BF023437CBD324E7CE6F2EEBDBA27F0BE06 0xE2 0xB8 PUSH5 0x736F6C6343 STOP ADDMOD 0x1E STOP CALLER "
		},
		"gasEstimates": {
			"creation": {
				"codeDepositCost": "43000",
				"executionCost": "91",
				"totalCost": "43091"
			},
			"external": {
				"example_no_uvdt()": "infinite",
				"example_uvdt()": "244"
			}
		},
		"methodIdentifiers": {
			"example_no_uvdt()": "645e9edf",
			"example_uvdt()": "9848d8e6"
		}
	},
	"abi": [
		{
			"inputs": [],
			"name": "example_no_uvdt",
			"outputs": [],
			"stateMutability": "view",
			"type": "function"
		},
		{
			"inputs": [],
			"name": "example_uvdt",
			"outputs": [],
			"stateMutability": "view",
			"type": "function"
		}
	]
}